:020000040800F2
:10000000700F0020F50C0008FD0C0008FF0C000824
:1000100000000000000000000000000000000000E0
:10002000000000000000000000000000010D0008BA
:100030000000000000000000030D0008B90A0008DD
:10004000070D0008070D0008070D0008070D000840
:10005000070D0008070D0008070D0008070D000830
:10006000070D0008070D0008070D0008070D000820
:10007000070D0008070D0008070D0008070D000810
:10008000070D0008070D000800000000070D00081C
:10009000070D0008070D0008070D0008070D0008F0
:1000A000070D0008070D0008070D0008070D0008E0
:1000B000070D000800000000070D00080000000008
:1000C00000F002F800F03EF80CA030C80838241800
:1000D0002D18A246671EAB4654465D46AC4201D180
:1000E00000F030F87E460F3E0FCCB6460126334274
:1000F00000D0FB1AA246AB4633431847881E0000C7
:10010000A81E0000103A02D378C878C1FAD8520766
:1001100001D330C830C101D504680C6070470000BD
:100120000023002400250026103A01D378C1FBD813
:10013000520700D330C100D50B6070471FB51FBDFB
:1001400010B510BD01F06CFE1146FFF7F7FF00F08F
:1001500025F801F084FE03B4FFF7F2FF03BC01F0C1
:1001600089FE000000BF11E000F03AFCFF23F533E8
:1001700000221146104601F0FAFB00F015FCFF23A7
:10018000F53300221146104601F0F1FBECE710B503
:10019000302000F04AFC00F00EFC10BDFFF7F7FF26
:1001A00000F048FE0423044A0021044801F0A8F8A6
:1001B00000F018FF00BFFEE75001002065010008B5
:1001C00010B504460920C006844209D10121480423
:1001D00000F095FB00210120400400F090FB30E08E
:1001E0006E48844208D10121000200F088FB002102
:1001F000200200F084FB24E06948844208D10121F8
:10020000000200F07CFB0021200200F078FB18E0E7
:100210006448844209D10121080500F070FB0021E7
:100220000120000500F06BFB0BE05F48844208D121
:100230000121880500F063FB00210120800500F00A
:100240005EFB10BDF0B50A4600210023002400BF6C
:100250003DE001258D402B4615681D402C469C42F3
:1002600034D11579012D02D01579022D16D185686A
:100270004F000326BE40B543856055794E00B5401A
:10028000866835438560858801268E40B543858024
:10029000858896798E40B6B23543858005684F00D3
:1002A0000326BE40B543056015794E00B54006688B
:1002B00035430560C5684F000326BE40B543C560A1
:1002C000D5794E00B540C6683543C560491C102934
:1002D000BFD3F0BD35490160002101710221417198
:1002E00000218171C171704708B50122120400928A
:1002F000009A0A430092009AC261C161009AC261E9
:10030000C2690092C269009208BD02460020138AA9
:100310000B40002B01D0012000E000207047014677
:10032000088A704702460020938A0B40002B01D0B8
:10033000012000E0002070470146888A70478161F3
:10034000704701857047002A01D0816100E0018576
:10035000704781827047F0B5002300244D07EE0EF0
:100360001546B5402B46CD10AE0005462035AD599B
:100370004E07F70E0F26BE40B543CE10B600074617
:100380002037BD51CD10AE003D46AD591D432C4622
:10039000CD10AD003E467451F0BD00000004004891
:1003A00000080048000C004800140048FFFF00004F
:1003B000FD48006801210843FB4908600846406881
:1003C000FA490840F849486008460068F84908407A
:1003D000F549086008460068012189048843F2490C
:1003E0000860084640683F2109048843EE49486098
:1003F0000846C06A00090001C8620846006BFF2178
:1004000054318843E84908630846406B400840007F
:1004100048630020886070470021E34A91701146CC
:100420008870704710B5024600210023002051114A
:10043000002902D1DC4C23680BE0012902D1DA4CFF
:10044000236A06E0022902D1D74C636A01E0D64C48
:10045000636BD106C90E01248C401C40002C01D0D6
:10046000012000E0002010BD38B5002000900024DD
:10047000002500BF1120FFF7D5FF05460098401C5E
:100480000090052109030098884201D0002DF1D089
:100490001120FFF7C7FF002801D0012400E000244D
:1004A000204638BD01460020BF4A1068F8230246A6
:1004B0009A431046CA001043BB4A10607047002898
:1004C00006D0B949096801221143B74A116005E015
:1004D000B549096849084900B34A116070470146A7
:1004E0000020B14A506BF82302469A431046CA00D6
:1004F0001043AD4A50637047002806D0AA49496BA3
:1005000001221143A84A516305E0A749496B4908F4
:100510004900A54A51637047002806D0A249496B9B
:1005200004229143A04A516305E09F49496B04228C
:1005300011439D4A516370479B49096A4908490024
:10054000994A11621146096A04229143964A11623E
:100550001146096A0143116270479349096A1822DA
:100560009143914A11621146096A01431162704731
:10057000002806D08C49496A012211438A4A5162F7
:1005800005E08949496A49084900874A516270472C
:10059000854A52683D231B049A43834B5A601A468E
:1005A000526803460B431A437F4B5A60704700283A
:1005B00007D07D4909680122120611437A4A116069
:1005C00006E079490968012212069143764A1160D2
:1005D000704701460020744AD06A000900010246B3
:1005E0000A431046704AD0627047002807D06E490F
:1005F00009680122D20411436B4A116006E06A497E
:1006000009680122D2049143674A11607047664924
:10061000C871704701460020634A50688008800016
:1006200002460A431046604A506070475E48406880
:100630000C2108407047014600205B4A5068F023B7
:1006400002469A43104602460A431046564A5060F4
:10065000704701460020544A506807231B02024697
:100660009A43104602460A4310464F4A506070476C
:100670004D4949680122920391434B4A516011460A
:10068000496882B21143484A51601146096B92157C
:100690009143454A11631146096B020C1143424ACA
:1006A000116370474049096B402291433E4A1163F0
:1006B0001146096B0143116370473B49096B1022D6
:1006C0009143394A11631146096B01431163704725
:1006D0003549096B89088900334A11631146096B52
:1006E000014311637047FEB5044600250026002033
:1006F0000190009000272C4840680C2108400546D6
:10070000002D04D0042D05D0082D28D105E029485E
:10071000206027E02748206024E0234840680F211C
:100720008904084006462048406801210904084021
:100730000190B00C861C0198002803D11E4870431C
:1007400020600BE01848C06A0007000F401C0090B2
:100750001848009901F0B4FA7043206002E015488F
:10076000206000BF00BF10484068F02108400546E7
:100770002D091248475D2068F84060600A484068CB
:1007800007210902084005462D0A0C48475D6068AC
:10079000F840A0600448006BFF2101310840884206
:1007A00010D00748E0601BE0001002400CB8FFF8D2
:1007B000FFFFF6FE00127A0000093D000000002055
:1007C000809FD50075484068012189030840884210
:1007D00003D0A0684008E06002E0A0688008E06004
:1007E0006E48006B40210840402802D06C482061D0
:1007F00002E00120C00320616848006B102108401E
:10080000102802D06748606101E020686061634899
:10081000006B8007800F002802D1A068A06119E05A
:100820005E48006B8007800F012802D12068A0611C
:1008300010E05A48006B8007800F022802D1800325
:10084000A06107E05548006B8007800F032801D1A5
:100850005448A061FEBD5149096A01434F4A1162E3
:100860007047002807D04D49096A0122D20311437D
:100870004A4A116206E04949096A0122D2039143BA
:10088000464A11627047002807D04449096A01228C
:1008900012041143414A116206E04049096A0122EB
:1008A000120491433D4A11627047002905D03B4A2A
:1008B00052690243394B5A6104E0384A5269824313
:1008C000364B5A617047002905D0344A9269024379
:1008D000324B9A6104E0314A926982432F4B9A610C
:1008E0007047002905D02D4AD26902432B4BDA61AB
:1008F00004E02A4AD2698243284BDA617047002912
:1009000005D0264A926A0243244B9A6204E0234AA5
:10091000926A8243214B9A627047002905D01F4A90
:10092000D26802431D4BDA6004E01C4AD26882435D
:100930001A4BDA607047002905D0184A1269024341
:10094000164B1A6104E0154A12698243134B1A616F
:100950007047002905D0114A527A02430F4B5A7250
:1009600004E00E4A527A82430C4B5A7270470B488D
:10097000406A012109060843084948627047014658
:100980000020064A92680A40002A01D0012000E0B7
:100990000020704701498872704700000010024033
:1009A0001280000000127A0010B510210920C00644
:1009B000FFF7C5FC10BD1CB501214804FFF775FF0A
:1009C0001020009001216846417101710021817160
:1009D00069460920C006FFF735FCFFF7E5FF1CBD9F
:1009E00010B510210920C006FFF7ABFC10BD0000B8
:1009F0003A4909884143491E394A516101219161AF
:100A00001146096901221143354A116100BF344979
:100A100009690122120411400029F8D030490969FE
:100A2000490849002E4A1161704710B52C4A1269D5
:100A300004239A432A4B1A61C3175B0F1B18D91062
:100A40007D22D2005143264A126902231A43244BC5
:100A50001A611A465161126901231A43204B1A6127
:100A6000C3175B0F1B185B051B0E1E4C2370224621
:100A700012787D23DB005A43184B1A8010BD1949A8
:100A800009784143491E164A51610121916111467D
:100A9000096901221143124A116100BF1049096915
:100AA0000122120411400029F8D00D4909694908B2
:100AB00049000B4A1161704710B501F005F8044672
:100AC00009480078401C08490870204601F000F8E9
:100AD00000F0A1FA00F0D9F910BD000010000020CC
:100AE00000E000E0120000202C0000200CB50020E7
:100AF0000190009077480068012109040843754976
:100B0000086000BF73480068012149040840009054
:100B10000198401C01900098002804D10521090388
:100B200001988842EED16B480068012149040840D1
:100B3000002802D00120009001E0002000900098E1
:100B4000012842D1644800681021084362490860C6
:100B500008460068012108435F4908605D48406815
:100B60005C494860084640684860084640683F2144
:100B70000904884357494860084640681121090420
:100B800008435449486008460068012109060843A3
:100B90005049086000BF4F480068012149060840DD
:100BA0000028F8D04B4840688008800049494860D8
:100BB00008464068022108434649486000BF45484E
:100BC00040680C2108400828F9D10CBD10B54148F7
:100BD0000068012108433F490860084640683F49D2
:100BE00008403C494860084600683D49084039498A
:100BF0000860084600680121890488433549086077
:100C0000084640683F210904884332494860084645
:100C1000C06A00090001C8620846006BFF21543118
:100C200088432C4908630846406B400840004863ED
:100C300000208860FFF75AFF10BDF8B5002500249A
:100C400000260027234840680C2108400546002D57
:100C500004D0042D06D0082D2AD107E021482249CE
:100C6000086029E01F482049086025E019484068CD
:100C70000F218904084004461648406801210904F0
:100C800008400646A00C841C002E04D1174860437F
:100C9000154908600BE00F48C06A0007000F471CA9
:100CA0003946104801F00CF860430F49086003E032
:100CB0000C480D49086000BF00BF06484068F0219D
:100CC000084000090A490D5C07480068E8400649E9
:100CD0000860F8BD00100240002002400CB8FFF888
:100CE000FFFFF6FE00127A001400002000093D000C
:100CF000180000200748804707480047FEE7FEE746
:100D0000FEE7FEE7FEE7FEE704480549054A064B15
:100D100070470000CD0B0008C100000870090020DA
:100D2000700F0020700B0020700B0020002400BF0B
:100D300000F0CAFE0446FB480068401CF949086000
:100D4000204600F0C5FE00F05DFFF1E700B587B07A
:100D5000032000214022F44B01930292039104905E
:100D6000F2481F23F04AFC320090F14800F023FBC8
:100D700006AAF0A11F2000F066FC07B000BD704776
:100D800004E000220270401C4A1E91B20029F8DCE7
:100D9000704730B5EB49EC48FFF7F2FF8021EB4894
:100DA000FFF7EEFFE84B1D464C3500240AE05D617D
:100DB0003F213C20C15400213D20C1544C334C35CF
:100DC000601CC4B2142CF2D3002058613F213C2097
:100DD000C15400213D20C1540020DD490860DA489B
:100DE000DC49086030BD0022DB4B1A70DB49002073
:100DF00004E000220A70491C421CD0B20428F8DB2F
:100E00000022D74B1A70D74B1A70D74B1A60D74BAA
:100E10001A6070470020D6490860D6490870D64944
:100E20000870D6490870D6490870D6490860BD498F
:100E30000860704710B500F0E1FEFFF7EBFFFFF729
:100E4000D2FFFFF7A6FFFFF79AFFFFF77FFF00F043
:100E5000D6FE10BDCA480078012808D1C5480078E0
:100E6000FF2804D2C3480078401CC249087070476C
:100E7000C549B94A1278885CC100B84A125CC24BB5
:100E80009A5C8918B74A1170704710B50024BC48A5
:100E90000078012832D100F017FE0446B5480078EA
:100EA000002804DDB3480078401EB2490870B148FC
:100EB000007800281FD1B048007800281BD1FFF728
:100EC000D7FFA8480078A6490978884213D0A548DA
:100ED000007880009D490858A349086008460068CA
:100EE000806A401C09688862A6480068401CA549C1
:100EF000086000F03FFE204600F0EAFD10BD10B58E
:100F000000249F480078012812D100F0DDFD04463E
:100F100098480078002808D197480078FF2804D224
:100F200095480078401C94490870204600F0D0FD98
:100F300010BD10B5002400F0C7FD04468D480078B0
:100F400000281FD18C48007800281BD1FFF790FFA4
:100F50008448007882490978884213D08148007813
:100F600080007A4908588049086008460068806A0D
:100F7000401C0968886283480068401C81490860F9
:100F800000F0C4FD204600F0A3FD10BD10B5002404
:100F90007B480078012824D100F096FD044676486D
:100FA000007800281ADD74480078401E72490870E5
:100FB0000846007800280DD16E480078002805D139
:100FC000204600F085FDFFF7B4FF0AE0204600F060
:100FD0007FFD06E0204600F07BFD02E0204600F0A9
:100FE00077FD10BD10B566480078002812D1FFF7D4
:100FF0003FFF5C4800785A4908705A4800788000E2
:10100000524908585849086008460068574908601E
:1010100000F061FD10BD70B5002600F039FE00F053
:1010200053FD064652480068401C5149086030464E
:1010300000F04EFD52480078012855D15348007801
:10104000002804D0012804D0022809D103E001259A
:101050000BE0002509E0012501204C49087004E05F
:10106000012500204949087000BF00BF002D00D1B4
:1010700070BD3748046833E000F026FD0646A08BBB
:10108000002829D0A08B401E80B2A083002823D145
:10109000A07F37210840002805D0A07F8843A07793
:1010A0000120E07701E00020E077A07F08210840E0
:1010B000002811D12420005D2749097808432649DA
:1010C00008702220005D2549085C2321095D084342
:1010D0002221095D214A50546469304600F0F8FC31
:1010E0002020005D1F28C7D100BFC1E7FF201F30AF
:1010F0007047704705E00B780370491C401C531E75
:101100009AB2002AF7DC70470246002005E00B780F
:101110001370491C521C431CD8B20B78002BF6D11B
:10112000137070473800002054010020FFFF0000BA
:101130002D0D000875432F4F532D49492049646CEC
:10114000650000003C060000D4020020540200208C
:101150004800002040000020300000203100002026
:101160002E0000202F000020440000203C00002022
:10117000500000202C0000202D0000203600002010
:101180003500002028000020821E00084C000020AE
:101190000146002002E0491C421CD0B20A78002A15
:1011A000F9D170477CB5002516E06946284600F065
:1011B000EFFA0646002E0DD1A8004B490C58002C22
:1011C00008D0012C06D0E1688900A068401860634F
:1011D0000198A063681CC5B21F2DE6DD7CBDFFB57C
:1011E00081B005460E4617460020009000F06CFCCA
:1011F00000903E480468002C71D03C49606908604A
:10120000009800F065FC2660202005550020A0779E
:10121000E077A0830B9860600A98E060A7600C9864
:10122000208204986082002125200155E9102220A7
:1012300001556907490F212001552220015D012038
:101240008840C1B2242001552120015D0120884041
:10125000C1B2232001550020A0622063E0626063D8
:10126000A0633F213C20015500213D20015520462F
:1012700000F00DFD204600F0C3FC00F025FC0090BE
:10128000A80019490C501A48006860610020A0614C
:1012900017480068002802D0154800688461144887
:1012A00004602420005D134909780843114908703F
:1012B0002220005D1049085C2321095D084322219A
:1012C000095D0D4A50540D480078401C0B490870C8
:1012D000009800F0FDFB002005B0F0BDFFE700988E
:1012E00000F0F6FB4220F7E7540200204000002007
:1012F000480000203000002031000020360000208F
:10130000FFB585B006460F461C460020039000F04E
:10131000DBFB0390F8480078002805DD039800F017
:10132000D7FB3C2009B0F0BDA000F44908580028C4
:101330002DD10120A100F14A5050039800F0C8FBC4
:10134000002339463046079A00F05EFC04900020E6
:101350000090019003460246029020460499FFF750
:101360003EFF0546002D06D1E548007801280CD146
:10137000FFF7DFFD09E000F0A7FB03900020A100CC
:10138000DE4A5050039800F0A3FB2846CAE70398B2
:1013900000F09EFB2820C5E7D307DB0F002B09D008
:1013A00002231340002B05D002E0491E002308C091
:1013B0000029FAD17047FFB585B01C460F9F129DDA
:1013C0000020039000F080FB0390CB4800780028B9
:1013D00005DD039800F07CFB3C2009B0F0BDA000C7
:1013E000C6490858002831D10120A100C34A5050F5
:1013F000039800F06DFB2A4638461099FFF7CCFFA2
:101400002B4605A807C800F0FFFB0490119910981F
:101410006A4623C23A4620460E9B0499FFF7DFFE38
:101420000646002E06D1B648007801280CD1FFF7F9
:1014300080FD09E000F048FB03900020A100AF4AC6
:101440005050039800F044FB3046C6E7039800F084
:101450003FFB2820C1E770B505460026A648007866
:10146000002801DD402070BD1F2D01D13E20FAE78C
:1014700000F02AFB0646FF2D03D1A2480068203069
:101480000578A8009D490C58002C04D1304600F086
:101490001FFB4320E7E7012C04D1304600F018FB86
:1014A0003D20E0E72220005D9749085C2321095D8B
:1014B00088432221095D944A50542220005D114640
:1014C000085C002806D12420015D904800788843FC
:1014D0008E4908700020A083A077E0778C480078C0
:1014E000FF2804D28A480078401C89490870304699
:1014F00000F0EEFAFFF7FDFD00F0E6FA064684483C
:101500000078002804DD82480078401E8049087079
:10151000204600F076FB7F480078401E7D49087029
:101520000020A900754A5050A069002805D16169C2
:10153000886179496069086005E0A169606948616E
:101540006169A069886175480068606173480460DA
:101550003F213C20015500213D200155304600F03F
:10156000B7FA67480078012801D1FFF7E2FC0020B4
:1015700079E7F8B5044600271F2C01D13E20F8BDBD
:10158000FF2C0BD100F0A0FA07465E48006820301F
:101590004679384600F09CFA3046F0E700F094FABD
:1015A0000746A00055490D58002D04D1384600F0DB
:1015B0008FFA4320E3E7012D04D1384600F088FA82
:1015C0003D20DCE73F2125204155384600F080FAD8
:1015D0000020D4E7FEB506460F46144600200090D2
:1015E00045480078002803DD112020700020FEBD52
:1015F00000F06AFA0090FF2E03D1424800682030C4
:101600000678B0003D490D58002D06D1009800F035
:101610005FFA432020700020E9E7012D06D10098F1
:1016200000F056FA432020700020E0E729463C31C4
:101630003846FFF769FD0190009800F049FA002054
:1016400020700198D3E7F7B582B006461446002013
:10165000019029480078002803DD1220207005B091
:10166000F0BD00F031FA0190FF2E03D1254800684B
:1016700020300678B00021490D58002D05D1019881
:1016800000F026FA43202070E9E7012D05D10198EA
:1016900000F01EFA43202070E1E70398FFF778FD81
:1016A00007460F2F05DD019800F012FA4120207047
:1016B000D5E728463C300399FFF726FD019800F056
:1016C00007FA0020207000BFC9E770B50546002664
:1016D00000F0FAF90646A80008490C58002C04D17D
:1016E000304600F0F5F9462070BD012C18D1304687
:1016F00000F0EEF94320F7E72C0000205402002010
:10170000350000203C000020310000203000002087
:101710002D0000203600002048000020400000205E
:10172000A07F0821084000282DD0A07F8843A07703
:10173000A07F002822D1A08B00281BD12420005D8F
:101740006D49097808436C4908702220005D6B4997
:10175000085C2321095D08432221095D674A505432
:10176000304600F0B5F966480078012809D1FFF746
:10177000E0FB06E0304600F0ABF902E0304600F056
:10178000A7F90020B0E7304600F0A2F94420ABE70B
:10179000FEB507460D46002000902860686000F006
:1017A00093F90090FF2F03D1564800682030077846
:1017B000B80055490C58002C04D1009800F088F965
:1017C0004320FEBD012C04D1009800F081F9432094
:1017D000F7E7207CC007C00F002804D1009800F074
:1017E00077F94520EDE70026E0680190A0680290B7
:1017F000009800F06DF900E0761C029802C8029093
:101800000029F9D0B00028600198801B8000686032
:101810000020D6E7F8B505460020009000F054F906
:101820000090FF2D05D1374800682030057801264B
:1018300008E03448006820300078A84201D1012631
:1018400000E00026A80030490C58002C04D1009874
:1018500000F03EF94820F8BD012C04D1009800F0BA
:1018600037F94320F7E72220075D2448C05D232194
:10187000095D88432149C8550846C05D002806D146
:101880002420015D1C48007888431B490870A07F14
:1018900008210843A077009800F01AF9012E01D121
:1018A000FFF747FB0020D6E7F8B505460E460027B0
:1018B00000F00AF90746FF2D03D1124800682030D6
:1018C0000578A80010490C58002C04D1384600F0C7
:1018D000FFF82920F8BD012C04D1384600F0F8F8B3
:1018E0004320F7E74C2221463046FFF703FC3846F9
:1018F00000F0EEF80020EDE730000020310000207D
:10190000350000203C0000205402002070B5054640
:10191000002667480078002800DD70BD002D24DD1A
:1019200000F0D2F8064663480068203084786248A8
:10193000005D604909682031C97888435E490855CF
:101940000846005D002808D15A4800682030017917
:101950005A4800788843594908705648006885837A
:10196000304600F0B5F8FFF7E4FA00BFD5E7FFB561
:1019700081B00F461D464E480078002802DD5520F4
:1019800005B0F0BD7D21C900694308467D21C9002D
:1019900000F096F90146E1221201019850433C22E1
:1019A0007A438218039810187D22D20050430C18F5
:1019B000260CA4B22046FFF7A9FF09E00120C003CE
:1019C000FFF7A4FF0120C003FFF7A0FF701E86B23F
:1019D000002EF3DC0020D3E770B5054600261F2D4E
:1019E00001DB2A2070BD00F06FF80646A8003449DC
:1019F0000C58002C04D1304600F06AF84320F1E77F
:101A0000012C04D1304600F063F84320EAE7A08BB4
:101A1000002804D1304600F05BF85020E2E70020B7
:101A2000A083A07F37210840002805D0A07F8843ED
:101A3000A0770120E07701E00020E077A07F082177
:101A40000840002817D12420005D1C49097808436C
:101A50001A4908702220005D1749085C2321095D9E
:101A600008432221095D144A5054304600F030F8F2
:101A7000FFF75FFA02E0304600F02AF80020B1E7F5
:101A800070B5002500F020F805460E480468284689
:101A900000F01EF8204670BD70B50446002500F029
:101AA00013F8054607480460284600F011F870BD99
:101AB0002C0000203C0000203100002030000020DD
:101AC0005402002050000020EFF3108072B67047DF
:101AD00080F31088704741488047454801210170D4
:101AE000454801680A6882F30888FFBC8046894639
:101AF00092469B4604B00FBC84468E4683F303880F
:101B000004B487B00FBC03B062B600BD72B684B037
:101B10000FB408B0EFF303837246714660460FB40A
:101B200084B04046494652465B46FFB4EFF3088016
:101B3000304909680860294880472B482B490A78B2
:101B400002702C482C490A680260106880F30888EB
:101B5000FFBC8046894692469B4604B00FBC844633
:101B60008E4683F3038804B487B00FBC03B062B61B
:101B700000BD00BF72B684B00FB408B0EFF30383AA
:101B80007246714660460FB484B04046494652469C
:101B90005B46FFB4EFF308801649096808600F48F8
:101BA0008047114811490A780270124812490A68A0
:101BB0000260106880F30888FFBC80468946924620
:101BC0009B4604B00FBC84468E4683F3038804B45E
:101BD00087B00FBC03B062B600BD00BF8D1C00080B
:101BE0008B0E00082C0000202E0000202F0000206B
:101BF000350000203C000020440000207047704762
:101C0000704770477047704770B50446104601250D
:101C10002D060560051F28462C600126F643051F8A
:101C200028462E601B4E051F28462E601A4E051FA3
:101C300028462E60194E051F28462E607610051F77
:101C400028462E60051F28462960154E051F284688
:101C50002E60144E051F28462E60134E051F284681
:101C60002E60124E051F28462E60114E051F284675
:101C70002E60104E051F28462E600F4E051F284669
:101C80002E600E4E051F28462E6070BD70477047AF
:101C90007047000012121212030303030202020231
:101CA000111111111010101009090909080808086C
:101CB00007070707060606060505050504040404CC
:101CC000002203098B422CD3030A8B4211D3002339
:101CD0009C464EE003460B433CD4002243088B4213
:101CE00031D303098B421CD3030A8B4201D39446A0
:101CF0003FE0C3098B4201D3CB01C01A5241830993
:101D00008B4201D38B01C01A524143098B4201D34C
:101D10004B01C01A524103098B4201D30B01C01A77
:101D20005241C3088B4201D3CB00C01A52418308F1
:101D30008B4201D38B00C01A524143088B4201D31E
:101D40004B00C01A5241411A00D20146524110467E
:101D500070475DE0CA0F00D04942031000D34042F3
:101D6000534000229C4603098B422DD3030A8B4229
:101D700012D3FC22890112BA030A8B420CD38901C7
:101D800092118B4208D3890192118B4204D38901AD
:101D90003AD0921100E08909C3098B4201D3CB01EB
:101DA000C01A524183098B4201D38B01C01A5241A0
:101DB00043098B4201D34B01C01A524103098B42A4
:101DC00001D30B01C01A5241C3088B4201D3CB008F
:101DD000C01A524183088B4201D38B00C01A524172
:101DE000D9D243088B4201D34B00C01A5241411A49
:101DF00000D20146634652415B10104601D3404277
:101E0000002B00D54942704763465B1000D3404227
:101E100001B50020C046C04602BD704770477047FC
:101E2000754600F023F8AE46050069465346C008E3
:101E3000C000854618B020B5FEF766FF60BC0027DD
:101E40004908B6460026C0C5C0C5C0C5C0C5C0C586
:101E5000C0C5C0C5C0C5403D49008D467047044659
:101E6000C046C0462046FEF776F90000004870479D
:101E70001009002001491820ABBEFEE72600020031
:101E80007047000001000200010003000100020091
:101E90000100040001000200010003000100020033
:101EA0000100050001000200010003000100020022
:101EB0000100040001000200010003000100020013
:101EC0000100060001000200010003000100020001
:101ED00001000400010002000100030001000200F3
:101EE00001000500010002000100030001000200E2
:101EF00001000400010002000100030001000200D3
:101F000001000700010002000100030001000200BF
:101F100001000400010002000100030001000200B2
:101F200001000500010002000100030001000200A1
:101F30000100040001000200010003000100020092
:101F40000100060001000200010003000100020080
:101F50000100040001000200010003000100020072
:101F60000100050001000200010003000100020061
:101F70000100040001000200010003000100020052
:101F800001000000A41F0008000000205400000011
:101F900004010008F81F0008540000201C0F000076
:101FA00020010008000000000102030401020304F4
:101FB0000607080900000000006CDC0200000000B9
:101FC00000000000010203040607080900000000E9
:101FD0000000000000000000000000000000000001
:101FE00000000000000000000000000000000000F1
:081FF0000000000000000000E9
:04000005080000C12E
:00000001FF
