:020000040800F2
:10000000E83F012049030008BD5F0008A114000873
:10001000B95F0008E110000827690008000000002F
:10002000000000000000000000000000890200083D
:100030000D12000800000000E5020008C965000874
:1000400063030008630300086303000863030008F8
:1000500063030008630300086303000863030008E8
:1000600063030008630300086303000863030008D8
:1000700063030008630300086303000863030008C8
:1000800063030008630300086303000863030008B8
:1000900063030008630300086303000863030008A8
:1000A0006303000863030008630300086303000898
:1000B0006303000863030008630300086303000888
:1000C0006303000863030008630300086303000878
:1000D000630300086303000865660008ED66000816
:1000E0006303000863030008630300086303000858
:1000F0006303000863030008630300086303000848
:100100006303000863030008630300086303000837
:100110006303000863030008630300086303000827
:100120006303000863030008630300086303000817
:100130006303000863030008630300086303000807
:1001400063030008630300086303000863030008F7
:1001500063030008630300086303000863030008E7
:1001600063030008630300086303000863030008D7
:1001700063030008630300086303000863030008C7
:10018000630300086303000800F002F800F06DF854
:100190000AA090E8000C82448344AAF10107DA45E2
:1001A00001D100F062F8AFF2090EBAE80F0013F0C7
:1001B000010F18BFFB1A43F001031847D8BA00001B
:1001C000F8BA00000A444FF0000C10F8013B13F09D
:1001D000070408BF10F8014B1D1108BF10F8015BA0
:1001E000641E05D010F8016B641E01F8016BF9D193
:1001F00013F0080F1EBF10F8014BAD1C0C1B09D1EA
:100200006D1E58BF01F801CBFAD505E014F8016B5B
:1002100001F8016B6D1EF9D59142D6D370470000ED
:100220000023002400250026103A28BF78C1FBD8FF
:10023000520728BF30C148BF0B607047642900F0E7
:100240001581752900F01281782900F04B8163290E
:1002500000F09183732900F09683002070471FB54A
:1002600009F084FF1FBD10B510BD00F0FBFB114667
:10027000FFF7F5FF06F0CCFD00F019FC03B4FFF723
:10028000F2FF03BC06F058FB2C4B19680868B0E875
:10029000F04F80F30988BFF36F8F4FF0000080F3B9
:1002A000118870470000000008480068006880F36B
:1002B00008884FF0000080F3148862B661B6BFF37F
:1002C0004F8FBFF36F8F00DF00BF00BF08ED00E06E
:1002D000DFF80C00016841F470010160704700BF55
:1002E00088ED00E0EFF30980BFF36F8F134B1A68BE
:1002F0001EF0100F08BF20ED108A20E9F04F1060AB
:1003000009B44FF0500080F31188BFF34F8FBFF353
:100310006F8F08F08FFF4FF0000080F3118809BC49
:1003200019680868B0E8F04F1EF0100F08BFB0EC75
:10033000108A80F30988BFF36F8F7047E4010020B3
:10034000EFF30580704700000948804709480047DF
:10035000FEE7FEE7FEE7FEE7FEE7FEE7FEE7FEE775
:10036000FEE7FEE704480549054A064B70470000D2
:10037000FD65000889010008E8390120E83F0120F7
:10038000E83B0120E83B0120704700000FB404491E
:1003900010B503AA029800F0FBFA10BC5DF814FB3C
:1003A0004C0000200FB41CB5074B06AA7B446946DD
:1003B0000090059800F0BDFA0020694600F0CCFAE4
:1003C0001CBC5DF814FB0000A905000070B50446D4
:1003D00085690068C10601D5302600E02026C007E7
:1003E00007D070BDD4E9012130469047206A401CF7
:1003F00020626D1EF6D570BD70B504468569007823
:10040000C00707D170BDD4E9012120209047206AA0
:10041000401C20626D1EF6D570BD70B50C460546B9
:10042000012A05D02878800600D5EA69002302E079
:10043000012305E05B1C934202D2E05C0028F9D165
:10044000A869E618C01AA861286A184428622846D4
:10045000FFF7BCFF04E0D5E9012114F8010B904738
:10046000B442F8D32846FFF7C7FF70BD2DE9F0412D
:100470000646002410687529314616A510D0AFF342
:100480000080002802DA404213A507E031688A079D
:1004900001D512A502E0490704D511A5012401E008
:1004A000AFF3008000210A2206F1240709E0B0FB27
:1004B000F2FCB0FBF2F302FB1C003030785418461B
:1004C000491C0028F3D123462A463046BDE8F041B6
:1004D00000F0D0B9000000002D0000002B0000004B
:1004E0002000000070B504460D4621461068AFF3A9
:1004F00000802188090502D50F4A7A4402E00E4A9D
:100500007A440E32002104F1240305E000F00F06C6
:100510000009965D5E54491C0028F7D1207800231D
:10052000000704D5702D02D009B1022311322046F4
:10053000BDE8704000F09EB938B400002DE9F05FCE
:10054000894604464FF0000ADFF874B1FB44C0F856
:1005500020A02046E1688847002874D0252806D0CE
:10056000D4E901219047206A401C2062F1E700266F
:100570005F462046E16888472028054607DB312D85
:1005800005D2781910F8200C08B10643F1E7B0073E
:1005900001D526F00406C4F81CA00027C4F818A052
:1005A0002A2D09D0284606F0C0F938B304EB870895
:1005B000303DC8F8185019E059F8041B204604EBE8
:1005C00087029161E1688847012F054618D1E069EB
:1005D000002820DA26F020061DE0D8F8180000EBED
:1005E000800005EB40003038C8F818002046E1686C
:1005F0008847054606F099F90028EED1012F0AD068
:100600002E2D08D12046E16888477F1C0546022F21
:1006100046F02006C4DBA069002803DA404246F019
:100620000106A061F00701D026F010066C2D0BD05A
:10063000682D09D04C2D39D06A2D35D0742D35D088
:100640007A2D33D016E038E0E1682F4620468847FF
:10065000B842054609D16C2F26D04FF48060E1687E
:10066000064320468847054604E06C2F1AD04FF415
:10067000807006430DB3A5F14100192802D820353A
:1006800046F400664A462946204626604E46FFF755
:10069000D5FD80B101280BD0F61D26F0070000F132
:1006A000080956E74020E4E78020D8E70020D6E795
:1006B00006F104094DE7284652E7206ABDE8F09F9D
:1006C0000EB4000010B5431C02E010F8011B71B11C
:1006D0008107FAD14FF0013202C88C1A8C4314EA18
:1006E000C211F9D0C01A0A0603D0C01E10BDC01A2C
:1006F00010BD0A0401D0801E10BD0902FCD0401EAE
:1007000010BD032A40F2308010F0030C00F0158079
:1007100011F8013BBCF1020F624498BF11F801CB04
:1007200000F8013B38BF11F8013BA2F1040298BF69
:1007300000F801CB38BF00F8013B11F0030300F0D3
:100740003981083AC0F0088051F8043B083A51F862
:1007500004CBA0E80810F5E7121D5CBF51F8043B7C
:1007600040F8043BAFF30080D20724BF11F8013BEF
:1007700011F801CB48BF11F8012B24BF00F8013B51
:1007800000F801CB48BF00F8012B704702F0FF03CF
:1007900043EA032242EA024200F040B94FF000026D
:1007A00000B5134694469646203922BFA0E80C5067
:1007B000A0E80C50B1F12001BFF4F7AF090728BF42
:1007C000A0E80C5048BF0CC05DF804EB890028BFBE
:1007D00040F8042B08BF704748BF20F8022B11F0E7
:1007E000804F18BF00F8012B704700004FF0013C0C
:1007F00050F8042B51F8043B9A4221D1A2EB0C0390
:10080000934313EACC1317D150F8042B51F8043B4F
:100810009A4215D1A2EB0C03934313EACC130BD1EC
:1008200050F8042B51F8043B9A4209D1A2EB0C0377
:10083000934313EACC13DBD04FF00000704700BFA6
:10084000D01A01BAB1FA81F101F0180122FA01F0CF
:10085000CB40C1F12001DBB2C0B2C01A2CFA01F3C7
:10086000D11A914311EAC311E6D17047704770471E
:10087000704770472DE9F0470D4699469246044669
:1008800000F124080168880604D5E06921F0100110
:10089000216000E00120A84201DD471B00E00027A5
:1008A000A1697A1902EB0900081AA0612078C00634
:1008B00002D42046FFF78AFD002608E0D4E9012192
:1008C0001AF806009047206A401C761C20624E45AC
:1008D000F4DB2078C0060AD52046FFF777FD06E056
:1008E000D4E9012130209047206A401C2062381E44
:1008F000A7F10107F4DC07E0D4E9012118F80500AD
:100900009047206A401C2062281EA5F10105F3DCF7
:100910002046FFF771FD2078000602D50220BDE8D1
:10092000F0870120FBE7000001694A1C026108789A
:10093000704700B58FB0CDE901310021059105491F
:100940007944CDE9031011466846FFF7F7FD0FB073
:1009500000BD0000E5FFFFFF0A6802F8010B0A6016
:10096000704710B5436913B1AFF3008001E0FFF7A2
:1009700054FD012010BD127800F124010A700022FC
:100980004A700122EDE711684FF0FF32E9E70000FD
:10099000074B70B50D467B44FFF7CBFF0446284656
:1009A00000F05CF810B14FF0FF3070BD204670BD14
:1009B0006B61000010B5203AC0F00B80B1E8185010
:1009C000203AA0E81850B1E81850A0E81850BFF439
:1009D000F5AF5FEA027C24BFB1E81850A0E81850D8
:1009E00044BF18C918C0BDE810405FEA827C24BF2C
:1009F00051F8043B40F8043B08BF7047D20728BFBA
:100A000031F8023B48BF11F8012B28BF20F8023B08
:100A100048BF00F8012B70474FF000020429C0F0D6
:100A2000128010F0030C3FF4BBAECCF1040CBCF10F
:100A3000020F18BF00F8012BA8BF20F8022BA1EB72
:100A40000C01FFF7ADBE5FEAC17C24BF00F8012BAB
:100A500000F8012B48BF00F8012B7047007B00F025
:100A600080007047754600F029F8AE4605006946DB
:100A7000534620F00700854618B020B5FFF772FCFA
:100A8000BDE820404FF000064FF000074FF000088F
:100A90004FF0000B21F00701AC46ACE8C009ACE810
:100AA000C009ACE8C009ACE8C0098D4670470446EF
:100AB000AFF300802046FFF7E1FB000000487047DD
:100AC000843901202DE9F04781460F4600208046F9
:100AD000054604464846FFF7F5FD00F0FF080024F0
:100AE0000EE004EBC40000EB0410204A02EB80018E
:100AF000484606F0A4FF064606B103E0601CC4B2F7
:100B0000142CEEDB00BF5EB30CE004EBC40000EB82
:100B10000410164901EB800008EB0501405C785594
:100B2000681CC5B204EBC40000EB04100F4901EBD4
:100B3000800008EB0501405C0D280BD004EBC400DD
:100B400000EB0410094901EB800008EB0501405C53
:100B50000028DAD10020785505A0FFF717FC02E045
:100B600007A0FFF713FC3046BDE8F08748310120AD
:100B700041726720666F756E64210D0A00000000E7
:100B8000417267206E6F20666F756E64210D0A00DA
:100B900070B50446204607F063F800BF07480078A8
:100BA0000028FBD0002005490870C82008F0FAF999
:100BB000204600F005F80546284670BD520000208A
:100BC00030B59FB005460024642106A8FFF7E6FD76
:100BD000142101A8FFF7E2FD294684A0FFF706FED5
:100BE00040B906A982A0FFF76DFF044614B182A0A8
:100BF000FFF7CCFB294684A0FFF7F8FD20B129467A
:100C000085A0FFF7F3FD48B906A987A0FFF75AFFB3
:100C10000446894906A806F039F9E4E0294687A088
:100C2000FFF7E4FD28B1294688A0FFF7DFFD002883
:100C300040D106A989A0FFF745FF0446002C35D016
:100C400006A97D48401C05F001FA06A97A48213022
:100C500005F0FCF906A901A805F0F8F9764941313B
:100C600001A806F013F906A901A805F0EFF97249E9
:100C7000423101A806F00AF97BA0FFF787FB6E4915
:100C8000491C7EA0FFF782FB6B4921317EA0FFF754
:100C90007DFB694890F841107EA0FFF777FB66481E
:100CA000B0F942107FA0FFF771FB9CE080A0FFF736
:100CB0006DFB98E0294682A0FFF798FD50B906A980
:100CC00082A0FFF7FFFE04465B49653106A806F0E7
:100CD000DDF888E0294680A0FFF788FD002866D16E
:100CE00006A981A0FFF7EEFE04465349443106A849
:100CF00006F0CCF806A97EA0FFF7E4FE0446002C1F
:100D000051D006A901A805F0A1F94B49453101A828
:100D100006F0BCF806A94848463005F097F906A940
:100D200045484B3005F092F906A901A805F08EF967
:100D300041495C3101A806F0A9F806A901A805F00F
:100D400085F93D49603101A806F0A0F806A901A87F
:100D500005F07CF93849643101A806F097F867A0DE
:100D6000FFF714FB344890F845106BA0FFF70EFB1B
:100D7000314946316CA0FFF709FB2F494B316DA07B
:100D8000FFF704FB2C48C16D6EA0FFF7FFFA2A485D
:100D9000016E71A0FFF7FAFA274890F8641072A06C
:100DA000FFF7F4FA1FE073A0FFF7F0FA1BE0294603
:100DB00076A0FFF71BFDB0B906A977A0FFF782FE6A
:100DC000044606A901A805F073FA1B49663101A87B
:100DD00006F05CF806A901A805F06AFA1649683120
:100DE00001A805F099FA20461FB030BD415400001B
:100DF0004F4B0D0A0000000041542073756363657A
:100E00007373210D0A00000041542B43574D4F448A
:100E1000455F4355523F000041542B43574D4F44CB
:100E2000455F4445463F00002B43574D4F44455FC7
:100E30004355523A000000001839012041542B4319
:100E4000574A41505F4355523F00000041542B43E5
:100E5000574A41505F4445463F0000002B43574AE4
:100E600041505F4355523A00636F6E6E6563742064
:100E700073756363657373210D0A0000737369648E
:100E80003A25730D0A0000006D61633A25730D0A5F
:100E9000000000006368616E6E656C3A25640D0A9F
:100EA00000000000727373693A25640D0A000000A7
:100EB000636F6E6E656374206661696C210D0A0054
:100EC00041542B4349504D55583F00002B43495046
:100ED0004D55583A0000000041542B43495053549B
:100EE00041545553000000005354415455533A00A7
:100EF0002B4349505354415455533A005443502FB7
:100F000055445020636F6E6E656374207375636320
:100F1000657373210D0A00006C696E6B5F69643A3A
:100F200025640D0A00000000747970653A25730D80
:100F30000A00000072656D6F74655F69703A257311
:100F40000D0A000072656D6F74655F706F72743AA0
:100F500025640D0A000000006C6F63616C5F706FA8
:100F600072743A25640D0A007465747970653A25C7
:100F7000640D0A005443502F55445020636F6E6E29
:100F8000656374206661696C210D0A0052656D6F9E
:100F90007465436D640000002B4950442C00000030
:100FA0001CB501241EA0FFF7F3FD07F0DDFE1E486F
:100FB0000A2100236202CDE900101CA11E4808F09E
:100FC0000DFD0446012C02D11CA0FFF7DFF92248D9
:100FD000022100234A02CDE9001020A1234808F095
:100FE000FDFC0446012C02D121A0FFF7CFF92948CE
:100FF000052100234FF40072CDE9001026A12A48F4
:1010000008F0ECFC0446012C02D128A0FFF7BEF941
:101010002F48006807F0F4FF07F0D0FE1CBD000069
:1010200041542B5253540000040000204C45445FAF
:101030005461736B00000000515E000863726561CB
:101040007465204C45445F5461736B207375636312
:10105000657373210D0A00000800002044656C616F
:101060007931306D735F5461736B00002112000899
:101070006372656174652044656C617931306D73AC
:101080005F5461736B2073756363657373210D0A1D
:10109000000000000C00002044656C6179313030A4
:1010A0006D735F5461736B000F12000863726561AA
:1010B00074652044656C61793130306D735F5461C3
:1010C000736B2073756363657373210D0A000000F1
:1010D0000000002001200149087070472C0000200A
:1010E00000BFFEE710B53C480078052871D2DFE864
:1010F00000F0031932526F003848007818B938A14F
:101100003AA000F0CFF9354801780078401C334A06
:101110001070642905D100201146087001202E4965
:10112000087056E000F07AF9012806D100202B491A
:1011300008700220284908700CE028480078401CFC
:101140002649087008460078032803DB0020087051
:10115000214908703DE02148007868B902E000208C
:1011600005F03CF900F06AF90028F8D142F2B82302
:1011700021A225A105F0D6F9184801780078401C75
:10118000164A1070642905D100201146087003200A
:10119000114908701DE000F061F9044694F844001C
:1011A000032806D100200D49087004200A49087060
:1011B0000DE00A480078401C08490870084600788D
:1011C000032804DB0020087002200349087000BFD8
:1011D00000BF00BF10BD000035000020320000201D
:1011E000686F6D653130323333380000484F4D45FC
:1011F0005F322E34470000003139322E3136382E1E
:10120000302E31323300000054435000704706E066
:1012100007F01EF904F046FF642007F0C3FEF7E76D
:1012200002E00A2007F0BEFEFBE7000051B1820099
:10123000A2F1C042126842F001038200A2F1C04252
:10124000136009E08200A2F1C0421268034B1A4009
:101250008300A3F1C0431A6070470000FEFF0F0037
:10126000D0E901121143C268114302691143426976
:10127000114382691143C2691143026A1143426AF0
:101280001143826A1143C26A1143026B114302681F
:101290009200A2F1C0421160816808290BD1016857
:1012A0008900A1F1C041096841F04002016889004C
:1012B000A1F1C0410A60416B0968426B526841EA82
:1012C0000211426B926841EA0221426B928941EA23
:1012D0000241426B128A41EA0251426B127D41EA9D
:1012E0000261426B926911430268521C9200A2F1A2
:1012F000C0421160C16AB1F5804F1BD1816B096892
:10130000826B526841EA0211826B926841EA0221C3
:10131000826B128A41EA0251826B127D41EA0261BC
:10132000826B9269114302689200A2F1C042C2F836
:10133000041107E06FF0704201688900A1F1C0411B
:10134000C1F804217047F0B50A46002100230024AB
:1013500000BF3DE0012505FA01F3156805EA030425
:101360009C4234D105684F000326BE40B54305605A
:1013700015794E00B5400668354305601579012D95
:1013800002D01579022D16D185684F000326BE4084
:10139000B543856055794E00B54086683543856014
:1013A000456801268E40B5434560456896798E4074
:1013B000B6B235434560C5684F000326BE40B5430D
:1013C000C560D5794E00B540C6683543C560491C37
:1013D0001029BFD3F0BDF0B5002300244D07ED0E5A
:1013E00002FA05F3CE1000F1200555F826504E07FD
:1013F000F70E0F26BE40B543CF1000F1200646F889
:101400002750CE1000F1200555F8265045EA030478
:10141000CE1000F1200545F82640F0BD10B503A020
:10142000FFF7B6FB0446204610BD000041542B4395
:10143000574A41505F4355523F00000010B503A08A
:10144000FFF7A6FB044890F8650010BD41542B43FC
:1014500049504D55583F00001839012010B502A0E1
:10146000FFF796FB044810BD41542B434950535499
:1014700041545553000000001839012010B503A055
:10148000FFF786FB0548007810BD000041542B4350
:10149000574D4F44455F4355523F000018390120D6
:1014A00000BFFEE730B599B004460D462B462246F4
:1014B00004A16846FEF776FF6846FFF769FB19B09E
:1014C00030BD000041542B43574A41505F435552B1
:1014D0003D222573222C22257322000030B50146BF
:1014E00001F01F04C1F34513CA0AE50205EB4315D9
:1014F0001544A8B230BD000070B504460026174858
:101500000588408845431548808846F6040188428E
:1015100016D112488079012812D100200F49887114
:101520002A2048812B2088810021084604F020FAD7
:1015300001200A4988712B2048812A20888103E0F4
:101540000021084604F014FA04F06EFC002602E0C4
:1015500003480480761CAE42FAD370BD78020020A6
:101560008000006C10B50446002C66D16C4988716F
:10157000F02008804FF4A07048800846808849F227
:10158000413188420BD06648808846F60401884283
:1015900005D06348808845F2103188421AD12C204A
:1015A0005F4908812A2048812B208881084680884D
:1015B00046F60401884205D05948808845F210312A
:1015C000884206D14FF4A070554908804FF4F0705E
:1015D0004880A1E05248808845F21051884210D1DD
:1015E0004FF430504E4908814FF4285048814FF451
:1015F0002C5088814FF4F07008804FF44870488078
:101600008AE04748808841F6631188420DD12C203A
:10161000434908812B2048812A2088814FF4F070AB
:1016200008804FF44870488076E022203C490881C9
:1016300020204881212088816EE00120384988716E
:101640004FF4A0700880F02048800846808849F256
:101650004131884205D03248808845F210318842B5
:1016600007D12C202E4908812A2048812B208881EF
:101670003FE02B48808846F60401884207D12C20A1
:10168000274908812B2048812A20888131E024487D
:10169000808845F21051884210D14FF430502049D3
:1016A00008814FF4285048814FF42C5088814FF422
:1016B000487008804FF4F07048801AE0184880881D
:1016C00041F6631188420DD12C20154908812A204A
:1016D00048812B2088814FF4487008804FF4F070C7
:1016E000488006E022200E490881212048812020E0
:1016F00088810B48808846F60401884205D0084856
:10170000808845F21031884206D14FF4F0700449C8
:1017100008804FF4A0704880002003F0B3FF10BD94
:10172000780200202DE9FF4F84B081468A460020D0
:10173000039002900698A0EB09050798A0EB0A0613
:10174000CDF80490CDF800A0002D01DD012705E0C3
:101750000DB9002702E04FF0FF376D42002E02DD89
:101760004FF0010806E016B94FF0000802E04FF014
:10177000FF387642B54201DD2C4600E034464FF09A
:10178000000B21E0009A91B2019A90B200F022F889
:101790000398284403900298304402900398A04292
:1017A00005DD0398001B03900198384401900298CE
:1017B000A04205DD0298001B029000984044009072
:1017C0000BF101001FFA80FB601C8345DADD08B0D5
:1017D000BDE8F08F30B504460D462946204604F09A
:1017E000C7F804F021FB024800880249088030BD98
:1017F0002E0000208000006CF0B504460D46164611
:101800001F462B46324629462046FFF78BFF3B46B4
:10181000224629462046FFF785FF3B463246394699
:101820002046FFF77FFF3B46324629463046FFF70A
:1018300079FFF0BD2DE9F04306460F46904600249F
:1018400045460320A0EB48093CE07A1B91B23219CF
:1018500090B2FFF7BFFF3A1B91B2721990B2FFF737
:10186000B9FF3A1991B2721990B2FFF7B3FF7A1922
:1018700091B2321990B2FFF7ADFF7A1991B2321BD3
:1018800090B2FFF7A7FF3A1991B2721B90B2FFF71F
:10189000A1FF7A1B91B2321B90B2FFF79BFF3A1B5C
:1018A00091B2721B90B2FFF795FF641CB9F1000F63
:1018B00003DAA000801D814404E0601B80000A3030
:1018C00081446D1EAC42C0DDBDE8F08370B50446B6
:1018D0000D4616465B48808849F24131884205D062
:1018E0005848808845F21031884214D155494889BA
:1018F00004F08EFA201204F07FFAE0B204F07CFAD1
:101900005049888904F084FA281204F075FAE8B284
:1019100004F072FA8CE04B48808845F210518842FE
:1019200020D14849488904F073FA201204F064FA7F
:1019300044494989491C88B204F06AFAE0B204F0CB
:101940005BFA4049888904F063FA281204F054FADB
:101950003C498989491C88B204F05AFAE8B204F07B
:101960004BFA65E03748808841F66311884228D1F8
:101970003448807920B933480088401E001B84B267
:101980003049488904F044FA201204F035FAE0B2F4
:1019900004F032FA201204F02FFAE0B204F02CFA2C
:1019A0002849888904F034FA281204F025FAE8B2AC
:1019B00004F022FA281204F01FFAE8B204F01CFA2C
:1019C00036E02048808846F6040188421DD11D4833
:1019D0008079012804D11B480088401E001B84B276
:1019E0001849488904F014FA201204F005FAE0B20C
:1019F00004F002FA1349888904F00AFA281204F064
:101A0000FBF9E8B204F0F8F912E00E4880790128F9
:101A100004D10C480088401E001B84B20949488943
:101A2000214604F00BFA07498889294604F006FA92
:101A300004480089044908804FF0D840A0F880602D
:101A400070BD0000780200207E00006C2DE9FC4F84
:101A500005460E4617469846DDF82C90002001906A
:101A60002748808846F60401884229D12448807995
:101A7000012825D1AB46354621480088C01B401EB1
:101A800086B247461E480088A0EB0B00401E1FFA96
:101A900080F800201A4988712A2048812B208881EB
:101AA00043463A4631462846CDF80090FFF7CEFF30
:101AB0000120134988712B2048812A2088811DE04C
:101AC000781B401C80B20190344615E02146284620
:101AD00003F04EFF04F0A8F94FF0000A07E04FF0C2
:101AE000D840A0F880900AF101001FFA80FA01980E
:101AF0008245F4DB601C84B24445E7DDBDE8FC8F21
:101B00007802002000B5A1B00020209001217A20A9
:101B100004F02AFB0121084604F036FB4FF4004094
:101B20001E9001208DF87C0000208DF87E000220A0
:101B30008DF87D0001208DF87F001EA9FE48FFF77B
:101B400002FC4CF233701E9002208DF87C000020C5
:101B50008DF87E0003208DF87D0001208DF87F0038
:101B60001EA9F648FFF7EFFB4FF680701E9002208B
:101B70008DF87C0000208DF87E0003208DF87D001C
:101B800001208DF87F001EA9ED48FFF7DCFB4FF424
:101B900080501E9002208DF87C0000208DF87E0081
:101BA00003208DF87D0001208DF87F001EA9E548F7
:101BB000FFF7C9FB4FF480501E9002208DF87C0087
:101BC00000208DF87E0003208DF87D0001208DF827
:101BD0007F001EA9DC48FFF7B6FB0C220021D74886
:101BE000FFF7F9FB0C220121D448FFF7F4FB0C228C
:101BF0000421D248FFF7EFFB0C220521CF48FFF765
:101C0000EAFB0C220821CD48FFF7E5FB0C22092155
:101C1000CA48FFF7E0FB0C220A21C848FFF7DBFBAC
:101C20000C220E21C548FFF7D6FB0C220F21C3481A
:101C3000FFF7D1FB0C220721C148FFF7CCFB0C2298
:101C40000821BF48FFF7C7FB0C220921BC48FFF75A
:101C5000C2FB0C220A21BA48FFF7BDFB0C220B2164
:101C6000B748FFF7B8FB0C221146B548FFF7B3FBA6
:101C70000C220D21B248FFF7AEFB0C220E21B0481A
:101C8000FFF7A9FB0C220F21AD48FFF7A4FB0C22A4
:101C90001146AC48FFF79FFB0C221146AA48FFF7FC
:101CA0009AFB0F200890002009903C200A90002009
:101CB0000B900C900D900E90092001900020029046
:101CC00008200390002004900590069007900620BD
:101CD0000F9000201090119010201290002013906F
:101CE00015901490169017904FF480501890002083
:101CF00019904FF480401A9000201B9008A81C9067
:101D000001A81D900FA8FFF7ABFA01210620FFF7ED
:101D10008DFA322004F08EFE0121002004F08EF8AE
:101D2000322004F087FE002003F070FC8749888091
:101D300008468088FF280ADB084680884FF6FF7136
:101D4000884204D081488088B0F5134F7ED1D320DB
:101D500004F05EF803F09AFB7C49888003F096FB60
:101D60007A49888003F092FB784988800846808809
:101D70004FF6FF7101EA00207449888003F086FB6A
:101D8000724989880843714988800846808849F2E9
:101D9000413188425AD0BF2004F03AF803F076FB74
:101DA0006A49888003F072FB6849888003F06EFB03
:101DB0006649888003F06AFB644988800846808809
:101DC0004FF6FF7101EA00206049888003F05EFB56
:101DD0005E49898808435D4988800846808846F6C0
:101DE000040188427AD0D42004F012F803F04EFBAC
:101DF0005649888003F04AFB5449888003F046FB2B
:101E000052498880084680884FF6FF7101EA002019
:101E10004E49888003F03AFB4C49898808434B4976
:101E200088800846808845F21031884256D04FF4A9
:101E30005A4003F0EDFF03F029FB444988804FF43A
:101E40005B4003F0E5FF03F021FB00E046E03F4983
:101E50008880084680884FF6FF7101EA00203B49E0
:101E600088804FF45C4003F0D3FF03F00FFB374949
:101E7000898808433549888008468088B0F5004F36
:101E800002D145F2105088803048808845F21051C8
:101E9000884223D0A12003F0BBFF03F0F7FA2B49BF
:101EA000888003F0F3FA29498880084680884FF635
:101EB000FF7101EA00202549888003F0E7FA2349F1
:101EC00089880843214988800846808845F26171E5
:101ED000884203D141F663101C4988801B488088E2
:101EE00049F24131884211D01848808845F21031BA
:101EF00088420BD01548808845F21051884205D0A1
:101F00001248808841F6631188422DD1104800683C
:101F100020F00F004FF02041C1F81C010846D0F816
:101F20001C0120F47060C1F81C010846D0F81C01A7
:101F300040F003000EE0000000040240000C0240EC
:101F400000100240001402400018024078020020F5
:101F50001C0100A0C1F81C010846D0F81C0140F487
:101F60000070C1F81C0128E0FE48808846F6040194
:101F7000884205D0FB4880884CF2055188421CD12C
:101F8000F948006820F00F004FF02041C1F81C0113
:101F90000846D0F81C0120F47060C1F81C01084606
:101FA000D0F81C0140F00A00C1F81C010846D0F826
:101FB0001C0140F44060C1F81C01EA488188EBA094
:101FC000FEF7E4F9E748808849F2413188427CD144
:101FD000CF2003F01DFF002003F00EFFC12003F00F
:101FE0000BFF302003F008FFED2003F011FF642009
:101FF00003F002FF032003F0FFFE122003F0FCFEBB
:10200000812003F0F9FEE82003F002FF852003F0B1
:10201000F3FE102003F0F0FE7A2003F0EDFECB205B
:1020200003F0F6FE392003F0E7FE2C2003F0E4FE77
:10203000002003F0E1FE342003F0DEFE022003F076
:10204000DBFEF72003F0E4FE202003F0D5FEEA20BB
:1020500003F0DEFE002003F0CFFE002003F0CCFEF4
:10206000C02003F0D5FE1B2003F0C6FEC12003F004
:10207000CFFE012003F0C0FEC52003F0C9FE3020D2
:1020800003F0BAFE302003F0B7FEC72003F0C0FE15
:10209000B72003F0B1FE362003F0BAFE482003F06B
:1020A000ABFE3A2003F0B4FE552003F0A5FEB120AC
:1020B00003F0AEFE002003F09FFE1A2003F09CFE0A
:1020C000B62003F0A5FE0A2000E099E003F094FE9C
:1020D000A22003F091FEF22003F09AFE002003F00C
:1020E0008BFE262003F094FE012003F085FEE02005
:1020F00003F08EFE0F2003F07FFE2A2003F07CFE0B
:10210000282003F079FE082003F076FE0E2003F06D
:1021100073FE082003F070FE542003F06DFEA9202A
:1021200003F06AFE432003F067FE0A2003F064FE1A
:102130000F2003F061FE002003F05EFE002003F09C
:102140005BFE002003F058FE002003F055FEE12066
:1021500003F05EFE002003F04FFE152003F04CFE5E
:10216000172003F049FE072003F046FE112003F07C
:1021700043FE062003F040FE2B2003F03DFE5620D8
:1021800003F03AFE3C2003F037FE052003F034FE56
:10219000102003F031FE0F2003F02EFE3F2003F04D
:1021A0002BFE3F2003F028FE0F2003F025FE2B20FE
:1021B00003F02EFE002003F01FFE002003F01CFEA3
:1021C000012003F019FE3F2003F016FE2A2003F041
:1021D0001FFE002003F010FE002003F00DFE002083
:1021E00003F00AFEEF2003F007FE112003F010FEBB
:1021F000782004F01FFC292003F00AFE03F02AB91E
:102200005848808846F6040188427CD1112003F0AA
:10221000FFFD142004F00EFCD02003F0F9FD072090
:1022200003F0EAFD422003F0E7FD1D2003F0E4FD8A
:10223000D12003F0EDFD002003F0DEFD1A2003F0B5
:10224000DBFD092003F0D8FDD22003F0E1FD0120E1
:1022500003F0D2FD222003F0CFFDC02003F0D8FD13
:10226000102003F0C9FD3B2003F0C6FD002003F061
:10227000C3FD022003F0C0FD112003F0BDFDC52009
:1022800003F0C6FD032003F0B7FDC82003F0C0FD36
:10229000002003F0B1FD252003F0AEFD212003F066
:1022A000ABFD052003F0A8FD002003F0A5FD0A20EA
:1022B00003F0A2FD652003F09FFD252003F09CFDA7
:1022C000772003F099FD502003F096FD0F2003F0D6
:1022D00093FD002003F090FDF82003F099FD01200C
:1022E00003F08AFDFE2003F093FD002003F084FD3F
:1022F000022003F081FD202003F08AFD362003F048
:1023000087FD082000E039E003F076FD3A2003F075
:102310007FFD552003F070FD2B2003F079FD002098
:1023200003F06AFD002003F067FD012003F064FD67
:102330003F2003F061FD2A2003F06AFD002003F036
:102340005BFD002003F058FD012003F055FDDF2068
:1023500003F052FD782004F06DFB292003F058FDB6
:102360004CE70000780200201C0100A0204C4344F0
:102370002049443A25780D0A00000000FE48808874
:1023800045F21031884240F07C87ED2003F040FD9B
:10239000012003F031FDFE2003F02EFDEE2003F0BE
:1023A00037FDDE2003F028FD212003F025FDF1207C
:1023B00003F02EFD012003F01FFDDF2003F028FDB8
:1023C000102003F019FDC42003F022FD8F2003F03C
:1023D00013FDC62003F01CFD002003F00DFDE220DC
:1023E00003F00AFDE22003F007FDE22003F004FD04
:1023F000BF2003F00DFDAA2003F0FEFCB02003F087
:1024000007FD0D2003F0F8FC002003F0F5FC0D2083
:1024100003F0F2FC002003F0EFFC112003F0ECFCD1
:10242000002003F0E9FC192003F0E6FC002003F093
:10243000E3FC212003F0E0FC002003F0DDFC2D2074
:1024400003F0DAFC002003F0D7FC3D2003F0D4FCBD
:10245000002003F0D1FC5D2003F0CEFC002003F04F
:10246000CBFC5D2003F0C8FC002003F0C5FCB120CC
:1024700003F0CEFC802003F0BFFC002003F0BCFC86
:102480008B2003F0B9FC002003F0B6FC962003F08B
:10249000B3FC002003F0B0FCB22003F0B9FC002034
:1024A00003F0AAFC002003F0A7FC022003F0A4FC28
:1024B000002003F0A1FC032003F09EFC002003F0A9
:1024C0009BFCB32003F0A4FC002003F095FC00204B
:1024D00003F092FC002003F08FFC002003F08CFC42
:1024E000002003F089FC002003F086FC002003F0AC
:1024F00083FC002003F080FC002003F07DFC002022
:1025000003F07AFC002003F077FC002003F074FC59
:10251000002003F071FC002003F06EFC002003F0AB
:102520006BFC002003F068FC002003F065FC002039
:1025300003F062FC002003F05FFC002003F05CFC71
:10254000002003F059FC002003F056FC002003F0AB
:1025500053FC002003F050FCB42003F059FC8B2006
:1025600003F04AFC002003F047FC962003F044FCF3
:10257000002003F041FCA12003F03EFC002003F00A
:102580003BFCB52003F044FC022003F035FC0020A6
:1025900003F032FC032003F02FFC002003F02CFC9E
:1025A000042003F029FC002003F026FCB62003F0F1
:1025B0002FFC002003F020FC002003F01DFCB720BE
:1025C00003F026FC002003F017FC002003F014FCAD
:1025D0003F2003F011FC002003F00EFC5E2003F00E
:1025E0000BFC002003F008FC642003F005FC002035
:1025F00003F002FC8C2003F0FFFB002003F0FCFB47
:10260000AC2003F0F9FB002003F0F6FBDC2003F024
:10261000F3FB002003F0F0FB702003F0EDFB002043
:1026200003F0EAFB902003F0E7FB002003F0E4FB5B
:10263000EB2003F0E1FB002003F0DEFBDC2003F0E5
:10264000DBFB002003F0D8FBB82003F0E1FB002007
:1026500003F0D2FB002003F0CFFB002003F0CCFB03
:10266000002003F0C9FB002003F0C6FB002003F0AC
:10267000C3FB002003F0C0FB002003F0BDFBBA2029
:1026800003F0C6FB242003F0B7FB002003F0B4FBEB
:10269000002003F0B1FB002003F0AEFBC12003F0EB
:1026A000B7FB202003F0A8FB002003F0A5FB54207B
:1026B00003F0A2FB002003F09FFBFF2003F09CFB34
:1026C000002003F099FBC22003F0A2FB0A2003F0D4
:1026D00093FB002003F090FB042003F08DFB00200F
:1026E00003F08AFBC32003F093FB3C2003F084FB40
:1026F000002003F081FB3A2003F07EFB002003F072
:102700007BFB392003F078FB002003F075FB3720BA
:1027100003F072FB002003F06FFB3C2003F06CFB26
:10272000002003F069FB362003F066FB002003F075
:1027300063FB322003F060FB002003F05DFB2F20E1
:1027400003F05AFB002003F057FB2C2003F054FB4E
:10275000002003F051FB292003F04EFB002003F082
:102760004BFB262003F048FB002003F045FB242010
:1027700003F042FB002001E07802002003F03CFB64
:10278000242003F039FB002003F036FB232003F064
:1027900033FB002003F030FB3C2003F02DFB002036
:1027A00003F02AFB362003F027FB002003F024FB74
:1027B000322003F021FB002003F01EFB2F2003F04A
:1027C0001BFB002003F018FB2C2003F015FB00205E
:1027D00003F012FB292003F00FFB002003F00CFB99
:1027E000262003F009FB002003F006FB242003F061
:1027F00003FB002003F000FB242003F0FDFA00207F
:1028000003F0FAFA232003F0F7FA002003F0F4FAB9
:10281000C42003F0FDFA622003F0EEFA002003F07A
:10282000EBFA052003F0E8FA002003F0E5FA842033
:1028300003F0E2FA002003F0DFFAF02003F0DCFA04
:10284000002003F0D9FA182003F0D6FA002003F094
:10285000D3FAA42003F0D0FA002003F0CDFA182018
:1028600003F0CAFA002003F0C7FA502003F0C4FABC
:10287000002003F0C1FA0C2003F0BEFA002003F0A0
:10288000BBFA172003F0B8FA002003F0B5FA952040
:1028900003F0B2FA002003F0AFFAF32003F0ACFA31
:1028A000002003F0A9FAE62003F0A6FA002003F0C6
:1028B000A3FAC52003F0ACFA322003F09DFA002001
:1028C00003F09AFA442003F097FA002003F094FAF8
:1028D000652003F091FA002003F08EFA762003F0D1
:1028E0008BFA002003F088FA882003F085FA002094
:1028F00003F082FAC62003F08BFA202003F07CFA62
:10290000002003F079FA172003F076FA002003F094
:1029100073FA012003F070FA002003F06DFAC7206B
:1029200003F076FA002003F067FA002003F064FA5F
:10293000002003F061FA002003F05EFAC82003F0E3
:1029400067FA002003F058FA002003F055FA00203F
:1029500003F052FA002003F04FFAC92003F058FAAE
:10296000002003F049FA002003F046FA002003F0AB
:1029700043FA002003F040FA002003F03DFA002063
:1029800003F03AFA002003F037FA002003F034FA9B
:10299000002003F031FA002003F02EFA002003F0AB
:1029A0002BFA002003F028FA002003F025FA00207B
:1029B00003F022FA002003F01FFA002003F01CFAB3
:1029C000E02003F025FA162003F016FA002003F0A9
:1029D00013FA1C2003F010FA002003F00DFA212056
:1029E00003F00AFA002003F007FA362003F004FA95
:1029F000002003F001FA462003F0FEF9002003F066
:102A0000FBF9522003F0F8F9002003F0F5F96420F7
:102A100003F0F2F9002003F0EFF97A2003F0ECF96B
:102A2000002003F0E9F98B2003F0E6F9002003F021
:102A3000E3F9992003F0E0F9002003F0DDF9A82084
:102A400003F0DAF9002003F0D7F9B92003F0D4F944
:102A5000002003F0D1F9C42003F0CEF9002003F0E8
:102A6000CBF9CA2003F0C8F9002003F0C5F9D22041
:102A700003F0C2F9002003F0BFF9D92003F0BCF93C
:102A8000002003F0B9F9E02003F0B6F9002003F0CC
:102A9000B3F9F32003F0B0F9002003F0ADF9E12021
:102AA00003F0B6F9162003F0A7F9002003F0A4F90B
:102AB0001C2003F0A1F9002003F09EF9222003F06E
:102AC0009BF9002003F098F9362003F095F90020D7
:102AD00003F092F9452003F08FF9002003F08CF900
:102AE000522003F089F9002003F086F9642003F0F6
:102AF00083F9002003F080F97A2003F07DF90020AB
:102B000003F07AF98B2003F077F9002003F074F9D1
:102B1000992003F071F9002003F06EF9A82003F06A
:102B20006BF9002003F068F9B92003F065F9002083
:102B300003F062F9C42003F05FF9002003F05CF9B0
:102B4000CA2003F059F9002003F056F9D22003F00F
:102B500053F9002003F050F9D82003F04DF900207C
:102B600003F04AF9E02003F047F9002003F044F9AC
:102B7000F32003F041F9002003F03EF9E22003F0D6
:102B800047F9052003F038F9002003F035F90B2050
:102B900003F032F9002003F02FF91B2003F02CF989
:102BA000002003F029F9342003F026F9002003F077
:102BB00023F9442003F020F9002003F01DF94F20F1
:102BC00003F01AF9002003F017F9612003F014F95B
:102BD000002003F011F9792003F00EF9002003F032
:102BE0000BF9882003F008F9002003F005F997207D
:102BF00003F002F9002003F0FFF8A62003F0FCF830
:102C0000002003F0F9F8B72003F0F6F8002003F0F5
:102C1000F3F8C22003F0F0F8002003F0EDF8C7202D
:102C200003F0EAF8002003F0E7F8D12003F0E4F81D
:102C3000002003F0E1F8D62003F0DEF8002003F0D6
:102C4000DBF8DD2003F0D8F8002003F0D5F8F320FE
:102C500003F0D2F8002003F0CFF8E32003F0D8F817
:102C6000052003F0C9F8002003F0C6F80A2003F09D
:102C7000C3F8002003F0C0F81C2003F0BDF80020CA
:102C800003F0BAF8332003F0B7F8002003F0B4F8EB
:102C9000442003F0B1F8002003F0AEF8502003F018
:102CA000ABF8002003F0A8F8622003F0A5F800209C
:102CB00003F0A2F8782003F09FF8002003F09CF8BE
:102CC000882003F099F8002003F096F8972003F08D
:102CD00093F8002003F090F8A62003F08DF8002070
:102CE00003F08AF8B72003F087F8002003F084F897
:102CF000C22003F081F8002003F07EF8C72003F023
:102D00007BF8002003F078F8D12003F075F800205C
:102D100003F072F8D52003F06FF8002003F06CF890
:102D2000DD2003F069F8002003F066F8F32003F0DB
:102D300063F8002003F060F8E42003F069F8012054
:102D400003F05AF8002003F057F8012003F054F87C
:102D5000002003F051F8022003F04EF8002003F0A9
:102D60004BF82A2003F048F8002003F045F83C20F7
:102D700003F042F8002003F03FF84B2003F03CF84A
:102D8000002003F039F85D2003F036F8002003F04E
:102D900033F8742003F030F8002003F02DF884207D
:102DA00003F02AF8002003F027F8932003F024F81A
:102DB000002003F021F8A22003F01EF8002003F009
:102DC0001BF8B32003F018F8002003F015F8BE201C
:102DD00003F012F8002003F00FF8C42003F00CF801
:102DE000002003F009F8CD2003F006F8002003F0DE
:102DF00003F8D32003F000F8002002F0FDFFDD20EF
:102E000002F0FAFF002002F0F7FFF32002F0F4FFD7
:102E1000002002F0F1FFE52002F0FAFF002002F0AE
:102E2000EBFF002002F0E8FF002002F0E5FF0020A9
:102E300002F0E2FF022002F0DFFF002002F0DCFFE0
:102E4000292002F0D9FF002002F0D6FF3C2002F03A
:102E5000D3FF002002F0D0FF4B2002F0CDFF002076
:102E600002F0CAFF5D2002F0C7FF002002F0C4FF9D
:102E7000742002F0C1FF002002F0BEFF842002F0A7
:102E8000BBFF002002F0B8FF932002F0B5FF002046
:102E900002F0B2FFA22002F0AFFF002002F0ACFF70
:102EA000B32002F0A9FF002002F0A6FFBE2002F02E
:102EB000A3FF002002F0A0FFC42002F09DFF00202D
:102EC00002F09AFFCD2002F097FF002002F094FF5D
:102ED000D32002F091FF002002F08EFFDC2002F0F0
:102EE0008BFF002002F088FFF32002F085FF002016
:102EF00002F082FFE62002F08BFF112002F07CFF3F
:102F0000002002F079FF342002F076FF002002F06A
:102F100073FF562002F070FF002002F06DFF762054
:102F200002F06AFF002002F067FF772002F064FFE2
:102F3000002002F061FF662002F05EFF002002F038
:102F40005BFF882002F058FF002002F055FF992017
:102F500002F052FF002002F04FFFBB2002F04CFFB6
:102F6000002002F049FF992002F046FF002002F005
:102F700043FF662002F040FF002002F03DFF552095
:102F800002F03AFF002002F037FF552002F034FF34
:102F9000002002F031FF452002F02EFF002002F059
:102FA0002BFF432002F028FF002002F025FF4420E1
:102FB00002F022FF002002F01FFFE72002F028FFAE
:102FC000322002F019FF002002F016FF552002F017
:102FD00013FF002002F010FF762002F00DFF00200A
:102FE00002F00AFF662002F007FF002002F004FF53
:102FF000672002F001FF002002F0FEFE672002F0D1
:10300000FBFE002002F0F8FE872002F0F5FE002013
:1030100002F0F2FE992002F0EFFE002002F0ECFE3A
:10302000BB2002F0E9FE002002F0E6FE992002F04B
:10303000E3FE002002F0E0FE772002F0DDFE00203B
:1030400002F0DAFE442002F0D7FE002002F0D4FEA7
:10305000562002F0D1FE002002F0CEFE232002F026
:10306000CBFE002002F0C8FE332002F0C5FE002097
:1030700002F0C2FE452002F0BFFE002002F0BCFEBE
:10308000E82002F0C5FE002002F0B6FE002002F0AB
:10309000B3FE992002F0B0FE002002F0ADFE8720C2
:1030A00002F0AAFE002002F0A7FE882002F0A4FE93
:1030B000002002F0A1FE772002F09EFE002002F028
:1030C0009BFE662002F098FE002002F095FE88200C
:1030D00002F092FE002002F08FFEAA2002F08CFE89
:1030E000002002F089FEBB2002F086FE002002F0E4
:1030F00083FE992002F080FE002002F07DFE662013
:1031000002F07AFE002002F077FE552002F074FEF5
:10311000002002F071FE552002F06EFE002002F049
:103120006BFE442002F068FE002002F065FE4420A1
:1031300002F062FE002002F05FFE552002F05CFE0D
:10314000002002F059FEE92002F062FEAA2002F0FF
:1031500053FE002002F050FE002002F04DFE002041
:1031600002F04AFE002002F053FEAA2002F044FEC4
:10317000CF2002F04DFE002002F03EFE002002F0C3
:103180003BFE002002F038FE002002F035FE002059
:1031900002F032FE002002F02FFE002002F02CFE92
:1031A000002002F029FE002002F026FE002002F09E
:1031B00023FE002002F020FE002002F01DFE002071
:1031C00002F01AFE002002F017FE002002F014FEAA
:1031D000002002F011FE002002F00EFEF02002F0AE
:1031E00017FE002002F008FE502002F005FE00202D
:1031F00002F002FE002002F0FFFD002002F0FCFDC4
:10320000F32002F005FE002002F0F6FDF92002F0A6
:10321000FFFD062002F0F0FD102002F0EDFD292058
:1032200002F0EAFD002002F0E7FD3A2002F0F0FD96
:10323000552002F0E1FD112002F0EAFD642003F0C8
:10324000F9FB292002F0E4FD352002F0E1FD002029
:1032500002F0D2FD512002F0DBFDFF2002F0CCFD98
:10326000532002F0D5FD2C2002F0C6FD552002F0BF
:10327000CFFD822002F0C0FD2C2002F0C9FD02F03B
:10328000E9B8FE48808845F2105188427ED1552128
:103290004FF4704002F0D2FDAA214FF2010002F07B
:1032A000CDFD52214FF2020002F0C8FD08214FF27D
:1032B000030002F0C3FD01214FF2040002F0BEFD45
:1032C0000D214FF4304002F0B9FD0D214BF2010009
:1032D00002F0B4FD0D214BF2020002F0AFFD3421EB
:1032E0004FF4364002F0AAFD34214BF2016002F0A7
:1032F000A5FD34214BF2026002F0A0FD0D214FF438
:10330000314002F09BFD0D214BF2011002F096FDC1
:103310000D214BF2021002F091FD34214FF43740A1
:1033200002F08CFD34214BF2017002F087FD342154
:103330004BF2027002F082FD00214FF4324002F0A5
:103340007DFD00214BF2012002F078FD00214BF2BF
:10335000022002F073FD24214FF4384002F06EFD8C
:1033600024214BF6010002F069FD24214BF60200F6
:1033700002F064FD01214FF43F4002F05FFD0F2198
:103380004FF4334002F05AFD0F2100E0FEE34BF210
:10339000013002F053FD0F214BF2023002F04EFDDE
:1033A00034214FF4394002F049FD34214BF601102D
:1033B00002F044FD34214BF6021002F03FFD0821DB
:1033C0004FF4354002F03AFD08214BF2015002F073
:1033D00035FD08214BF2025002F030FD03214FF47D
:1033E000424002F02BFD24214FF43A4002F026FD2A
:1033F00024214BF6012002F021FD24214BF602206E
:1034000002F01CFD00214FF43C4002F017FD782132
:103410004BF6014002F012FD00214BF6024002F093
:103420000DFD00214FF43D4002F008FD78214BF6E0
:10343000015002F003FD00214BF6025002F0FEFCA9
:1034400000214FF43E4002F0F9FC64214BF601608C
:1034500002F0F4FC00214FF4514002F0EFFC332164
:103460004DF2011002F0EAFC00214DF2021002F0D0
:10347000E5FC34214DF2031002F0E0FC00214DF296
:10348000041002F0DBFC3A214DF2051002F0D6FCEC
:1034900000214DF2061002F0D1FC4A214DF2071036
:1034A00002F0CCFC00214DF2081002F0C7FC5C21B8
:1034B0004DF2091002F0C2FC00214DF20A1002F098
:1034C000BDFC81214DF20B1002F0B8FC00214DF241
:1034D0000C1002F0B3FCA6214DF20D1002F0AEFC70
:1034E00000214DF20E1002F0A9FCE5214DF20F1063
:1034F00002F0A4FC01214DF2101002F09FFC1321F8
:103500004DF2111002F09AFC01214DF2121002F05E
:1035100095FC54214DF2131002F090FC01214DF264
:10352000141002F08BFC82214DF2151002F086FC83
:1035300001214DF2161002F081FCCA214DF2171044
:1035400002F07CFC02214DF2181002F077FC002101
:103550004DF2191002F072FC02214DF21A1002F025
:103560006DFC01214DF21B1002F068FC02214DF2AE
:103570001C1002F063FC34214DF21D1002F05EFCC1
:1035800002214DF21E1002F059FC67214DF21F106E
:1035900002F054FC02214DF2201002F04FFC842175
:1035A0004DF2211002F04AFC02214DF2221002F0ED
:1035B00045FCA4214DF2231002F040FC02214DF203
:1035C000241002F03BFCB7214DF2251002F036FC2E
:1035D00002214DF2261002F031FCCF214DF22710CE
:1035E00002F02CFC02214DF2281002F027FCDE2113
:1035F0004DF2291002F022FC02214DF22A1002F0B5
:103600001DFCF2214DF22B1002F018FC02214DF2AC
:103610002C1002F013FCFE214DF22D1002F00EFCD6
:1036200003214DF22E1002F009FC10214DF22F1053
:1036300002F004FC03214DF2301002F0FFFB3321B5
:103640004DF2311002F0FAFB03214DF2321002F07C
:10365000F5FB6D214DF2331002F0F0FB00214FF429
:10366000524002F0EBFB33214DF2012002F0E6FB69
:1036700000214DF2022002F0E1FB01E0780200207F
:1036800034214DF2032002F0D9FB00214DF2042039
:1036900002F0D4FB3A214DF2052002F0CFFB0021CD
:1036A0004DF2062002F0CAFB4A214DF2072002F03B
:1036B000C5FB00214DF2082002F0C0FB5C214DF259
:1036C000092002F0BBFB00214DF20A2002F0B6FBFC
:1036D00081214DF20B2002F0B1FB00214DF20C20B4
:1036E00002F0ACFBA6214DF20D2002F0A7FB002159
:1036F0004DF20E2002F0A2FBE5214DF20F2002F068
:103700009DFB01214DF2102002F098FB13214DF298
:10371000112002F093FB01214DF2122002F08EFBEA
:1037200054214DF2132002F089FB01214DF21420A7
:1037300002F084FB82214DF2152002F07FFB012173
:103740004DF2162002F07AFBCA214DF2172002F04A
:1037500075FB02214DF2182002F070FB00214DF2A2
:10376000192002F06BFB02214DF21A2002F066FBD9
:1037700001214DF21B2002F061FB02214DF21C20C1
:1037800002F05CFB34214DF21D2002F057FB0221B8
:103790004DF21E2002F052FB67214DF21F2002F075
:1037A0004DFB02214DF2202002F048FB84214DF216
:1037B000212002F043FB02214DF2222002F03EFBC9
:1037C000A4214DF2232002F039FB02214DF22420E6
:1037D00002F034FBB7214DF2252002F02FFB02212D
:1037E0004DF2262002F02AFBCF214DF2272002F0D5
:1037F00025FB02214DF2282002F020FBDE214DF2B4
:10380000292002F01BFB02214DF22A2002F016FBB8
:10381000F2214DF22B2002F011FB02214DF22C205F
:1038200002F00CFBFE214DF22D2002F007FB0321DC
:103830004DF22E2002F002FB10214DF22F2002F05B
:10384000FDFA03214DF2302002F0F8FA33214DF257
:10385000312002F0F3FA03214DF2322002F0EEFAA9
:103860006D214DF2332002F0E9FA00214FF453406C
:1038700002F0E4FA33214DF2013002F0DFFA0021C8
:103880004DF2023002F0DAFA34214DF2033002F048
:10389000D5FA00214DF2043002F0D0FA3A214DF26F
:1038A000053002F0CBFA00214DF2063002F0C6FAE4
:1038B0004A214DF2073002F0C1FA00214DF20830E2
:1038C00002F0BCFA5C214DF2093002F0B7FA002197
:1038D0004DF20A3002F0B2FA81214DF20B3002F0C3
:1038E000ADFA00214DF20C3002F0A8FAA6214DF2FB
:1038F0000D3002F0A3FA00214DF20E3002F09EFAD4
:10390000E5214DF20F3002F099FA01214DF210300D
:1039100002F094FA13214DF2113002F08FFA0121D6
:103920004DF2123002F08AFA54214DF2133002F0B7
:1039300085FA01214DF2143002F080FA82214DF215
:10394000153002F07BFA01214DF2163002F076FAC2
:10395000CA214DF2173002F071FA02214DF21830EF
:1039600002F06CFA00214DF2193002F067FA0221E0
:103970004DF21A3002F062FA01214DF21B3002F0D2
:103980005DFA02214DF21C3002F058FA34214DF25A
:103990001D3002F053FA02214DF21E3002F04EFAB1
:1039A00067214DF21F3002F049FA02214DF220301A
:1039B00002F044FA84214DF2213002F03FFA022154
:1039C0004DF2223002F03AFAA4214DF2233002F0F7
:1039D00035FA02214DF2243002F030FAB7214DF2CF
:1039E000253002F02BFA02214DF2263002F026FAA1
:1039F000CF214DF2273002F021FA02214DF228307A
:103A000002F01CFADE214DF2293002F017FA0221F1
:103A10004DF22A3002F012FAF2214DF22B3002F070
:103A20000DFA02214DF22C3002F008FAFE214DF27F
:103A30002D3002F003FA03214DF22E3002F0FEF990
:103A400010214DF22F3002F0F9F903214DF2303000
:103A500002F0F4F933214DF2313002F0EFF9032195
:103A60004DF2323002F0EAF96D214DF2333002F0BE
:103A7000E5F900214FF4544002F0E0F933214DF212
:103A8000014002F0DBF900214DF2024002F0D6F9CC
:103A900034214DF2034002F0D1F900214DF20440EF
:103AA00002F0CCF93A214DF2054002F0C7F90021AD
:103AB0004DF2064002F0C2F94A214DF2074002F0F1
:103AC000BDF900214DF2084002F0B8F95C214DF239
:103AD000094002F0B3F900214DF20A4002F0AEF9BC
:103AE00081214DF20B4002F0A9F900214DF20C406A
:103AF00002F0A4F9A6214DF20D4002F09FF9002139
:103B00004DF20E4002F09AF9E5214DF20F4002F01D
:103B100095F901214DF2104002F090F913214DF278
:103B2000114002F08BF901214DF2124002F086F9AA
:103B300054214DF2134002F081F901214DF214405D
:103B400002F07CF982214DF2154002F077F9012153
:103B50004DF2164002F072F9CA214DF2174002F000
:103B60006DF902214DF2184002F068F900214DF282
:103B7000194002F063F902214DF21A4002F05EF999
:103B800001214DF21B4002F059F900E004E302214B
:103B90004DF21C4002F052F934214DF21D4002F06A
:103BA0004DF902214DF21E4002F048F967214DF215
:103BB0001F4002F043F902214DF2204002F03EF98D
:103BC00084214DF2214002F039F902214DF22240C8
:103BD00002F034F9A4214DF2234002F02FF9022122
:103BE0004DF2244002F02AF9B7214DF2254002F0AF
:103BF00025F902214DF2264002F020F9CF214DF2A5
:103C0000274002F01BF902214DF2284002F016F97C
:103C1000DE214DF2294002F011F902214DF22A4035
:103C200002F00CF9F2214DF22B4002F007F90221CB
:103C30004DF22C4002F002F9FE214DF22D4002F02F
:103C4000FDF803214DF22E4002F0F8F810214DF25C
:103C50002F4002F0F3F803214DF2304002F0EEF86D
:103C600033214DF2314002F0E9F803214DF23240A8
:103C700002F0E4F86D214DF2334002F0DFF800214C
:103C80004FF4554002F0DAF833214DF2015002F0C2
:103C9000D5F800214DF2025002F0D0F834214DF257
:103CA000035002F0CBF800214DF2045002F0C6F8A8
:103CB0003A214DF2055002F0C1F800214DF20650B4
:103CC00002F0BCF84A214DF2075002F0B7F800218B
:103CD0004DF2085002F0B2F85C214DF2095002F0AA
:103CE000ADF800214DF20A5002F0A8F881214DF202
:103CF0000B5002F0A3F800214DF20C5002F09EF898
:103D0000A6214DF20D5002F099F800214DF20E500F
:103D100002F094F8E5214DF20F5002F08FF80121E6
:103D20004DF2105002F08AF813214DF2115002F0BA
:103D300085F801214DF2125002F080F854214DF225
:103D4000135002F07BF801214DF2145002F076F886
:103D500082214DF2155002F071F801214DF21650FA
:103D600002F06CF8CA214DF2175002F067F80221F8
:103D70004DF2185002F062F800214DF2195002F095
:103D80005DF802214DF21A5002F058F801214DF26F
:103D90001B5002F053F802214DF21C5002F04EF875
:103DA00034214DF21D5002F049F802214DF21E500F
:103DB00002F044F867214DF21F5002F03FF8022153
:103DC0004DF2205002F03AF884214DF2215002F0D9
:103DD00035F802214DF2225002F030F8A4214DF2C4
:103DE000235002F02BF802214DF2245002F026F865
:103DF000B7214DF2255002F021F802214DF2265054
:103E000002F01CF8CF214DF2275002F017F80221E2
:103E10004DF2285002F012F8DE214DF2295002F046
:103E20000DF802214DF22A5002F008F8F2214DF26D
:103E30002B5002F003F802214DF22C5001F0FEFF4E
:103E4000FE214DF22D5001F0F9FF03214DF22E50CD
:103E500001F0F4FF10214DF22F5001F0EFFF03218C
:103E60004DF2305001F0EAFF33214DF2315001F0B4
:103E7000E5FF03214DF2325001F0E0FF6D214DF2DC
:103E8000335001F0DBFF00214FF4564001F0D6FF24
:103E900033214DF2016001F0D1FF00214DF20260AB
:103EA00001F0CCFF34214DF2036001F0C7FF002187
:103EB0004DF2046001F0C2FF3A214DF2056001F0BD
:103EC000BDFF00214DF2066001F0B8FF4A214DF21E
:103ED000076001F0B3FF00214DF2086001F0AEFF72
:103EE0005C214DF2096001F0A9FF00214DF20A604A
:103EF00001F0A4FF81214DF20B6001F09FFF002132
:103F00004DF20C6001F09AFFA6214DF20D6001F018
:103F100095FF00214DF20E6001F090FFE5214DF27A
:103F20000F6001F08BFF01214DF2106001F086FF60
:103F300013214DF2116001F081FF01214DF2126059
:103F400001F07CFF54214DF2136001F077FF012155
:103F50004DF2146001F072FF82214DF2156001F004
:103F60006DFF01214DF2166001F068FFCA214DF28C
:103F7000176001F063FF02214DF2186001F05EFF4F
:103F800000214DF2196001F059FF02214DF21A6033
:103F900001F054FF01214DF21B6001F04FFF02219F
:103FA0004DF21C6001F04AFF34214DF21D6001F01A
:103FB00045FF02214DF21E6001F040FF67214DF2E6
:103FC0001F6001F03BFF02214DF2206001F036FF3F
:103FD00084214DF2216001F031FF02214DF2226077
:103FE00001F02CFFA4214DF2236001F027FF0221F4
:103FF0004DF2246001F022FFB7214DF2256001F05F
:104000001DFF02214DF2266001F018FFCF214DF275
:10401000276001F013FF02214DF2286001F00EFF2E
:10402000DE214DF2296001F009FF02214DF22A60E4
:1040300001F004FFF2214DF22B6001F0FFFE02219E
:104040004DF22C6001F0FAFEFE214DF22D6001F0E0
:10405000F5FE03214DF22E6001F0F0FE10214DF22D
:104060002F6001F0EBFE03214DF2306001F0E6FE1F
:1040700033214DF2316001F0E1FE03214DF2326057
:1040800001F0DCFE6D214DF2336001F0D7FE5521C9
:104090004FF4704001F0D2FEAA214FF2010001F06E
:1040A000CDFE52214FF2020001F0C8FE08214FF26E
:1040B000030001F0C3FE00214FF2040001F0BEFE38
:1040C000CC214FF4314001F0B9FE00214BF2011038
:1040D00001F0B4FE05214FF4364001F0AFFE70212F
:1040E0004FF4374001F0AAFE70214BF2017001F04D
:1040F000A5FE01214FF4384001F0A0FE03214BF64C
:10410000010001F09BFE03214BF6020001F096FE38
:1041100003214BF6030001F091FE02214FF43C40D5
:1041200001F08CFE00214BF6014001F087FE0021DA
:104130004BF6024001F082FED0214FF4494001F0DD
:104140007DFE02214CF6011001F078FE50214CF664
:10415000021001F073FE50214CF6031001F06EFEC8
:1041600050214CF6041001F069FE00214FF4545028
:1041700001F064FE55214FF4685001F05FFE4FF4EA
:10418000885001F045FE782002F070FC4FF4245076
:1041900001F03EFE01F05EB9FE48808849F225310B
:1041A00088427DD147F6F001E52001F047FE4FF44B
:1041B0008071012001F042FE4FF4E061022001F025
:1041C0003DFE41F23001032001F038FE00210420C1
:1041D00001F034FE40F20221082001F02FFE002100
:1041E000092001F02BFE00210A2001F027FE00210A
:1041F0000C2001F023FE00210D2001F01FFE002104
:104200000F2001F01BFE0021102001F017FE0721F6
:10421000112001F013FE0021122001F00FFE0021F9
:10422000132001F00BFE0021072001F007FE41F2F0
:104230009061102001F002FE40F22721112001F0D0
:10424000FDFD9D21122001F0F9FD4FF4C85113200E
:1042500001F0F4FD2521292001F0F0FD0D212B2096
:1042600001F0ECFD0721302001F0E8FD40F20331C0
:10427000312001F0E3FD0321322001F0DFFD40F2A7
:104280000621352001F0DAFD0821362001F0D6FDA7
:1042900040F20641372001F0D1FD4FF4417100E0BA
:1042A00058E0382001F0CAFD0721392001F0C6FD91
:1042B00040F202613C2001F0C1FD08213D2001F0E7
:1042C000BDFD0021502001F0B9FDEF21512001F08A
:1042D000B5FD0021522001F0B1FD40F23F11532005
:1042E00001F0ACFD4FF42741602001F0A7FD012152
:1042F000612001F0A3FD00216A2001F09FFD002153
:10430000802001F09BFD0021812001F097FD00211C
:10431000822001F093FD0021832001F08FFD002118
:10432000842001F08BFD0021852001F087FD102104
:10433000902001F083FD4FF4C061922001F07EFDDA
:1043400040F23311072001F079FD2221002001F015
:1043500075FD1FE78F48808849F2283188427DD15A
:1043600041F28F01EC2001F069FD41F23421EF2090
:1043700001F064FD4FF48071012001F05FFD4FF406
:10438000E061022001F05AFD41F23001032001F00A
:1043900055FD0021042001F051FD40F202210820CA
:1043A00001F04CFD0021092001F048FD00210A2008
:1043B00001F044FD01210C2001F040FD00210D2001
:1043C00001F03CFD00210F2001F038FD00211020FC
:1043D00001F034FD0721112001F030FD00211220F1
:1043E00001F02CFD0021132001F028FD0121072000
:1043F00001F024FD322002F01DFB41F2904110201B
:1044000001F01CFD40F22721112001F017FD3220A0
:1044100002F010FB8A21122001F010FD322002F080
:1044200009FB4FF4D051132001F008FD062129208B
:1044300001F004FD0D212B2001F000FD322002F0DF
:10444000F9FA0021202001F0F9FC0021212001F0DF
:10445000F5FC322002F0EEFA002100E075E0302099
:1044600001F0ECFC40F20461312001F0E7FC40F285
:104470000531322001F0E2FC0021352001F0DEFCA4
:1044800040F60941362001F0D9FC4FF40171372084
:1044900001F0D4FC40F20131382001F0CFFC40F2B1
:1044A0000771392001F0CAFC00213C2001F0C6FC54
:1044B00040F60A213D2001F0C1FC322002F0BAFA98
:1044C0000021502001F0BAFCEF21512001F0B6FC90
:1044D0000021522001F0B2FC40F23F11532001F0C4
:1044E000ADFC4FF42741602001F0A8FC01216120C0
:1044F00001F0A4FC00216A2001F0A0FC0021802032
:1045000001F09CFC0021812001F098FC0021822018
:1045100001F094FC0021832001F090FC0021842014
:1045200001F08CFC0021852001F088FC10219020F6
:1045300001F084FC4FF4C061922001F07FFC40F256
:104540003311072001F07AFC24E61248808849F2F2
:10455000203188427ED10021084601F06FFC4FF4E3
:104560008071012001F06AFC4FF4E061022001F04B
:1045700065FC41F23001032001F060FC00210420C1
:1045800001F05CFC40F20221082001F057FC002100
:10459000092001E07802002001F050FC00210A20EF
:1045A00001F04CFC01210C2001F048FC00210D2001
:1045B00001F044FC00210F2001F040FC322002F009
:1045C00039FA40F20111072001F038FC322002F0E4
:1045D00031FA4FF48651102001F030FC07211120F0
:1045E00001F02CFC4FF48871122001F027FC4FF4ED
:1045F0003061132001F022FC0021292001F01EFC73
:1046000044F210012B2001F019FC0021502001F090
:1046100015FCEF21512001F011FC0021522001F086
:104620000DFC40F23F11532001F008FC4FF41C51E7
:10463000602001F003FC0121612001F0FFFB00215B
:104640006A2001F0FBFB0021802001F0F7FB002134
:10465000812000E030E001F0F1FB0021822001F038
:10466000EDFB0021832001F0E9FB0021842001F013
:10467000E5FB0021852001F0E1FB1021902001F0F5
:10468000DDFB0021922001F0D9FB0121932001F0F4
:10469000D5FB4FF48871952001F0D0FB00219720C5
:1046A00001F0CCFB0021982001F0C8FB40F273110F
:1046B000072001F0C3FB6DE5FE48808849F23131E7
:1046C00088427DD141F21401E72001F0B7FB4FF49D
:1046D0008071012001F0B2FB4FF40071022001F063
:1046E000ADFB41F23801032001F0A8FB40F20221AA
:1046F000082001F0A3FB0021092001F09FFB00210D
:104700000A2001F09BFB00210C2001F097FB002107
:104710000D2001F093FB00210F2001F08FFB002101
:10472000102001F08BFB0721112001F087FB0021F5
:10473000122001F083FB0021132001F07FFBC82031
:1047400002F078F941F29061102001F077FB40F21D
:104750002721112001F072FB322002F06BF90C21AD
:10476000122001F06BFB322002F064F94FF400617B
:10477000132001F063FB1121292001F05FFB0B21C5
:104780002B2001F05BFB322002F054F900212020A5
:1047900001F054FB40F23F11212001F04FFB0021BA
:1047A000302001F04BFB4FF48371312001F046FBC8
:1047B0000021322001F042FB4FF40171352000E06E
:1047C00064E001F03BFB41F20A61362001F036FB68
:1047D00040F20771372001F031FB4FF4837138202C
:1047E00001F02CFB40F20771392001F027FB40F269
:1047F00002413C2001F022FB40F60F413D2001F038
:104800001DFB0021502001F019FBEF21512001F088
:1048100015FB0021522001F011FB40F23F11532003
:1048200001F00CFB4FF41C51602001F007FB01214B
:10483000612001F003FB00216A2001F0FFFA002152
:10484000802001F0FBFA0021812001F0F7FA00211D
:10485000822001F0F3FA0021832001F0EFFA002119
:10486000842001F0EBFA0021852001F0E7FA102105
:10487000902001F0E3FA4FF4C061922001F0DEFADB
:1048800040F23311072001F0D9FA83E48948808887
:1048900045F2084188427DD14FF48071012001F03A
:1048A000CDFA4FF4E061022001F0C8FA41F2300184
:1048B000032001F0C3FA0021042001F0BFFA40F206
:1048C0000721082001F0BAFA0021092001F0B6FA08
:1048D00000210A2001F0B2FA00210C2001F0AEFA0A
:1048E00000210D2001F0AAFA00210F2001F0A6FA04
:1048F000142002F09FF841F2B061102001F09EFAFE
:104900000121112001F09AFA0121172001F096FAF5
:104910004FF49C71122001F091FA4FF400611320C2
:1049200001F08CFA0921292001F088FA09212A20B6
:1049300001F084FA0021A42001F080FA0021502027
:1049400001F07CFAEF21512001F078FA0021522089
:1049500001F074FA40F23F11532001F06FFA4FF466
:104960001C51602001F06AFA0121612001F066FA11
:1049700000216A2001F062FA0021802001F05EFA35
:104980000021812001F05AFA0021822001F056FA1C
:10499000002100E024E0832001F050FA002184206F
:1049A00001F04CFA0021852001F048FA13219020F3
:1049B00001F044FA0021922001F040FA03219320F3
:1049C00001F03CFA4FF48871952001F037FA40F27B
:1049D0007311072001F032FA322002F02BF8B8E40C
:1049E0003448808841F2055188427DD1002107205A
:1049F00001F024FA322002F01DF84FF48E711220DB
:104A000001F01CFA0121A42001F018FA0F2108205E
:104A100001F014FA08210A2001F010FA08210D20F3
:104A200001F00CFA40F20771302001F007FA07217B
:104A3000312001F003FA40F20361322001F0FEF967
:104A40004FF4E061332001F0F9F940F20221342003
:104A500001F0F4F90221352001F0F0F941F60F716F
:104A6000362001F0EBF940F20771372001F0E6F94A
:104A70000021382001F0E2F90021392001F0DEF9AF
:104A800040F207713A2001F0D9F900213B2001F0F2
:104A9000D5F907213C2001F0D1F900213D2001F09A
:104AA000CDF9322001F0C6FF0121072001F0C6F93F
:104AB000012101E078020020172001F0BFF9322027
:104AC00001F0B8FF4FF4BD51102001F0B7F940F2EA
:104AD0001721112001F0B2F94FF48F71122001F06B
:104AE000ADF94FF4706100E098E0132001F0A6F9F1
:104AF00000212A2001F0A2F90A21292001F09EF9C3
:104B00004FF49F71122001F099F90021502001F01B
:104B100095F9EF21512001F091F90021522001F087
:104B20008DF940F23F11532001F088F94FF41C51E8
:104B3000602001F083F90121612001F07FF900215B
:104B40006A2001F07BF90021802001F077F9002133
:104B5000812001F073F90021822001F06FF900211A
:104B6000832001F06BF90021842001F067F9002116
:104B7000852001F063F91321902001F05FF94FF4D3
:104B80004071922001F05AF90521932001F056F965
:104B90000021952001F052F90021972001F04EF9F3
:104BA0000021982001F04AF94FF48071012001F0B2
:104BB00045F94FF4E061022001F040F941F238017B
:104BC000032001F03BF90021042001F037F9002116
:104BD0000C2001F033F900210F2001F02FF9002102
:104BE000202001F02BF90021212001F027F92121BB
:104BF000072001F023F9142001F01CFF6121072098
:104C000001F01CF9142001F015FF40F27311072088
:104C100001F014F9142001F00DFF95E4FE4880889E
:104C20004BF2055188427CD10021084601F006F97B
:104C30000021084601F002F90021084601F0FEF8C3
:104C40000021084601F0FAF80121A42001F0F6F84D
:104C5000142001F0EFFE4FF41C51602001F0EEF83B
:104C600040F20221082001F0E9F84FF405713020EC
:104C700001F0E4F843F21571312001F0DFF840F261
:104C80000461322001F0DAF840F61661332001F0B9
:104C9000D5F842F21121342001F0D0F84FF4A85198
:104CA000352001F0CBF848F20751362001F0C6F864
:104CB00041F20741372001F0C1F841F203413820A9
:104CC00001F0BCF82021392001F0B8F81A21902019
:104CD00001F0B4F80021102001F0B0F807211120F4
:104CE00001F0ACF80021122001F0A8F800211320F7
:104CF00001F0A4F8142001F09DFE4FF4E6611020AD
:104D000001F09CF840F23711112001F097F81420BF
:104D100001F090FE4FF4DC71122001F08FF81420A6
:104D200000E085E001F086FE4FF47061132001F091
:104D300085F880212A2001F081F84821292001F0FE
:104D40007DF8142001F076FE4FF48071012001F00F
:104D500075F84FF4E061022001F070F841F238017B
:104D6000032001F06BF840F20221082001F066F800
:104D700000210A2001F062F800210C2001F05EF809
:104D800000210D2001F05AF830210E2001F056F8D4
:104D90000021502001F052F8EF21512001F04EF88F
:104DA0000021522001F04AF840F23F11532001F057
:104DB00045F84FF41C51602001F040F801216120BA
:104DC00001F03CF800216A2001F038F81121902010
:104DD00001F034F84FF4C061922001F02FF840F256
:104DE0000241932001F02AF80221942001F026F8D4
:104DF000142001F01FFE0121072001F01FF81420EC
:104E000001F018FE6121072001F018F840F273113B
:104E1000072001F013F80021202001F00FF80021F5
:104E2000212001F00BF82221002001F007F811E306
:104E3000794880884CF2055188427CD1002108468F
:104E400000F0FCFF0021084600F0F8FF142001F0FC
:104E5000F1FD0021084600F0F1FF0021084600F0B6
:104E6000EDFF0021084600F0E9FF0021084600F0B0
:104E7000E5FF0121A42000F0E1FF142001F0DAFD9C
:104E80004FF41C51602000F0D9FF40F606010820C5
:104E900000F0D4FF40F20371302000F0CFFF012179
:104EA000312000F0CBFF0421322000F0C7FF4FF487
:104EB0008171332000F0C2FF4FF44071342000F0C4
:104EC000BDFF40F20311352000F0B8FF1F2136204E
:104ED00000F0B4FF40F20371372000F0AFFF012172
:104EE000382000F0ABFF0421392000F0A7FF152186
:104EF000902000F0A3FF4FF48261102000F09EFF8D
:104F000040F24721112000F099FF4FF4DE7112208A
:104F100000F094FF4FF46061132000F08FFF7820C1
:104F200001F088FD4FF48071012000F087FF4FF4FD
:104F30000071022000E052E000F080FF41F23001F9
:104F4000032000F07BFF08210A2000F077FF0021FA
:104F50000C2000F073FF20210E2000F06FFF0021D5
:104F60000F2000F06BFF0021202000F067FF0021E0
:104F7000212000F063FF3D212A2000F05FFF142074
:104F800001F058FD2D21292000F058FF002150206C
:104F900000F054FF4DF2EF01512000F04FFF0021CF
:104FA000522000F04BFF40F23F11532000F046FF2B
:104FB0000021612000F042FF00216A2000F03EFF46
:104FC0004FF44071922000F039FF0521932000F04A
:104FD00035FF4FF48071072000F030FF3AE20E48B1
:104FE000808844F2315188427ED10121002000F0B6
:104FF00025FF0A2001F01EFD41F22861102000F07B
:105000001DFF0E21122000F019FF40F63921132058
:1050100000F014FF0A2001E07802002001F00AFDF0
:105020004021112000F00AFF5021152000F006FF5A
:105030000A2001F0FFFC1E21122000F0FFFE0A20D2
:1050400001F0F8FC4FF4B151102000F0F7FE42F6E9
:105050003921132000F0F2FE0A2001F0EBFC4FF49E
:105060008071012000F0EAFE4FF44071022000F050
:10507000E5FE41F23801032000F0E0FE40F202219B
:10508000082000F0DBFE08210A2000F0D7FE0021F6
:10509000302000F0D3FE40F20241312000F0CEFE7D
:1050A0004FF48371322000F0C9FE40F203513320E7
:1050B00000F0C4FE4FF48271342000F0BFFE40F2D5
:1050C0000131352000F0BAFE40F20771362000F0C1
:1050D000B5FE40F20531372000F0B0FE4FF402710A
:1050E000382000F0ABFE00E03EE040F60B713920C6
:1050F00000F0A4FE0221412000F0A0FE4FF41C515C
:10510000602000F09BFE0121612000F097FE4FF42B
:105110000471902000F092FE4FF48571922000F00F
:105120008DFE0421932000F089FE4FF48071A020B1
:1051300000F084FE0121072000F080FE21210720DD
:1051400000F07CFE2321072000F078FE33210720A9
:1051500000F074FE40F23311072000F06FFE0021D2
:10516000A02000F06BFE75E1C048808844F2355104
:1051700088427CD13021152000F060FE10219A2059
:1051800000F05CFE2021112000F058FE43F228417F
:10519000102000F053FE0221122000F04FFE41F2D9
:1051A0003801132000F04AFE282001F043FC1221B0
:1051B000084600F043FE282001F03CFC43F2204169
:1051C000102000F03BFE43F23801132000F036FEC1
:1051D000462001F02FFC0021302000F02FFE40F28D
:1051E0000241312000F02AFE40F20731322000F067
:1051F00025FE4FF44171332000F020FE04213420BD
:1052000000F01CFE40F20141352000F017FE40F294
:105210000771362000F012FE40F20531372000F011
:105220000DFE4FF4C261382000F008FE4FF4C26159
:10523000392000F003FE4FF48071012000F0FEFDE4
:105240004FF44071022000F0F9FD41F230010320DB
:1052500000F0F4FD40F60801082000F0EFFD082101
:105260000A2000F0EBFD4FF41C51602000E033E019
:1052700000F0E4FD0121612000F0E0FD4FF49F719A
:10528000902000F0DBFD4FF48071922000F0D6FDFD
:105290004FF48071932000F0D1FD4FF44051A020D5
:1052A00000F0CCFD1021A32000F0C8FD0121072053
:1052B00000F0C4FD2121072000F0C0FD23210720BC
:1052C00000F0BCFD3321072000F0B8FD40F233119F
:1052D000072000F0B3FDBDE06448808841F663110B
:1052E0008842F8D1E22000F093FD1D2000F084FDFB
:1052F000022000F081FD042000F07EFD642001F01A
:10530000B5FBE02000F084FD012000F075FD0A20CF
:1053100001F090FBE02000F07BFD032000F06CFD2D
:105320000C2001F087FB012000F072FD0A2001F043
:1053300081FBE62000F06CFD2F2000F05DFDFF20DA
:1053400000F05AFDFF2000F057FDB02000F060FD96
:10535000202000F051FD002000F04EFD032000F061
:105360004BFD40F21F3000F047FD012000F044FDEE
:1053700040F2DF1000F040FD002000F03DFDB420C1
:1053800000F046FD042000F037FD40F21F4000F021
:1053900033FD002000F030FD2E2000F02DFD002018
:1053A00000F02AFD002000F027FD002000F024FD81
:1053B000002000F021FDB62000F02AFD022000F0C0
:1053C0001BFD4FF4037000F017FD002000F014FDEA
:1053D000172000F011FD152000F00EFD002000F058
:1053E0000BFD002000F008FDF02000F011FD03206F
:1053F00000F002FD292000F00BFDD02000F008FD98
:10540000002000F0F9FCBE2000F002FD052000F0B5
:10541000F3FCFE2000F0F0FC012000F0EDFC002089
:1054200000F0EAFC002000F0E7FC002000F0E4FCC3
:10543000B82000F0EDFC032000F0DEFC012000F0BD
:10544000DBFCBA2000F0E4FC012000F0D5FC642075
:1054500000F0E8F80020FCF785F801200449086016
:105460004FF6FF70FCF748F821B000BD780200202D
:10547000BC82404210B50246012000E050430B00C0
:10548000A1F10104E1B2F9D110BD000008B5034853
:1054900000880090BDF8000008BD00008000006C8E
:1054A0002DE9F04105460E4600240027A046564847
:1054B0000088A84203DD54484088B04202DC002046
:1054C000BDE8F0813146284600F052FA4E48808807
:1054D00049F24131884211D04B48808846F6040198
:1054E00088420BD04848808845F21031884205D068
:1054F0004548808841F66311884203D12E2000F090
:1055000087FC0DE04048808845F21051884204D164
:105510004FF4385000F07CFC02E0222000F078FCD0
:105520003948808849F22031884202D1022001F0B6
:10553000E3FCFFF7ABFF04463348808841F6631174
:10554000884201D12046BBE7022001F0D5FCFFF7DD
:105550009DFF04462C48808849F2413188420BD097
:105560002948808845F21031884205D02648808835
:1055700045F2105188420AD1022001F0BDFCFFF72C
:1055800085FF8046E7B24FF6FF7000EA07271E4806
:10559000808849F22531884216D01B48808844F221
:1055A0003551884210D018488088091F88420BD096
:1055B000154880884BF20551884205D012488088F2
:1055C0004CF20551884201D1204679E70E48808887
:1055D00049F2413188420BD00B48808845F21031A6
:1055E000884205D00848808845F21051884207D18A
:1055F000E012C002B91240EA411040EAE8205FE739
:105600002046FBF76BFF5BE77802002010B50446ED
:10561000204600F0FDFB052001F028FAFFF736FFD9
:1056200010BD000070B52DED048B0446BE2000F0C7
:10563000EFFB052000F0E0FB204604F086FC41EC87
:10564000190B9FED0E0B53EC102B04F091FC41EC69
:10565000180B04F04DFC85B2284600F0CDFB01206C
:1056600000F0CAFBFF2000F0C7FB002000F0C4FBE5
:10567000002000F0C1FBBDEC048B70BD6666666661
:1056800066660440F0B5054600240027B7488079D7
:1056900001280BD1B548808846F60401884205D020
:1056A000B248808841F66311884208D1AF488079BA
:1056B000F0B9AE48808841F66311884218D1082DB0
:1056C00015D2DFE805F00406080A0C0E10120625B4
:1056D0000DE007250BE0042509E0052507E001257D
:1056E00005E0002503E0032501E0022500BF00BF1F
:1056F0009E48808849F24131884217D09B48808873
:1057000046F60401884211D09848808845F210314D
:1057100088420BD09548808845F21051884205D0C8
:105720009248808841F6631188427DD1082D1CD2B1
:10573000DFE805F00406090C0F12151800BF14E08D
:1057400044F0800411E044F040040EE044F0C00452
:105750000BE044F0200408E044F0600405E044F06D
:10576000A00402E044F0E00400BF00BF7F4880884E
:1057700045F21051884202D14FF4585700E03627C5
:105780007A48808845F2103188420DD07748808869
:1057900045F21051884207D07448808841F6631161
:1057A000884201D044F008047048808846F604011D
:1057B000884201D144F002042146384600F03EFB05
:1057C0006A48808841F6631188421DD004F02000A9
:1057D00068B16648008865494988884214DA634898
:1057E0000688408861490880084646800CE05F488A
:1057F00000885E494988884206DD5C480688408802
:105800005A490880084646805848808845F2105119
:10581000884254D15549488900F0FAFA002000F036
:10582000EBFA5249498900E078E0491C88B200F05F
:10583000EFFA002000F0E0FA4C494989891C88B24F
:1058400000F0E6FA49490988491EC1F30F2000F02B
:10585000D3FA46494989C91C88B200F0D9FA4349AC
:105860000978491EC8B200F0C7FA4049888900F09B
:10587000CFFA002000F0C0FA3C498989491C88B25F
:1058800000F0C6FA002000F0B7FA38498989891C6F
:1058900088B200F0BDFA35494988491EC1F30F208E
:1058A00000F0AAFA31498989C91C88B200F0B0FA1F
:1058B0002E498978491EC8B200F09EFA55E02B495E
:1058C000488900F0A5FA002000F096FA002000F0C8
:1058D00093FA26490988491EC1F30F2000F08CFA7B
:1058E00022490978491EC8B200F086FA1F49888902
:1058F00000F08EFA002000F07FFA002000F07CFA21
:105900001A494988491EC1F30F2000F075FA17495A
:105910008978491EC8B200F06FFA26E0082D1CD223
:10592000DFE805F004070A0D0F12151844F03004E3
:1059300013E044F0100410E044F020040DE000BF38
:105940000BE044F0380408E044F0280405E044F09B
:10595000180402E044F0080400BF00BF032744F429
:1059600080542146384600F069FAF0BD78020020E4
:1059700030B504460D466748808849F24131884277
:1059800005D06448808845F21031884214D16149BD
:10599000488900F03DFA201200F02EFAE0B200F043
:1059A0002BFA5C49888900F033FA281200F024FAB7
:1059B000E8B200F021FAABE05648808846F60401D0
:1059C00088421DD153488079012804D1514800886C
:1059D000401E001B84B24F49488900F019FA20127A
:1059E00000F00AFAE0B200F007FA4A49888900F0AC
:1059F0000FFA281200F000FAE8B200F0FDF987E093
:105A00004448808841F66311884247D141488079F3
:105A1000A8B940480088401E001B84B23D4948890F
:105A200000F0F6F9002000F0E7F9002000F0E4F9BA
:105A3000201200F0E1F9E0B200F0DEF916E035499D
:105A4000488900F0E5F9201200F0D6F9E0B200F044
:105A5000D3F930490988491EC1F30F2000F0CCF971
:105A60002C490978491EC8B200F0C6F9294988892D
:105A700000F0CEF9281200F0BFF9E8B200F0BCF94E
:105A800024494988491EC1F30F2000F0B5F9214986
:105A90008978491EC8B200F0AFF939E01D48808806
:105AA00045F21051884220D11A49488900F0B0F9D6
:105AB000201200F0A1F917494989491C88B200F069
:105AC000A7F9E0B200F098F91249888900F0A0F92E
:105AD000281200F091F90F498989491C88B200F019
