:020000040800F2
:1000000048350120F9020008A9510008A90B000891
:10001000A5510008B10900084F5700080000000072
:10002000000000000000000000000000390200088D
:10003000B50900080000000095020008955400086A
:100040001303000813030008130300081303000838
:100050001303000813030008130300081303000828
:100060001303000813030008130300081303000818
:100070001303000813030008130300081303000808
:1000800013030008130300081303000813030008F8
:1000900013030008130300081303000813030008E8
:1000A00013030008130300081303000813030008D8
:1000B00013030008130300081303000813030008C8
:1000C00013030008130300081303000813030008B8
:1000D0001303000831550008130300081303000838
:1000E0001303000813030008130300081303000898
:1000F0001303000813030008130300081303000888
:100100001303000813030008130300081303000877
:100110001303000813030008130300081303000867
:100120001303000813030008130300081303000857
:100130001303000813030008130300081303000847
:100140001303000813030008130300081303000837
:100150001303000813030008130300081303000827
:100160001303000813030008130300081303000817
:100170001303000813030008130300081303000807
:10018000130300081303000800F002F800F044F81D
:100190000AA090E8000C82448344AAF10107DA45E2
:1001A00001D100F039F8AFF2090EBAE80F0013F0F0
:1001B000010F18BFFB1A43F0010318471493000006
:1001C00034930000103A24BF78C878C1FAD8520797
:1001D00024BF30C830C144BF04680C6070470000C1
:1001E0000023002400250026103A28BF78C1FBD840
:1001F000520728BF30C148BF0B607047642900F028
:10020000E580782900F01E81002070471FB507F0B7
:100210005DFD1FBD10B510BD00F036FB1146FFF7A8
:10022000F5FF05F0E5FC00F054FB03B4FFF7F2FF27
:1002300003BC05F095FA00002C4B19680868B0E87B
:10024000F04F80F30988BFF36F8F4FF0000080F309
:10025000118870470000000008480068006880F3BB
:1002600008884FF0000080F3148862B661B6BFF3CF
:100270004F8FBFF36F8F00DF00BF00BF08ED00E0BE
:10028000DFF80C00016841F470010160704700BFA5
:1002900088ED00E0EFF30980BFF36F8F134B1A680E
:1002A0001EF0100F08BF20ED108A20E9F04F1060FB
:1002B00009B44FF0500080F31188BFF34F8FBFF3A4
:1002C0006F8F06F069FD4FF0000080F3118809BCC4
:1002D00019680868B0E8F04F1EF0100F08BFB0ECC6
:1002E000108A80F30988BFF36F8F70474C0000209D
:1002F000EFF3058070470000094880470948004730
:10030000FEE7FEE7FEE7FEE7FEE7FEE7FEE7FEE7C5
:10031000FEE7FEE704480549054A064B7047000022
:10032000C954000889010008482F012048350120E0
:100330004831012048310120704700000FB40449C2
:1003400010B503AA029800F035FA10BC5DF814FB52
:10035000440000200FB41CB5074B06AA7B44694635
:100360000090059800F00DFA0020694600F01CFA94
:100370001CBC5DF814FB00004904000070B5044685
:1003800085690068C10601D5302600E02026C00737
:1003900007D070BDD4E9012130469047206A401C47
:1003A00020626D1EF6D570BD70B504468569007873
:1003B000C00707D170BDD4E9012120209047206AF1
:1003C000401C20626D1EF6D570BD00002DE9F04185
:1003D0000646002410687529314616A510D0AFF3E3
:1003E0000080002802DA404213A507E031688A073E
:1003F00001D512A502E0490704D511A5012401E0A9
:10040000AFF3008000210A2206F1240709E0B0FBC7
:10041000F2FCB0FBF2F302FB1C00303078541846BB
:10042000491C0028F3D123462A463046BDE8F04156
:1004300000F048B9000000002D0000002B00000073
:100440002000000070B504460D4621461068AFF349
:1004500000802188090502D50F4A7A4402E00E4A3D
:100460007A440E32002104F1240305E000F00F0667
:100470000009965D5E54491C0028F7D120780023BE
:10048000000704D5702D02D009B102231132204695
:10049000BDE8704000F016B9389000002DE9F05F1B
:1004A000894604464FF0000ADFF824B1FB44C0F847
:1004B00020A02046E168884700287DD0252806D066
:1004C000D4E901219047206A401C2062F1E7002511
:1004D0005F462046E16888472028064607DB312E24
:1004E00005D2B81910F8200C08B10543F1E7A807A8
:1004F00001D525F00405C4F81CA00027C4F818A0F5
:100500002A2E09D0304605F024F938B304EB8708C9
:10051000303EC8F8186019E059F8041B204604EB77
:1005200087029161E1688847012F064618D1E0698A
:10053000002820DA25F020051DE0D8F8180000EB8F
:10054000800006EB40003038C8F818002046E1680B
:100550008847064605F0FDF80028EED1012F0AD0A5
:100560002E2E08D12046E16888477F1C0646022FC0
:1005700045F02005C4DBA069002803DA404245F0BD
:100580000105A061E80701D025F01005A6B1A6F18C
:100590004100192802D8203645F400654A46314604
:1005A000204625604D46FFF729FE60B1012807D09F
:1005B000ED1D25F0070000E007E000F1080978E7ED
:1005C00005F1040975E730467AE7206ABDE8F09F37
:1005D0000E900000032A40F2308010F0030C00F06F
:1005E000158011F8013BBCF1020F624498BF11F86D
:1005F00001CB00F8013B38BF11F8013BA2F1040226
:1006000098BF00F801CB38BF00F8013B11F003039D
:1006100000F0E280083AC0F0088051F8043B083A44
:1006200051F804CBA0E80810F5E7121D5CBF51F8A3
:10063000043B40F8043BAFF30080D20724BF11F81D
:10064000013B11F801CB48BF11F8012B24BF00F882
:10065000013B00F801CB48BF00F8012B704702F0C6
:10066000FF0343EA032242EA024200F0E9B84FF0F6
:10067000000200B5134694469646203922BFA0E8F2
:100680000C50A0E80C50B1F12001BFF4F7AF0907FE
:1006900028BFA0E80C5048BF0CC05DF804EB8900EF
:1006A00028BF40F8042B08BF704748BF20F8022B32
:1006B00011F0804F18BF00F8012B7047704770474A
:1006C000704770472DE9F0470D469946924604461B
:1006D00000F124080168880604D5E06921F01001C2
:1006E000216000E00120A84201DD471B00E0002757
:1006F000A1697A1902EB0900081AA0612078C006E6
:1007000002D42046FFF73AFE002608E0D4E9012192
:100710001AF806009047206A401C761C20624E455D
:10072000F4DB2078C0060AD52046FFF727FE06E056
:10073000D4E9012130209047206A401C2062381EF5
:10074000A7F10107F4DC07E0D4E9012118F805005E
:100750009047206A401C2062281EA5F10105F3DCA9
:100760002046FFF721FE2078000602D50220BDE8D2
:10077000F0870120FBE7000001694A1C026108784C
:10078000704700B58FB0CDE90131002105910549D1
:100790007944CDE9031011466846FFF77FFE0FB09C
:1007A00000BD0000E5FFFFFF0A6802F8010B0A60C8
:1007B00070470000074B70B50D467B44FFF7E1FF23
:1007C0000446284600F05CF810B14FF0FF3070BDD1
:1007D000204670BD3B51000010B5203AC0F00B80A0
:1007E000B1E81850203AA0E81850B1E81850A0E835
:1007F0001850BFF4F5AF5FEA027C24BFB1E818508F
:10080000A0E8185044BF18C918C0BDE810405FEAFE
:10081000827C24BF51F8043B40F8043B08BF70477A
:10082000D20728BF31F8023B48BF11F8012B28BF7F
:1008300020F8023B48BF00F8012B70474FF0000240
:100840000429C0F0128010F0030C3FF412AFCCF179
:10085000040CBCF1020F18BF00F8012BA8BF20F850
:10086000022BA1EB0C01FFF704BF5FEAC17C24BFA0
:1008700000F8012B00F8012B48BF00F8012B70474E
:10088000007B00F080007047754600F029F8AE4606
:1008900005006946534620F00700854618B020B58C
:1008A000FFF738FDBDE820404FF000064FF000078D
:1008B0004FF000084FF0000B21F00701AC46ACE808
:1008C000C009ACE8C009ACE8C009ACE8C0098D4675
:1008D00070470446AFF300802046FFF7A6FC0000F7
:1008E00000487047E82E01201CB5012405F0EEFFFA
:1008F0001348022100230A02CDE9001011A1144877
:1009000006F01CFE0446012C02D112A0FFF716FDD2
:100910001748022100230A02CDE9001015A118484A
:1009200006F00CFE0446012C02D116A0FFF706FDCE
:100930001B48006806F016F905F0F2FF1CBD000028
:10094000040000204C45445F5461736B00000000BC
:1009500045510008637265617465204C45445F54DD
:1009600061736B2073756363657373210D0A0000F7
:10097000080000204C43445F5461736B000000008A
:10098000794F0008637265617465204C43445F547D
:1009900061736B2073756363657373210D0A0000C7
:1009A0000000002001200149087070472800002045
:1009B00000BFFEE77047000051B18200A2F1C042C3
:1009C000126842F001038200A2F1C042136009E004
:1009D0008200A2F1C0421268034B1A408300A3F1C7
:1009E000C0431A6070470000FEFF0F00D0E90112FB
:1009F0001143C2681143026911434269114382697C
:100A00001143C2691143026A1143426A1143826A67
:100A10001143C26A1143026B114302689200A2F1B2
:100A2000C0421160816808290BD101688900A1F1D9
:100A3000C041096841F0400201688900A1F1C0414C
:100A40000A60416B0968426B526841EA0211426BCD
:100A5000926841EA0221426B928941EA0241426B6B
:100A6000128A41EA0251426B127D41EA0261426BF5
:100A7000926911430268521C9200A2F1C0421160B7
:100A8000C16AB1F5804F1BD1816B0968826B5268D6
:100A900041EA0211826B926841EA0221826B128A5A
:100AA00041EA0251826B127D41EA0261826B9269D6
:100AB000114302689200A2F1C042C2F8041107E09B
:100AC0006FF0704201688900A1F1C041C1F80421B2
:100AD0007047F0B50A4600210023002400BF3DE026
:100AE000012505FA01F3156805EA03049C4234D197
:100AF00005684F000326BE40B543056015794E00DA
:100B0000B5400668354305601579012D02D0157989
:100B1000022D16D185684F000326BE40B54385607F
:100B200055794E00B5408668354385604568012695
:100B30008E40B5434560456896798E40B6B23543E0
:100B40004560C5684F000326BE40B543C560D579F2
:100B50004E00B540C6683543C560491C1029BFD357
:100B6000F0BDF0B5002300244D07ED0E02FA05F3A9
:100B7000CE1000F1200555F826504E07F70E0F262F
:100B8000BE40B543CF1000F1200646F82750CE10E6
:100B900000F1200555F8265045EA0304CE1000F177
:100BA000200545F82640F0BD00BFFEE770B50446BD
:100BB000002617480588408845431548808846F632
:100BC0000401884216D112488079012812D10020F0
:100BD0000F4988712A2048812B20888100210846EE
:100BE00004F02EF801200A4988712B2048812A2020
:100BF000888103E00021084604F022F804F08EFA10
:100C0000002602E003480480761CAE42FAD370BD91
:100C1000E00000208000006C10B50446002C66D176
:100C20006C498871F02008804FF4A0704880084615
:100C3000808849F2413188420BD06648808846F668
:100C40000401884205D06348808845F2103188420B
:100C50001AD12C205F4908812A2048812B208881C5
:100C60000846808846F60401884205D059488088A5
:100C700045F21031884206D14FF4A07055490880E2
:100C80004FF4F0704880A1E05248808845F210513E
:100C9000884210D14FF430504E4908814FF428500B
:100CA00048814FF42C5088814FF4F07008804FF445
:100CB000487048808AE04748808841F6631188423E
:100CC0000DD12C20434908812B2048812A2088817E
:100CD0004FF4F07008804FF44870488076E022208E
:100CE0003C49088120204881212088816EE0012034
:100CF000384988714FF4A0700880F0204880084679
:100D0000808849F24131884205D03248808845F2D6
:100D10001031884207D12C202E4908812A20488191
:100D20002B2088813FE02B48808846F604018842CA
:100D300007D12C20274908812B2048812A2088812F
:100D400031E02448808845F21051884210D14FF498
:100D50003050204908814FF4285048814FF42C50DE
:100D600088814FF4487008804FF4F07048801AE092
:100D70001848808841F6631188420DD12C2015490E
:100D800008812A2048812B2088814FF448700880F0
:100D90004FF4F070488006E022200E49088121209F
:100DA0004881202088810B48808846F604018842CB
:100DB00005D00848808845F21031884206D14FF4AA
:100DC000F070044908804FF4A0704880002003F0C0
:100DD000C1FD10BDE000002070B504460D4616466A
:100DE0005B48808849F24131884205D05848808864
:100DF00045F21031884214D15549488904F082F9EE
:100E0000201204F073F9E0B204F070F950498889B7
:100E100004F078F9281204F069F9E8B204F066F9F0
:100E20008CE04B48808845F21051884220D14849D7
:100E3000488904F067F9201204F058F944494989B7
:100E4000491C88B204F05EF9E0B204F04FF9404961
:100E5000888904F057F9281204F048F93C49898937
:100E6000491C88B204F04EF9E8B204F03FF965E09D
:100E70003748808841F66311884228D13448807908
:100E800020B933480088401E001B84B2304948898D
:100E900004F038F9201204F029F9E0B204F026F940
:100EA000201204F023F9E0B204F020F928498889DF
:100EB00004F028F9281204F019F9E8B204F016F940
:100EC000281204F013F9E8B204F010F936E02048D3
:100ED000808846F6040188421DD11D48807901288A
:100EE00004D11B480088401E001B84B21849488961
:100EF00004F008F9201204F0F9F8E0B204F0F6F872
:100F00001349888904F0FEF8281204F0EFF8E8B2DB
:100F100004F0ECF812E00E488079012804D10C4866
:100F20000088401E001B84B209494889214604F00C
:100F3000FFF807498889294604F0FAF8044800892F
:100F4000044908804FF0D840A0F8806070BD0000D0
:100F5000E00000207E00006C00B5A1B000202090D1
:100F600001217A2004F068F90121084604F074F99F
:100F70004FF400401E9001208DF87C0000208DF879
:100F80007E0002208DF87D0001208DF87F001EA9D3
:100F9000FE48FFF79EFD4CF233701E9002208DF844
:100FA0007C0000208DF87E0003208DF87D0001205C
:100FB0008DF87F001EA9F648FFF78BFD4FF6807075
:100FC0001E9002208DF87C0000208DF87E0003200A
:100FD0008DF87D0001208DF87F001EA9ED48FFF7F8
:100FE00078FD4FF480501E9002208DF87C00002088
:100FF0008DF87E0003208DF87D0001208DF87F00A4
:101000001EA9E548FFF765FD4FF480501E900220B1
:101010008DF87C0000208DF87E0003208DF87D0087
:1010200001208DF87F001EA9DC48FFF752FD0C223D
:101030000021D748FFF795FD0C220121D448FFF786
:1010400090FD0C220421D248FFF78BFD0C220521D4
:10105000CF48FFF786FD0C220821CD48FFF781FD20
:101060000C220921CA48FFF77CFD0C220A21C8483E
:10107000FFF777FD0C220E21C548FFF772FD0C2209
:101080000F21C348FFF76DFD0C220721C148FFF770
:1010900068FD0C220821BF48FFF763FD0C220921DF
:1010A000BC48FFF75EFD0C220A21BA48FFF759FD44
:1010B0000C220B21B748FFF754FD0C221146B5480E
:1010C000FFF74FFD0C220D21B248FFF74AFD0C221D
:1010D0000E21B048FFF745FD0C220F21AD48FFF768
:1010E00040FD0C221146AC48FFF73BFD0C22114697
:1010F000AA48FFF736FD0F200890002009903C20F9
:101100000A9000200B900C900D900E9009200190F9
:101110000020029008200390002004900590069083
:10112000079006200F900020109011901020129030
:101130000020139015901490169017904FF4805043
:101140001890002019904FF480401A9000201B90B6
:1011500008A81C9001A81D900FA8FFF747FC0121CB
:101160000620FFF729FC322004F05EFB012100205D
:1011700003F0DEFF322004F057FB002003F0AEFB4B
:101180008749888008468088FF280ADB08468088CF
:101190004FF6FF71884204D081488088B0F5134F24
:1011A0007ED1D32003F0AEFF03F08EFB7C49888014
:1011B00003F08AFB7A49888003F086FB78498880AF
:1011C000084680884FF6FF7101EA00207449888044
:1011D00003F07AFB72498988084371498880084680
:1011E000808849F2413188425AD0BF2003F08AFFFB
:1011F00003F06AFB6A49888003F066FB68498880CF
:1012000003F062FB6649888003F05EFB64498880D6
:10121000084680884FF6FF7101EA00206049888007
:1012200003F052FB5E49898808435D49888008467F
:10123000808846F6040188427AD0D42003F062FF09
:1012400003F042FB5649888003F03EFB54498880F6
:1012500003F03AFB52498880084680884FF6FF71B8
:1012600001EA00204E49888003F02EFB4C49898812
:1012700008434B4988800846808845F210318842EF
:1012800056D04FF45A4003F03DFF03F01DFB444994
:1012900088804FF45B4003F035FF03F015FB00E05E
:1012A00046E03F498880084680884FF6FF7101EA92
:1012B00000203B4988804FF45C4003F023FF03F09B
:1012C00003FB374989880843354988800846808868
:1012D000B0F5004F02D145F2105088803048808828
:1012E00045F21051884223D0A12003F00BFF03F0F8
:1012F000EBFA2B49888003F0E7FA294988800846F1
:1013000080884FF6FF7101EA00202549888003F0AC
:10131000DBFA234989880843214988800846808868
:1013200045F26171884203D141F663101C498880FF
:101330001B48808849F24131884211D01848808882
:1013400045F2103188420BD01548808845F2105183
:10135000884205D01248808841F6631188422DD119
:101360001048006820F00F004FF02041C1F81C0128
:101370000846D0F81C0120F47060C1F81C01084632
:10138000D0F81C0140F003000EE000000004024011
:10139000000C0240001002400014024000180240FD
:1013A000E00000201C0100A0C1F81C010846D0F894
:1013B0001C0140F40070C1F81C0128E0FE48808840
:1013C00046F60401884205D0FB4880884CF205515E
:1013D00088421CD1F948006820F00F004FF02041EE
:1013E000C1F81C010846D0F81C0120F47060C1F857
:1013F0001C010846D0F81C0140F00A00C1F81C018D
:101400000846D0F81C0140F44060C1F81C01EA48CD
:101410008188EBA0FEF792FFE748808849F24131CE
:1014200088427CD1CF2003F06DFE002003F05EFEE9
:10143000C12003F05BFE302003F058FEED2003F0E6
:1014400061FE642003F052FE032003F04FFE1220E1
:1014500003F04CFE812003F049FEE82003F052FE29
:10146000852003F043FE102003F040FE7A2003F0B5
:101470003DFECB2003F046FE392003F037FE2C2042
:1014800003F034FE002003F031FE342003F02EFE82
:10149000022003F02BFEF72003F034FE202003F09F
:1014A00025FEEA2003F02EFE002003F01FFE0020A0
:1014B00003F01CFEC02003F025FE1B2003F016FEE7
:1014C000C12003F01FFE012003F010FEC52003F031
:1014D00019FE302003F00AFE302003F007FEC7207B
:1014E00003F010FEB72003F001FE362003F00AFEE1
:1014F000482003F0FBFD3A2003F004FE552003F0E2
:10150000F5FDB12003F0FEFD002003F0EFFD1A20F1
:1015100003F0ECFDB62003F0F5FD0A2000E099E0B1
:1015200003F0E4FDA22003F0E1FDF22003F0EAFD68
:10153000002003F0DBFD262003F0E4FD012003F092
:10154000D5FDE02003F0DEFD0F2003F0CFFD2A20C3
:1015500003F0CCFD282003F0C9FD082003F0C6FDF0
:101560000E2003F0C3FD082003F0C0FD542003F05B
:10157000BDFDA92003F0BAFD432003F0B7FD0A200A
:1015800003F0B4FD0F2003F0B1FD002003F0AEFD29
:10159000002003F0ABFD002003F0A8FD002003F0C5
:1015A000A5FDE12003F0AEFD002003F09FFD152016
:1015B00003F09CFD172003F099FD072003F096FD32
:1015C000112003F093FD062003F090FD2B2003F083
:1015D0008DFD562003F08AFD3C2003F087FD052099
:1015E00003F084FD102003F081FD0F2003F07EFD49
:1015F0003F2003F07BFD3F2003F078FD0F2003F038
:1016000075FD2B2003F07EFD002003F06FFD002010
:1016100003F06CFD012003F069FD3F2003F066FD3F
:101620002A2003F06FFD002003F060FD002003F08E
:101630005DFD002003F05AFDEF2003F057FD11205F
:1016400003F060FD782004F0EFF8292003F05AFD44
:1016500003F02AB95848808846F6040188427CD1B4
:10166000112003F04FFD142004F0DEF8D02003F029
:1016700049FD072003F03AFD422003F037FD1D200D
:1016800003F034FDD12003F03DFD002003F02EFDDA
:101690001A2003F02BFD092003F028FDD22003F0CF
:1016A00031FD012003F022FD222003F01FFDC020A8
:1016B00003F028FD102003F019FD3B2003F016FD78
:1016C000002003F013FD022003F010FD112003F0B1
:1016D0000DFDC52003F016FD032003F007FDC82013
:1016E00003F010FD002003F001FD252003F0FEFCB7
:1016F000212003F0FBFC052003F0F8FC002003F0A0
:10170000F5FC0A2003F0F2FC652003F0EFFC252035
:1017100003F0ECFC772003F0E9FC502003F0E6FC3A
:101720000F2003F0E3FC002003F0E0FCF82003F0BE
:10173000E9FC012003F0DAFCFE2003F0E3FC0020CA
:1017400003F0D4FC022003F0D1FC202003F0DAFCEB
:10175000362003F0D7FC082000E039E003F0C6FC97
:101760003A2003F0CFFC552003F0C0FC2B2003F0FF
:10177000C9FC002003F0BAFC002003F0B7FC0120F4
:1017800003F0B4FC3F2003F0B1FC2A2003F0BAFCC4
:10179000002003F0ABFC002003F0A8FC012003F0C4
:1017A000A5FCDF2003F0A2FC782004F03DF82920FE
:1017B00003F0A8FC4CE70000E00000201C0100A0A2
:1017C000204C43442049443A25780D0A000000008B
:1017D000FE48808845F21031884240F07C87ED2039
:1017E00003F090FC012003F081FCFE2003F07EFC5E
:1017F000EE2003F087FCDE2003F078FC212003F0CC
:1018000075FCF12003F07EFC012003F06FFCDF206B
:1018100003F078FC102003F069FCC42003F072FC94
:101820008F2003F063FCC62003F06CFC002003F063
:101830005DFCE22003F05AFCE22003F057FCE220BA
:1018400003F054FCBF2003F05DFCAA2003F04EFC23
:10185000B02003F057FC0D2003F048FC002003F0FB
:1018600045FC0D2003F042FC002003F03FFC11205A
:1018700003F03CFC002003F039FC192003F036FC97
:10188000002003F033FC212003F030FC002003F0A3
:101890002DFC2D2003F02AFC002003F027FC3D2026
:1018A00003F024FC002003F021FC5D2003F01EFC6B
:1018B000002003F01BFC5D2003F018FC002003F067
:1018C00015FCB12003F01EFC802003F00FFC00206B
:1018D00003F00CFC8B2003F009FC002003F006FC55
:1018E000962003F003FC002003F000FCB22003F07C
:1018F00009FC002003F0FAFB002003F0F7FB0220B4
:1019000003F0F4FB002003F0F1FB032003F0EEFBF7
:10191000002003F0EBFBB32003F0F4FB002003F006
:10192000E5FB002003F0E2FB002003F0DFFB0020DA
:1019300003F0DCFB002003F0D9FB002003F0D6FB12
:10194000002003F0D3FB002003F0D0FB002003F0C5
:10195000CDFB002003F0CAFB002003F0C7FB0020F2
:1019600003F0C4FB002003F0C1FB002003F0BEFB2A
:10197000002003F0BBFB002003F0B8FB002003F0C5
:10198000B5FB002003F0B2FB002003F0AFFB00200A
:1019900003F0ACFB002003F0A9FB002003F0A6FB42
:1019A000002003F0A3FB002003F0A0FBB42003F011
:1019B000A9FB8B2003F09AFB002003F097FB9620F5
:1019C00003F094FB002003F091FBA12003F08EFBB9
:1019D000002003F08BFBB52003F094FB022003F002
:1019E00085FB002003F082FB032003F07FFB002037
:1019F00003F07CFB042003F079FB002003F076FB6E
:101A0000B62003F07FFB002003F070FB002003F002
:101A10006DFBB72003F076FB002003F067FB00208E
:101A200003F064FB3F2003F061FB002003F05EFB4A
:101A30005E2003F05BFB002003F058FB642003F002
:101A400055FB002003F052FB8C2003F04FFB0020DD
:101A500003F04CFBAC2003F049FB002003F046FBF5
:101A6000DC2003F043FB002003F040FB702003F078
:101A70003DFB002003F03AFB902003F037FB0020F1
:101A800003F034FBEB2003F031FB002003F02EFBCE
:101A9000DC2003F02BFB002003F028FBB82003F030
:101AA00031FB002003F022FB002003F01FFB00208D
:101AB00003F01CFB002003F019FB002003F016FBD1
:101AC000002003F013FB002003F010FB002003F0C4
:101AD0000DFBBA2003F016FB242003F007FB0020C7
:101AE00003F004FB002003F001FB002003F0FEFAEA
:101AF000C12003F007FB202003F0F8FA002003F0D8
:101B0000F5FA542003F0F2FA002003F0EFFAFF2078
:101B100003F0ECFA002003F0E9FAC22003F0F2FA35
:101B20000A2003F0E3FA002003F0E0FA042003F0B7
:101B3000DDFA002003F0DAFAC32003F0E3FA3C20D8
:101B400003F0D4FA002003F0D1FA3A2003F0CEFAE1
:101B5000002003F0CBFA392003F0C8FA002003F08C
:101B6000C5FA372003F0C2FA002003F0BFFA3C2088
:101B700003F0BCFA002003F0B9FA362003F0B6FAFD
:101B8000002003F0B3FA322003F0B0FA002003F093
:101B9000ADFA2F2003F0AAFA002003F0A7FA2C20B8
:101BA00003F0A4FA002003F0A1FA292003F09EFA22
:101BB000002003F09BFA262003F098FA002003F09F
:101BC00095FA242003F092FA002001E0E0000020C2
:101BD00003F08CFA242003F089FA002003F086FA3F
:101BE000232003F083FA002003F080FA3C2003F066
:101BF0007DFA002003F07AFA362003F077FA00200D
:101C000003F074FA322003F071FA002003F06EFA48
:101C10002F2003F06BFA002003F068FA2C2003F069
:101C200065FA002003F062FA292003F05FFA002031
:101C300003F05CFA262003F059FA002003F056FA6C
:101C4000242003F053FA002003F050FA242003F07C
:101C50004DFA002003F04AFA232003F047FA00204F
:101C600003F044FAC42003F04DFA622003F03EFA78
:101C7000002003F03BFA052003F038FA002003F0BF
:101C800035FA842003F032FA002003F02FFAF02016
:101C900003F02CFA002003F029FA182003F026FAAA
:101CA000002003F023FAA42003F020FA002003F020
:101CB0001DFA182003F01AFA002003F017FA50203A
:101CC00003F014FA002003F011FA0C2003F00EFACE
:101CD000002003F00BFA172003F008FA002003F0AD
:101CE00005FA952003F002FA002003F0FFF9F32033
:101CF00003F0FCF9002003F0F9F9E62003F0F6F90F
:101D0000002003F0F3F9C52003F0FCF9322003F0C2
:101D1000EDF9002003F0EAF9442003F0E7F9002090
:101D200003F0E4F9652003F0E1F9002003F0DEF9A7
:101D3000762003F0DBF9002003F0D8F9882003F0C7
:101D4000D5F9002003F0D2F9C62003F0DBF92020FA
:101D500003F0CCF9002003F0C9F9172003F0C6F90D
:101D6000002003F0C3F9012003F0C0F9002003F0C4
:101D7000BDF9C72003F0C6F9002003F0B7F9002031
:101D800003F0B4F9002003F0B1F9002003F0AEF93C
:101D9000C82003F0B7F9002003F0A8F9002003F0F1
:101DA000A5F9002003F0A2F9002003F09FF9C92053
:101DB00003F0A8F9002003F099F9002003F096F948
:101DC000002003F093F9002003F090F9002003F0C5
:101DD0008DF9002003F08AF9002003F087F9002034
:101DE00003F084F9002003F081F9002003F07EF96C
:101DF000002003F07BF9002003F078F9002003F0C5
:101E000075F9002003F072F9002003F06FF900204B
:101E100003F06CF9E02003F075F9162003F066F981
:101E2000002003F063F91C2003F060F9002003F0A8
:101E30005DF9212003F05AF9002003F057F936200C
:101E400003F054F9002003F051F9462003F04EF955
:101E5000002003F04BF9522003F048F9002003F072
:101E600045F9642003F042F9002003F03FF97A209D
:101E700003F03CF9002003F039F98B2003F036F928
:101E8000002003F033F9992003F030F9002003F02B
:101E90002DF9A82003F02AF9002003F027F9B92032
:101EA00003F024F9002003F021F9C42003F01EF907
:101EB000002003F01BF9CA2003F018F9002003F0FA
:101EC00015F9D22003F012F9002003F00FF9D92000
:101ED00003F00CF9002003F009F9E02003F006F903
:101EE000002003F003F9F32003F000F9002003F0D1
:101EF000FDF8E12003F006F9162003F0F7F80020C2
:101F000003F0F4F81C2003F0F1F8002003F0EEF8E1
:101F1000222003F0EBF8002003F0E8F8362003F06D
:101F2000E5F8002003F0E2F8452003F0DFF8002098
:101F300003F0DCF8522003F0D9F8002003F0D6F8C3
:101F4000642003F0D3F8002003F0D0F87A2003F0E7
:101F5000CDF8002003F0CAF88B2003F0C7F800206A
:101F600003F0C4F8992003F0C1F8002003F0BEF894
:101F7000A82003F0BBF8002003F0B8F8B92003F064
:101F8000B5F8002003F0B2F8C42003F0AFF8002049
:101F900003F0ACF8CA2003F0A9F8002003F0A6F87B
:101FA000D22003F0A3F8002003F0A0F8D82003F01B
:101FB0009DF8002003F09AF8E02003F097F8002045
:101FC00003F094F8F32003F091F8002003F08EF86A
:101FD000E22003F097F8052003F088F8002003F0D2
:101FE00085F80B2003F082F8002003F07FF81B2017
:101FF00003F07CF8002003F079F8342003F076F841
:10200000002003F073F8442003F070F8002003F080
:102010006DF84F2003F06AF8002003F067F86120A4
:1020200003F064F8002003F061F8792003F05EF813
:10203000002003F05BF8882003F058F8002003F03C
:1020400055F8972003F052F8002003F04FF8A6202F
:1020500003F04CF8002003F049F8B72003F046F8ED
:10206000002003F043F8C22003F040F8002003F002
:102070003DF8C72003F03AF8002003F037F8D120EC
:1020800003F034F8002003F031F8D62003F02EF8E6
:10209000002003F02BF8DD2003F028F8002003F0E7
:1020A00025F8F32003F022F8002003F01FF8E320C6
:1020B00003F028F8052003F019F8002003F016F8C3
:1020C0000A2003F013F8002003F010F81C2003F09E
:1020D0000DF8002003F00AF8332003F007F8002081
:1020E00003F004F8442003F001F8002002F0FEFFA2
:1020F000502002F0FBFF002002F0F8FF622002F007
:10210000F5FF002002F0F2FF782002F0EFFF002040
:1021100002F0ECFF882002F0E9FF002002F0E6FF69
:10212000972002F0E3FF002002F0E0FFA62002F07B
:10213000DDFF002002F0DAFFB72002F0D7FF002019
:1021400002F0D4FFC22002F0D1FF002002F0CEFF47
:10215000C72002F0CBFF002002F0C8FFD12002F020
:10216000C5FF002002F0C2FFD52002F0BFFF002013
:1021700002F0BCFFDD2002F0B9FF002002F0B6FF44
:10218000F32002F0B3FF002002F0B0FFE42002F0E1
:10219000B9FF012002F0AAFF002002F0A7FF0120F2
:1021A00002F0A4FF002002F0A1FF022002F09EFF37
:1021B000002002F09BFF2A2002F098FF002002F08E
:1021C00095FF3C2002F092FF002002F08FFF4B2091
:1021D00002F08CFF002002F089FF5D2002F086FFF4
:1021E000002002F083FF742002F080FF002002F044
:1021F0007DFF842002F07AFF002002F077FF932019
:1022000002F074FF002002F071FFA22002F06EFFC6
:10221000002002F06BFFB32002F068FF002002F004
:1022200065FFBE2002F062FF002002F05FFFC420C5
:1022300002F05CFF002002F059FFCD2002F056FFB3
:10224000002002F053FFD32002F050FF002002F0E4
:102250004DFFDD2002F04AFF002002F047FFF3208F
:1022600002F044FF002002F041FFE52002F04AFFA7
:10227000002002F03BFF002002F038FF002002F0B7
:1022800035FF002002F032FF022002F02FFF002075
:1022900002F02CFF292002F029FF002002F026FF87
:1022A0003C2002F023FF002002F020FF4B2002F030
:1022B0001DFF002002F01AFF5D2002F017FF002032
:1022C00002F014FF742002F011FF002002F00EFF54
:1022D000842002F00BFF002002F008FF932002F0A0
:1022E00005FF002002F002FFA22002F0FFFE002006
:1022F00002F0FCFEB32002F0F9FE002002F0F6FE30
:10230000BE2002F0F3FE002002F0F0FEC42002F036
:10231000EDFE002002F0EAFECD2002F0E7FE0020F4
:1023200002F0E4FED32002F0E1FE002002F0DEFE27
:10233000DC2002F0DBFE002002F0D8FEF32002F0E9
:10234000D5FE002002F0D2FEE62002F0DBFE1120D6
:1023500002F0CCFE002002F0C9FE342002F0C6FEDE
:10236000002002F0C3FE562002F0C0FE002002F062
:10237000BDFE762002F0BAFE002002F0B7FE772004
:1023800002F0B4FE002002F0B1FE662002F0AEFEC4
:10239000002002F0ABFE882002F0A8FE002002F030
:1023A000A5FE992002F0A2FE002002F09FFEBB20B5
:1023B00002F09CFE002002F099FE992002F096FEA9
:1023C000002002F093FE662002F090FE002002F052
:1023D0008DFE552002F08AFE002002F087FE552077
:1023E00002F084FE002002F081FE452002F07EFE15
:1023F000002002F07BFE432002F078FE002002F075
:1024000075FE442002F072FE002002F06FFEE7200D
:1024100002F078FE322002F069FE002002F066FE33
:10242000552002F063FE002002F060FE762002F0EC
:102430005DFE002002F05AFE662002F057FE0020EA
:1024400002F054FE672002F051FE002002F04EFE22
:10245000672002F04BFE002002F048FE872002F0C9
:1024600045FE002002F042FE992002F03FFE0020CF
:1024700002F03CFEBB2002F039FE002002F036FEE6
:10248000992002F033FE002002F030FE772002F0A7
:102490002DFE002002F02AFE442002F027FE00203C
:1024A00002F024FE562002F021FE002002F01EFE63
:1024B000232002F01BFE002002F018FE332002F061
:1024C00015FE002002F012FE452002F00FFE002053
:1024D00002F00CFEE82002F015FE002002F006FEDD
:1024E000002002F003FE992002F000FE002002F01E
:1024F000FDFD872002F0FAFD002002F0F7FD8820A4
:1025000002F0F4FD002002F0F1FD772002F0EEFD74
:10251000002002F0EBFD662002F0E8FD002002F052
:10252000E5FD882002F0E2FD002002F0DFFDAA2098
:1025300002F0DCFD002002F0D9FDBB2002F0D6FD48
:10254000002002F0D3FD992002F0D0FD002002F01F
:10255000CDFD662002F0CAFD002002F0C7FD552027
:1025600002F0C4FD002002F0C1FD552002F0BEFDC6
:10257000002002F0BBFD442002F0B8FD002002F074
:10258000B5FD442002F0B2FD002002F0AFFD552061
:1025900002F0ACFD002002F0A9FDE92002F0B2FD3E
:1025A000AA2002F0A3FD002002F0A0FD002002F00E
:1025B0009DFD002002F09AFD002002F0A3FDAA205C
:1025C00002F094FDCF2002F09DFD002002F08EFD70
:1025D000002002F08BFD002002F088FD002002F0B8
:1025E00085FD002002F082FD002002F07FFD00202A
:1025F00002F07CFD002002F079FD002002F076FD63
:10260000002002F073FD002002F070FD002002F0B7
:102610006DFD002002F06AFD002002F067FD002041
:1026200002F064FD002002F061FD002002F05EFD7A
:10263000F02002F067FD002002F058FD502002F06B
:1026400055FD002002F052FD002002F04FFD002059
:1026500002F04CFDF32002F055FD002002F046FD93
:10266000F92002F04FFD062002F040FD102002F09C
:102670003DFD292002F03AFD002002F037FD3A200E
:1026800002F040FD552002F031FD112002F03AFD2C
:10269000642003F0C9F8292002F034FD352002F04F
:1026A00031FD002002F022FD512002F02BFDFF2021
:1026B00002F01CFD532002F025FD2C2002F016FD37
:1026C000552002F01FFD822002F010FD2C2002F0A8
:1026D00019FD02F0E9B8FE48808845F210518842A1
:1026E0007ED155214FF4704002F022FDAA214FF215
:1026F000010002F01DFD52214FF2020002F018FD10
:1027000008214FF2030002F013FD01214FF20400F3
:1027100002F00EFD0D214FF4304002F009FD0D21B5
:102720004BF2010002F004FD0D214BF2020002F019
:10273000FFFC34214FF4364002F0FAFC34214BF216
:10274000016002F0F5FC34214BF2026002F0F0FC73
:102750000D214FF4314002F0EBFC0D214BF2011042
:1027600002F0E6FC0D214BF2021002F0E1FC3421F4
:102770004FF4374002F0DCFC34214BF2017002F0E0
:10278000D7FC34214BF2027002F0D2FC00214FF44E
:10279000324002F0CDFC00214BF2012002F0C8FCD7
:1027A00000214BF2022002F0C3FC24214FF43840F8
:1027B00002F0BEFC24214BF6010002F0B9FC2421FA
:1027C0004BF6020002F0B4FC01214FF43F4002F04E
:1027D000AFFC0F214FF4334002F0AAFC0F2100E0C0
:1027E000FEE34BF2013002F0A3FC0F214BF202306A
:1027F00002F09EFC34214FF4394002F099FC342160
:102800004BF6011002F094FC34214BF6021002F05A
:102810008FFC08214FF4354002F08AFC08214BF26E
:10282000015002F085FC08214BF2025002F080FCBE
:1028300003214FF4424002F07BFC24214FF43A4044
:1028400002F076FC24214BF6012002F071FC2421D9
:102850004BF6022002F06CFC00214FF43C4002F0E9
:1028600067FC78214BF6014002F062FC00214BF638
:10287000024002F05DFC00214FF43D4002F058FCA4
:1028800078214BF6015002F053FC00214BF6025028
:1028900002F04EFC00214FF43E4002F049FC64215E
:1028A0004BF6016002F044FC00214FF4514002F06D
:1028B0003FFC33214DF2011002F03AFC00214DF2B1
:1028C000021002F035FC34214DF2031002F030FC0E
:1028D00000214DF2041002F02BFC3A214DF20510BC
:1028E00002F026FC00214DF2061002F021FC4A21E4
:1028F0004DF2071002F01CFC00214DF2081002F00E
:1029000017FC5C214DF2091002F012FC00214DF27F
:102910000A1002F00DFC81214DF20B1002F008FCB0
:1029200000214DF20C1002F003FCA6214DF20D1017
:1029300002F0FEFB00214DF20E1002F0F9FBE52142
:102940004DF20F1002F0F4FB01214DF2101002F0D5
:10295000EFFB13214DF2111002F0EAFB01214DF2C1
:10296000121002F0E5FB54214DF2131002F0E0FBCF
:1029700001214DF2141002F0DBFB82214DF2151003
:1029800002F0D6FB01214DF2161002F0D1FBCA2154
:102990004DF2171002F0CCFB02214DF2181002F09C
:1029A000C7FB00214DF2191002F0C2FB02214DF2CB
:1029B0001A1002F0BDFB01214DF21B1002F0B8FB12
:1029C00002214DF21C1002F0B3FB34214DF21D1018
:1029D00002F0AEFB02214DF21E1002F0A9FB6721AE
:1029E0004DF21F1002F0A4FB02214DF2201002F064
:1029F0009FFB84214DF2211002F09AFB02214DF23F
:102A0000221002F095FBA4214DF2231002F090FB5E
:102A100002214DF2241002F08BFBB7214DF225105C
:102A200002F086FB02214DF2261002F081FBCF213D
:102A30004DF2271002F07CFB02214DF2281002F02B
:102A400077FBDE214DF2291002F072FB02214DF2DC
:102A50002A1002F06DFBF2214DF22B1002F068FB00
:102A600002214DF22C1002F063FBFE214DF22D10DD
:102A700002F05EFB03214DF22E1002F059FB1021F3
:102A80004DF22F1002F054FB03214DF2301002F0F2
:102A90004FFB33214DF2311002F04AFB03214DF27E
:102AA000321002F045FB6D214DF2331002F040FB75
:102AB00000214FF4524002F03BFB33214DF2012044
:102AC00002F036FB00214DF2022002F031FB01E062
:102AD000E000002034214DF2032002F029FB002108
:102AE0004DF2042002F024FB3A214DF2052002F0C1
:102AF0001FFB00214DF2062002F01AFB4A214DF285
:102B0000072002F015FB00214DF2082002F010FB17
:102B10005C214DF2092002F00BFB00214DF20A204E
:102B200002F006FB81214DF20B2002F001FB002197
:102B30004DF20C2002F0FCFAA6214DF20D2002F01D
:102B4000F7FA00214DF20E2002F0F2FAE5214DF2E3
:102B50000F2002F0EDFA01214DF2102002F0E8FA08
:102B600013214DF2112002F0E3FA01214DF212205F
:102B700002F0DEFA54214DF2132002F0D9FA0121BD
:102B80004DF2142002F0D4FA82214DF2152002F009
:102B9000CFFA01214DF2162002F0CAFACA214DF2F5
:102BA000172002F0C5FA02214DF2182002F0C0FAF7
:102BB00000214DF2192002F0BBFA02214DF21A2039
:102BC00002F0B6FA01214DF21B2002F0B1FA022107
:102BD0004DF21C2002F0ACFA34214DF21D2002F01F
:102BE000A7FA02214DF21E2002F0A2FA67214DF24F
:102BF0001F2002F09DFA02214DF2202002F098FAE7
:102C000084214DF2212002F093FA02214DF222207C
:102C100002F08EFAA4214DF2232002F089FA02215B
:102C20004DF2242002F084FAB7214DF2252002F063
:102C30007FFA02214DF2262002F07AFACF214DF2DE
:102C4000272002F075FA02214DF2282002F070FAD6
:102C5000DE214DF2292002F06BFA02214DF22A20EA
:102C600002F066FAF2214DF22B2002F061FA022105
:102C70004DF22C2002F05CFAFE214DF22D2002F0E4
:102C800057FA03214DF22E2002F052FA10214DF294
:102C90002F2002F04DFA03214DF2302002F048FAC5
:102CA00033214DF2312002F043FA03214DF232205C
:102CB00002F03EFA6D214DF2332002F039FA002184
:102CC0004FF4534002F034FA33214DF2013002F058
:102CD0002FFA00214DF2023002F02AFA34214DF28F
:102CE000033002F025FA00214DF2043002F020FA00
:102CF0003A214DF2053002F01BFA00214DF2063068
:102D000002F016FA4A214DF2073002F011FA0021C2
:102D10004DF2083002F00CFA5C214DF2093002F05D
:102D200007FA00214DF20A3002F002FA81214DF239
:102D30000B3002F0FDF900214DF20C3002F0F8F9F1
:102D4000A6214DF20D3002F0F3F900214DF20E30C4
:102D500002F0EEF9E5214DF20F3002F0E9F9012120
:102D60004DF2103002F0E4F913214DF2113002F06F
:102D7000DFF901214DF2123002F0DAF954214DF25F
:102D8000133002F0D5F901214DF2143002F0D0F9E0
:102D900082214DF2153002F0CBF901214DF21630AF
:102DA00002F0C6F9CA214DF2173002F0C1F9022132
:102DB0004DF2183002F0BCF900214DF2193002F04A
:102DC000B7F902214DF21A3002F0B2F901214DF2A9
:102DD0001B3002F0ADF902214DF21C3002F0A8F9CF
:102DE00034214DF21D3002F0A3F902214DF21E30C4
:102DF00002F09EF967214DF21F3002F099F902218D
:102E00004DF2203002F094F984214DF2213002F08D
:102E10008FF902214DF2223002F08AF9A4214DF2FD
:102E2000233002F085F902214DF2243002F080F9BE
:102E3000B7214DF2253002F07BF902214DF2263008
:102E400002F076F9CF214DF2273002F071F902211C
:102E50004DF2283002F06CF9DE214DF2293002F0FB
:102E600067F902214DF22A3002F062F9F2214DF2A7
:102E70002B3002F05DF902214DF22C3002F058F9AE
:102E8000FE214DF22D3002F053F903214DF22E3088
:102E900002F04EF910214DF22F3002F049F90321D2
:102EA0004DF2303002F044F933214DF2313002F06E
:102EB0003FF903214DF2323002F03AF96D214DF223
:102EC000333002F035F900214FF4544002F030F96C
:102ED00033214DF2014002F02BF900214DF2024066
:102EE00002F026F934214DF2034002F021F90021CD
:102EF0004DF2044002F01CF93A214DF2054002F077
:102F000017F900214DF2064002F012F94A214DF264
:102F1000074002F00DF900214DF2084002F008F9D7
:102F20005C214DF2094002F003F900214DF20A4004
:102F300002F0FEF881214DF20B4002F0F9F8002179
:102F40004DF20C4002F0F4F8A6214DF20D4002F0D3
:102F5000EFF800214DF20E4002F0EAF8E5214DF2C3
:102F60000F4002F0E5F801214DF2104002F0E0F8C8
:102F700013214DF2114002F0DBF801214DF2124015
:102F800002F0D6F854214DF2134002F0D1F801219D
:102F90004DF2144002F0CCF882214DF2154002F0BF
:102FA000C7F801214DF2164002F0C2F8CA214DF2D5
:102FB000174002F0BDF802214DF2184002F0B8F8B7
:102FC00000214DF2194002F0B3F802214DF21A40EF
:102FD00002F0AEF801214DF21B4002F0A9F800E02A
:102FE00004E302214DF21C4002F0A2F834214DF21C
:102FF0001D4002F09DF802214DF21E4002F098F8AB
:1030000067214DF21F4002F093F802214DF220405B
:1030100002F08EF884214DF2214002F089F802215D
:103020004DF2224002F084F8A4214DF2234002F038
:103030007FF802214DF2244002F07AF8B7214DF2D8
:10304000254002F075F802214DF2264002F070F89A
:10305000CF214DF2274002F06BF802214DF22840BB
:1030600002F066F8DE214DF2294002F061F80221FB
:103070004DF22A4002F05CF8F2214DF22B4002F0B2
:1030800057F802214DF22C4002F052F8FE214DF289
:103090002D4002F04DF803214DF22E4002F048F889
:1030A00010214DF22F4002F043F803214DF2304041
:1030B00002F03EF833214DF2314002F039F803219D
:1030C0004DF2324002F034F86D214DF2334002F0FF
:1030D0002FF800214FF4554002F02AF833214DF229
:1030E000015002F025F800214DF2025002F020F8C4
:1030F00034214DF2035002F01BF800214DF2045030
:1031000002F016F83A214DF2055002F011F80021B4
:103110004DF2065002F00CF84A214DF2075002F031
:1031200007F800214DF2085002F002F85C214DF240
:10313000095001F0FDFF00214DF20A5001F0F8FFA7
:1031400081214DF20B5001F0F3FF00214DF20C50A4
:1031500001F0EEFFA6214DF20D5001F0E9FF002134
:103160004DF20E5001F0E4FFE5214DF20F5001F059
:10317000DFFF01214DF2105001F0DAFF13214DF273
:10318000115001F0D5FF01214DF2125001F0D0FF96
:1031900054214DF2135001F0CBFF01214DF2145098
:1031A00001F0C6FF82214DF2155001F0C1FF01214F
:1031B0004DF2165001F0BCFFCA214DF2175001F03C
:1031C000B7FF02214DF2185001F0B2FF00214DF27D
:1031D000195001F0ADFF02214DF21A5001F0A8FF85
:1031E00001214DF21B5001F0A3FF02214DF21C50B2
:1031F00001F09EFF34214DF21D5001F099FF022194
:103200004DF21E5001F094FF67214DF21F5001F066
:103210008FFF02214DF2205001F08AFF84214DF2F0
:10322000215001F085FF02214DF2225001F080FF74
:10323000A4214DF2235001F07BFF02214DF22450D6
:1032400001F076FFB7214DF2255001F071FF022108
:103250004DF2265001F06CFFCF214DF2275001F0C6
:1032600067FF02214DF2285001F062FFDE214DF28E
:10327000295001F05DFF02214DF22A5001F058FF64
:10328000F2214DF22B5001F053FF02214DF22C5050
:1032900001F04EFFFE214DF22D5001F049FF0321B8
:1032A0004DF22E5001F044FF10214DF22F5001F04D
:1032B0003FFF03214DF2305001F03AFF33214DF230
:1032C000315001F035FF03214DF2325001F030FF53
:1032D0006D214DF2335001F02BFF00214FF4564089
:1032E00001F026FF33214DF2016001F021FF0021A2
:1032F0004DF2026001F01CFF34214DF2036001F039
:1033000017FF00214DF2046001F012FF3A214DF247
:10331000056001F00DFF00214DF2066001F008FF8D
:103320004A214DF2076001F003FF00214DF20860D1
:1033300001F0FEFE5C214DF2096001F0F9FE002172
:103340004DF20A6001F0F4FE81214DF20B6001F0B4
:10335000EFFE00214DF20C6001F0EAFEA6214DF2D5
:103360000D6001F0E5FE00214DF20E6001F0E0FE7F
:10337000E5214DF20F6001F0DBFE01214DF21060FE
:1033800001F0D6FE13214DF2116001F0D1FE0121B2
:103390004DF2126001F0CCFE54214DF2136001F0A9
:1033A000C7FE01214DF2146001F0C2FE82214DF2F0
:1033B000156001F0BDFE01214DF2166001F0B8FE6E
:1033C000CA214DF2176001F0B3FE02214DF21860E0
:1033D00001F0AEFE00214DF2196001F0A9FE0221BC
:1033E0004DF21A6001F0A4FE01214DF21B6001F0C4
:1033F0009FFE02214DF21C6001F09AFE34214DF235
:103400001D6001F095FE02214DF21E6001F090FE5C
:1034100067214DF21F6001F08BFE02214DF220600A
:1034200001F086FE84214DF2216001F081FE02212F
:103430004DF2226001F07CFEA4214DF2236001F0E8
:1034400077FE02214DF2246001F072FEB7214DF2A9
:10345000256001F06DFE02214DF2266001F068FE4C
:10346000CF214DF2276001F063FE02214DF228606A
:1034700001F05EFEDE214DF2296001F059FE0221CD
:103480004DF22A6001F054FEF2214DF22B6001F062
:103490004FFE02214DF22C6001F04AFEFE214DF25A
:1034A0002D6001F045FE03214DF22E6001F040FE3B
:1034B00010214DF22F6001F03BFE03214DF23060F0
:1034C00001F036FE33214DF2316001F031FE03216F
:1034D0004DF2326001F02CFE6D214DF2336001F0AF
:1034E00027FE55214FF4704001F022FEAA214FF231
:1034F000010001F01DFE52214FF2020001F018FE02
:1035000008214FF2030001F013FE00214FF20400E6
:1035100001F00EFECC214FF4314001F009FE0021F4
:103520004BF2011001F004FE05214FF4364001F08A
:10353000FFFD70214FF4374001F0FAFD70214BF28E
:10354000017001F0F5FD01214FF4384001F0F0FD6C
:1035500003214BF6010001F0EBFD03214BF60200C5
:1035600001F0E6FD03214BF6030001F0E1FD02212D
:103570004FF43C4001F0DCFD00214BF6014001F02E
:10358000D7FD00214BF6024001F0D2FDD0214FF4CF
:10359000494001F0CDFD02214CF6011001F0C8FDBB
:1035A00050214CF6021001F0C3FD50214CF60310DF
:1035B00001F0BEFD50214CF6041001F0B9FD0021D0
:1035C0004FF4545001F0B4FD55214FF4685001F010
:1035D000AFFD4FF4885001F095FD782002F040F9DE
:1035E0004FF4245001F08EFD01F05EB9FE48808852
:1035F00049F2253188427DD147F6F001E52001F0FE
:1036000097FD4FF48071012001F092FD4FF4E061CD
:10361000022001F08DFD41F23001032001F088FD10
:103620000021042001F084FD40F20221082001F075
:103630007FFD0021092001F07BFD00210A2001F01F
:1036400077FD00210C2001F073FD00210D2001F019
:103650006FFD00210F2001F06BFD0021102001F013
:1036600067FD0721112001F063FD0021122001F008
:103670005FFD0021132001F05BFD0021072001F018
:1036800057FD41F29061102001F052FD40F22721D8
:10369000112001F04DFD9D21122001F049FD4FF454
:1036A000C851132001F044FD2521292001F040FDDF
:1036B0000D212B2001F03CFD0721302001F038FDC9
:1036C00040F20331312001F033FD0321322001F0BB
:1036D0002FFD40F20621352001F02AFD0821362079
:1036E00001F026FD40F20641372001F021FD4FF4A4
:1036F000417100E058E0382001F01AFD072139201F
:1037000001F016FD40F202613C2001F011FD08219C
:103710003D2001F00DFD0021502001F009FDEF21B9
:10372000512001F005FD0021522001F001FD40F281
:103730003F11532001F0FCFC4FF42741602001F0C1
:10374000F7FC0121612001F0F3FC00216A2001F067
:10375000EFFC0021802001F0EBFC0021812001F032
:10376000E7FC0021822001F0E3FC0021832001F02E
:10377000DFFC0021842001F0DBFC0021852001F02A
:10378000D7FC1021902001F0D3FC4FF4C0619220AF
:1037900001F0CEFC40F23311072001F0C9FC2221D8
:1037A000002001F0C5FC1FE78F48808849F22831CE
:1037B00088427DD141F28F01EC2001F0B9FC41F249
:1037C0003421EF2001F0B4FC4FF48071012001F0AE
:1037D000AFFC4FF4E061022001F0AAFC41F230019D
:1037E000032001F0A5FC0021042001F0A1FC40F21F
:1037F0000221082001F09CFC0021092001F098FC26
:1038000000210A2001F094FC01210C2001F090FC21
:1038100000210D2001F08CFC00210F2001F088FC1C
:103820000021102001F084FC0721112001F080FC10
:103830000021122001F07CFC0021132001F078FC13
:103840000121072001F074FC322001F0EDFF41F26C
:103850009041102001F06CFC40F22721112001F072
:1038600067FC322001F0E0FF8A21122001F060FCA9
:10387000322001F0D9FF4FF4D051132001F058FC51
:103880000621292001F054FC0D212B2001F050FCD1
:10389000322001F0C9FF0021202001F049FC002165
:1038A000212001F045FC322001F0BEFF002100E0A4
:1038B00075E0302001F03CFC40F20461312001F061
:1038C00037FC40F20531322001F032FC0021352076
:1038D00001F02EFC40F60941362001F029FC4FF49E
:1038E0000171372001F024FC40F20131382001F051
:1038F0001FFC40F20771392001F01AFC00213C2026
:1039000001F016FC40F60A213D2001F011FC3220A6
:1039100001F08AFF0021502001F00AFCEF21512024
:1039200001F006FC0021522001F002FC40F23F11A0
:10393000532001F0FDFB4FF42741602001F0F8FB1C
:103940000121612001F0F4FB00216A2001F0F0FB6D
:103950000021802001F0ECFB0021812001F0E8FB38
:103960000021822001F0E4FB0021832001F0E0FB34
:103970000021842001F0DCFB0021852001F0D8FB30
:103980001021902001F0D4FB4FF4C061922001F08F
:10399000CFFB40F23311072001F0CAFB24E61248A6
:1039A000808849F2203188427ED10021084601F00A
:1039B000BFFB4FF48071012001F0BAFB4FF4E061CE
:1039C000022001F0B5FB41F23001032001F0B0FB11
:1039D0000021042001F0ACFB40F20221082001F09C
:1039E000A7FB0021092001E0E000002001F0A0FB7E
:1039F00000210A2001F09CFB01210C2001F098FB22
:103A000000210D2001F094FB00210F2001F090FB1C
:103A1000322001F009FF40F20111072001F088FB7C
:103A2000322001F001FF4FF48651102001F080FB9D
:103A30000721112001F07CFB4FF48871122001F066
:103A400077FB4FF43061132001F072FB0021292035
:103A500001F06EFB44F210012B2001F069FB002104
:103A6000502001F065FBEF21512001F061FB0021A6
:103A7000522001F05DFB40F23F11532001F058FB52
:103A80004FF41C51602001F053FB0121612001F033
:103A90004FFB00216A2001F04BFB0021802001F048
:103AA00047FB0021812000E030E001F041FB0021D4
:103AB000822001F03DFB0021832001F039FB002131
:103AC000842001F035FB0021852001F031FB10211D
:103AD000902001F02DFB0021922001F029FB012113
:103AE000932001F025FB4FF48871952001F020FB15
:103AF0000021972001F01CFB0021982001F018FB09
:103B000040F27311072001F013FB6DE5FE48808839
:103B100049F2313188427DD141F21401E72001F0B0
:103B200007FB4FF48071012001F002FB4FF400719C
:103B3000022001F0FDFA41F23801032001F0F8FA09
:103B400040F20221082001F0F3FA0021092001F0DF
:103B5000EFFA00210A2001F0EBFA00210C2001F01D
:103B6000E7FA00210D2001F0E3FA00210F2001F017
:103B7000DFFA0021102001F0DBFA0721112001F00B
:103B8000D7FA0021122001F0D3FA0021132001F00E
:103B9000CFFAC82001F048FE41F29061102001F0F8
:103BA000C7FA40F22721112001F0C2FA322001F0B9
:103BB0003BFE0C21122001F0BBFA322001F034FE52
:103BC0004FF40061132001F0B3FA1121292001F014
:103BD000AFFA0B212B2001F0ABFA322001F024FECA
:103BE0000021202001F0A4FA40F23F11212001F031
:103BF0009FFA0021302001F09BFA4FF483713120AD
:103C000001F096FA0021322001F092FA4FF401718E
:103C1000352000E064E001F08BFA41F20A613620C1
:103C200001F086FA40F20771372001F081FA4FF473
:103C30008371382001F07CFA40F20771392001F0DD
:103C400077FA40F202413C2001F072FA40F60F414F
:103C50003D2001F06DFA0021502001F069FAEF21BA
:103C6000512001F065FA0021522001F061FA40F282
:103C70003F11532001F05CFA4FF41C51602001F019
:103C800057FA0121612001F053FA00216A2001F066
:103C90004FFA0021802001F04BFA0021812001F031
:103CA00047FA0021822001F043FA0021832001F02D
:103CB0003FFA0021842001F03BFA0021852001F029
:103CC00037FA1021902001F033FA4FF4C0619220AE
:103CD00001F02EFA40F23311072001F029FA83E4B3
:103CE0008948808845F2084188427DD14FF480712F
:103CF000012001F01DFA4FF4E061022001F018FAF2
:103D000041F23001032001F013FA0021042001F0F8
:103D10000FFA40F20721082001F00AFA00210920D9
:103D200001F006FA00210A2001F002FA00210C201D
:103D300001F0FEF900210D2001F0FAF900210F2019
:103D400001F0F6F9142001F06FFD41F2B06110208E
:103D500001F0EEF90121112001F0EAF9012117200B
:103D600001F0E6F94FF49C71122001F0E1F94FF4F3
:103D70000061132001F0DCF90921292001F0D8F9B4
:103D800009212A2001F0D4F90021A42001F0D0F962
:103D90000021502001F0CCF9EF21512001F0C8F9A9
:103DA0000021522001F0C4F940F23F11532001F0EC
:103DB000BFF94FF41C51602001F0BAF901216120D4
:103DC00001F0B6F900216A2001F0B2F9002180204B
:103DD00001F0AEF90021812001F0AAF90021822032
:103DE00001F0A6F9002100E024E0832001F0A0F911
:103DF0000021842001F09CF90021852001F098F930
:103E00001321902001F094F90021922001F090F903
:103E10000321932001F08CF94FF48871952001F073
:103E200087F940F27311072001F082F9322001F086
:103E3000FBFCB8E43448808841F2055188427DD1CA
:103E40000021072001F074F9322001F0EDFC4FF45D
:103E50008E71122001F06CF90121A42001F068F9A3
:103E60000F21082001F064F908210A2001F060F90F
:103E700008210D2001F05CF940F20771302001F0BB
:103E800057F90721312001F053F940F20361322044
:103E900001F04EF94FF4E061332001F049F940F2AE
:103EA0000221342001F044F90221352001F040F9CB
:103EB00041F60F71362001F03BF940F207713720CF
:103EC00001F036F90021382001F032F900213920C3
:103ED00001F02EF940F207713A2001F029F9002192
:103EE0003B2001F025F907213C2001F021F90021B8
:103EF0003D2001F01DF9322001F096FC0121072040
:103F000001F016F9012101E0E0000020172001F086
:103F10000FF9322001F088FC4FF4BD51102001F060
:103F200007F940F21721112001F002F94FF48F71C7
:103F3000122001F0FDF84FF4706100E098E01320CA
:103F400001F0F6F800212A2001F0F2F80A212920D8
:103F500001F0EEF84FF49F71122001F0E9F8002112
:103F6000502001F0E5F8EF21512001F0E1F80021A7
:103F7000522001F0DDF840F23F11532001F0D8F853
:103F80004FF41C51602001F0D3F80121612001F0B1
:103F9000CFF800216A2001F0CBF80021802001F049
:103FA000C7F80021812001F0C3F80021822001F030
:103FB000BFF80021832001F0BBF80021842001F02C
:103FC000B7F80021852001F0B3F81321902001F00B
:103FD000AFF84FF44071922001F0AAF80521932028
:103FE00001F0A6F80021952001F0A2F80021972009
:103FF00001F09EF80021982001F09AF84FF48071AA
:10400000012001F095F84FF4E061022001F090F8F2
:1040100041F23801032001F08BF80021042001F067
:1040200087F800210C2001F083F800210F2001F017
:104030007FF80021202001F07BF80021212001F0F1
:1040400077F82121072001F073F8142001F0ECFB30
:104050006121072001F06CF8142001F0E5FB40F22B
:104060007311072001F064F8142001F0DDFB95E4E2
:10407000FE4880884BF2055188427CD100210846D9
:1040800001F056F80021084601F052F800210846D8
:1040900001F04EF80021084601F04AF80121A42061
:1040A00001F046F8142001F0BFFB4FF41C516020D2
:1040B00001F03EF840F20221082001F039F84FF4F7
:1040C0000571302001F034F843F21571312001F010
:1040D0002FF840F20461322001F02AF840F6166110
:1040E000332001F025F842F21121342001F020F8AC
:1040F0004FF4A851352001F01BF848F20751362043
:1041000001F016F841F20741372001F011F841F2B1
:104110000341382001F00CF82021392001F008F883
:104120001A21902001F004F80021102001F000F87D
:104130000721112000F0FCFF0021122000F0F8FF01
:104140000021132000F0F4FF142001F06DFB4FF468
:10415000E661102000F0ECFF40F23711112000F072
:10416000E7FF142001F060FB4FF4DC71122000F037
:10417000DFFF142000E085E001F056FB4FF4706192
:10418000132000F0D5FF80212A2000F0D1FF482124
:10419000292000F0CDFF142001F046FB4FF4807180
:1041A000012000F0C5FF4FF4E061022000F0C0FFE5
:1041B00041F23801032000F0BBFF40F20221082049
:1041C00000F0B6FF00210A2000F0B2FF00210C2011
:1041D00000F0AEFF00210D2000F0AAFF30210E20DC
:1041E00000F0A6FF0021502000F0A2FFEF21512097
:1041F00000F09EFF0021522000F09AFF40F23F1194
:10420000532000F095FF4FF41C51602000F090FF08
:104210000121612000F08CFF00216A2000F088FF5E
:104220001121902000F084FF4FF4C061922000F033
:104230007FFF40F20241932000F07AFF0221942098
:1042400000F076FF142001F0EFFA0121072000F0C2
:104250006FFF142001F0E8FA6121072000F068FFE9
:1042600040F27311072000F063FF0021202000F0CE
:104270005FFF0021212000F05BFF2221002000F0E1
:1042800057FF11E3794880884CF2055188427CD170
:104290000021084600F04CFF0021084600F048FFCE
:1042A000142001F0C1FA0021084600F041FF00216E
:1042B000084600F03DFF0021084600F039FF0021CC
:1042C000084600F035FF0121A42000F031FF142042
:1042D00001F0AAFA4FF41C51602000F029FF40F6CB
:1042E0000601082000F024FF40F20371302000F0A6
:1042F0001FFF0121312000F01BFF0421322000F0BC
:1043000017FF4FF48171332000F012FF4FF440711A
:10431000342000F00DFF40F20311352000F008FFBB
:104320001F21362000F004FF40F20371372000F017
:10433000FFFE0121382000F0FBFE0421392000F0AF
:10434000F7FE1521902000F0F3FE4FF4826110205B
:1043500000F0EEFE40F24721112000F0E9FE4FF49C
:10436000DE71122000F0E4FE4FF46061132000F0D3
:10437000DFFE782001F058FA4FF48071012000F040
:10438000D7FE4FF40071022000E052E000F0D0FEB2
:1043900041F23001032000F0CBFE08210A2000F09A
:1043A000C7FE00210C2000F0C3FE20210E2000F0EB
:1043B000BFFE00210F2000F0BBFE0021202000F0F6
:1043C000B7FE0021212000F0B3FE3D212A2000F09D
:1043D000AFFE142001F028FA2D21292000F0A8FEBC
:1043E0000021502000F0A4FE4DF2EF01512000F01A
:1043F0009FFE0021522000F09BFE40F23F1153200F
:1044000000F096FE0021612000F092FE00216A205B
:1044100000F08EFE4FF44071922000F089FE0521DD
:10442000932000F085FE4FF48071072000F080FE9D
:104430003AE20E48808844F2315188427ED101210F
:10444000002000F075FE0A2001F0EEF941F228612B
:10445000102000F06DFE0E21122000F069FE40F6E3
:104460003921132000F064FE0A2001E0E000002062
:1044700001F0DAF94021112000F05AFE50211520F8
:1044800000F056FE0A2001F0CFF91E21122000F0A4
:104490004FFE0A2001F0C8F94FF4B151102000F08E
:1044A00047FE42F63921132000F042FE0A2001F0B7
:1044B000BBF94FF48071012000F03AFE4FF44071D7
:1044C000022000F035FE41F23801032000F030FEFA
:1044D00040F20221082000F02BFE08210A2000F003
:1044E00027FE0021302000F023FE40F2024131205F
:1044F00000F01EFE4FF48371322000F019FE40F2EE
:104500000351332000F014FE4FF48271342000F088
:104510000FFE40F20131352000F00AFE40F2077133
:10452000362000F005FE40F20531372000F000FE95
:104530004FF40271382000F0FBFD00E03EE040F651
:104540000B71392000F0F4FD0221412000F0F0FD54
:104550004FF41C51602000F0EBFD0121612000F0C0
:10456000E7FD4FF40471902000F0E2FD4FF48571F7
:10457000922000F0DDFD0421932000F0D9FD4FF4DE
:104580008071A02000F0D4FD0121072000F0D0FDB3
:104590002121072000F0CCFD2321072000F0C8FDD9
:1045A0003321072000F0C4FD40F23311072000F052
:1045B000BFFD0021A02000F0BBFD75E1C048808850
:1045C00044F2355188427CD13021152000F0B0FDF5
:1045D00010219A2000F0ACFD2021112000F0A8FD50
:1045E00043F22841102000F0A3FD0221122000F028
:1045F0009FFD41F23801132000F09AFD282001F0C0
:1046000013F91221084600F093FD282001F00CF95F
:1046100043F22041102000F08BFD43F238011320BB
:1046200000F086FD462001F0FFF80021302000F068
:104630007FFD40F20241312000F07AFD40F2073167
:10464000322000F075FD4FF44171332000F070FD11
:104650000421342000F06CFD40F20141352000F0CF
:1046600067FD40F20771362000F062FD40F205312F
:10467000372000F05DFD4FF4C261382000F058FD96
:104680004FF4C261392000F053FD4FF480710120D6
:1046900000F04EFD4FF44071022000F049FD41F260
:1046A0003001032000F044FD40F60801082000F02E
:1046B0003FFD08210A2000F03BFD4FF41C51602013
:1046C00000E033E000F034FD0121612000F030FD16
:1046D0004FF49F71902000F02BFD4FF480719220D9
:1046E00000F026FD4FF48071932000F021FD4FF47F
:1046F0004051A02000F01CFD1021A32000F018FD67
:104700000121072000F014FD2121072000F010FDF9
:104710002321072000F00CFD3321072000F008FDC5
:1047200040F23311072000F003FDBDE064488088AB
:1047300041F663118842F8D1E22000F0E3FC1D202D
:1047400000F0D4FC022000F0D1FC042000F0CEFCEC
:10475000642001F085F8E02000F0D4FC012000F096
:10476000C5FC0A2001F060F8E02000F0CBFC03203B
:1047700000F0BCFC0C2001F057F8012000F0C2FC56
:104780000A2001F051F8E62000F0BCFC2F2000F0D8
:10479000ADFCFF2000F0AAFCFF2000F0A7FCB02039
:1047A00000F0B0FC202000F0A1FC002000F09EFCF6
:1047B000032000F09BFC40F21F3000F097FC01202A
:1047C00000F094FC40F2DF1000F090FC002000F0BC
:1047D0008DFCB42000F096FC042000F087FC40F231
:1047E0001F4000F083FC002000F080FC2E2000F031
:1047F0007DFC002000F07AFC002000F077FC002017
:1048000000F074FC002000F071FCB62000F07AFC8F
:10481000022000F06BFC4FF4037000F067FC0020F6
:1048200000F064FC172000F061FC152000F05EFC35
:10483000002000F05BFC002000F058FCF02000F0AD
:1048400061FC032000F052FC292000F05BFCD0202A
:1048500000F058FC002000F049FCBE2000F052FCA3
:10486000052000F043FCFE2000F040FC012000F099
:104870003DFC002000F03AFC002000F037FC002056
:1048800000F034FCB82000F03DFC032000F02EFCCA
:10489000012000F02BFCBA2000F034FC012000F0D5
:1048A00025FC642000F026F80020FCF7B5F9012073
:1048B000044908604FF6FF70FCF778F921B000BD9D
:1048C000E0000020BC82404208B503480088009008
:1048D000BDF8000008BD00008000006C10B5044663
:1048E000204600F00FFC052000F0BAFFFFF7ECFFB8
:1048F00010BD000070B52DED048B0446BE2000F005
:1049000001FC052000F0F2FB204603F0CEF841EC5C
:10491000190B9FED0E0B53EC102B03F0D9F841EC63
:10492000180B03F095F885B2284600F0DFFB012054
:1049300000F0DCFBFF2000F0D9FB002000F0D6FBEC
:10494000002000F0D3FBBDEC048B70BD666666668C
:1049500066660440F0B5054600240027B748807914
:1049600001280BD1B548808846F60401884205D05D
:10497000B248808841F66311884208D1AF488079F7
:10498000F0B9AE48808841F66311884218D1082DED
:1049900015D2DFE805F00406080A0C0E10120625F1
:1049A0000DE007250BE0042509E0052507E00125BA
:1049B00005E0002503E0032501E0022500BF00BF5C
:1049C0009E48808849F24131884217D09B488088B0
:1049D00046F60401884211D09848808845F210318B
:1049E00088420BD09548808845F21051884205D006
:1049F0009248808841F6631188427DD1082D1CD2EF
:104A0000DFE805F00406090C0F12151800BF14E0CA
:104A100044F0800411E044F040040EE044F0C0048F
:104A20000BE044F0200408E044F0600405E044F0AA
:104A3000A00402E044F0E00400BF00BF7F4880888B
:104A400045F21051884202D14FF4585700E0362702
:104A50007A48808845F2103188420DD077488088A6
:104A600045F21051884207D07448808841F663119E
:104A7000884201D044F008047048808846F604015A
:104A8000884201D144F002042146384600F050FB30
:104A90006A48808841F6631188421DD004F02000E6
:104AA00068B16648008865494988884214DA6348D5
:104AB0000688408861490880084646800CE05F48C7
:104AC00000885E494988884206DD5C48068840883F
:104AD0005A490880084646805848808845F2105157
:104AE000884254D15549488900F00CFB002000F061
:104AF000FDFA5249498900E078E0491C88B200F08B
:104B000001FB002000F0F2FA4C494989891C88B267
:104B100000F0F8FA49490988491EC1F30F2000F056
:104B2000E5FA46494989C91C88B200F0EBFA4349C5
:104B30000978491EC8B200F0D9FA4049888900F0C6
:104B4000E1FA002000F0D2FA3C498989491C88B278
:104B500000F0D8FA002000F0C9FA38498989891C88
:104B600088B200F0CFFA35494988491EC1F30F20B9
:104B700000F0BCFA31498989C91C88B200F0C2FA38
:104B80002E498978491EC8B200F0B0FA55E02B4989
:104B9000488900F0B7FA002000F0A8FA002000F0E1
:104BA000A5FA26490988491EC1F30F2000F09EFA94
:104BB00022490978491EC8B200F098FA1F4988892D
:104BC00000F0A0FA002000F091FA002000F08EFA28
:104BD0001A494988491EC1F30F2000F087FA174986
:104BE0008978491EC8B200F081FA26E0082D1CD24F
:104BF000DFE805F004070A0D0F12151844F0300421
:104C000013E044F0100410E044F020040DE000BF75
:104C10000BE044F0380408E044F0280405E044F0D8
:104C2000180402E044F0080400BF00BF032744F466
:104C300080542146384600F07BFAF0BDE0000020A9
:104C400030B504460D466748808849F241318842B4
:104C500005D06448808845F21031884214D16149FA
:104C6000488900F04FFA201200F040FAE0B200F05C
:104C70003DFA5C49888900F045FA281200F036FABE
:104C8000E8B200F033FAABE05648808846F60401FB
:104C900088421DD153488079012804D151480088A9
:104CA000401E001B84B24F49488900F02BFA2012A5
:104CB00000F01CFAE0B200F019FA4A49888900F0C5
:104CC00021FA281200F012FAE8B200F00FFA87E099
:104CD0004448808841F66311884247D14148807931
:104CE000A8B940480088401E001B84B23D4948894D
:104CF00000F008FA002000F0F9F9002000F0F6F9C1
:104D0000201200F0F3F9E0B200F0F0F916E03549B6
:104D1000488900F0F7F9201200F0E8F9E0B200F05D
:104D2000E5F930490988491EC1F30F2000F0DEF98A
:104D30002C490978491EC8B200F0D8F92949888958
:104D400000F0E0F9281200F0D1F9E8B200F0CEF955
:104D500024494988491EC1F30F2000F0C7F92149B1
:104D60008978491EC8B200F0C1F939E01D48808831
:104D700045F21051884220D11A49488900F0C2F901
:104D8000201200F0B3F917494989491C88B200F094
:104D9000B9F9E0B200F0AAF91249888900F0B2F935
:104DA000281200F0A3F90F498989491C88B200F044
:104DB000A9F9E8B200F09AF912E00A4880790128CE
:104DC00004D108480088401E001B84B20549488968
:104DD000214600F0ADF903498889294600F0A8F979
:104DE00030BD0000E00000202DE9F84F80460E465F
:104DF00017461C46B3462046E31704EB5373DB10FB
:104E000021464FEAE47C04EB5C7C4FEAEC0CA4EB1B
:104E1000CC0CBCF1000F02D04FF0010C01E04FF0C0
:104E2000000C6344224604EBD27C4FEA6C0C03FB7B
:104E30000CF3DBB20093A7F12000C7B2002556E0C7
:104E40000C2C07D107EB47002B4901EB800010F831
:104E5000059013E0102C05D1284800EB071010F83E
:104E600005900BE0182C07D107EBC700244901EB94
:104E7000800010F8059001E0BDE8F88F4FF0000ABF
:104E80002FE009F0800030B11E48028831464046CC
:104E9000FBF7A2FF07E00A9828B91B4802883146B1
:104EA0004046FBF799FF4FEA49604FEA1069701CD2
:104EB00086B216484088B04200DCDDE7A6EB0B0066
:104EC000A0420AD15E4608F101001FFA80F80F489F
:104ED0000088404500DCCFE706E00AF1010000F061
:104EE000FF0ABAF1080FCCDB00BF681CC5B20098FE
:104EF0008542A5DB00BFBFE7D67C00084A810008D9
:104F00003A8700082A0000202C000020E000002042
:104F10002DE9F84704460D4690469946DDE90967B4
:104F200004F0FF0A08EB04001FFA80F809EB050003
:104F30001FFA80F916E0444502DB5446A81985B2F1
:104F40004D4500DB14E0002000903A7833462946B6
:104F50002046FFF749FF304606EBD07104EB6101B4
:104F60008CB27F1C38787E2802DC38782028E2DA80
:104F700000BFBDE8F887000086B000244FF47840F9
:104F8000464908804648828846A103A8FBF7E2F913
:104F900083E00C2C41D2DFE804F0060B0F13181D40
:104FA00022272C31363B4FF6FF70FBF7FFFD34E034
:104FB0000020FBF7FBFD30E01F20FBF7F7FD2CE0A6
:104FC0004FF47840FBF7F2FD27E04FF61F00FBF7A8
:104FD000EDFD22E04FF4FC60FBF7E8FD1DE047F635
:104FE000FF70FBF7E3FD18E04FF6E070FBF7DEFD26
:104FF00013E04FF60740FBF7D9FD0EE048F23040D2
:10500000FBF7D4FD09E04CF21860FBF7CFFD04E09C
:105010004BF64040FBF7CAFD00BF00BF4FF478409D
:105020001E49088022A018210B46D222CDE900108B
:1050300028211E20FFF76CFF22A010210B46C8225A
:10504000CDE9001046211E20FFF762FF20A01021AD
:105050000B46C822CDE900105A211E20FFF758FF49
:1050600003A810210B46C822CDE900106E211E2096
:10507000FFF74EFF1AA00C210B46C822CDE9001005
:1050800082211E20FFF744FF601CC4B20C2C00D10B
:1050900000244FF47A7001F037FD7AE72A000020EF
:1050A000E00000204C43442049443A253034580065
:1050B0004578706C6F7265722053544D33324634AC
:1050C000000000005446544C4344205445535400BF
:1050D00041544F4D40414C49454E54454B00000012
:1050E000323031342F352F340000000001B5BDF8C7
:1050F00000000090BDF800000149088008BD0000D4
:105100008000006C01B5BDF800000090BDF8000003
:105110000149088008BD00007E00006C024800893B
:105120000249088070470000E00000207E00006C0B
:10513000034A10804FF0D842A2F880107047000058
:105140007E00006C1EE000F0D3FC00F00DFB00F0D0
:1051500081FC0D48007890B100200B4908700024B4
:105160000BE00A4800EBC4004278084810F83410FD
:1051700007A0FBF7E3F8601CC4B2042CF1DB0120AC
:1051800001F0C2FCDFE7000029000020C000002081
:105190006B65793A25642076616C75653A25640DF6
:1051A0000A00000000BFFEE77047000070B5002154
:1051B00000230F22C4781CB3174C246804F4E06465
:1051C000C4F5E064C4F30721C1F10404E3B20A4169
:1051D00044789C40E1B28478144021430C07210EAE
:1051E0000E4C05786155047804F01F050124AC408D
:1051F00005786D11AD0005F1E025C5F8004109E025
:10520000047804F01F050124AC40054D06787611A2
:1052100045F8264070BD00000CED00E000E400E021
:1052200080E100E002490143024A1160704700003A
:105230000000FA050CED00E029B1064A12680243AD
:10524000044B1A6004E0034A12688243014B1A605F
:10525000704700003038024029B1064A1268024304
:10526000044B1A6004E0034A12688243014B1A603F
:10527000704700003838024029B1064A12680243DC
:10528000044B1A6004E0034A12688243014B1A601F
:105290007047000044380240F0B50021002200248D
:1052A000022500260223324F3F6807F00C0121B18E
:1052B000042905D0082937D105E02E4F076036E0D4
:1052C0002D4F076033E02A4F3F1F3F68C7F38056DA
:1052D000274F3F1F3F6807F03F036EB1264FB7FBD4
:1052E000F3F7DFF88CC0ACF1040CDCF800C0CCF3B1
:1052F000881C07FB0CF40CE01E4FB7FBF3F7DFF83C
:1053000070C0ACF1040CDCF800C0CCF3881C07FBC7
:105310000CF4174F3F1F3F68C7F301477F1C7D0008
:10532000B4FBF5F7076002E0124F076000BF00BF53
:105330000F4F3F6807F0F0010909104F7A5C0768CA
:10534000D74047600A4F3F6807F4E051890A0B4F86
:105350007A5C4768D7408760054F3F6807F4604133
:10536000490B064F7A5C4768D740C760F0BD000024
:10537000083802400024F40000127A002E000020B9
:105380000CB50020019000903448006840F4803053
:105390003249086000BF3148006800F400300090D6
:1053A0000198401C0190009818B90198B0F5A04FE1
:1053B000F1D12A48006800F4003010B101200090BB
:1053C00001E0002000900098012846D12348403099
:1053D000006840F080502149403108602048006852
:1053E00040F440401E4908601C48083000681B49D2
:1053F000083108600846006840F40040086008462C
:10540000006840F4A05008601648091F0860081F93
:10541000006840F08070091F086000BF0F480068F6
:1054200000F000700028F9D040F205700E490860C5
:105430000A480830006820F0030008490831086075
:105440000846006840F00200086000BF03480830CA
:10545000006800F00C000828F8D10CBD00380240AC
:105460000070004008544007003C0240042808D166
:105470004FF0E021096941F004014FF0E022116191
:1054800007E04FF0E021096921F004014FF0E0222C
:105490001161704710B500BF502080F31188BFF331
:1054A0004F8FBFF36F8F00BF02F08EF818B14FF02F
:1054B00080500449086000BF002080F3118800BFBD
:1054C00010BD000004ED00E010B51548006840F480
:1054D0007000134908601348006840F0010011494A
:1054E000086000200F49083108600E4800680E4926
:1054F00008400C4908600D48091D0860081F006835
:1055000020F48020091F0860002006490C31086043
:10551000FFF736FF4FF0006001498039086010BD89
:1055200088ED00E000380240FFFFF6FE1030002456
:1055300010B540F225511D4800F04AF810B31B4841
:1055400000F000F9C4B21A48008800F40040C8B95D
:105550001748008800F4804060B10A2C03D0002076
:105560001349088020E01248008840F400401049A8
:10557000088019E00D2C06D10D48008840F48040C9
:105580000B49088010E00A480088C0F30D00094963
:105590000C5407480088401C0549088008460088CC
:1055A000C72801DD0020088010BD00000010014068
:1055B00048000020EE00002021B1828942F4005210
:1055C000828104E082894DF6FF731A408281704720
:1055D00070B50246002400230025002040F66A161C
:1055E000B14200D100BFC1F3421501F01F030126F3
:1055F00006FA03F3012D02D19689334006E0022D0D
:1056000002D1168A334001E0968A33400C120126FB
:1056100006FA04F41688344013B10CB1012000E0FE
:10562000002070BDF0B503460024002600250020B0
:1056300040F66A17B94200D100BF1846C1F34214C0
:1056400001F01F06012707FA06F5012C01D10C30E5
:1056500004E0022C01D1103000E014301AB10768C8
:105660002F43076002E00768AF430760F0BD00000A
:105670002DE9FF4705460E460024A14600BFA0467F
:10568000B08900B100BF2C8A24F44054F088044350
:105690002C82AC8941F20C608443B0883189084384
:1056A000718908430443AC81AC8A24F44074B08906
:1056B0000443AC826846FFF7EFFD2048854202D0E4
:1056C0001F48854202D1DDF80C9001E0DDF808901A
:1056D000A88900F4004040B109EBC90000EB0910B3
:1056E00031684900B0FBF1F707E009EBC90000EBB6
:1056F000091031688900B0FBF1F76420B7FBF0F0C6
:1057000004012009642101FB1078A88900F40040FD
:1057100040B1322000EBC800B0FBF1F000F0070010
:10572000044308E0322000EB08106421B0FBF1F0E4
:1057300000F00F0004432C81BDE8FF8700100140FA
:105740000014014001468888C0F30800704700BF7C
:10575000FEE730380A2801D2012070470020704748
:10576000014600BF704700000D48007888B101284D
:1057700013D10C4908600C480088401C0A49088075
:1057800008460088142803DB0020088004490870BC
:1057900004E000200349086000E000BF00BF70473C
:1057A00028000020A0824242260000201CB50121D2
:1057B0002020FFF741FD4FF48070009001208DF80C
:1057C000040000208DF8060003208DF8050001205C
:1057D0008DF8070069460348FBF77BF90020024972
:1057E00008601CBD00140240A082424210B504466D
:1057F0006FF00400FFF73AFEE11704EB5171C1F3BB
:10580000C701074A11701046007800EB4001C1EB58
:10581000C0104FF6FF7101EAC0000249088010BDB8
:105820003E0000204000002070B504464FF4077091
:1058300094FBF0F0C6B24FF4077094FBF0F100FB5C
:10584000114085B205E04FF4077000F02FF8701E8C
:10585000C6B2002EF7D115B1284600F027F870BD6A
:105860000146114A12784A434FF0E0235A61002260
:105870009A611A46126942F001021A6100BF4FF0A4
:10588000E022106900F001021AB100F48032002A0F
:10589000F5D04FF0E022126922F001024FF0E02330
:1058A0001A6100229A6170473E0000200146114AA9
:1058B00012884A434FF0E0235A6100229A611A4647
:1058C000126942F001021A6100BF4FF0E022106934
:1058D00000F001021AB100F48032002AF5D04FF036
:1058E000E022126922F001024FF0E0231A61002247
:1058F0009A6170474000002000BF054A128802F0FC
:105900004002002AF9D0C2B2014B9A8070470000D1
:105910000010014010B50446A078052856D2DFE8F3
:1059200000F0030C20344B0000206070A080A079B0
:10593000012801D1A0704AE049E0A07920B90420F3
:10594000A0700020A08042E0A0880A2805DB022089
:10595000A070012060700020A080A088401CA08062
:1059600035E0A07920B90420A0700020A0802EE0AE
:10597000A088C82805DB0320A070022060700020EA
:10598000A080A088401CA08021E0A07920B904203C
:10599000A0700020A0801AE0A088642808DB032003
:1059A000A070022060700020A080012009490870CA
:1059B000A088401CA0800AE0607820B10120054941
:1059C0000870FAF7EFFF0020A07000E000BF00BFF2
:1059D00010BD0000290000201CB501210846FFF77A
:1059E0002BFC01211020FFF727FC1C200090002039
:1059F0008DF8040001208DF8070069461248FBF776
:105A000068F80120009000208DF8040002208DF835
:105A1000070069460D48FBF75CF8002411E00C48CC
:105A200000F8344000200A4901EBC401888008498D
:105A300001EBC4018870064901EBC4014870601C89
:105A4000C4B2042CEBDB1CBD00100240000002407D
:105A5000C000002010B52348006808B1012000E014
:105A6000002018B900202049887102E001201E4959
:105A700088711E48006808B9012000E0002018B9AC
:105A800000211948817302E00121174881731748EA
:105A9000001D006808B9012000E0002018B90021AD
:105AA0001148817502E001210F4881750F480830C7
:105AB000006808B9012000E0002018B900210A4858
:105AC000817702E0012108488177002406E0064939
:105AD00001EBC400FFF71EFF601CC4B2042CF6DB10
