:020000040800F2
:1000000048150020E9020008950700083D07000890
:1000100091070008590600081B0D000800000000A9
:10002000000000000000000000000000290200089D
:100030005D0600080000000085020008610A000853
:100040000303000803030008030300080303000878
:100050000303000803030008030300080303000868
:100060000303000803030008030300080303000858
:100070000303000803030008030300080303000848
:100080000303000803030008030300080303000838
:100090000303000803030008030300080303000828
:1000A0000303000803030008030300080303000818
:1000B0000303000803030008030300080303000808
:1000C00003030008030300080303000803030008F8
:1000D00003030008FD0A00080303000803030008E7
:1000E00003030008030300080303000803030008D8
:1000F00003030008030300080303000803030008C8
:1001000003030008030300080303000803030008B7
:1001100003030008030300080303000803030008A7
:100120000303000803030008030300080303000897
:100130000303000803030008030300080303000887
:100140000303000803030008030300080303000877
:100150000303000803030008030300080303000867
:100160000303000803030008030300080303000857
:100170000303000803030008030300080303000847
:10018000030300080303000800F002F800F03CF845
:100190000AA090E8000C82448344AAF10107DA45E2
:1001A00001D100F031F8AFF2090EBAE80F0013F0F8
:1001B000010F18BFFB1A43F001031847482A00003B
:1001C000682A0000103A24BF78C878C1FAD85207CC
:1001D00024BF30C830C144BF04680C6070470000C1
:1001E0000023002400250026103A28BF78C1FBD840
:1001F000520728BF30C148BF0B6070471FB502F0DF
:10020000FBFC1FBD10B510BD00F096F91146FFF7BD
:10021000F5FF00F0CFFD00F0C8F903B4FFF7F2FFDF
:1002200003BC00F07CFD00002C4B19680868B0E8A6
:10023000F04F80F30988BFF36F8F4FF0000080F319
:10024000118870470000000008480068006880F3CB
:1002500008884FF0000080F3148862B661B6BFF3DF
:100260004F8FBFF36F8F00DF00BF00BF08ED00E0CE
:10027000DFF80C00016841F470010160704700BFB5
:1002800088ED00E0EFF30980BFF36F8F134B1A681E
:100290001EF0100F08BF20ED108A20E9F04F10600B
:1002A00009B44FF0500080F31188BFF34F8FBFF3B4
:1002B0006F8F01F0C5FD4FF0000080F3118809BC7D
:1002C00019680868B0E8F04F1EF0100F08BFB0ECD6
:1002D000108A80F30988BFF36F8F704738000020C1
:1002E000EFF3058070470000094880470948004740
:1002F000FEE7FEE7FEE7FEE7FEE7FEE7FEE7FEE7D6
:10030000FEE7FEE704480549054A064B7047000032
:10031000950A000889010008480F002048150020B0
:100320004811002048110020704700000FB4044914
:1003300010B503AA029800F07DF810BC5DF814FB1C
:1003400030000020032A40F2308010F0030C00F04F
:10035000158011F8013BBCF1020F624498BF11F8FF
:1003600001CB00F8013B38BF11F8013BA2F10402B8
:1003700098BF00F801CB38BF00F8013B11F0030330
:1003800000F06A80083AC0F0088051F8043B083A4F
:1003900051F804CBA0E80810F5E7121D5CBF51F836
:1003A000043B40F8043BAFF30080D20724BF11F8B0
:1003B000013B11F801CB48BF11F8012B24BF00F815
:1003C000013B00F801CB48BF00F8012B704702F059
:1003D000FF0343EA032242EA024200F071B84FF001
:1003E000000200B5134694469646203922BFA0E885
:1003F0000C50A0E80C50B1F12001BFF4F7AF090791
:1004000028BFA0E80C5048BF0CC05DF804EB890081
:1004100028BF40F8042B08BF704748BF20F8022BC4
:1004200011F0804F18BF00F8012B704770477047DC
:1004300070477047074B70B50D467B4400F065F878
:100440000446284600F074F810B14FF0FF3070BD3C
:10045000204670BD2309000010B5203AC0F00B8083
:10046000B1E81850203AA0E81850B1E81850A0E8B8
:100470001850BFF4F5AF5FEA027C24BFB1E8185012
:10048000A0E8185044BF18C918C0BDE810405FEA82
:10049000827C24BF51F8043B40F8043B08BF7047FE
:1004A000D20728BF31F8023B48BF11F8012B28BF03
:1004B00020F8023B48BF00F8012B70474FF00002C4
:1004C0000429C0F0128010F0030C3FF48AAFCCF185
:1004D000040CBCF1020F18BF00F8012BA8BF20F8D4
:1004E000022BA1EB0C01FFF77CBF5FEAC17C24BFAC
:1004F00000F8012B00F8012B48BF00F8012B7047D2
:1005000001694A1C02610878704700B58FB0CDE9D7
:1005100001310021059105497944CDE903101146C7
:10052000684600F02EF80FB000BD0000E5FFFFFFA9
:10053000007B00F080007047754600F03DF8AE4645
:1005400005006946534620F00700854618B020B5DF
:10055000FFF7D8FEBDE820404FF000064FF000073F
:100560004FF000084FF0000B21F00701AC46ACE85B
:10057000C009ACE8C009ACE8C009ACE8C0098D46C8
:1005800070472DE9F04106460024D6E90170F56870
:100590008046304603E04146B847641C3046A847D1
:1005A0000028F8D12046BDE8F0810446AFF3008072
:1005B0002046FFF732FE000000487047E40E00209E
:1005C0000EB501F0C5F90F480F4904220023CDE90B
:1005D0000021029080220DA10F4802F045F80F493A
:1005E00008600846006818B10DA0FFF79FFE02E002
:1005F00012A0FFF79BFE1748006801F0F5FA01F022
:10060000D1F90EBDCC0B0020CC0900204C45445F35
:100610005461736B000000004107000804000020D3
:100620004C45445F5461736B20637265617465204F
:1006300073756363657373210D0A00004C45445F55
:100640005461736B20637265617465206661696CC7
:10065000210D0A000000002000BFFEE77047F0B542
:100660000A4600210023002400BF3DE0012505FAD1
:1006700001F3156805EA03049C4234D105684F0074
:100680000326BE40B543056015794E00B5400668A7
:10069000354305601579012D02D01579022D16D14B
:1006A00085684F000326BE40B543856055794E00EE
:1006B000B540866835438560456801268E40B54360
:1006C0004560456896798E40B6B235434560C56849
:1006D0004F000326BE40B543C560D5794E00B540F6
:1006E000C6683543C560491C1029BFD3F0BDF0B5BD
:1006F000002300244D07ED0E02FA05F3CE1000F1A1
:10070000200555F826504E07F70E0F26BE40B5437C
:10071000CF1000F1200646F82750CE1000F120053A
:1007200055F8265045EA0304CE1000F1200545F89F
:100730002640F0BD418370470183704700BFFEE74C
:1007400017E04FF4C0610B48FFF7F6FF0AA0FFF770
:10075000EDFD4FF4FA7001F019FA4FF4C06105484D
:10076000FFF7E8FF07A0FFF7E1FD4FF4FA7001F093
:100770000DFAE6E7001402404C4544206F666621FE
:100780000D0A00004C4544206F6E210D0A00000048
:1007900000BFFEE77047000070B5002100230F2264
:1007A000C4781CB3174C246804F4E064C4F5E06416
:1007B000C4F30721C1F10404E3B20A4144789C4028
:1007C000E1B28478144021430C07210E0E4C0578C9
:1007D0006155047804F01F050124AC4005786D11C3
:1007E000AD0005F1E025C5F8004109E0047804F00A
:1007F0001F050124AC40054D0678761145F82640CA
:1008000070BD00000CED00E000E400E080E100E0DD
:1008100002490143024A1160704700000000FA05D6
:100820000CED00E029B1064A12680243044B1A603D
:1008300004E0034A12688243014B1A6070470000CB
:100840003038024029B1064A12680243044B1A604C
:1008500004E0034A12688243014B1A6070470000AB
:1008600044380240F0B50021002200240225002671
:100870000223324F3F6807F00C0121B1042905D053
:10088000082937D105E02E4F076036E02D4F07606D
:1008900033E02A4F3F1F3F68C7F38056274F3F1F63
:1008A0003F6807F03F036EB1264FB7FBF3F7DFF861
:1008B0008CC0ACF1040CDCF800C0CCF3881C07FB46
:1008C0000CF40CE01E4FB7FBF3F7DFF870C0ACF18F
:1008D000040CDCF800C0CCF3881C07FB0CF4174FA9
:1008E0003F1F3F68C7F301477F1C7D00B4FBF5F74E
:1008F000076002E0124F076000BF00BF0F4F3F6864
:1009000007F0F0010909104F7A5C0768D74047608B
:100910000A4F3F6807F4E051890A0B4F7A5C476839
:10092000D7408760054F3F6807F46041490B064F89
:100930007A5C4768D740C760F0BD000008380240C5
:100940000024F40000127A001C0000200CB50020E6
:10095000019000903448006840F4803032490860CB
:1009600000BF3148006800F4003000900198401C3E
:100970000190009818B90198B0F5A04FF1D12A481C
:10098000006800F4003010B10120009001E0002068
:1009900000900098012846D123484030006840F07C
:1009A00080502149403108602048006840F44040B0
:1009B0001E4908601C48083000681B49083108605F
:1009C0000846006840F4004008600846006840F4AB
:1009D000A05008601648091F0860081F006840F012
:1009E0008070091F086000BF0F48006800F00070A9
:1009F0000028F9D040F205700E4908600A48083016
:100A0000006820F0030008490831086008460068C3
:100A100040F00200086000BF03480830006800F0A2
:100A20000C000828F8D10CBD0038024000700040CE
:100A300008544007003C0240042808D14FF0E02150
:100A4000096941F004014FF0E022116107E04FF025
:100A5000E021096921F004014FF0E02211617047A3
:100A600010B500BF502080F31188BFF34F8FBFF344
:100A70006F8F00BF01F06CFE18B14FF08050044939
:100A8000086000BF002080F3118800BF10BD000087
:100A900004ED00E010B51548006840F470001349FB
:100AA00008601348006840F0010011490860002008
:100AB0000F49083108600E4800680E4908400C498B
:100AC00008600D48091D0860081F006820F4802098
:100AD000091F0860002006490C310860FFF736FF47
:100AE0004FF0006001498039086010BD88ED00E0DA
:100AF00000380240FFFFF6FE1030002410B540F22F
:100B000025511D4800F04AF810B31B4800F000F9C9
:100B1000C4B21A48008800F40040C8B917480088D9
:100B200000F4804060B10A2C03D0002013490880F3
:100B300020E01248008840F400401049088019E085
:100B40000D2C06D10D48008840F480400B490880E8
:100B500010E00A480088C0F30D0009490C5407480A
:100B60000088401C0549088008460088C72801DD28
:100B70000020088010BD000000100140340000205B
:100B8000240C002021B1828942F40052828104E0C9
:100B900082894DF6FF731A408281704770B5024614
:100BA000002400230025002040F66A16B14200D13F
:100BB00000BFC1F3421501F01F03012606FA03F33B
:100BC000012D02D19689334006E0022D02D1168A0A
:100BD000334001E0968A33400C12012606FA04F4F1
:100BE0001688344013B10CB1012000E0002070BD24
:100BF000F0B50346002400260025002040F66A17C1
:100C0000B94200D100BF1846C1F3421401F01F06DB
:100C1000012707FA06F5012C01D10C3004E0022C63
:100C200001D1103000E014301AB107682F4307607B
:100C300002E00768AF430760F0BD00002DE9FF4701
:100C400005460E460024A14600BFA046B08900B16B
:100C500000BF2C8A24F44054F08804432C82AC89D1
:100C600041F20C608443B08831890843718908439C
:100C70000443AC81AC8A24F44074B0890443AC8250
:100C80006846FFF7EFFD2048854202D01F488542A5
:100C900002D1DDF80C9001E0DDF80890A88900F49D
:100CA000004040B109EBC90000EB09103168490070
:100CB000B0FBF1F707E009EBC90000EB0910316860
:100CC0008900B0FBF1F76420B7FBF0F004012009C4
:100CD000642101FB1078A88900F4004040B1322063
:100CE00000EBC800B0FBF1F000F00700044308E09F
:100CF000322000EB08106421B0FBF1F000F00F008F
:100D000004432C81BDE8FF8700100140001401401E
:100D100001468888C0F30800704700BFFEE701461F
:100D200000BF704710B504466FF00400FFF784FE63
:100D3000E11704EB5171C1F3C701074A1170104666
:100D4000007800EB4001C1EBC0104FF6FF7101EAE3
:100D5000C0000249088010BD2C0000202E00002099
:100D600000BF054A128802F04002002AF9D0C2B240
:100D7000014B9A8070470000001001401CB5012112
:100D80002020FFF74FFD4FF4C060009001208DF848
:100D9000040000208DF8060003208DF805000120D6
:100DA0008DF8070069460248FFF759FC1CBD00009A
:100DB000001402400EB54FF44070FFF729FDFFF715
:100DC000DDFF4FF4E13000F00BFDA820FFF7AAFF94
:100DD0000A480B4903220023CDE90021029080221A
:100DE00008A10C4801F040FC0B4908600846006867
:100DF00008B100F0C1FF00BFFEE700007409002049
:100E0000740700204170705461736B4372656174A4
:100E100065000000C1050008000000202DE9F04138
:100E200005460E461C4807681C480068001D00F077
:100E30002DFD50B91948006890F82C100120884009
:100E400017490968814316480160681C38B936B1F2
:100E500012480168091D134800F06EFD1AE07C1964
:100E60000E4800684460BC4207D20C480168091D66
:100E70000D48006800F046FD0CE008480168091DB7
:100E80000A48006800F03EFD09480068844201D22B
:100E900007480460BDE8F0814C00002038000020C5
:100EA00050000020E00D0020400000203C00002009
:100EB0006800002010B5044600F04AFD2448006890
:100EC000401C234908602348006840B92148046059
:100ED0000846006801280DD100F0BEF90AE01E485E
:100EE000006838B91B480068C06AE16A884201D8C6
:100EF0001848046019480068401C184908600846F2
:100F00000068206494F82C10012088401449096876
:100F1000084313490860E16A01EB8101114A02EBC1
:100F20008100211D00F008FD00F03CFD0A4800682A
:100F300068B108480068C06AE16A884207D24FF089
:100F4000805009490860BFF34F8FBFF36F8F10BD0A
:100F500048000020380000205400002064000020D9
:100F6000500000202C0D002004ED00E008B500F03A
:100F7000EFFC12480068E8B9114800F0B3FC1148D2
:100F800000F0B0FC0E48104908600E480F49086098
:100F900000200F4B0F4A0C2100900A2001F05EF850
:100FA000064908600846006820B10BA103480068A4
:100FB00000F0B0FD00F0F6FC08BD00007C00002051
:100FC000F40D0020080E002074000020780000209E
:100FD0001C0E00206C0E0020546D725100000000A9
:100FE00010B516E000F0B4FC0C48C068C468201DC1
:100FF00000F04CFC0A480068401E09490860094896
:101000000068401E0749086000F0CCFC204600F054
:101010005FF8044800680028E4D110BDCC0D002022
:10102000480000204400002070B504460D46206CA6
:1010300070B1216CE0680144E160D4E9021088429B
:1010400001D32168E1602846226CE168FFF77AF954
:1010500070BD2DE9F04104460F4615464FF00008DB
:10106000A66B206C48B9206800282CD1A06801F03C
:1010700013FC80460020A06025E07DB93946226C33
:101080006068FFF75FF9216C606808446060D4E92C
:101090000101884217D32068606014E03946226C51
:1010A000E068FFF74FF9216CE068411AE1602168C0
:1010B000E068884203D2216CA068411AE160022DE9
:1010C00001D106B1761E701CA0634046BDE8F081D8
:1010D00010B5044694F8550030B9206B00F080FC40
:1010E000204600F07DFC1AE094F85500012803D159
:1010F000204600F075FC12E094F85500022801D15A
:10110000012000E0002050B900BF502080F311887A
:10111000BFF34F8FBFF36F8F00BF00BFFEE710BD5F
:101120000146084A126812680AB9012200E000224A
:101130000A600A6822B9034A1268D268106800E09F
:10114000002070477400002000BFFFF749FF0648E9
:1011500000680128F9D94FF0805004490860BFF3B6
:101160004F8FBFF36F8FF0E72C0D002004ED00E0F0
:101170002DE9F04106460D4617469846069C0DB9E6
:10118000246000E02760E66325640121204600F02A
:10119000D5FF84F84C80BDE8F0812DE9F05F8246F0
:1011A0000E4690469B460A9F0C9C4FEA8801A5225A
:1011B000206BFFF70CF9A8F10100216B01EB80090E
:1011C00029F0070909F0070008B9012000E0002014
:1011D00050B900BF502080F31188BFF34F8FBFF389
:1011E0006F8F00BF00BFFEE786B1002507E0715D8D
:1011F00004F134004155705D00B902E06D1C0A2D08
:10120000F5D300BF00213D20015502E0002084F805
:101210003400052F00D30427E762A7640020E064B0
:10122000201D00F06CFB04F1180000F068FB246145
:10123000C7F10500A06164620020206584F85400B5
:101240005A465146484600F0B5FA20600B9808B15E
:101250000B980460BDE8F09F10B5002407E004EB94
:1012600084010F4A02EB810000F03CFB641C052C5A
:10127000F5D30C4800F036FB0B4800F033FB0B486D
:1012800000F030FB0A4800F02DFB0A4800F02AFB72
:1012900004480949086004480849086010BD000076
:1012A0002C0D0020900D0020A40D0020B80D002072
:1012B000CC0D0020E00D00203C000020400000206C
:1012C00010B50146164800E0006803688B42FBD366
:1012D0000246436813448B4204D143684C6823445C
:1012E000436001460A464B6813440468A34211D187
:1012F0000C4C03682468A34208D04B6804686468F7
:1013000023444B6003681B680B6005E0054B1B68BA
:101310000B6001E003680B60884200D0016010BDE3
:1013200088000020900000202DE9F04104460D4681
:1013300016461F464FF0000865602461B5420CD880
:10134000F01BA169884202D34FF0010811E0211D72
:101350000948006800F0D6FA0BE0BE4204D2BD4254
:1013600002D34FF0010804E0211D0448006800F09A
:10137000C9FA4046BDE8F0817800002074000020E2
:1013800070B5054600F0E4FAA86B08B9012400E046
:10139000002400F007FB204670BD70B5054600F044
:1013A000D7FAA86BE96B884201D1012400E0002440
:1013B00000F0F8FA204670BDF8B505460F461A4809
:1013C0000068C068C468201D00F060FA94F8280026
:1013D00000F00400E8B1A06941192B463A462046C6
:1013E000FFF7A2FFD8B1002003462A46014600902D
:1013F000204601F0BFFB064656B900BF502080F3DF
:101400001188BFF34F8FBFF36F8F00BF00BFFEE7A0
:1014100005E094F8280020F0010084F82800204618
:10142000216A8847F8BD00007400002070B586B0BE
:101430008BE003980028FBDB059C606908B901205C
:1014400000E0002010B9201D00F020FA02A800F0F2
:10145000DDF8054603980A2875D2DFE800F0090593
:101460000739416306083A4200BF00BF00BF00BF12
:1014700094F8280040F0010084F828000498A2693C
:10148000811803462A462046FFF74EFFF8B1204652
:10149000216A884794F8280000F00400B8B10020C1
:1014A00000900498A169421800231946204601F0D3
:1014B00061FB064656B900BF502080F31188BFF388
:1014C0004F8FBFF36F8F00BF00BFFEE700BF3BE051
:1014D00000BF94F8280020F0010084F8280033E0D1
:1014E00000BF94F8280040F0010084F82800049818
:1014F000A061A06908B1012000E0002050B900BF40
:10150000502080F31188BFF34F8FBFF36F8F00BF60
:1015100000BFFEE7A06941192B462A462046FFF787
:1015200003FF11E094F8280000F0020018B92046EB
:1015300000F056FA05E094F8280020F0010084F845
:10154000280001E0FFE700BF00BF002203A9044814
:10155000006800F08FFF00287FF46BAF06B070BD0D
:101560007C000020F8B505460C4600F061FC68469A
:1015700000F04CF80646009820BB44B9B54206D8A6
:1015800001F03AFA31462846FFF716FF1CE03CB15D
:101590000E480068006808B9012000E000200446F9
:1015A000A91B22460A48006800F0CAFA01F024FA92
:1015B00050B94FF0805007490860BFF34F8FBFF319
:1015C0006F8F01E001F018FAF8BD000078000020EC
:1015D0007C00002004ED00E00A490968096809B9A7
:1015E000012100E0002121B14FF0FF31064A1160D6
:1015F00006E004490968C968C868034A416811607F
:10160000704700003C0000206800002070B50446D0
:1016100001F098F8054607480068854204D200F0BA
:101620000BF80120206001E00020206001480560E7
:10163000284670BD840000202DE9F84334E0254899
:101640000068C068056823480068C068C468201D39
:1016500000F01CF92046216A884794F8280000F021
:10166000040008B3A0694619AE4207D96660246138
:10167000211D1848006800F045F915E000200346D8
:101680002A4601460090204601F074FA074657B9F1
:1016900000BF502080F31188BFF34F8FBFF36F8FCF
:1016A00000BF00BFFEE700BF0A480068006808B935
:1016B000012000E000200028C1D00648D0F80080BA
:1016C00005480068034908600348C0F80080BDE889
:1016D000F883000074000020780000200E480068A5
:1016E000401C08B9012000E0002050B900BF502084
:1016F00080F31188BFF34F8FBFF36F8F00BF00BF20
:10170000FEE700BF502080F31188BFF34F8FBFF377
:101710006F8F00BF00BFFEE7A000002008B500BF2C
:101720006846FFF7FDFC044620460099FFF71AFFC4
:10173000FFF77CFEF4E770B5044600F009F994F970
:10174000455010E0606A08B9012000E0002038B977
:1017500004F1240001F004F918B100F0CBFA00E024
:1017600003E0681E45B2002DECDC00BFFF2084F8CA
:10177000450000F017F900F0EBF894F9445010E040
:10178000206908B9012000E0002048B904F11000E8
:1017900001F0E6F808B100F0ADFA681E45B200E0CD
:1017A00001E0002DECDC00BFFF2084F8440000F0D5
:1017B000F9F870BD001F4FF080730360001F21F027
:1017C00001030360001F054B036014380260001F13
:1017D0006FF002030360203870470000DD16000838
:1017E00010B588B0044601210846FFF71BF8012117
:1017F0001020FFF727F8072209212248FEF777FF7C
:1018000007220A211F48FEF772FF4FF4C0600690BE
:1018100002208DF81C008DF81D0000208DF81E00A0
:1018200001208DF81F0006A91648FEF718FF029444
:101830000020ADF80C00ADF80E00ADF81000ADF8CA
:1018400014000C20ADF8120002A90F48FFF7F6F9BA
:1018500001210D48FFF796F9012240F225510A486F
:10186000FFF7C6F925208DF8040003208DF8050048
:101870008DF8060001208DF8070001A8FEF78CFF07
:1018800008B010BD000002400010014001460A6986
:10189000D1E901309860D1E901035860506888426D
:1018A00001D188685060002008611068401E1060F7
:1018B00010687047034B0360034B0B608223136077
:1018C00070470000B4020020AC000020034B03600E
:1018D000034B0B604FF48273136070471C070020AA
:1018E0000C03002000F1080141604FF0FF318160DE
:1018F00000F10801C1600161002101607047002111
:101900000161704710B502460B685C1C0CB9106988
:1019100007E002F1080000E04068446824689C4247
:10192000FAD944684C604C68A160886041600A61E3
:101930001468641C146010BD42684A6093688B6030
:10194000936859609160086103685B1C036070478D
:1019500000BF502080F31188BFF34F8FBFF36F8F0C
:1019600000BF0E480068401C0C490860084600682B
:10197000012812D10A480068C0B208B9012000E06D
:10198000002050B900BF502080F31188BFF34F8F63
:10199000BFF36F8F00BF00BFFEE77047A0000020BD
:1019A00004ED00E00D48006850B900BF502080F3FE
:1019B0001188BFF34F8FBFF36F8F00BF00BFFEE7EB
:1019C00006480068401E054908600846006820B9BE
:1019D000002080F3118800BF00BF7047A0000020E6
:1019E00070B506463546002E3FD0083D2C461F49AF
:1019F00060680968084008B1012000E0002050B983
:101A000000BF502080F31188BFF34F8FBFF36F8F5B
:101A100000BF00BFFEE7206808B9012000E00020F9
:101A200050B900BF502080F31188BFF34F8FBFF330
:101A30006F8F00BF00BFFEE70C496068096808406F
:101A400098B1206888B9094960680968884360606E
:101A500000F0EEF906496068096808440449086026
:101A60002046FFF72DFC00F0C7FF70BD9C00002052
:101A70009400002000204FF0E021086188610648B2
:101A800000684FF47A71B0FBF1F0401E4FF0E02196
:101A900048610720086170470800002070B5FEF714
:101AA0001FFC0446102C16D304F1E02090F8F053EC
:101AB00015480078854201DB012000E0002050B984
:101AC00000BF502080F31188BFF34F8FBFF36F8F9B
:101AD00000BF00BFFEE70D48006800F4E0600C495D
:101AE0000968884201D8012000E0002050B900BFF9
:101AF000502080F31188BFF34F8FBFF36F8F00BF6B
:101B000000BFFEE770BD0000A40000200CED00E067
:101B1000A8000020024600200BE0084B53F83030AC
:101B200033B9064B43F8301003EBC0035A6002E0B0
:101B3000401C0828F1D300BF70470000EC0C0020C7
:101B40002DE9F04105460E4617462C46FFF700FFEB
:101B500094F94400401C10B9002084F8440094F922
:101B60004500401C10B9002084F84500FFF71AFF1B
:101B7000A06B28B93A46314604F1240000F0DCF8A5
:101B80002046FFF7D8FDBDE8F081000070B504469F
:101B90000025D4B11248006808B9012000E00020F7
:101BA00050B900BF502080F31188BFF34F8FBFF3AF
:101BB0006F8F00BF00BFFEE700F03AF9002120461A
:101BC000FFF72CF900F018FF05463DB94FF08050A3
:101BD00004490860BFF34F8FBFF36F8F70BD0000E3
:101BE0007000002004ED00E070B50546FFF7B0FE80
:101BF00015B93048006800E028460446201DFFF76C
:101C000045FE78B9E06A00EB80002B4951F82000CE
:101C100040B994F82C100120884028490968814374
:101C200026480160A06A18B104F11800FFF72EFEE3
:101C300023480068401C224908601E48006884420E
:101C400009D1211D1F48FFF777FE1F480068401C7F
:101C50001D49086009E01D480068401E1B490860D6
:101C60002046FFF735FAFFF7B7FCFFF79BFE184851
:101C70000068E8B10F480068844219D1154800682F
:101C800008B9012000E0002050B900BF502080F3C7
:101C90001188BFF34F8FBFF36F8F00BF00BFFEE708
:101CA0004FF080500C490860BFF34F8FBFF36F8F28
:101CB00070BD0000380000202C0D002050000020D6
:101CC00064000020CC0D00204400002048000020CB
:101CD000540000207000002004ED00E00349096872
:101CE00001600349096841607047000060000020FE
:101CF0004C00002001200149086070475C00002072
:101D000070B504460D4654B900BF502080F31188C9
:101D1000BFF34F8FBFF36F8F00BF00BFFEE70548D3
:101D2000016818312046FFF7EDFD01212846FFF735
:101D300075F870BD3800002070B505460E46144693
:101D400055B900BF502080F31188BFF34F8FBFF308
:101D50006F8F00BF00BFFEE70648016818312846B4
:101D6000FFF7EAFD0CB14FF0FF3621463046FFF792
:101D700055F870BD3800002010B586B000200590E1
:101D8000049003AA04A905A8FFF794FD0022DDE949
:101D900004101346CDE9002102901EA11F48039AAA
:101DA00000F062FC1E4908600846006808B1012482
:101DB00000E00024012C02D100F0A0FE0446012C1A
:101DC00015D100BF502080F31188BFF34F8FBFF3B0
:101DD0006F8F00BF4FF0FF30124908600120124999
:101DE000086000201149086000F070F810E0601CE5
:101DF00008B1012000E0002050B900BF502080F35E
:101E00001188BFF34F8FBFF36F8F00BF00BFFEE796
:101E100006B010BD49444C450000000049110008BF
:101E20006C00002068000020540000204C000020BE
:101E300002480068401C014908607047700000209B
:101E40001D48006818B101201C49086032E00020DC
:101E50001A4908601A480068B0FA80F0C0F11F0102
:101E600001EB8100174A52F8200008B1012000E080
:101E7000002050B900BF502080F31188BFF34F8F6E
:101E8000BFF36F8F00BF00BFFEE701EB81020D4B78
:101E900003EB820042685268426000F10802436826
:101EA000934202D14268526842604268D268064B4F
:101EB0001A6000BF70470000700000205C00002026
:101EC000500000202C0D0020380000201CB55C487C
:101ED00000685C49884201D0012000E0002050B930
:101EE00000BF502080F31188BFF34F8FBFF36F8F77
:101EF00000BF00BFFEE7524800685249491E8842B1
:101F000001D0012000E0002050B900BF502080F334
:101F10001188BFF34F8FBFF36F8F00BF00BFFEE785
:101F20004949084600780190FF200A46107008468B
:101F3000007800909DF8000000F0F0009DF800206F
:101F4000904201D1012000E0002050B900BF502094
:101F500080F31188BFF34F8FBFF36F8F00BF00BFB7
:101F6000FEE79DF8000000F05000384A107007208E
:101F7000374A106009E036480068401E344A106055
:101F80009DF800004006000E00909DF8000000F053
:101F900080008028EFD02E480068C0F10700042898
:101FA00001D1012000E0002050B900BF502080F393
:101FB0001188BFF34F8FBFF36F8F00BF00BFFEE7E5
:101FC00023480068C0F10700042801D1012000E087
:101FD000002050B900BF502080F31188BFF34F8F0D
:101FE000BFF36F8F00BF00BFFEE719480068000213
:101FF000174A10601046008800F4E0601060124A32
:10200000019810700E482030006840F470000C49B0
:10201000203108600846006840F070400860FFF713
:1020200029FD00200B490860FEF722F90A480068E4
:1020300040F0404008490860FEF706F900201CBD4A
:1020400000ED00E071C20F4100E400E0A4000020B8
:10205000A8000020A000002034EF00E02DE9F843A4
:1020600080460E4617461D46DDF82090B8F1000F59
:1020700001D0012000E0002050B900BF502080F3C3
:102080001188BFF34F8FBFF36F8F00BF00BFFEE714
:102090000DB1012000E0002050B900BF502080F3B6
:1020A0001188BFF34F8FBFF36F8F00BF00BFFEE7F4
:1020B00007B10EB1012000E0002050B900BF502050
:1020C00080F31188BFF34F8FBFF36F8F00BF00BF46
:1020D000FEE707B90EB9012000E0002050B900BFAB
:1020E000502080F31188BFF34F8FBFF36F8F00BF75
:1020F00000BFFEE7502000900098502801D1012039
:1021000000E0002050B900BF502080F31188BFF3D9
:102110004F8FBFF36F8F00BF00BFFEE700BF2C469D
:102120004CB1012084F846004B463A4631464046C1
:102130000094FFF71DF82046BDE8F88370B505460A
:102140000E462C4654B900BF502080F31188BFF3CF
:102150004F8FBFF36F8F00BF00BFFEE7FFF7F8FBA5
:10216000D4E90F12206801FB0200A0600020A063E8
:1021700020686060E06B401E226C216800FB021149
:10218000E160FF2084F8440084F845009EB920698E
:1021900008B9012000E00020A8B904F1100000F007
:1021A000DFFB80B14FF0805009490860BFF34F8FCB
:1021B000BFF36F8F07E004F11000FFF793FB04F10A
:1021C0002400FFF78FFBFFF7EDFB012070BD00003F
:1021D00004ED00E02DE9FF4383B0064688461D4626
:1021E0004FF00009344654B900BF502080F31188E5
:1021F000BFF34F8FBFF36F8F00BF00BFFEE7B8F193
:10220000000F01D1206C08B9012000E0002050B976
:1022100000BF502080F31188BFF34F8FBFF36F8F43
:1022200000BF00BFFEE7022D02D1E06B012801D103
:10223000012000E0002050B900BF502080F3118839
:10224000BFF34F8FBFF36F8F00BF00BFFEE700F0FB
:1022500069FA08B9059808B9012000E0002050B9D2
:1022600000BF502080F31188BFF34F8FBFF36F8FF3
:1022700000BF00BFFEE700BFFFF76AFBA06BE16B8A
:10228000884201D3022D28D12A4641462046FEF736
:10229000E0FE0746606A08B9012000E0002068B946
:1022A00004F1240000F05CFB88B14FF0805032490B
:1022B0000860BFF34F8FBFF36F8F08E03FB14FF05F
:1022C00080502D490860BFF34F8FBFF36F8FFFF72A
:1022D00069FB012007B0BDE8F083059818B9FFF746
:1022E00061FB0020F6E7B9F1000F04D101A8FFF768
:1022F000F5FC4FF00109FFF755FBFFF799FDFFF7DC
:1023000027FB94F94400401C10B9002084F84400D5
:1023100094F94500401C10B9002084F84500FFF7EF
:1023200041FB05A901A800F059F9F0B92046FFF7D3
:1023300034F8A0B104F110000599FFF7E1FC204644
:10234000FFF7F9F900F058FB002895D14FF08050C5
:1023500009490860BFF34F8FBFF36F8F8CE72046AA
:10236000FFF7E9F900F048FB86E72046FFF7E3F9BD
:1023700000F042FB0020ADE704ED00E02DE9F05F46
:1023800007468A4690461E463C4654B900BF502038
:1023900080F31188BFF34F8FBFF36F8F00BF00BF73
:1023A000FEE7BAF1000F01D1206C08B9012000E06E
:1023B000002050B900BF502080F31188BFF34F8F29
:1023C000BFF36F8F00BF00BFFEE7022E02D1E06BAC
:1023D000012801D1012000E0002050B900BF5020A9
:1023E00080F31188BFF34F8FBFF36F8F00BF00BF23
:1023F000FEE7FFF753FB00BF5021EFF3118081F39D
:102400001188BFF34F8FBFF36F8F00BF0546A06BDE
:10241000E16B884201D3022E23D194F945B03246B4
:1024200051462046FEF715FE0BF1010088B9606A9F
:1024300008B9012000E0002080B904F1240000F078
:102440008FFA58B1B8F1000F08D00120C8F8000089
:1024500004E00BF1010040B284F845004FF001099F
:1024600001E04FF0000900BF85F3118800BF484626
:10247000BDE8F09F2DE9F74183B005460E464FF0C9
:1024800000082C4654B900BF502080F31188BFF3D8
:102490004F8FBFF36F8F00BF00BFFEE70EB9206CF8
:1024A00008B9012000E0002050B900BF502080F39F
:1024B0001188BFF34F8FBFF36F8F00BF00BFFEE7E0
:1024C00000F030F908B9059808B9012000E00020B3
:1024D00050B900BF502080F31188BFF34F8FBFF376
:1024E0006F8F00BF00BFFEE700BFFFF731FAA76B99
:1024F000F7B131462046FEF797FD781EA0632069AC
:1025000008B9012000E0002060B904F1100000F0DB
:1025100027FA38B14FF080502F490860BFF34F8F32
:10252000BFF36F8FFFF73EFA012006B0BDE8F081E0
:10253000059818B9FFF736FA0020F6E7B8F1000F52
:1025400004D101A8FFF7CAFB4FF00108FFF72AFAF0
:10255000FFF76EFCFFF7FCF994F94400401C10B93A
:10256000002084F8440094F94500401C10B9002074
:1025700084F84500FFF716FA05A901A800F02EF827
:10258000F0B92046FEF7FCFEA0B104F12400059945
:10259000FFF7B6FB2046FFF7CEF800F02DFA002833
:1025A000A3D14FF080500C490860BFF34F8FBFF3A9
:1025B0006F8F9AE72046FFF7BEF800F01DFA94E708
:1025C0002046FFF7B8F800F017FA2046FEF7D8FECD
:1025D00000288AD00020A8E704ED00E070B5054689
:1025E0000C4655B900BF502080F31188BFF34F8FC0
:1025F000BFF36F8F00BF00BFFEE754B900BF50208C
:1026000080F31188BFF34F8FBFF36F8F00BF00BF00
:10261000FEE7FFF79DF9124802686868131A206800
:10262000401C08B9002617E00E492868096888424E
:1026300004D06868904201D801260DE020689842D5
:1026400007D92068C01A20602846FFF747FB0026FC
:1026500002E0002020600126FFF7A4F9304670BD9B
:102660004C000020600000202DE9F04F85B00746A7
:10267000884691469A46DDE90EB6109C0EB10120BF
:1026800000E0002050B900BF502080F31188BFF354
:102690004F8FBFF36F8F00BF00BFFEE70CB101206B
:1026A00000E0002050B900BF502080F31188BFF334
:1026B0004F8FBFF36F8F00BF00BFFEE7582003901E
:1026C0000398582801D1012000E0002050B900BF34
:1026D000502080F31188BFF34F8FBFF36F8F00BF7F
:1026E00000BFFEE700BFB4B1AEB125462C462E6355
:1026F000022085F85500002004A953464A46CDE93A
:1027000000B1CDE9025041463846FEF746FD284665
:10271000FEF7D0FB01E000200490049805B0BDE86E
:10272000F08F00000549096809B9012005E0044956
:10273000096809B9022000E0002070475400002019
:102740007000002001490868704700004C0000201C
:102750002DE9F0414FF0000844480068002877D187
:1027600043480068451C4248056015BB4148006865
:10277000006808B9012000E0002050B900BF5020D7
:1027800080F31188BFF34F8FBFF36F8F00BF00BF7F
:10279000FEE7384807683848006836490860364818
:1027A000076036480068401C34490860FEF714FF93
:1027B00000BF3348006885423CD300BF2D48006805
:1027C000006808B9012000E0002020B14FF0FF3080
:1027D0002B4908602DE027480068C068C468666817
:1027E000B54202D22648066023E0201DFFF74EF8CE
:1027F000A06A18B104F11800FFF748F894F82C10FB
:10280000012088401F49096808431E490860E16AA1
:1028100001EB81011C4A02EB8100211DFFF78CF8BE
:102820001A49E06A0968C96A8842C7D34FF00108AB
:10283000C4E700BF15480068C06A00EB8000124979
:1028400051F82000012801D94FF0010805E0FFE709
:102850000F480068401C0E4908600E48006808B127
:102860004FF001084046BDE8F081000070000020F4
:102870004C0000203C0000204000002060000020B0
:1028800068000020500000202C0D0020380000209F
:10289000580000205C00002070B505462C4600263C
:1028A000002D55D02B480068844201D1012000E062
:1028B000002050B900BF502080F31188BFF34F8F24
:1028C000BFF36F8F00BF00BFFEE7E06C50B900BFE1
:1028D000502080F31188BFF34F8FBFF36F8F00BF7D
:1028E00000BFFEE7E06C401EE064A16CE06A884235
:1028F0002ED0E06C60BB201DFEF7C8FF78B9E06AFF
:1029000000EB8000144951F8200040B994F82C10D5
:102910000120884011490968814310480160A06C7A
:10292000E062E06AC0F10500A06194F82C1001207B
:1029300088400A490968084308490860E16A01EBD0
:102940008101054A02EB8100211DFEF7F5FF0126FA
:10295000304670BD380000202C0D002050000020B3
:1029600070B50646F068C46854B900BF502080F3C3
:102970001188BFF34F8FBFF36F8F00BF00BFFEE71B
:1029800004F11800FEF782FF15480068A8B9201D61
:10299000FEF77CFF94F82C1001208840114909684B
:1029A000084310490860E16A01EB81010E4A02EB1D
:1029B0008100211DFEF7C0FF04E004F118010B485F
:1029C000FEF7BAFF0A49E06A0968C96A884204D971
:1029D000012501200749086000E00025284670BD58
:1029E00070000020500000202C0D0020B80D0020A9
:1029F000380000205C00002070B500240026364816
:102A0000006850B900BF502080F31188BFF34F8F8A
:102A1000BFF36F8F00BF00BFFEE7FEF799FF2E48A0
:102A20000068401E2C4908600846006800284FD105
:102A30002A48006800284BD024E02948C068C468B0
:102A400004F11800FEF722FF201DFEF71FFF94F887
:102A50002C10012088402349096808432149086057
:102A6000E16A01EB8101204A02EB8100211DFEF7A2
:102A700063FF1E49E06A0968C96A884202D30120DF
:102A80001B4908601648006808B9012000E00020D2
:102A90000028D2D00CB1FEF79FFD1648056865B13D
:102AA00000BFFFF755FE10B10120114908606D1EEF
:102AB000002DF6D100200F4908600D48006838B19C
:102AC000012630070C490860BFF34F8FBFF36F8FAB
:102AD000FEF768FF304670BD7000002048000020FF
:102AE000B80D0020500000202C0D002038000020E0
:102AF0005C0000205800002004ED00E010B586B016
:102B00000024FEF733FA16480068D0B10020059083
:102B1000049003AA04A905A8FEF7D8FE0222DDE965
:102B200004100023CDE9002102900EA10F48039A62
:102B3000FFF79AFD0E4908600846006800B10124BD
:102B400000BF54B900BF502080F31188BFF34F8FEE
:102B5000BFF36F8F00BF00BFFEE7204606B010BD79
:102B60007C000020546D7220537663001D1700080E
:102B7000800000202DE9FE4304460D4616461F4600
:102B8000DDF828804FF0000954B900BF502080F3D1
:102B90001188BFF34F8FBFF36F8F00BF00BFFEE7F9
:102BA0001448006810B3009501960294062D15DABA
:102BB000FFF7B8FD022808D10023424669460D48B8
:102BC0000068FFF707FB814610E000231A466946BC
:102BD00008480068FFF7FEFA814607E000233A46FE
:102BE000694604480068FFF7C9FB81464846BDE8CE
:102BF000FE8300007C0000204FF04070E1EE100AE0
:102C000070470000242C000800000020AC000000E9
:102C1000C4010008D02C0008AC0000209C14000067
:102C2000E00100080000000000000000007A030A34
:102C3000000000000000000001020304060708096C
:102C40000000000001020304010203040607080952
:102C50000000000000000000000000000000000074
:102C60000000000000000000000000000000000064
:102C70000000000000000000000000000000000054
:102C80000000000000000000000000000000000044
:102C90000000000000000000000000000000000034
:102CA0000000000000000000000000000000000024
:102CB0000000000000000000000000000000000014
:102CC00000000000AAAAAAAA00000000000000005C
:040000050800018965
:00000001FF
