:020000040800F2
:1000000010350120E90200082F0700081507000835
:100010002B07000839060008B30C00080000000098
:10002000000000000000000000000000290200089D
:100030003D0600080000000085020008F9090008DC
:100040000303000803030008030300080303000878
:100050000303000803030008030300080303000868
:100060000303000803030008030300080303000858
:100070000303000803030008030300080303000848
:100080000303000803030008030300080303000838
:100090000303000803030008030300080303000828
:1000A0000303000803030008030300080303000818
:1000B0000303000803030008030300080303000808
:1000C00003030008030300080303000803030008F8
:1000D00003030008950A000803030008030300084F
:1000E00003030008030300080303000803030008D8
:1000F00003030008030300080303000803030008C8
:1001000003030008030300080303000803030008B7
:1001100003030008030300080303000803030008A7
:100120000303000803030008030300080303000897
:100130000303000803030008030300080303000887
:100140000303000803030008030300080303000877
:100150000303000803030008030300080303000867
:100160000303000803030008030300080303000857
:100170000303000803030008030300080303000847
:10018000030300080303000800F002F800F03CF845
:100190000AA090E8000C82448344AAF10107DA45E2
:1001A00001D100F031F8AFF2090EBAE80F0013F0F8
:1001B000010F18BFFB1A43F001031847442B00003E
:1001C000642B0000103A24BF78C878C1FAD85207CF
:1001D00024BF30C830C144BF04680C6070470000C1
:1001E0000023002400250026103A28BF78C1FBD840
:1001F000520728BF30C148BF0B6070471FB502F0DF
:1002000079FD1FBD10B510BD00F096F91146FFF73E
:10021000F5FF00F043FE00F0C8F903B4FFF7F2FF6A
:1002200003BC00F048FD00002C4B19680868B0E8DA
:10023000F04F80F30988BFF36F8F4FF0000080F319
:10024000118870470000000008480068006880F3CB
:1002500008884FF0000080F3148862B661B6BFF3DF
:100260004F8FBFF36F8F00DF00BF00BF08ED00E0CE
:10027000DFF80C00016841F470010160704700BFB5
:1002800088ED00E0EFF30980BFF36F8F134B1A681E
:100290001EF0100F08BF20ED108A20E9F04F10600B
:1002A00009B44FF0500080F31188BFF34F8FBFF3B4
:1002B0006F8F01F0C3FE4FF0000080F3118809BC7E
:1002C00019680868B0E8F04F1EF0100F08BFB0ECD6
:1002D000108A80F30988BFF36F8F704744000020B5
:1002E000EFF3058070470000094880470948004740
:1002F000FEE7FEE7FEE7FEE7FEE7FEE7FEE7FEE7D6
:10030000FEE7FEE704480549054A064B7047000032
:100310002D0A000889010008102F01201035012046
:100320001031012010310120704700000FB4044942
:1003300010B503AA029800F07DF810BC5DF814FB1C
:100340003C000020032A40F2308010F0030C00F043
:10035000158011F8013BBCF1020F624498BF11F8FF
:1003600001CB00F8013B38BF11F8013BA2F10402B8
:1003700098BF00F801CB38BF00F8013B11F0030330
:1003800000F06A80083AC0F0088051F8043B083A4F
:1003900051F804CBA0E80810F5E7121D5CBF51F836
:1003A000043B40F8043BAFF30080D20724BF11F8B0
:1003B000013B11F801CB48BF11F8012B24BF00F815
:1003C000013B00F801CB48BF00F8012B704702F059
:1003D000FF0343EA032242EA024200F071B84FF001
:1003E000000200B5134694469646203922BFA0E885
:1003F0000C50A0E80C50B1F12001BFF4F7AF090791
:1004000028BFA0E80C5048BF0CC05DF804EB890081
:1004100028BF40F8042B08BF704748BF20F8022BC4
:1004200011F0804F18BF00F8012B704770477047DC
:1004300070477047074B70B50D467B4400F065F878
:100440000446284600F074F810B14FF0FF3070BD3C
:10045000204670BD3F09000010B5203AC0F00B8067
:10046000B1E81850203AA0E81850B1E81850A0E8B8
:100470001850BFF4F5AF5FEA027C24BFB1E8185012
:10048000A0E8185044BF18C918C0BDE810405FEA82
:10049000827C24BF51F8043B40F8043B08BF7047FE
:1004A000D20728BF31F8023B48BF11F8012B28BF03
:1004B00020F8023B48BF00F8012B70474FF00002C4
:1004C0000429C0F0128010F0030C3FF48AAFCCF185
:1004D000040CBCF1020F18BF00F8012BA8BF20F8D4
:1004E000022BA1EB0C01FFF77CBF5FEAC17C24BFAC
:1004F00000F8012B00F8012B48BF00F8012B7047D2
:1005000001694A1C02610878704700B58FB0CDE9D7
:1005100001310021059105497944CDE903101146C7
:10052000684600F02EF80FB000BD0000E5FFFFFFA9
:10053000007B00F080007047754600F03DF8AE4645
:1005400005006946534620F00700854618B020B5DF
:10055000FFF7D8FEBDE820404FF000064FF000073F
:100560004FF000084FF0000B21F00701AC46ACE85B
:10057000C009ACE8C009ACE8C009ACE8C0098D46C8
:1005800070472DE9F04106460024D6E90170F56870
:100590008046304603E04146B847641C3046A847D1
:1005A0000028F8D12046BDE8F0810446AFF3008072
:1005B0002046FFF732FE000000487047B02E0120B1
:1005C0001CB5012401F0D4FA0B48022100230A02D1
:1005D000CDE9001009A10C4802F002F90446012CF3
:1005E00002D10AA0FFF7A2FE0F48006801F00CFC40
:1005F00001F0E8FA1CBD0000040000204C45445FF7
:100600005461736B00000000190700086372656194
:100610007465204C45445F5461736B20737563634C
:10062000657373210D0A00000000002001200149BC
:10063000087070472400002000BFFEE77047F0B547
:100640000A4600210023002400BF3DE0012505FAF1
:1006500001F3156805EA03049C4234D105684F0094
:100660000326BE40B543056015794E00B5400668C7
:10067000354305601579012D02D01579022D16D16B
:1006800085684F000326BE40B543856055794E000E
:10069000B540866835438560456801268E40B54380
:1006A0004560456896798E40B6B235434560C56869
:1006B0004F000326BE40B543C560D5794E00B54016
:1006C000C6683543C560491C1029BFD3F0BDF0B5DD
:1006D000002300244D07ED0E02FA05F3CE1000F1C1
:1006E000200555F826504E07F70E0F26BE40B5439D
:1006F000CF1000F1200646F82750CE1000F120055B
:1007000055F8265045EA0304CE1000F1200545F8BF
:100710002640F0BD00BFFEE706E000F03DFB00F024
:10072000CDFA012001F042FBF7E700BFFEE770477A
:1007300070B5002100230F22C4781CB3174C246825
:1007400004F4E064C4F5E064C4F30721C1F10404D7
:10075000E3B20A4144789C40E1B2847814402143DA
:100760000C07210E0E4C05786155047804F01F0526
:100770000124AC4005786D11AD0005F1E025C5F808
:10078000004109E0047804F01F050124AC40054D48
:100790000678761145F8264070BD00000CED00E0AB
:1007A00000E400E080E100E002490143024A1160F8
:1007B000704700000000FA050CED00E029B1064A80
:1007C00012680243044B1A6004E0034A1268824331
:1007D000014B1A60704700003038024029B1064AC8
:1007E00012680243044B1A6004E0034A1268824311
:1007F000014B1A607047000044380240F0B50021F8
:1008000000220024022500260223324F3F6807F011
:100810000C0121B1042905D0082937D105E02E4F5C
:10082000076036E02D4F076033E02A4F3F1F3F68D7
:10083000C7F38056274F3F1F3F6807F03F036EB155
:10084000264FB7FBF3F7DFF88CC0ACF1040CDCF8F3
:1008500000C0CCF3881C07FB0CF40CE01E4FB7FB68
:10086000F3F7DFF870C0ACF1040CDCF800C0CCF397
:10087000881C07FB0CF4174F3F1F3F68C7F3014765
:100880007F1C7D00B4FBF5F7076002E0124F0760A4
:1008900000BF00BF0F4F3F6807F0F0010909104F7C
:1008A0007A5C0768D74047600A4F3F6807F4E05119
:1008B000890A0B4F7A5C4768D7408760054F3F68CD
:1008C00007F46041490B064F7A5C4768D740C76020
:1008D000F0BD0000083802400024F40000127A0045
:1008E000250000200CB500200190009034480068DD
:1008F00040F480303249086000BF3148006800F49D
:10090000003000900198401C0190009818B901989F
:10091000B0F5A04FF1D12A48006800F4003010B1C2
:100920000120009001E0002000900098012846D1AD
:1009300023484030006840F0805021494031086031
:100940002048006840F440401E4908601C480830B8
:1009500000681B49083108600846006840F4004000
:1009600008600846006840F4A05008601648091F57
:100970000860081F006840F08070091F086000BF11
:100980000F48006800F000700028F9D040F20570B0
:100990000E4908600A480830006820F00300084942
:1009A000083108600846006840F00200086000BF97
:1009B00003480830006800F00C000828F8D10CBD8E
:1009C000003802400070004008544007003C0240DC
:1009D000042808D14FF0E021096941F004014FF0EB
:1009E000E022116107E04FF0E021096921F00401E4
:1009F0004FF0E0221161704710B500BF502080F326
:100A00001188BFF34F8FBFF36F8F00BF01F02EFF30
:100A100018B14FF080500449086000BF002080F3F7
:100A2000118800BF10BD000004ED00E010B51548AE
:100A3000006840F47000134908601348006840F0F3
:100A400001001149086000200F49083108600E4874
:100A500000680E4908400C4908600D48091D0860EF
:100A6000081F006820F48020091F08600020064944
:100A70000C310860FFF736FF4FF000600149803904
:100A8000086010BD88ED00E000380240FFFFF6FE70
:100A90001030002410B540F225511D4800F04AF8EE
:100AA00010B31B4800F000F9C4B21A48008800F4E3
:100AB0000040C8B91748008800F4804060B10A2C93
:100AC00003D000201349088020E01248008840F439
:100AD00000401049088019E00D2C06D10D4800880F
:100AE00040F480400B49088010E00A480088C0F3B9
:100AF0000D0009490C5407480088401C054908802E
:100B000008460088C72801DD0020088010BD0000CD
:100B10000010014040000020B800002021B182896F
:100B200042F40052828104E082894DF6FF731A403C
:100B30008281704770B50246002400230025002002
:100B400040F66A16B14200D100BFC1F3421501F070
:100B50001F03012606FA03F3012D02D196893340C3
:100B600006E0022D02D1168A334001E0968A334016
:100B70000C12012606FA04F41688344013B10CB1A5
:100B8000012000E0002070BDF0B5034600240026DF
:100B90000025002040F66A17B94200D100BF184670
:100BA000C1F3421401F01F06012707FA06F5012CD4
:100BB00001D10C3004E0022C01D1103000E01430DF
:100BC0001AB107682F43076002E00768AF43076068
:100BD000F0BD00002DE9FF4705460E460024A14662
:100BE00000BFA046B08900B100BF2C8A24F4405455
:100BF000F08804432C82AC8941F20C608443B088B5
:100C000031890843718908430443AC81AC8A24F4D8
:100C10004074B0890443AC826846FFF7EFFD20487A
:100C2000854202D01F48854202D1DDF80C9001E0D8
:100C3000DDF80890A88900F4004040B109EBC90034
:100C400000EB091031684900B0FBF1F707E009EB50
:100C5000C90000EB091031688900B0FBF1F764208E
:100C6000B7FBF0F004012009642101FB1078A8898A
:100C700000F4004040B1322000EBC800B0FBF1F0BE
:100C800000F00700044308E0322000EB0810642164
:100C9000B0FBF1F000F00F0004432C81BDE8FF87AA
:100CA000001001400014014001468888C0F308008C
:100CB000704700BFFEE7014600BF70470D4800784F
:100CC00088B1012813D10C4908600C480088401CE9
:100CD0000A49088008460088142803DB00200880A1
:100CE0000449087004E000200349086000E000BFE8
:100CF00000BF704724000020A08242422200002052
:100D00001CB501212020FFF759FD4FF480700090A1
:100D100001208DF8040000208DF8060003208DF8D6
:100D2000050001208DF8070069460348FFF787FC9E
:100D30000020024908601CBD00140240A08242420B
:100D400010B504466FF00400FFF742FEE11704EB14
:100D50005171C1F3C701074A11701046007800EBCA
:100D60004001C1EBC0104FF6FF7101EAC00002491B
:100D7000088010BD360000203800002000BF054A62
:100D8000128802F04002002AF9D0C2B2014B9A80C8
:100D9000704700000010014010B52948008829491B
:100DA0000988884203DA00202749086002E0012010
:100DB0002549086022480088401C214908802348B2
:100DC0000078D8B1012838D108460088192814DBEA
:100DD000002008801B480088192803DB00201B49DD
:100DE00008702BE017480088401C16490880084608
:100DF0000088192801DB192008801FE010480088AE
:100E0000192819DB00200E4908800E4800880028A8
:100E100005DC01200D490870FFF708FC0EE00948C9
:100E20000088012803DA00200649088004E005480C
:100E30000088401E0349088000E000BF00BF10BDCD
:100E4000200000201E000020A48242421C0000203E
:100E50001CB501212020FFF7B1FC4FF4C0600090C9
:100E600001208DF8040000208DF8060003208DF885
:100E7000050001208DF8070069460548FFF7DFFBF4
:100E80000120044908600449C1F8A8021CBD000003
:100E900000140240A4824242008042421CB5012458
:100EA0004FF44070FFF780FCFFF7D2FFFFF728FFF9
:100EB0004FF4E13000F0BCFDA820FFF741FF0A48E5
:100EC000012100234A02CDE9001008A10B4801F0DE
:100ED00087FC0446012C02D101F05EF802E04FF0DD
:100EE000FF301CBD00BFFEE70000002041707054C1
:100EF00061736B437265617465000000C105000891
:100F00002DE9F04105460E461C4807681C4800685C
:100F1000001D00F0E3FD50B91948006890F82C104E
:100F20000120884017490968814316480160681C00
:100F300038B936B112480168091D134800F00CFE9B
:100F40001AE07C190E4800684460BC4207D20C4885
:100F50000168091D0D48006800F0E4FD0CE0084838
:100F60000168091D0A48006800F0DCFD09480068B6
:100F7000844201D207480460BDE8F0815800002097
:100F8000440000205C000020740200204C0000207F
:100F9000480000207400002010B5044600F0E8FD71
:100FA00024480068401C234908602348006840B971
:100FB000214804600846006801280DD100F0D6F9E8
:100FC0000AE01E48006838B91B480068C06AE16A38
:100FD000884201D81848046019480068401C184924
:100FE000086008460068206494F82C1001208840AE
:100FF00014490968084313490860E16A01EB81015B
:10100000114A02EB8100211D00F0A6FD00F0DAFD7F
:101010000A48006868B108480068C06AE16A884206
:1010200007D24FF0805009490860BFF34F8FBFF3DC
:101030006F8F10BD5400002044000020600000208D
:10104000700000205C000020C001002004ED00E0E2
:1010500010B500F08DFD10480068D0B90F4800F0C1
:1010600051FD0F4800F04EFD0C480E4908600C4839
:101070000D49086000220C210A2001F0EDF8064914
:1010800008600846006820B108A10348006800F025
:1010900051FE00F097FD10BD88000020880200205E
:1010A0009C0200208000002084000020546D7251BA
:1010B0000000000010B516E000F05AFD0C48C068B2
:1010C000C468201D00F00AFD0A480068401E094956
:1010D000086009480068401E0749086000F072FD7A
:1010E000204600F05FF8044800680028E4D110BDF5
:1010F00060020020540000205000002070B504461B
:101100000D46206C70B1216CE0680144E160D4E9C7
:101110000210884201D32168E1602846226CE16810
:10112000FFF710F970BD2DE9F04104460F46154652
:101130004FF00008A66B206C48B9206800282CD11D
:10114000A06801F037FC80460020A06025E07DB952
:101150003946226C6068FFF7F5F8216C6068084436
:101160006060D4E90101884217D32068606014E010
:101170003946226CE068FFF7E5F8216CE068411A17
:10118000E1602168E068884203D2216CA068411ABE
:10119000E160022D01D106B1761E701CA0634046AD
:1011A000BDE8F08110B50446206B00F029FD204613
:1011B00000F026FD10BD00000146084A12681268C2
:1011C0000AB9012200E000220A600A6822B9034A33
:1011D0001268D268106800E000207047800000208C
:1011E00030B54FF49633174800F007042CB1C01DFA
:1011F00020F00700134C041B1B1B0246124C2260FC
:101200000024114D6C60D018083820F007000F4CF6
:10121000206000240D4D2D686C600C4D2D682C60F5
:101220001146441A4C60094C24680C60084D4C6807
:101230002C60084D4C682C604FF00044064D2C602B
:1012400030BD0000B0020020940000209C0000206F
:10125000A4000020A0000020A800002000BFFFF78D
:1012600029FF064800680128F9D94FF08050044949
:101270000860BFF34F8FBFF36F8FF0E7C00100200E
:1012800004ED00E02DE9F04106460D46174698466C
:10129000069C0DB9246000E02760E6632564012107
:1012A000204601F007F884F84C80BDE8F0812DE974
:1012B000F05F82460E4690469B460A9F0C9C4FEA82
:1012C0008801A522206BFFF782F8A8F10100216BAD
:1012D00001EB800929F0070909F0070008B901208E
:1012E00000E0002050B900BF502080F31188BFF308
:1012F0004F8FBFF36F8F00BF00BFFEE786B10025A1
:1013000007E0715D04F134004155705D00B902E001
:101310006D1C0A2DF5D300BF00213D20015502E0D0
:10132000002084F83400052F00D30427E762A76467
:101330000020E064201D00F0F2FB04F1180000F032
:10134000EEFB2461C7F10500A06164620020206506
:1013500084F854005A465146484600F053FB20603A
:101360000B9808B10B980460BDE8F09F10B50024FD
:1013700007E004EB84010F4A02EB810000F0C2FB9E
:10138000641C052CF5D30C4800F0BCFB0B4800F0A6
:10139000B9FB0B4800F0B6FB0A4800F0B3FB0A4863
:1013A00000F0B0FB04480949086004480849086097
:1013B00010BD0000C00100202402002038020020DF
:1013C0004C0200206002002074020020480000202F
:1013D0004C00002010B50146164800E00068036884
:1013E0008B42FBD30246436813448B4204D14368CB
:1013F0004C682344436001460A464B681344046822
:10140000A34211D10C4C03682468A34208D04B6856
:101410000468646823444B6003681B680B6005E044
:10142000054B1B680B6001E003680B60884200D02D
:10143000016010BD940000209C0000202DE9F041C7
:1014400004460D4616461F464FF0000865602461AD
:10145000B5420CD8F01BA169884202D34FF00108B5
:1014600011E0211D0948006800F05CFB0BE0BE4262
:1014700004D2BD4202D34FF0010804E0211D04480C
:10148000006800F04FFB4046BDE8F081840000207A
:101490008000002070B5054600F06AFBA86B08B913
:1014A000012400E0002400F08DFB204670BD70B5E3
:1014B000054600F05DFBA86BE96B884201D1012471
:1014C00000E0002400F07EFB204670BDF8B5054624
:1014D0000F461A480068C068C468201D00F0FEFA74
:1014E00094F8280000F00400E8B1A06941192B46E7
:1014F0003A462046FFF7A2FFD8B1002003462A460D
:1015000001460090204601F0B3FB064656B900BFE5
:10151000502080F31188BFF34F8FBFF36F8F00BF50
:1015200000BFFEE705E094F8280020F0010084F8F1
:1015300028002046216A8847F8BD0000800000206E
:1015400070B586B08BE003980028FBDB059C6069D2
:1015500008B9012000E0002010B9201D00F0BEFAFB
:1015600002A800F0DDF8054603980A2875D2DFE8E6
:1015700000F009050739416306083A4200BF00BF81
:1015800000BF00BF94F8280040F0010084F8280054
:101590000498A269811803462A462046FFF74EFFA9
:1015A000F8B12046216A884794F8280000F004002A
:1015B000B8B1002000900498A16942180023194690
:1015C000204601F055FB064656B900BF502080F377
:1015D0001188BFF34F8FBFF36F8F00BF00BFFEE7CF
:1015E00000BF3BE000BF94F8280020F0010084F821
:1015F000280033E000BF94F8280040F0010084F890
:1016000028000498A061A06908B1012000E0002032
:1016100050B900BF502080F31188BFF34F8FBFF344
:101620006F8F00BF00BFFEE7A06941192B462A4615
:101630002046FFF703FF11E094F8280000F00200B5
:1016400018B9204600F0DCFA05E094F8280020F0F4
:10165000010084F8280001E0FFE700BF00BF00227E
:1016600003A90448006800F0C1FF00287FF46BAFB5
:1016700006B070BD88000020F8B505460C4600F0A5
:10168000D5FC684600F04CF80646009820BB44B9EB
:10169000B54206D801F03EFA31462846FFF716FF5C
:1016A0001CE03CB10E480068006808B9012000E069
:1016B00000200446A91B22460A48006800F050FB9F
:1016C00001F028FA50B94FF0805007490860BFF385
:1016D0004F8FBFF36F8F01E001F01CFAF8BD0000DF
:1016E000840000208800002004ED00E00A49096819
:1016F000096809B9012100E0002121B14FF0FF3153
:10170000064A116006E004490968C968C868034AC6
:1017100041681160704700004800002074000020FC
:1017200070B5044601F09CF80546074800688542FC
:1017300004D200F00BF80120206001E000202060BE
:1017400001480560284670BD900000202DE9F8434F
:1017500034E025480068C068056823480068C06810
:10176000C468201D00F0BAF92046216A884794F821
:10177000280000F0040008B3A0694619AE4207D95A
:1017800066602461211D1848006800F0CBF915E05F
:10179000002003462A4601460090204601F068FAE0
:1017A000074657B900BF502080F31188BFF34F8F11
:1017B000BFF36F8F00BF00BFFEE700BF0A4800689D
:1017C000006808B9012000E000200028C1D00648C8
:1017D000D0F8008005480068034908600348C0F855
:1017E0000080BDE8F8830000800000208400002015
:1017F0000E480068401C08B9012000E0002050B9E4
:1018000000BF502080F31188BFF34F8FBFF36F8F5D
:1018100000BF00BFFEE700BF502080F31188BFF378
:101820004F8FBFF36F8F00BF00BFFEE7AC000020FB
:1018300008B500BF6846FFF7BFFC04462046009984
:10184000FFF71AFFFFF77CFEF4E770B5044600F0DF
:101850008FF994F9455010E0606A08B9012000E062
:10186000002038B904F1240001F008F918B100F0A3
:1018700051FB00E003E0681E45B2002DECDC00BF28
:10188000FF2084F8450000F09DF900F071F994F90B
:10189000445010E0206908B9012000E0002048B958
:1018A00004F1100001F0EAF808B100F033FB681E03
:1018B00045B200E001E0002DECDC00BFFF2084F821
:1018C000440000F07FF970BD2DE9F04104464FF06F
:1018D000000800F0ABFB4648006808B9FFF780FC41
:1018E00044480068204000286BD1D4B1083404F08B
:1018F0000700B0B104F00700C0F10800044404F090
:10190000070008B9012000E0002050B900BF5020B6
:1019100080F31188BFF34F8FBFF36F8F00BF00BFFD
:10192000FEE7002C4DD034480068844249D8334E3D
:101930003046056801E02E462D686868A04202D254
:1019400028680028F7D12A480068854239D03068D5
:1019500000F10808286830606868001B102819D951
:101960002F1907F0070008B9012000E0002050B946
:1019700000BF502080F31188BFF34F8FBFF36F8FEC
:1019800000BF00BFFEE76868001B78606C603846E7
:10199000FFF720FD184968680968081A16490860A9
:1019A0000846006816490968884203D21248006850
:1019B000134908600F496868096808436860002097
:1019C000286001F0A7F808F0070008B9012000E03E
:1019D000002050B900BF502080F31188BFF34F8F13
:1019E000BFF36F8F00BF00BFFEE74046BDE8F08148
:1019F0009C000020A8000020A000002094000020EF
:101A0000A4000020001F4FF080730360001F21F02E
:101A100001030360001F054B036014380260001FC0
:101A20006FF002030360203870470000F1170008D0
:101A300010B588B0044601210846FEF7BFFE01211B
:101A40001020FEF7CBFE072209212248FEF73FFEB9
:101A500007220A211F48FEF73AFE4FF4C0600690A5
:101A600002208DF81C008DF81D0000208DF81E004E
:101A700001208DF81F0006A91648FEF7E0FD02942C
:101A80000020ADF80C00ADF80E00ADF81000ADF878
:101A900014000C20ADF8120002A90F48FFF79AF8C5
:101AA00001210D48FFF73AF8012240F225510A487A
:101AB000FFF76AF825208DF8040003208DF8050053
:101AC0008DF8060001208DF8070001A8FEF730FE12
:101AD00008B010BD000002400010014001460A6934
:101AE000D1E901309860D1E901035860506888421B
:101AF00001D188685060002008611068401E1060A5
:101B00001068704700F1080141604FF0FF318160BB
:101B100000F10801C16001610021016070470021EE
:101B20000161704710B502460B685C1C0CB9106966
:101B300007E002F1080000E04068446824689C4225
:101B4000FAD944684C604C68A160886041600A61C1
:101B50001468641C146010BD42684A6093688B600E
:101B6000936859609160086103685B1C036070476B
:101B700000BF502080F31188BFF34F8FBFF36F8FEA
:101B800000BF0E480068401C0C4908600846006809
:101B9000012812D10A480068C0B208B9012000E04B
:101BA000002050B900BF502080F31188BFF34F8F41
:101BB000BFF36F8F00BF00BFFEE77047AC0000208F
:101BC00004ED00E00D48006850B900BF502080F3DC
:101BD0001188BFF34F8FBFF36F8F00BF00BFFEE7C9
:101BE00006480068401E054908600846006820B99C
:101BF000002080F3118800BF00BF7047AC000020B8
:101C000070B506463546002E3FD0083D2C461F498C
:101C100060680968084008B1012000E0002050B960
:101C200000BF502080F31188BFF34F8FBFF36F8F39
:101C300000BF00BFFEE7206808B9012000E00020D7
:101C400050B900BF502080F31188BFF34F8FBFF30E
:101C50006F8F00BF00BFFEE70C496068096808404D
:101C600098B1206888B9094960680968884360604C
:101C700000F0DCF906496068096808440449086016
:101C80002046FFF7A7FB00F045FF70BDA80000202D
:101C9000A000002000204FF0E02108618861064884
:101CA00000684FF47A71B0FBF1F0401E4FF0E02174
:101CB00048610720086170470800002070B5FEF7F2
:101CC0000FFB0446102C16D304F1E02090F8F053DB
:101CD00015480078854201DB012000E0002050B962
:101CE00000BF502080F31188BFF34F8FBFF36F8F79
:101CF00000BF00BFFEE70D48006800F4E0600C493B
:101D00000968884201D8012000E0002050B900BFD6
:101D1000502080F31188BFF34F8FBFF36F8F00BF48
:101D200000BFFEE770BD0000B00000200CED00E039
:101D3000B4000020024600200BE0084B53F830307E
:101D400033B9064B43F8301003EBC0035A6002E08E
:101D5000401C0828F1D300BF70470000800100201C
:101D60002DE9F04105460E4617462C46FFF700FFC9
:101D700094F94400401C10B9002084F8440094F900
:101D80004500401C10B9002084F84500FFF71AFFF9
:101D9000A06B28B93A46314604F1240000F0DCF883
:101DA0002046FFF752FDBDE8F081000070B5044603
:101DB0000025D4B11248006808B9012000E00020D5
:101DC00050B900BF502080F31188BFF34F8FBFF38D
:101DD0006F8F00BF00BFFEE700F028F9002120460A
:101DE000FFF78EF800F096FE05463DB94FF08050A3
:101DF00004490860BFF34F8FBFF36F8F70BD0000C1
:101E00007C00002004ED00E070B50546FFF7B0FE51
:101E100015B93048006800E028460446201DFFF749
:101E20005DFE78B9E06A00EB80002B4951F8200094
:101E300040B994F82C100120884028490968814352
:101E400026480160A06A18B104F11800FFF746FEA9
:101E500023480068401C224908601E4800688442EC
:101E600009D1211D1F48FFF777FE1F480068401C5D
:101E70001D49086009E01D480068401E1B490860B4
:101E80002046FFF78FF9FFF731FCFFF79BFE18485C
:101E90000068E8B10F480068844219D1154800680D
:101EA00008B9012000E0002050B900BF502080F3A5
:101EB0001188BFF34F8FBFF36F8F00BF00BFFEE7E6
:101EC0004FF080500C490860BFF34F8FBFF36F8F06
:101ED00070BD000044000020C00100205C00002014
:101EE00070000020600200205000002054000020FC
:101EF000600000207C00002004ED00E00349096838
:101F00000160034909684160704700006C000020CF
:101F10005800002001200149086070476800002037
:101F200070B504460D4654B900BF502080F31188A7
:101F3000BFF34F8FBFF36F8F00BF00BFFEE70548B1
:101F4000016818312046FFF7EDFD01212846FEF714
:101F5000D7FF70BD4400002070B505460E461446FC
:101F600055B900BF502080F31188BFF34F8FBFF3E6
:101F70006F8F00BF00BFFEE7064801681831284692
:101F8000FFF7EAFD0CB14FF0FF3621463046FEF771
:101F9000B7FF70BD440000201CB51D4800210B4652
:101FA0008222CDE900101BA11C4800F019FC044658
:101FB000012C02D100F030FE0446012C15D100BFE7
:101FC000502080F31188BFF34F8FBFF36F8F00BF96
:101FD0004FF0FF30124908600120124908600020CC
:101FE0001149086000F070F810E0601C08B1012091
:101FF00000E0002050B900BF502080F31188BFF3EB
:102000004F8FBFF36F8F00BF00BFFEE71CBD000006
:102010007800002049444C45000000005D12000893
:102020007400002060000020580000200248006872
:10203000401C0149086070477C0000201D48006872
:1020400018B101201C49086032E000201A490860DC
:102050001A480068B0FA80F0C0F11F0101EB81005E
:10206000174A52F8200008B1012000E0002050B9C2
:1020700000BF502080F31188BFF34F8FBFF36F8FE5
:1020800000BF00BFFEE701EB81020D4B03EB8200B6
:1020900042685268426000F108024368934202D1EC
:1020A0004268526842604268D268064B1A6000BFBC
:1020B000704700007C000020680000205C000020C9
:1020C000C0010020440000201CB55C4800685C4949
:1020D000884201D0012000E0002050B900BF50200C
:1020E00080F31188BFF34F8FBFF36F8F00BF00BF26
:1020F000FEE7524800685249491E884201D001203B
:1021000000E0002050B900BF502080F31188BFF3D9
:102110004F8FBFF36F8F00BF00BFFEE749490846EE
:1021200000780190FF200A46107008460078009061
:102130009DF8000000F0F0009DF80020904201D1D1
:10214000012000E0002050B900BF502080F311882A
:10215000BFF34F8FBFF36F8F00BF00BFFEE79DF847
:10216000000000F05000384A10700720374A106015
:1021700009E036480068401E344A10609DF80000AF
:102180004006000E00909DF8000000F080008028BE
:10219000EFD02E480068C0F10700042801D10120CB
:1021A00000E0002050B900BF502080F31188BFF339
:1021B0004F8FBFF36F8F00BF00BFFEE7234800685B
:1021C000C0F10700042801D1012000E0002050B92F
:1021D00000BF502080F31188BFF34F8FBFF36F8F84
:1021E00000BF00BFFEE7194800680002174A1060F0
:1021F0001046008800F4E0601060124A01981070E8
:102200000E482030006840F470000C49203108600E
:102210000846006840F070400860FFF73BFD002072
:102220000B490860FEF724F80A48006840F0404077
:1022300008490860FEF708F800201CBD00ED00E02A
:1022400071C20F4100E400E0B0000020B4000020A3
:10225000AC00002034EF00E02DE9F84305460E46BF
:1022600090460DB1012000E0002050B900BF502081
:1022700080F31188BFF34F8FBFF36F8F00BF00BF94
:10228000FEE70EB9002701E005FB06F707F1500055
:10229000FFF71AFB04464CB1A14609F15009434629
:1022A0004A46314628460094FEF7ECFF2046BDE83A
:1022B000F883000070B505460E462C4654B900BFA1
:1022C000502080F31188BFF34F8FBFF36F8F00BF93
:1022D00000BFFEE7FFF74CFCD4E90F12206801FBBA
:1022E0000200A0600020A06320686060E06B401ED8
:1022F000226C216800FB0211E160FF2084F8440099
:1023000084F845009EB9206908B9012000E000204A
:10231000A8B904F1100000F0B1FB80B14FF080507B
:1023200009490860BFF34F8FBFF36F8F07E004F1D7
:102330001000FFF7E7FB04F12400FFF7E3FBFFF7D2
:1023400041FC012070BD000004ED00E02DE9FF43D9
:1023500083B0064688461D464FF00009344654B9FE
:1023600000BF502080F31188BFF34F8FBFF36F8FF2
:1023700000BF00BFFEE7B8F1000F01D1206C08B923
:10238000012000E0002050B900BF502080F31188E8
:10239000BFF34F8FBFF36F8F00BF00BFFEE7022D6B
:1023A00002D1E06B012801D1012000E0002050B9EA
:1023B00000BF502080F31188BFF34F8FBFF36F8FA2
:1023C00000BF00BFFEE700F03BFA08B9059808B966
:1023D000012000E0002050B900BF502080F3118898
:1023E000BFF34F8FBFF36F8F00BF00BFFEE700BF8B
:1023F000FFF7BEFBA06BE16B884201D3022D28D111
:102400002A4641462046FEF78EFE0746606A08B916
:10241000012000E0002068B904F1240000F02EFB48
:1024200088B14FF0805032490860BFF34F8FBFF33F
:102430006F8F08E03FB14FF080502D490860BFF327
:102440004F8FBFF36F8FFFF7BDFB012007B0BDE8D3
:10245000F083059818B9FFF7B5FB0020F6E7B9F14E
:10246000000F04D101A8FFF749FD4FF00109FFF764
:10247000A9FBFFF7DBFDFFF77BFB94F94400401C51
:1024800010B9002084F8440094F94500401C10B9AC
:10249000002084F84500FFF795FB05A901A800F08E
:1024A00059F9F0B92046FFF702F8A0B104F1100085
:1024B0000599FFF735FD2046FFF7C7F900F02AFB25
:1024C000002895D14FF0805009490860BFF34F8F25
:1024D000BFF36F8F8CE72046FFF7B7F900F01AFBC8
:1024E00086E72046FFF7B1F900F014FB0020ADE7C6
:1024F00004ED00E02DE9F05F07468A4690461E464F
:102500003C4654B900BF502080F31188BFF34F8F71
:10251000BFF36F8F00BF00BFFEE7BAF1000F01D11C
:10252000206C08B9012000E0002050B900BF502005
:1025300080F31188BFF34F8FBFF36F8F00BF00BFD1
:10254000FEE7022E02D1E06B012801D1012000E05C
:10255000002050B900BF502080F31188BFF34F8F87
:10256000BFF36F8F00BF00BFFEE7FFF7A7FB00BF01
:102570005021EFF3118081F31188BFF34F8FBFF328
:102580006F8F00BF0546A06BE16B884201D3022E1E
:1025900023D194F945B0324651462046FEF7C3FD9B
:1025A0000BF1010088B9606A08B9012000E0002041
:1025B00080B904F1240000F061FA58B1B8F1000FBD
:1025C00008D00120C8F8000004E00BF1010040B27F
:1025D00084F845004FF0010901E04FF0000900BF09
:1025E00085F3118800BF4846BDE8F09F2DE9F7410B
:1025F00083B005460E464FF000082C4654B900BF84
:10260000502080F31188BFF34F8FBFF36F8F00BF4F
:1026100000BFFEE70EB9206C08B9012000E00020E1
:1026200050B900BF502080F31188BFF34F8FBFF324
:102630006F8F00BF00BFFEE700F002F908B90598F0
:1026400008B9012000E0002050B900BF502080F3FD
:102650001188BFF34F8FBFF36F8F00BF00BFFEE73E
:1026600000BFFFF785FAA76BF7B131462046FEF7AA
:1026700045FD781EA063206908B9012000E0002014
:1026800060B904F1100000F0F9F938B14FF0805052
:102690002F490860BFF34F8FBFF36F8FFFF792FA98
:1026A000012006B0BDE8F081059818B9FFF78AFA55
:1026B0000020F6E7B8F1000F04D101A8FFF71EFCD7
:1026C0004FF00108FFF77EFAFFF7B0FCFFF750FA72
:1026D00094F94400401C10B9002084F8440094F997
:1026E0004500401C10B9002084F84500FFF76AFA45
:1026F00005A901A800F02EF8F0B92046FEF7CAFEA1
:10270000A0B104F124000599FFF70AFC2046FFF769
:102710009CF800F0FFF90028A3D14FF080500C493D
:102720000860BFF34F8FBFF36F8F9AE72046FFF724
:102730008CF800F0EFF994E72046FFF786F800F0F8
:10274000E9F92046FEF7A6FE00288AD00020A8E777
:1027500004ED00E070B505460C4655B900BF5020A9
:1027600080F31188BFF34F8FBFF36F8F00BF00BF9F
:10277000FEE754B900BF502080F31188BFF34F8F9C
:10278000BFF36F8F00BF00BFFEE7FFF7F1F91248FC
:1027900002686868131A2068401C08B9002617E010
:1027A0000E4928680968884204D06868904201D8B8
:1027B00001260DE02068984207D92068C01A2060E1
:1027C0002846FFF79BFB002602E000202060012640
:1027D000FFF7F8F9304670BD580000206C0000206B
:1027E0002DE9FF4F85B0804689461746DDE912ABDB
:1027F000B800FFF769F8064656B15820FFF764F8AD
:1028000004460CB1266304E03046FFF7F9F900E016
:1028100000247CB10020CDE900ABCDE902403A466E
:1028200049464046089BFEF742FD2046FEF7B4FBB2
:10283000012501E04FF0FF35284609B0BDE8F08FD3
:102840000549096809B9012005E00449096809B981
:10285000022000E000207047600000207C00002083
:102860000149086870470000580000202DE9F04138
:102870004FF0000844480068002877D143480068BA
:10288000451C4248056015BB41480068006808B90E
:10289000012000E0002050B900BF502080F31188D3
:1028A000BFF34F8FBFF36F8F00BF00BFFEE7384805
:1028B0000768384800683649086036480760364877
:1028C0000068401C34490860FEF710FF00BF334821
:1028D000006885423CD300BF2D480068006808B9F5
:1028E000012000E0002020B14FF0FF302B490860AC
:1028F0002DE027480068C068C4686668B54202D207
:102900002648066023E0201DFFF7E8F8A06A18B10A
:1029100004F11800FFF7E2F894F82C100120884029
:102920001F49096808431E490860E16A01EB8101FB
:102930001C4A02EB8100211DFFF70EF91A49E06ADB
:102940000968C96A8842C7D34FF00108C4E700BFCD
:1029500015480068C06A00EB8000124951F8200059
:10296000012801D94FF0010805E0FFE70F48006892
:10297000401C0E4908600E48006808B14FF001087D
:102980004046BDE8F08100007C0000205800002097
:10299000480000204C0000206C0000207400002043
:1029A0005C000020C00100204400002064000020E2
:1029B0006800002070B505462C460026002D55D035
:1029C0002B480068844201D1012000E0002050B96A
:1029D00000BF502080F31188BFF34F8FBFF36F8F7C
:1029E00000BF00BFFEE7E06C50B900BF502080F38D
:1029F0001188BFF34F8FBFF36F8F00BF00BFFEE79B
:102A0000E06C401EE064A16CE06A88422ED0E06C6D
:102A100060BB201DFFF762F878B9E06A00EB800028
:102A2000144951F8200040B994F82C100120884036
:102A300011490968814310480160A06CE062E06AB6
:102A4000C0F10500A06194F82C10012088400A49CB
:102A50000968084308490860E16A01EB8101054AF9
:102A600002EB8100211DFFF777F80126304670BD8B
:102A700044000020C00100205C00002070B5064624
:102A8000F068C46854B900BF502080F31188BFF3C8
:102A90004F8FBFF36F8F00BF00BFFEE704F1180038
:102AA000FFF71CF815480068A8B9201DFFF716F8B5
:102AB00094F82C10012088401149096808431049F6
:102AC0000860E16A01EB81010E4A02EB8100211DE1
:102AD000FFF742F804E004F118010B48FFF73CF857
:102AE0000A49E06A0968C96A884204D901250120B7
:102AF0000749086000E00025284670BD7C000020E2
:102B00005C000020C00100204C0200204400002096
:102B10006800002070B5002400263648006850B9CF
:102B200000BF502080F31188BFF34F8FBFF36F8F2A
:102B300000BF00BFFEE7FFF71BF82E480068401EED
:102B40002C4908600846006800284FD12A480068D0
:102B500000284BD024E02948C068C46804F118005C
:102B6000FEF7BCFF201DFEF7B9FF94F82C100120E2
:102B7000884023490968084321490860E16A01EB5C
:102B80008101204A02EB8100211DFEF7E5FF1E496D
:102B9000E06A0968C96A884202D301201B490860BB
:102BA0001648006808B9012000E000200028D2D0B3
:102BB0000CB1FEF79BFD1648056865B100BFFFF735
:102BC00055FE10B10120114908606D1E002DF6D18F
:102BD00000200F4908600D48006838B10126300711
:102BE0000C490860BFF34F8FBFF36F8FFEF7EAFF0A
:102BF000304670BD7C000020540000204C020020B4
:102C00005C000020C001002044000020680000207B
:102C10006400002004ED00E01CB50024FEF718FA63
:102C20000E48006858B10E48022100234FF482720A
:102C3000CDE900100BA10D48FFF7D2FD044654B9B1
:102C400000BF502080F31188BFF34F8FBFF36F8F09
:102C500000BF00BFFEE720461CBD0000880000202A
:102C60008C000020546D72205376630031180008E8
:102C70002DE9FE4304460D4616461F46DDF8288022
:102C80004FF0000954B900BF502080F31188BFF302
:102C90004F8FBFF36F8F00BF00BFFEE7144800687F
:102CA00010B3009501960294062D15DAFFF7C8FDC2
:102CB000022808D10023424669460D480068FFF704
:102CC00045FB814610E000231A4669460848006823
:102CD000FFF73CFB814607E000233A46694604487B
:102CE0000068FFF707FC81464846BDE8FE83000008
:102CF000880000204FF04070E1EE100A704700009D
:102D0000202D000800000020B8000000C4010008C9
:102D1000D82D0008B800002058340100E001000858
:102D20000000000000000000007A030A000000001C
:102D3000000000000102030406070809010000006A
:102D40000000000000000000000102030401020373
:102D50000406070809000000000000000000000051
:102D60000000000000000000000000000000000063
:102D70000000000000000000000000000000000053
:102D80000000000000000000000000000000000043
:102D90000000000000000000000000000000000033
:102DA0000000000000000000000000000000000023
:102DB0000000000000000000000000000000000013
:102DC000000000000000000000000000AAAAAAAA5B
:082DD0000000000000000000FB
:040000050800018965
:00000001FF
