:020000040800F2
:100000000002002047010008C5010008290200087D
:100010002D0200083102000835020008000000002F
:10002000000000000000000000000000390200088D
:100030003B02000800000000676D00083F02000856
:1000400067010008670100086701000867010008F0
:1000500067010008670100086701000867010008E0
:1000600067010008670100086701000867010008D0
:10007000C701000867010008670100086701000860
:1000800067010008670100086701000867010008B0
:1000900067010008670100086701000867010008A0
:1000A0006701000867010008670100086701000890
:1000B0006701000867010008670100086701000880
:1000C0006701000867010008670100086701000870
:1000D000670100080F02000867010008E701000837
:1000E0006701000867010008670100086701000850
:1000F0006701000867010008670100086701000840
:10010000670100086701000867010008670100082F
:10011000670100086701000867010008670100081F
:10012000670100086701000867010008670100080F
:10013000DFF80CD007F058F90048004785010008A7
:10014000602E0020704708488047084981F30888DE
:1001500007480047FEE7FEE7FEE7FEE7FEE7FEE7AB
:10016000FEE7FEE7FEE7FEE745010008602E0020FF
:100170003101000870B5054601F051FD044601F05B
:1001800047FD70BD00B585B000F0DCFF05F04EFB0B
:10019000032000214FF4C872084BCDE90132CDE9AC
:1001A00003100A200346064A0090AFF2370006F01B
:1001B00082F905F01CFC002005B000BD680000209D
:1001C000A4060020704710B5202000F08BFC012809
:1001D00008D1202000F09AFC00211D4800F06AFCA4
:1001E00001F081FC10BD10B540F22551194800F016
:1001F0003FFE58B140F22551164800F05FFE154809
:10020000001D0088C4B2204602F0AAFA10BD10B545
:1002100040F22551104800F02BFE20B140F225514C
:100220000D4800F04BFE10BD00BFFEE700BFFEE72B
:1002300000BFFEE700BFFEE770477047704710B58C
:1002400005F008FB05F00AFC05F012FB10BD0000EC
:100250001C000240004800400038014010B5044630
:10026000C649601A8C422FD009DCC548204480B1B1
:10027000B0F5806F16D0B0F5006F4AD11BE0B0F535
:10028000806F2AD0B0F5006F30D0B0F5406F40D10C
:1002900035E00121042000F0FFFA0021042000F0E5
:1002A000FBFA37E00121082000F0F6FA00210820CF
:1002B00000F0F2FA2EE00121102000F0EDFA00210A
:1002C000102000F0E9FA25E00121202000F0E4FAF6
:1002D0000021202000F0E0FA1CE00121402000F085
:1002E000DBFA0021402000F0D7FA13E00121802042
:1002F00000F0D2FA0021802000F0CEFA0AE00121BD
:10030000080200F0C9FA00214FF4807000F0C4FA2E
:1003100000E000BF00BF10BD10B50121084600F08D
:10032000BBFA0021012000F0B7FA10BD2DE9F04121
:10033000024600250026002000230024002791F813
:1003400003C00CF00F0591F803C00CF0100CBCF1C9
:10035000000F03D091F802C04CEA050591F800C0E7
:10036000BCF1000F31D0146800202BE04FF0010CDD
:100370000CFA00F3B1F800C00CEA03069E4220D14B
:1003800083004FF00F0C0CFA03F7BC4305FA03FC93
:100390004CEA040491F803C0BCF1280F06D14FF0D9
:1003A000010C0CFA00FCC2F814C00AE091F803C07A
:1003B000BCF1480F05D14FF0010C0CFA00FCC2F85B
:1003C00010C0401C0828D1D31460B1F800C0BCF1A3
:1003D000FF0F34DD546800202EE000F1080C4FF0D0
:1003E000010808FA0CF3B1F800C00CEA03069E42BB
:1003F00021D183004FF00F0C0CFA03F7BC4305FA30
:1004000003FC4CEA040491F803C0BCF1280F05D1A9
:1004100000F1080C08FA0CF8C2F8148091F803C037
:10042000BCF1480F07D100F1080C4FF0010808FAA1
:100430000CF8C2F81080401C0828CED35460BDE8E8
:10044000F0814FF6FF710180022181700421C1709B
:1004500070470246002093680B400BB1012000E07A
:10046000002070470146886880B27047024600202D
:10047000D3680B400BB1012000E00020704701461B
:10048000C86880B2704701617047416170470AB126
:10049000016100E041617047C16070474FF48032F4
:1004A0000A43826181618261826982697047024682
:1004B0000020344B18684FF68073184040EA021051
:1004C0000843304B186070472F49C8617047F0B53A
:1004D0000A4600230024002100252A4E7168C0F33B
:1004E000034583B200F44016B6F5401F08D121F051
:1004F0007061244E766826F07066224F7E6012E0AE
:1005000000F48016B6F5801F06D1032606FA05F41E
:10051000A14341F0706106E0460D360103FA06F68C
:10052000B14341F0706122B1460D360103FA06F67F
:100530003143144E7160F0BD30B500228B071C0FA3
:100540000F2303FA04F20F4B08338C1053F82430B6
:1005500093430C4C08348D1044F8253023468C10FE
:1005600053F824308C07240F00FA04F42343054C7D
:1005700008348D1044F8253030BD000000140140CF
:1005800000F8FEBF0000014000002042DE48006885
:1005900040F00100DC49086008464068DB4908403B
:1005A000D949486008460068D9490840D6490860DA
:1005B0000846006820F4802008600846406820F45F
:1005C000FE004860002088607047CF49096821F428
:1005D0008031CD4A11601146096821F480211160F3
:1005E000B0F5803F03D0B0F5802F0ED106E0C649AC
:1005F000096841F48031C44A116007E0C2490968C2
:1006000041F4A021C04A116000E000BF00BF704764
:1006100010B501460022002300204A11012A02D110
:10062000B94C236806E0022A02D1B74C236A01E0E4
:10063000B54C636A01F01F02012494401C400CB1C8
:10064000012000E0002010BD38B5002000900024FB
:10065000002500BF3120FFF7DBFF05460098401C56
:1006600000901DB90098B0F5A06FF3D13120FFF7CD
:10067000CFFF08B1012400E00024204638BD014628
:100680000020A14A106820F0F80040EAC100106084
:100690007047A04908607047024600209A4B58688E
:1006A00020F47C1042EA01031843974B58607047CE
:1006B00098490866704701460020934A506820F028
:1006C00003000843506070478F48406800F00C00FA
:1006D0007047014600208C4A506820F0F000084323
:1006E0005060704701460020874A506820F4E0605F
:1006F00008435060704701460020834A506820F448
:10070000605040EAC1005060704729B17E4A527A79
:1007100002437D4B5A7204E07B4A527A82437A4B01
:100720005A7270477B49D8310860704701460020F3
:10073000754A506820F440400843506070470021DB
:10074000714A20321170704A82F82010012802D0BC
:1007500004280AD104E001216B4A2032117005E01F
:100760000521694A2032117000E000BF00BF7047C8
:100770006949086070476449096A0143624A116225
:100780007047654944390860704730B50021002240
:10079000002400235C4D6D6805F00C0121B1042993
:1007A00005D0082923D105E05C4D056022E05B4DB2
:1007B00005601FE0544D6D6805F47012022505EBCD
:1007C0009242514D6D6805F480341CB9544D554327
:1007D00005600BE04C4D6D6805F400351DB1504DC2
:1007E0005543056002E04D4D5543056002E04B4D19
:1007F000056000BF00BF444D6D6805F0F0010909B8
:10080000484D6B5C0568DD4045603F4D6D6805F403
:10081000E061090A434D6B5C4568DD4085603A4DF7
:100820006D6805F46051C90A3E4D6B5C4568DD405A
:10083000C560354D6D6805F44041890B3A4D6B5CE0
:10084000C568B5FBF3F5056130BD29B12E4A526983
:1008500002432D4B5A6104E02B4A526982432A4BD2
:100860005A61704729B1284A92690243264B9A611E
:1008700004E0254A92698243234B9A61704729B16B
:10088000214AD2690243204BDA6104E01E4AD26950
:1008900082431D4BDA61704729B11B4AD26802437B
:1008A000194BDA6004E0184AD2688243164BDA60CA
:1008B000704729B1144A12690243134B1A6104E0CC
:1008C000114A12698243104B1A617047124940392C
:1008D000086070470F49C86470470B49C87170477A
:1008E0000948406A40F080700749486270470146F5
:1008F0000020054A92680A400AB1012000E0002069
:100900007047014988727047001002400000FFF8EC
:10091000FFFFF6FE000042428004424200127A00CD
:1009200000093D000000002010000020016821F0B7
:10093000010101600021016041608160C160874A5E
:10094000811A90425BD012DC854AA0EB02019042F2
:100950003AD007DC83490144D9B1142922D028298F
:100960007AD128E0142938D0282975D13EE0B1F594
:100970006C7F5BD006DCB1F5627F49D0B1F5677F53
:100980006AD14CE0B1F5717F57D0B1F5767F63D174
:100990005BE073494439496841F00F01704A443AB9
:1009A00051605AE06E494439496841F0F0016C4A9F
:1009B000443A516051E06A494439496841F47061F0
:1009C000674A443A516048E065494439496841F40E
:1009D0007041634A443A51603FE061494439496893
:1009E00041F470215E4A443A516036E05C49443932
:1009F000496841F470015A4A443A51602DE058491F
:100A00004439496841F07061554A443A516024E0E4
:100A10005549096841F00F01534A11601DE05249E0
:100A2000096841F0F001504A116016E04E4909682A
:100A300041F470614C4A11600FE04B49096841F480
:100A40007041494A116008E006E04749096841F4ED
:100A50007021454A116000E000BF00BF704710B52B
:100A60000022026847F6F0739A430C6A8B682343AE
:100A70000C6923434C6923438C692343CC6923438A
:100A80004C6A23438C6A23431A430260CB68436059
:100A90000B6883604B68C36010BD0021016041603A
:100AA0008160C160016141618161C1610162416236
:100AB0008162704721B1026842F00102026003E0E6
:100AC000026822F00102026070471AB103680B430A
:100AD000036002E003688B43036070470146486887
:100AE00080B2704701460020002201F080531BB104
:100AF0001D4B1B1F1A6802E0194B443B1A6802EA9F
:100B000001030BB1012000E00020704700F080518C
:100B100011B11549086002E0114944394860704735
:100B200001460020002201F080531BB10E4B1B1F19
:100B30001A6802E00A4B443B1A6802EA01030BB14F
:100B4000012000E00020704700F0805111B10649FB
:100B5000086002E002494439486070478000024062
:100B600044000240F8FFFDBF0404024010B50446F3
:100B7000D749601A8C422BD006DCD648204498B165
:100B8000B0F5806F38D119E0B0F5806F2AD0B0F59C
:100B90006C4F31D101218803FFF77EFE00214FF415
:100BA0008040FFF779FE28E001214804FFF781FE2D
:100BB00000214FF40030FFF77CFE1EE00121880485
:100BC000FFF777FE00214FF48020FFF772FE14E05C
:100BD0000121C804FFF76DFE00214FF40020FFF74C
:100BE00068FE0AE001210805FFF763FE00214FF4CB
:100BF0008010FFF75EFE00E000BF00BF10BD2DE9D2
:100C0000F04786B005460E460024A24600BF00BF4E
:100C100000272F462C8A4CF6FF700440F0880443CE
:100C20002C82AC894EF6F3100440B0883189084319
:100C3000718908430443AC81AC8A4FF6FF400440FD
:100C4000B0890443AC8201A8FFF79FFDA248874208
:100C500002D1DDF810A001E0DDF80CA00AEBCA001B
:100C600000EB0A1031688900B0FBF1F86420B8FB92
:100C7000F0F004012009642101FB1089322000EB0F
:100C80000910B0FBF1F000F00F0004432C8106B016
:100C9000BDE8F0874FF41651016000218180C180CA
:100CA00001810C21418100218181704710B50246EC
:100CB0000020108A4FF2FF0318400B884C88234312
:100CC0008C882343CC8823431843108210BD002115
:100CD000018041808180C180704721B1828942F4C6
:100CE0000052828104E082894DF6FF731A408281AE
:100CF0007047F0B503460024002600250020184662
:100D0000C1F3421401F01F06012707FA06F5012C72
:100D100001D10C3004E0022C01D1103000E014307D
:100D20001AB107682F43076002E00768AF43076006
:100D3000F0BD1AB1838A0B43838202E0838A8B431E
:100D400083827047028A4FF6F0731A400282028A49
:100D50000A430282704782894FF2FF731A408281F0
:100D600082890A438281704721B1828942F002025E
:100D7000828104E082894FF6FD731A4082817047B8
:100D8000028A4FF6DF731A400282028A0A43028205
:100D9000704721B1028A42F48042028204E0028A52
:100DA0004BF6FF731A4002827047C1F3080282803B
:100DB000704701468888C0F308007047818941F078
:100DC000010181817047028BD2B20283028B42EA19
:100DD000012202837047028B02F47F420283028B5E
:100DE0000A430283704721B1828A42F02002828244
:100DF00004E0828A4FF6DF731A408282704721B185
:100E0000828A42F01002828204E0828A4FF6EF73F7
:100E10001A408282704721B1828A42F0080282829F
:100E200004E0828A4FF6F7731A4082827047828A02
:100E30004FF6FB731A408282828A0A43828270478D
:100E400021B1828A42F00202828204E0828A4FF655
:100E5000FD731A40828270470246002013880B40BF
:100E60000BB1012000E000207047CA4302807047A8
:100E700070B502460B460024002100250020C3F374
:100E8000421503F01F01012606FA01F1012D02D1DE
:100E90009689314006E0022D02D1168A314001E0E8
:100EA000968A31401C12012606FA04F41688344052
:100EB00011B10CB1012000E0002070BD10B500227E
:100EC00000230A1201249440A3B2DC43048010BD25
:100ED000004C004000BCFFBF0038014031490143D5
:100EE000314A1160704770B5002100230F22C47889
:100EF00004B32D4C246804F4E064C4F5E064210AD2
:100F0000C1F10403CA40447804FA03F18478144020
:100F100021430901254C0678A155047804F01F05EA
:100F20000124AC4005786D11AD0005F1E025C5F850
:100F3000004109E0047804F01F050124AC401C4D79
:100F40000678761145F8264070BD1A4A0A400243D9
:100F5000154B1B1F1A60704739B1134A121D1268D6
:100F60000243114B1B1D1A6006E00F4A121D126846
:100F700082430D4B1B1D1A607047042808D14FF0A7
:100F8000E021096941F004014FF0E022116107E01E
:100F90004FF0E021096921F004014FF0E0221161D6
:100FA000704700000000FA050CED00E000E400E0EE
:100FB00080E100E080FFFF1F0CB500200190009051
:100FC0004748006840F480304549086000BF444805
:100FD000006800F4003000900198401C01900098D7
:100FE00018B90198B0F5A06FF1D13D48006800F440
:100FF000003010B10120009001E000200090009826
:10100000012844D13748006840F010003549086095
:101010000846006820F0030008600846006840F0B9
:10102000020008602E4840682D4948600846406824
:1010300048600846406840F4806048600846406860
:1010400020F47C1048600846406840F4E81048608E
:101050000846006840F08070086000BF20480068C3
:1010600000F000700028F9D01D48406820F003000F
:101070001B4948600846406840F00200486000BFD5
:101080001748406800F00C000828F9D101E000BFC3
:10109000FEE70CBD10B5FFF78FFF10BD10B510486F
:1010A000006840F001000E490860084640680E499B
:1010B00008400B494860084600680C490840084948
:1010C00008600846006820F48020086008464068F0
:1010D00020F4FE00486000208860FFF7DBFF10BDB1
:1010E00000100240002002400000FFF8FFFFF6FE63
:1010F00030B51B4800684FF47A72B0FBF2F1B1F1E1
:10110000807F00D31DE021F07F40401E4FF0E022A1
:10111000506150170F22002807DA13071D0E114BDC
:1011200000F00F04241F1D5503E013071C0E0E4B87
:101130001C5400BF00204FF0E02290610720106196
:1011400000BF30BD10B5FFF7A9FFFFF7D1FF00F0DA
:101150000DF800F0F1FA4FF4964000F007FC10BDD6
:101160008876000818ED00E000E400E008B50121F1
:101170001020FFF777FB4FF40050ADF8000010206F
:101180008DF8030003208DF802006946FE48FFF742
:10119000CDF801210420FFF765FBFF20ADF800002A
:1011A00048208DF8030003208DF802006946F748B7
:1011B000FFF7BCF801210420FFF754FB4FF48070C7
:1011C000ADF8000010208DF8030003208DF8020018
:1011D0006946EE48FFF7AAF84FF48071EB48FFF735
:1011E00052F901210820FFF73DFB4FF47040ADF8A4
:1011F000000010208DF8030003208DF802006946DE
:10120000E348FFF793F84FF48051E148FFF73BF9CB
:101210004FF40051DE48FFF736F94FF48041DC48C7
:10122000FFF731F94FF40041D948FFF72CF90121BC
:101230000820FFF717FB4FF44870ADF800001020AE
:101240008DF8030003208DF802006946D048FFF7AF
:101250006DF82021CE48FFF718F94FF48071CC4883
:10126000FFF711F94FF40071C948FFF70CF901219C
:101270000820FFF7F7FA0720ADF8000010208DF8DE
:10128000030003208DF802006946C148FFF74EF8BD
:101290000121BF48FFF7F7F801210420FFF7E2FA28
:1012A0004FF4C050ADF8000010208DF8030003206B
:1012B0008DF802006946B548FFF738F84FF4006131
:1012C000B248FFF7E2F84FF48051B048FFF7DDF87D
:1012D00008BD10B500240121AC48FFF7BAF800B9E9
:1012E0000124204610BD10B500240221A748FFF7B5
:1012F000B0F800B90124204610BD10B50024042127
:10130000A248FFF7A6F800B90124204610BD10B589
:10131000002408219D48FFF79CF800B901242046CD
:1013200010BD10B5002410219848FFF792F800B9BD
:101330000124204610BD10B5002420219348FFF75A
:1013400088F800B90124204610BD10B500244021C2
:101350008E48FFF77EF800B90124204610BD10B575
:10136000002480218948FFF774F800B90124204641
:1013700010BD10B5002401218448FFF76AF808B9B0
:1013800044F0010402218148FFF763F808B944F0F2
:10139000020404217D48FFF75CF808B944F0040416
:1013A00008217A48FFF755F808B944F008041021DD
:1013B0007648FFF74EF808B944F01004202173482E
:1013C000FFF747F808B944F0200440216F48FFF7C1
:1013D00040F808B944F0400480216C48FFF739F820
:1013E00008B944F08004204610BD10B50446012C15
:1013F00004D0022C0DD0032C21D115E04FF4006154
:101400006248FFF742F84FF480516048FFF73BF81D
:1014100020E04FF400615D48FFF735F84FF480514C
:101420005A48FFF732F815E04FF400615748FFF7CC
:101430002AF84FF480515548FFF725F80AE04FF499
:1014400000615248FFF721F84FF480514F48FFF7F1
:101450001CF800BF00BF10BD10B50446012C04D01D
:10146000022C0DD0032C21D115E04FF48071484897
:10147000FFF70BF84FF400714548FFF704F816E04A
:101480004FF480714248FEF7FEFF4FF40071404870
:10149000FEF7FBFF0BE04FF480713D48FEF7F3FFD2
:1014A0004FF400713A48FEF7EEFF00E000BF00BFC6
:1014B00010BD70B504460D4600261BE004F0800008
:1014C00028B94FF400513248FEF7DFFF04E04FF433
:1014D00000512F48FEF7D7FF4FF480512C48FEF7FC
:1014E000D4FF4FF480512A48FEF7CDFF6006040E6A
:1014F000701CC6B2AE42E1DB70BD70B505460C464D
:10150000012C10D1C9032248FEF7BFFF042180201F
:10151000FFF7CFFF08212846FFF7CBFFE1031C4868
:10152000FEF7B1FF11E0022C0FD161031848FEF75E
:10153000ACFF04218020FFF7BCFF08212846FFF7FD
:10154000B8FF61031248FEF79EFF70BD10B54FF45F
:1015500000410F48FEF797FF4FF480410C48FEF71B
:1015600092FF4FF480510A48FEF78DFF4FF400516F
:101570000748FEF788FF01210020FFF7BEFF012189
:101580000420FFF7BAFF05E0001001400008014009
:10159000000C014001213020FFF7AFFF01210220A4
:1015A000FFF7ABFF01210620FFF7A7FF0121522023
:1015B000FFF7A3FF01218020FFF79FFF02210020FA
:1015C000FFF79BFF02210420FFF797FF0221302045
:1015D000FFF793FF02210846FFF78FFF0221062045
:1015E000FFF78BFF02215220FFF787FF02218020A7
:1015F000FFF783FF10BD10B54FF400414C48FEF7D4
:1016000042FF4FF480414A48FEF73DFF4FF48051BE
:101610004748FEF738FF4FF400514548FEF733FFC7
:1016200001210020FFF769FF01210420FFF765FF7A
:1016300001213020FFF761FF01210220FFF75DFF4C
:1016400001210620FFF759FF01215220FFF755FF26
:1016500001218020FFF751FF10BD10B54FF48071BC
:101660003448FEF712FF10BD10B54FF480713148B9
:10167000FEF709FF10BD70B504460D461646012E53
:1016800016D1D1032A48FEF700FF0321A020FFF75F
:1016900010FFA106080E0621FFF70BFF2907080E11
:1016A0000421FFF706FFF1032148FEF7ECFE17E0E7
:1016B000022E15D171031E48FEF7E7FE0321A0207C
:1016C000FFF7F7FEA106080E0621FFF7F2FE290735
:1016D000080E0421FFF7EDFE71031548FEF7D3FE57
:1016E00070BD10B500240BE00122FF212046FFF75A
:1016F000C2FF0222FF212046FFF7BDFF601CC4B2DB
:101700001F2CF1DB10BD10B500240BE001220021DD
:101710002046FFF7B0FF022200212046FFF7ABFF73
:10172000601CC4B21F2CF1DB10BD704770477047BE
:10173000000C01400008014000B587B04FF4E060A4
:10174000FFF7CCFB012144F20400FFF78BF84FF4C4
:101750000070ADF8180018208DF81B0003208DF8DC
:101760001A0006A97F48FEF7E1FD4FF48060ADF84E
:10177000180004208DF81B0006A97A48FEF7D6FD54
:101780004FF4E13002900020ADF80C00ADF80E00EF
:10179000ADF81000ADF814000C20ADF8120002A94D
:1017A0007148FFF72CFA01216F48FFF796FA2520C0
:1017B0008DF8040000208DF805008DF8060001204A
:1017C0008DF8070001A8FFF78EFB012240F225519A
:1017D0006548FFF78EFA07B000BD70B504460D46A8
:1017E000E1B26148FFF7E1FA00BF5F48008800F00E
:1017F00080000028F9D0204670BDF0B503460D46A4
:101800001646002729460A2E03D0002008702846D5
:10181000F0BD33B9302001F8010B002008702846D4
:10182000F6E7002B03DA2D2001F8010B5B4242F2B0
:1018300010720DE093FBF2F404B937B104F13000FB
:1018400001F8010B04FB123301270A2092FBF0F28E
:10185000002AEFDC002008702846D9E70FB470B5E5
:1018600086B006460CA8019073E00B9800785C28BF
:101870001CD10B98401C0B9000786E2809D0722860
:101880000FD10D213046FFF790FA0B98401C0B90BA
:101890000BE00A213046FFF788FA0B98401C0B90AA
:1018A00003E00B98401C0B9000BF4BE00B980078B6
:1018B000252840D10B98401C0B900078642818D044
:1018C000732833D1019810C801900BE0217830467D
:1018D000FFF76BFA00BF40213046FFF7BDFA002842
:1018E000F9D0641C20780028F0D10B98401C0B9094
:1018F00020E0019820C801900A2202A92846FFF79B
:101900007CFF02AC0BE021783046FFF74EFA00BFB7
:1019100040213046FFF7A0FA0028F9D0641C207857
:101920000028F0D10B98401C0B9003E00B98401C52
:101930000B9000BF06E00B9810F8011B0B9030468F
:10194000FFF733FA00BF40213046FFF785FA002841
:10195000F9D00B980078002887D106B070BC5DF8EC
:1019600014FB0000000801400038014010B586B0AB
:1019700004464FF4E060FFF7B1FA01210820FEF7BA
:1019800071FF01218804FEF77AFF4FF48060ADF803
:10199000140018208DF8170003208DF8160005A9F3
:1019A0005548FEF7C3FC4FF40060ADF81400042066
:1019B0008DF8170005A95048FEF7B8FC4FF46140B8
:1019C00001900020ADF80800ADF80A00ADF80C0059
:1019D000ADF810000C20ADF80E0001A94748FFF744
:1019E0000EF901214548FFF778F927208DF800000E
:1019F00000208DF801008DF8020001208DF8030011
:101A00006846FFF770FA012240F225513B48FFF784
:101A100070F9012280213948FFF78BF906B010BD1B
:101A200070B505460E4600240CE0295D3348FFF7EB
:101A3000BCF900BF80213148FFF70EFA0028F9D029
:101A4000601CC4B2B442F0DB70BD10B58CB004466B
:101A500001210846FEF7F9FE2948FEF767FF2748EF
:101A6000001D01902748029010200390142004903C
:101A70000020059080200690002007900890099093
:101A80004FF400500A9000200B9001A91C48FEF76B
:101A9000E6FF01211A48FFF70DF80122022118483C
:101AA000FFF713F80CB010BD10B500BF202113488C
:101AB000FFF7D2F90028F9D01048FFF77AF910BDE6
:101AC00008B54FF4E060FFF709FA0C208DF800002C
:101AD00001208DF801008DF802008DF803006846A2
:101AE000FFF701FA08BD0848007810B9012006493F
:101AF0000870704770470000000C0140004800402B
:101B00001C000240A80600201400002005462C46B8
:101B100003E014B1D4E90E018847FAE705462C46E4
:101B200009E0002301221946184605F043F814B1D4
:101B3000216BA06B8847F4E705462C4609E0322369
:101B400000221146104605F035F814B1E16AA06B89
:101B50008847F4E705462C4609E00A23002211468F
:101B6000104605F027F814B1A16AA06B8847F4E786
:101B700005462C4609E0012300221146104605F0D7
:101B800019F814B1D4E90D108847F4E71CB50446E0
:101B900000F009FA206000208DF804002168886BAD
:101BA00001F0C0F900909DF80400401CC0B28DF80F
:101BB000040021680A6C886B694690472168886B2D
:101BC00003F0EAF900909DF80400401CC0B28DF8C3
:101BD000040021680A6C886B694690472168886B0D
:101BE00000F075FD00909DF80400401CC0B28DF817
:101BF000040021680A6C886B694690472268116965
:101C0000906B884722689169906B884700981CBD4B
:101C10000446254602E0D5E90E018847FBE710B5EA
:101C200000241748FFF7B2FF044615480723154A5A
:101C30000168AFF2271004F0E3FB11480923124AB0
:101C40000168AFF2271004F0DBFB0D4806230F4AB2
:101C50000168AFF2FF0004F0D3FB094808230C4AE7
:101C60000168AFF22B1004F0CBFB05480523094AAD
:101C70000168AFF2031004F0C3FB204610BD000062
:101C800018000020F80C00203813002078190020DC
:101C9000B81F0020802000202DE9F04780460C4628
:101CA000914600272646002526B1356815B12969D9
:101CB000A86B88473846BDE8F0872DE9F047804695
:101CC0000C46914600272646002526B1356815B1F9
:101CD0006969A86B88473846BDE8F0872DE9F04769
:101CE00080460C46914600272646002526B13568D9
:101CF00015B1A969A86B88473846BDE8F0872DE97A
:101D0000F04780460C46914600272646002526B11E
:101D1000356815B1E969A86B88473846BDE8F08792
:101D20002DE9F04780460C469146002726460025BF
:101D300026B1356815B1296AA86B88473846BDE8D1
:101D4000F0872DE9F04780460D46914600272E4644
:101D5000002436B1346824B1A06A10B1A16AA06B26
:101D600088473846BDE8F0872DE9F04780460D46A4
:101D7000914600272E46002436B1346824B1E06A2B
:101D800010B1E16AA06B88473846BDE8F0872DE9BD
:101D9000F04780460D46914600272E46002436B176
:101DA000346824B1206B10B1216BA06B8847384692
:101DB000BDE8F0872DE9F84F82460D4617464FF0F3
:101DC0000009A8463C460026B8F1000F0BD0D8F811
:101DD000006046B1A0680090A38862882178D6F898
:101DE00024C0B06BE0474846BDE8F88FF8B504461C
:101DF000012625460020009028730023AFF26712C9
:101E00006946A86805F0DFF93046F8BDF8B5044624
:101E10000126254600200090287300237C4A69464D
:101E2000A86805F0D0F93046F8BDF8B5044601269B
:101E3000254600200090012028730023754A69463A
:101E4000A86805F0C0F93046F8BDF8B5044601268B
:101E5000254600200090287300236F4A6946A86831
:101E600005F0B1F93046F8BDF8B50446012625461F
:101E7000002000900023694A6946A86805F0A3F98C
:101E800015B1284605F0D2FA3046F8BD38B50446FB
:101E9000254600200090287B00B938BD0023604A09
:101EA0006946A86805F08FF900BFF6E738B5044623
:101EB000254600200090287B00B938BD0023594AF0
:101EC0006946A86805F07FF900BFF6E738B5044613
:101ED000254600200090287B00B938BD0023524AD7
:101EE0006946A86805F06FF900BFF6E72DE9FF47DE
:101EF00004460D4616461F46DDF83080A1460020F8
:101F000003908DF80050ADF80260ADF80470CDF884
:101F100008806B46454A03A9D9F8080005F053F933
:101F2000BDE8FF8770B504462546686818B16A6841
:101F3000D1681068884770BD2DE9F04105460C4610
:101F40002F4621790823224607F1080005F004F8FE
:101F500006461EB136A0216805F058FABDE8F081AA
:101F60002DE9F04780460D46914600272E46002475
:101F700036B1346824B1606B10B1D4E90D108847D4
:101F80003846BDE8F08738B5044625460020009065
:101F9000287B00B938BD00232A4A6946A86805F0A5
:101FA00012F900BFF6E770B500240025264E442044
:101FB00005F06AFA0446102005F066FA054630205E
:101FC00005F062FA2860A56320A1204605F002FA18
:101FD00021482061214860612148A0612148E061D9
:101FE000214820622148A0622148E0622148206304
:101FF000214860632148E06331460120A26B05F06F
:1020000091F968601E4820640020A860204670BDD9
:10201000BB1C0008DD1C0008FF1C0008211D000877
:102020008F1D0008431D0008691D0008B51D00082C
:10203000416464202573204C697374204572726F6B
:10204000720A0000611F0008ED1E00084D6F645306
:102050006572766572000000ED1D00080D1E000817
:102060002B1E00084B1E0008691E0008AD1E00084C
:10207000CD1E00088D1E0008871F0008251F0008C0
:10208000391F000810B5024601201146002943D02F
:10209000F84C0B6923600023246884F86430F54C05
:1020A0002468A4F86030F34C2468A4F862300B76FE
:1020B000CB681B6810334B610023CC686371CC681C
:1020C0002371CC682374CC68E373CC6884F8223025
:1020D000CC6884F82330CC6884F82430CC6884F849
:1020E0002530CC6884F82630CC6884F82730CC685A
:1020F00084F82830CC6884F82930CC6884F82A30F9
:10210000CC6884F82B30CC6884F82C30CC6884F808
:102110002D30CC6884F82E3010BD014601200A46CF
:10212000002393727047014601200A4601239372EF
:1021300000239380D380D3845383704701460120CA
:102140000A4600239372704770B50446012625465F
:1021500015B1284605F06AF9304670BD0146704752
:102160000146704770B506463446A07A10B1207E0D
:10217000022800D070BDA088401CA0802089401C8F
:102180002081208900EBD0714910A0EB410129B1D9
:102190004FF40051B848FEF776F904E04FF40051CF
:1021A000B548FEF772F9A0883C2801DD0020A08028
:1021B0000025E06890F82200012800D10125E068A0
:1021C00090F82300012800D10125E06890F8240050
:1021D000012800D10225E06890F82500012800D1EF
:1021E0000325E06890F82600012800D10325E06867
:1021F00090F82700012802D1022D00DA0225E068BC
:1022000090F82800012801D105B90125E06890F86F
:102210002900012802D1022D00DA0225E06890F899
:102220002A00012802D1022D00DA0225E06890F888
:102230002B00012806D1E06890F8220010B9022D89
:1022400000DA0225E06890F82C00012806D1E06849
:1022500090F8230010B9022D00DA0225E06890F80A
:102260002D00012801D105B90125E06890F82E0064
:10227000012801D105B901252846FFF7B6F8E16824
:10228000887FFFF7E9F800BF74E72DE9FC410446B9
:102290000D4627460826EF208DF80000A1208DF876
:1022A00001008DF8025000208DF803008DF8040025
:1022B0008DF805009DF801009DF8021008449DF876
:1022C000031008449DF8041008449DF805100844C4
:1022D000C0B28DF80600FF208DF807003146684631
:1022E000FFF79EFBBDE8FC812DE9F04107460C4657
:1022F00015461E46DDF81880032C06D1012D03D1AA
:10230000F1B23846FFF7C1FF00E000BF00BFBDE8F3
:10231000F08170B503461446184600220D7905F089
:1023200001051DB10125C668757102E00025C6686A
:1023300075710D79C5F34205C66835710D7905F0E3
:1023400010051DB10125C668F57402E00025C668B8
:10235000F5740D7905F020051DB10125C668B5712C
:1023600002E00025C668B5710D7905F040051DB184
:102370000125C668357502E00025C66835750D79FA
:1023800005F080051DB10125C668F57102E0002544
:10239000C668F5710D898E7905EB0625C66835830B
:1023A0008D898E7A05EB0625C668B5830D8A8E7BEE
:1023B00005EB0625C66875838D8A8E7C05EB0625A0
:1023C000C66835810D8B8E7D05EB0625C668B58107
:1023D0008D8B8E7E05EB0625C66875818D7F05F099
:1023E0000705C668B5748D7F05F0600515B9002531
:1023F000C668B5738D7FC5F34115012D01D1C6683F
:10240000B5738D7FC5F34115022D01D1C668B57333
:102410008D7F05F008051DB10125C668357402E001
:102420000025C66835748D7F05F010051DB10125A6
:10243000C668F57302E00025C668F573C5682D7996
:10244000042D06D191F8205005F00705C668F582E5
:1024500005E091F8205005F00705C668F58391F86E
:10246000225005F001054DB10125C66886F82250BD
:1024700008E000001C000020001001400025C66894
:1024800086F8225091F8225005F0020525B1012569
:10249000C66886F8245003E00025C66886F82450F4
:1024A00091F8225005F0040525B10125C66886F88B
:1024B000255003E00025C66886F8255091F8225083
:1024C00005F0080525B10125C66886F8275003E008
:1024D0000025C66886F8275091F8225005F01005AF
:1024E00025B10125C66886F8285003E00025C66896
:1024F00086F8285091F8225005F0200525B10125D5
:10250000C66886F8295003E00025C66886F8295079
:1025100091F8225005F0400525B10125C66886F8DE
:102520002B5003E00025C66886F82B5091F8225006
:1025300005F0800525B10125C66886F82C5003E01A
:102540000025C66886F82C5091F8245005F0010546
:1025500025B10125C66886F82D5003E00025C66820
:1025600086F82D5091F8245005F0020525B101257B
:10257000C66886F82E5003E00025C66886F82E50FF
:1025800091F8245005F0040525B10125C66886F8A8
:10259000265003E00025C66886F8265091F824509E
:1025A00005F0080525B10125C66886F8235003E02B
:1025B0000025C66886F8235091F8245005F01005D0
:1025C00025B10125C66886F82A5003E00025C668B3
:1025D00086F82A5091F826506DB2C66886F82050C9
:1025E00091F828506DB2C66886F8215070BDF8B5D4
:1025F00005462C46207E20B1012820D002283CD15F
:102600003CE0E088322803D0E088401CE08036E0DF
:1026100001202076FEF7E9FE0020009021680023CB
:1026200001228E6808680621B047002000902168CA
:10263000002301228E6808680721B0471FE0E08868
:10264000FA2803D0E088401CE08018E00020E080F9
:102650000220207600200090216800231A468E6810
:1026600008680621B04700200090216800231A4620
:102670008E6808680721B04701E000BF00BF00BFB7
:10268000F8BD70B505462C462846FFF7B0FF206917
:1026900090F8970001280DD1207E01280AD0002053
:1026A000216981F89700206900F166011822284607
:1026B000FFF72FFE70BD044608E0142300221146E8
:1026C000104604F077FA2046FFF7DBFFF5E770B518
:1026D000064600240025402004F0D6FE04462820AB
:1026E00004F0D2FE054600202861982004F0CCFEBC
:1026F00028613068E86070682860A5636D482061D3
:102700006D4860616D48A0616D48E0616D48206270
:102710006D4860626D48A0626D48E0626D4820635C
:10272000002060636CA1204604F054FE6C48E06316
:10273000204670BD30B5024600230020002401234E
:1027400005E012F813502544ECB25D1CEBB28D1E6F
:102750009D42F6DC32F81550A54200D1012030BD73
:1027600070B5064600245F48006800B970BD5D483A
:102770000068B0F8600030280CDB00205949096877
:10278000A1F8600057490968A1F862005549096835
:1027900081F8640053480068B0F860005149096846
:1027A00021F810604F480068B0F860004D49096892
:1027B00031F81000EF2811D14A48006890F8640001
:1027C00060B948480068B0F8600046490968A1F857
:1027D000620001204349096881F8640041480068AB
:1027E000B0F860003F49096831F81000FF2848D16F
:1027F0003C480068B0F862003A49096831F81000B6
:10280000EF283ED137480068B0F8600035490968C4
:10281000B1F86210401A401C85B2182D31D1E9B2CE
:10282000304A1268B2F862202E4B1B6803EB42005C
:10283000FFF780FF28B300240FE02A480068B0F8B3
:10284000620020442749096831F8101025480068C3
:10285000663020F81410601CC4B2182CEDDB012087
:102860002049096881F8970000201E490968A1F8ED
:1028700060001C490968A1F862001A49096881F8DA
:10288000640018480068B0F86000401C15490968E9
:10289000A1F8600000BF69E710B50346002000BF43
:1028A00005E033F8104021F81040441CE0B290429B
:1028B000F7DB10BD852000081B2100082721000838
:1028C0003D21000849210008E92200085D21000897
:1028D00061210008652100084D6F64556172740024
:1028E000B72600081C00002030B503460120194619
:1028F00089B100240C73002205E0012501F11304C5
:10290000A554541CE2B20B2AF7DB00248C8001246E
:102910008C7400240C8230BD014601200A4600233D
:1029200093717047014601200A4601239371704755
:10293000014601200A4600239371704770B5044692
:102940000126254615B1284604F070FD304670BDBD
:1029500001468A7902B970478A88521C8A8000BF72
:10296000F9E770B50446049D204603290CD00429DC
:1029700002D0062918D10FE0012A04D1867C012E4D
:1029800001D10226867410E0012A04D1867C012E32
:1029900001D10226867408E0012A02D101260673BD
:1029A00001E00226067300E000BF00BF70BD0146D3
:1029B000704770B505462C46A07C012804D002283B
:1029C00008D0032810D000BF4FF48071F948FDF7FC
:1029D0005AFD17E04FF48071F648FDF756FD0320CD
:1029E000A074002020820DE0208A032806DD4FF429
:1029F0008071F048FDF747FD0120A074208A401C3B
:102A0000208200BF00BF70BD10B504460B2C33D22E
:102A1000DFE804F0060A0E12161A1E22262A2E00DD
:102A2000E5A004F0F3FC27E0E5A004F0EFFC23E0D0
:102A3000E5A004F0EBFC1FE0E6A004F0E7FC1BE0DF
:102A4000E7A004F0E3FC17E0E8A004F0DFFC13E0EB
:102A5000E8A004F0DBFC0FE0E9A004F0D7FC0BE0F9
:102A6000EAA004F0D3FC07E0EBA004F0CFFC03E005
:102A7000ECA004F0CBFC00BF00BF10BDF8B50746CA
:102A80000E4615463C4604F11300405D072805D26A
:102A9000DFE800F0040518D25A82AA0000BF002126
:102AA00004F11E0020F81510163020F8151046B15C
:102AB000163030F81500B04203D0022104F11300A3
:102AC00041550DE104F1340030F815000A2809DC05
:102AD00004F1340030F81500401C81B204F13400D8
:102AE00020F8151004F1340030F815000A282AD116
:102AF00004F11E0020F815600020009021680023DA
:102B00000122D1F808C008680421E047002104F13F
:102B1000340020F81510032E03D10421213841552B
:102B200011E0C02E04D1052104F1130041550AE043
:102B30000C2E04D1062104F11300415503E00321BA
:102B400004F113004155CBE004F1340030F81500D6
:102B5000401C81B204F1340020F81510032E15D169
:102B600030F81500C82811DB0020009021682B46A2
:102B70000122D1F808C008680321E0472846FFF782
:102B800043FF012104F11300415504E01EB9012166
:102B900004F113004155A3E004F1340030F81500AE
:102BA000401C81B204F1340020F81510C02E15D15C
:102BB00030F81500C82811DB0020009021682B4652
:102BC0000122D1F808C008680321E0472846FFF732
:102BD0001BFF012104F11300415504E01EB901213E
:102BE00004F1130041557BE004F1340030F8150086
:102BF000401C81B204F1340020F815100C2E15D1C0
:102C000030F81500C82811DB0020009021682B4601
:102C10000122D1F808C008680321E0472846FFF7E1
:102C2000F3FE012104F11300415504E01EB9012116
:102C300004F11300415553E004F1340030F815005D
:102C4000401C81B204F1340020F8151030F8150052
:102C5000C8280ADB04F11E0030F81500402804D013
:102C6000012104F1130041553AE004F11E0030F84F
:102C70001500402816D104F1340030F8150040F654
:102C8000B83188420EDB0020009021681F2301220A
:102C9000D1F808C008680321E047012104F11300BE
:102CA00041551DE0DEB904F14A0030F81500B0B11D
:102CB00004F14A0030F815102C3830F81500814224
:102CC0000DD10020009021682B460122D1F808C0C8
:102CD00008680321E047012104F11300415500BFBA
:102CE00000BF04F14A0020F81560F8BD70B5054634
:102CF0002E460024B068407901280AD1FEF7FDFA7B
:102D000008B144F00104FEF702FBB0B144F0020444
:102D100013E0FEF7DEFA08B144F00104FEF7E3FA2F
:102D200008B144F00204FEF7E8FA08B144F00404E4
:102D3000FEF7EDFA08B144F00804FEF7F2FA08B124
:102D400044F01004FEF7F7FA08B144F02004FEF74F
:102D5000FCFA08B144F04004FEF701FB08B144F06E
:102D60008004082C74D006DC052C6ED2DFE804F059
:102D7000901C600C6600102C70D0202C75D0402C5C
:102D800079D0802C61D17CE0082203212846FFF70E
:102D900075FE002211462846FFF770FE0122002131
:102DA0002846FFF76BFEACE0002201212846FFF722
:102DB00065FEA6E000080140BCF5200D0A000000F9
:102DC000BCD3090D0A000000D2BAC2B749490D0AA6
:102DD00000000000CCE5CEC24949200D0A000000E9
:102DE000D6C6C0E4C8C80D0A00000000D2BACEC2E0
:102DF000200D0A00D2BAC2B74920200D0A000000F7
:102E0000CCE5CEC24920200D0A000000B1A8BEAF1B
:102E1000D2F4C1BF200D0A00D0A3D7BC49200D0AAF
:102E200000000000D0A3D7BC4949200D0A000000D3
:102E3000012202212846FFF721FE62E0022204213E
:102E40002846FFF71BFE5CE002E020E006E00CE015
:102E5000032208212846FFF711FE52E00422102128
:102E60002846FFF70BFE4CE005E00522202128460E
:102E7000FFF704FE45E0062240212846FFF7FEFD4D
:102E80003FE0072280212846FFF7F8FD39E000BF28
:102E90000024214600222846FFF7F0FD21460122AA
:102EA0002846FFF7EBFD214602222846FFF7E6FD04
:102EB000214603222846FFF7E1FD21460422284649
:102EC000FFF7DCFD214605222846FFF7D7FD214606
:102ED00006222846FFF7D2FD214607222846FFF7A3
:102EE000CDFD214608222846FFF7C8FD21460922CC
:102EF0002846FFF7C3FD21460A222846FFF7BEFDFC
:102F000000BF00BF70BD70B504462546287B02286F
:102F100000D070BD2046FFF7E9FE2046FFF749FDCF
:102F200000BFF6E770B50546002400263C2004F0FB
:102F3000ABFA0446602004F0A7FA06462868B060A1
:102F400068683060A6630E4820610E4860610E48D4
:102F5000A0610E48E0610E4820620E4860620E4893
:102F6000A0620E48E0620E482063002060630DA15D
:102F7000204604F02FFA0DA004F048FA204670BD58
:102F8000E928000819290008252900083129000826
:102F90003D29000863290008072F0008AF29000811
:102FA000512900084D6F644B6579000043726561DB
:102FB00074654D6F64756C654B657921210A00005D
:102FC00010B502461046002100BF20E000F11103B9
:102FD00003EB4103597000F1110313F8113023F092
:102FE0003003103300F1110404F8113000F13F03F5
:102FF00003EB4103597000F13F0313F8113023F044
:10300000300320332E3404F811304B1C99B21729A9
:10301000DCDB437C23F0080308334374437E23F056
:10302000080308334376437F23F0080308334377CC
:1030300025231B5C23F008030833252423542D2368
:103040001B5C23F0080308332D24235429231B5C25
:1030500023F0080308332924235490F86B3023F01D
:1030600001035B1C80F86B3090F8673023F001039C
:103070005B1C80F8673047231B5C23F00803083390
:103080004724235453231B5C23F0080308335324A1
:10309000235490F85F3023F00803083380F85F3042
:1030A000437C23F0080308334374437F23F0080371
:1030B00008334377437E23F008030833437610BD7B
:1030C00070B5044601262546FEF740FA2046FFF774
:1030D00077FF15B10020E8802874304670BD0146A6
:1030E00001200A46002393729380704770B504460E
:1030F000012526460120B072FEF7F3FA284670BD7E
:10310000014601200A4600239372704770B50446B9
:103110000126254615B1284604F088F9304670BDD1
:1031200070B504460D461646F2B2E9B2E0B2FEF7BB
:10313000A2FA70BD31B59DF80000C007000F9DF8E0
:103140000010C1F3400100EB81009DF80010C1F3B5
:10315000800100EB41009DF80010C1F3C00144184C
:103160009DF80010C1F301129DF801002146FFF700
:10317000D7FF38BD38B504462546B5F8690000903C
:10318000FFF7D8FFB5F867000090FFF7D3FFB5F859
:1031900065000090FFF7CEFFB5F863000090FFF7E1
:1031A000C9FFB5F857000090FFF7C4FFB5F84F000E
:1031B0000090FFF7BFFFB5F84B000090FFF7BAFF94
:1031C000B5F83F000090FFF7B5FF38BD0B2A7CD261
:1031D000DFE802F00629486A8EAFD1F8F6F5F40070
:1031E0000B7823F001035B1C0B700B7823F00203B8
:1031F0009B1C0B700B7823F004031B1D0B700B78CA
:1032000023F0080308330B70037823F001035B1CE1
:103210000370037823F002030370037823F00403A0
:103220001B1D037070E10B7823F001030B700B780A
:1032300023F002039B1C0B700B7823F004031B1D6F
:103240000B700B7823F008030B70037823F0010355
:103250000370037823F002030370037823F0040360
:10326000037051E10B7823F001035B1C0B700B78AA
:1032700023F002039B1C0B700B7823F004030B70EC
:103280000B7823F0080308330B70037823F0010355
:103290000370037823F002039B1C0370037823F070
:1032A00004031B1D03702FE10B7823F001035B1C4B
:1032B0000B700B7823F002039B1C0B700B7823F030
:1032C00004031B1D0B700B7800E000E123F00803E2
:1032D00008330B70037823F001030370037823F0A5
:1032E00002039B1C0370037823F0040303700BE1BB
:1032F0000B7823F001030B700B7823F002039B1C67
:103300000B700B7823F004031B1D0B700B7823F05C
:1033100008030B70037823F001035B1C0370037830
:1033200023F002039B1C0370037823F00403037053
:10333000EAE00B7823F001035B1C0B700B7823F0A1
:1033400002030B700B7823F004031B1D0B700B782A
:1033500023F0080308330B70037823F001035B1C90
:103360000370037823F002039B1C0370037823F09F
:1033700004030370C8E00B7823F001035B1C0B709F
:103380000B7823F002030B700B7823F004031B1D52
:103390000B700B7823F0080308330B70037823F0CD
:1033A00001035B1C0370037823F002039B1C037072
:1033B000037823F004031B1D0370A5E069E045E0DA
:1033C00020E0FFE70B7823F001035B1C0B700B7808
:1033D00023F002039B1C0B700B7823F004031B1DCE
:1033E0000B700B7823F008030B70037823F00103B4
:1033F0000370037823F002030370037823F00403BF
:10340000037081E00B7823F001035B1C0B700B78D9
:1034100023F002039B1C0B700B7823F004031B1D8D
:103420000B700B7823F0080308330B70037823F03C
:1034300001035B1C0370037823F002039B1C0370E1
:10344000037823F004031B1D03705DE00B7823F069
:1034500001035B1C0B700B7823F002039B1C0B70A9
:103460000B7823F004031B1D0B700B7823F008036B
:1034700008330B70037823F001035B1C037003789F
:1034800023F002039B1C0370037823F004030370F2
:103490003AE00B7823F001030B700B7823F0020362
:1034A0000B700B7823F004030B700B7823F00803E8
:1034B0000B70037823F001030370037823F00203F9
:1034C0009B1C0370037823F0040303701CE00B784B
:1034D00023F001030B700B7823F002030B700B78C1
:1034E00023F004030B700B7823F008030B700378B0
:1034F00023F001030370037823F0020303700378C1
:1035000023F00403037000BF00BF7047F8B5054601
:103510000E463446072D7CD2DFE805F07B04355695
:10352000BA89EB00632204F11301881EFFF74EFEF7
:10353000632204F11701881EFFF748FE632204F19D
:103540001B01881EFFF742FEB4F811000090FFF740
:10355000F1FDB4F813000090FFF7ECFDB4F815008E
:103560000090FFF7E7FDB4F817000090FFF7E2FDC9
:10357000B4F819000090FFF7DDFDB4F81B000090CF
:10358000FFF7D8FDE7E0632204F11F01881EFFF773
:103590001DFE632204F12301881EFFF717FEB4F815
:1035A0001D000090FFF7C6FDB4F81F000090FFF764
:1035B000C1FDB4F821000090FFF7BCFDB4F8230072
:1035C0000090FFF7B7FDC6E0632204F12701881ED3
:1035D000FFF7FCFD632204F12B01881EFFF7F6FDC7
:1035E000632204F12F01881EFFF7F0FDB4F82500D7
:1035F0000090FFF79FFDB4F827000090FFF79AFDB9
:10360000B4F829000090FFF795FDB4F82B00009066
:1036100000E09FE0FFF78EFDB4F82D000090FFF76B
:1036200089FDB4F82F000090FFF784FD93E063223A
:1036300004F14D01881EFFF7C9FD632204F1510119
:10364000881EFFF7C3FD632204F15501881EFFF7B2
:10365000BDFDB4F84B000090FFF76CFDB4F84D00D1
:103660000090FFF767FDB4F84F000090FFF762FD90
:10367000B4F851000090FFF75DFDB4F853000090DE
:10368000FFF758FDB4F855000090FFF753FD62E0D6
:10369000632204F14101881EFFF798FD632204F1C3
:1036A0004501881EFFF792FD632204F14901881E3F
:1036B000FFF78CFDB4F83F000090FFF73BFDB4F836
:1036C00041000090FFF736FDB4F843000090FFF78B
:1036D00031FDB4F845000090FFF72CFDB4F8470029
:1036E0000090FFF727FDB4F849000090FFF722FD96
:1036F00031E0632204F15901881EFFF767FD632260
:1037000004F15D01881EFFF761FD632204F1610190
:10371000881EFFF75BFDB4F857000090FFF70AFD25
:10372000B4F859000090FFF705FDB4F85B00009075
:10373000FFF700FDB4F85D000090FFF7FBFCB4F864
:103740005F000090FFF7F6FCB4F861000090FFF70F
:10375000F1FC00E000BF00BFF8BD2DE9FF5F0646A9
:103760000D461F463C464FF0000B00200390029090
:103770008146824680460190681D85B2642095FB93
:10378000F0F100FB11500A2190FBF1F01FFA80F9D3
:103790004FF47A7095FBF0F100FB1150642190FB1F
:1037A000F1F01FFA80FA42F2107095FBF0F100FB85
:1037B00011504FF47A7190FBF1F01FFA80F8B8F1D4
:1037C000000F01D14FF06308072E7CD2DFE806F02E
:1037D0007B04355689BAEB00424604F11301881E7A
:1037E000FFF7F4FC524604F11701881EFFF7EEFCC8
:1037F0004A4604F11B01881EFFF7E8FCB4F81100EB
:103800000090FFF797FCB4F813000090FFF792FCCC
:10381000B4F815000090FFF78DFCB4F81700009085
:10382000FFF788FCB4F819000090FFF783FCB4F8A8
:103830001B000090FFF77EFCE7E0424604F11F0109
:10384000881EFFF7C3FC524604F12301881EFFF7D0
:10385000BDFCB4F81D000090FFF76CFCB4F81F002D
:103860000090FFF767FCB4F821000090FFF762FCBE
:10387000B4F823000090FFF75DFCC6E0424604F177
:103880002701881EFFF7A2FC524604F12B01881E77
:10389000FFF79CFC4A4604F12F01881EFFF796FCB7
:1038A000B4F825000090FFF745FCB4F8270000901D
:1038B000FFF740FCB4F829000090FFF73BFCB4F898
:1038C0002B00009000E09FE0FFF734FCB4F82D00DF
:1038D0000090FFF72FFCB4F82F000090FFF72AFCB0
:1038E00093E0424604F14101881EFFF76FFC524607
:1038F00004F14501881EFFF769FC4A4604F14901BD
:10390000881EFFF763FCB4F83F000090FFF712FC3D
:10391000B4F841000090FFF70DFCB4F843000090AC
:10392000FFF708FCB4F845000090FFF703FCB4F87B
:1039300047000090FFF7FEFBB4F849000090FFF746
:10394000F9FB62E0424604F14D01881EFFF73EFCA0
:10395000524604F15101881EFFF738FC4A4604F133
:103960005501881EFFF732FCB4F84B000090FFF7BA
:10397000E1FBB4F84D000090FFF7DCFBB4F84F001A
:103980000090FFF7D7FBB4F851000090FFF7D2FB8F
:10399000B4F853000090FFF7CDFBB4F85500009049
:1039A000FFF7C8FB31E0424604F15901881EFFF7DA
:1039B0000DFC524604F15D01881EFFF707FC4A46E4
:1039C00004F16101881EFFF701FCB4F85700009074
:1039D000FFF7B0FBB4F859000090FFF7ABFBB4F869
:1039E0005B000090FFF7A6FBB4F85D000090FFF7C6
:1039F000A1FBB4F85F000090FFF79CFBB4F86100F6
:103A00000090FFF797FB00E000BF00BFBDE8FF9FFD
:103A1000F8B505460E463446072D7DD2DFE805F0A1
:103A20007C0480DEFEFDFC00607C20F00100607400
:103A3000607C20F00200801C6074607C20F0040038
:103A40006074E07C20F00101E174E07C20F0020170
:103A5000E174E07C20F00401E174E07C20F00801D6
:103A6000E174607D20F001016175607D20F002004D
:103A7000801C6075607D20F004016175607D20F020
:103A800008016175E07D20F00101E175E07D20F025
:103A90000201E175E07D20F00401E175E07D20F098
:103AA0000801E175607E20F001016176607E20F002
:103AB0000200801C6076607E20F004016176E07E6A
:103AC00020F00101E176E07E20F00201E176E07E67
:103AD00020F00401E176E07E20F00801E176B4F800
:103AE00011000090FFF726FBB4F813000090FFF7D9
:103AF00021FBB4F815000090FFF71CFBB4F8170089
:103B00000090FFF717FBB4F819000090FFF712FBC5
:103B1000B4F81B00009000E0CAE2FFF70BFBC8E21C
:103B2000607F20F001016177607F20F00200801C3F
:103B30006077607F20F004016177E07F20F0010171
:103B4000E177E07F20F00201E177E07F20F00401DF
:103B5000E177E07F20F00801E1772120005D20F08F
:103B6000010121200155005D20F00200801C21216F
:103B700008552120005D20F0040121200155005D41
:103B800020F00801212001552320005D20F00101D3
:103B900023200155005D20F0020123200155005D26
:103BA00020F0040123200155005D20F008012320AE
:103BB0000155B4F81D000090FFF7BCFAB4F81F00DF
:103BC0000090FFF7B7FAB4F821000090FFF7B2FABF
:103BD000B4F823000090FFF7ADFA6AE22520005DFB
:103BE00020F0010125200155005D20F00200801C1D
:103BF000252108552520005D20F0040125200155D0
:103C00002720005D20F0010127200155005D20F0F4
:103C100002012720015502E0ADE113E17CE0005DE7
:103C200020F0040127200155005D20F00801272025
:103C300001552920005D20F0010129200155005D7A
:103C400020F00200801C292108552920005D20F069
:103C50000401292001552B20005D20F001012B20BB
:103C60000155005D20F002012B200155005D20F080
:103C700004012B200155005D20F008012B20015587
:103C80002D20005D20F001012D200155005D20F068
:103C90000200801C2D2108552D20005D20F004011C
:103CA0002D200155005D20F0080008302D21085519
:103CB0002F20005D20F001012F200155005D20F034
:103CC00002012F200155005D20F004012F20015535
:103CD000005D20F008012F200155B4F82500009068
:103CE000FFF728FAB4F827000090FFF723FAB4F89A
:103CF00029000090FFF71EFAB4F82B000090FFF7A0
:103D000019FAB4F82D000090FFF714FAB4F82F0058
:103D10000090FFF70FFACCE114F83F0F20F00100FC
:103D20002070207820F00200801C2070207820F085
:103D3000040004F83F094120005D20F0010141200A
:103D40000155005D20F0020141200155005D20F089
:103D5000040141200155005D20F00801412001557A
:103D60004320005D20F0010143200155005D20F05B
:103D70000200801C432108554320005D20F004010F
:103D800043200155005D20F00801432001554520E6
:103D9000005D20F0010145200155005D20F0020189
:103DA00045200155005D20F0040145200155005DCE
:103DB00020F00801452001554720005D20F0010159
:103DC00047200155005D20F00200801C4721085566
:103DD0004720005D20F00401472001554920005D87
:103DE00020F0010149200155005D20F00201492029
:103DF0000155005D20F0040149200155005D20F0CF
:103E0000080149200155B4F83F000090FFF792F9EE
:103E1000B4F841000090FFF78DF9B4F8430000902A
:103E2000FFF788F9B4F845000090FFF783F9B4F87C
:103E300047000090FFF77EF9B4F849000090FFF7C3
:103E400079F936E14B20005D20F001014B2001554E
:103E5000005D20F00200801C4B2108554B20005DC6
:103E600020F004014B2001554D20005D20F00101A0
:103E70004D200155005D20F002014D200155005DEF
:103E800020F004014D200155005D20F008014D2077
:103E900001554F20005D20F001014F200155005DCC
:103EA00020F00200801C4F2108554F20005D20F0BB
:103EB00004014F200155005D20F008014F200155FD
:103EC0005120005D20F0010151200155005D20F0DE
:103ED000020151200155005D20F0040151200155DF
:103EE000005D20F00801512001555320005D20F0B5
:103EF000010153200155005D20F00200801C532178
:103F000008555320005D20F0040153200155552031
:103F1000005D20F0010155200155005D20F00201F7
:103F200055200155005D20F0040155200155005D2C
:103F300020F0080155200155B4F84B000090FFF720
:103F4000F9F8B4F84D000090FFF7F4F8B4F84F001A
:103F50000090FFF7EFF8B4F851000090FFF7EAF88F
:103F6000B4F853000090FFF7E5F8B4F8550000905E
:103F7000FFF7E0F89DE05720005D20F00101572099
:103F80000155005D20F00200801C57210855572084
:103F9000005D20F00401572001555920005D20F0FC
:103FA000010159200155005D20F002015920015501
:103FB000005D20F0040159200155005D20F008014A
:103FC000592001555B20005D20F001015B20015567
:103FD000005D20F00200801C5B2108555B20005D25
:103FE00020F004015B200155005D20F008015B20FA
:103FF00001555D20005D20F001015D200155005D4F
:1040000020F002015D200155005D20F004015D20DB
:104010000155005D20F008015D20015594F85F0016
:1040200020F0010184F85F1094F85F0020F0020096
:10403000801C84F85F0094F85F0020F0040184F88D
:104040005F1094F8610020F0010184F8611094F889
:10405000610020F0020184F8611094F8610020F002
:10406000040184F8611094F8610020F0080184F8DC
:104070006110B4F857000090FFF75CF8B4F85900ED
:104080000090FFF757F8B4F85B000090FFF752F884
:10409000B4F85D000090FFF74DF8B4F85F000090B1
:1040A000FFF748F8B4F861000090FFF743F800E02C
:1040B00000BF00BFF8BD2DE9F04104460D4616468D
:1040C000274635B1012D0BD0022D0ED0032D25D161
:1040D00010E02346022231460520FFF73EFB1EE09A
:1040E00021460520FFF712FA19E021460620FFF7C6
:1040F0008FFC14E0388900EBD0714910A0EB41012E
:10410000012906D12346022231460520FFF725FB6F
:1041100003E021460520FFF7F9F900E000BF00BFEA
:10412000BDE8F0812DE9F04104460D4616462746CC
:1041300035B1012D0BD0022D0ED0032D25D110E06D
:104140002346022231460620FFF707FB1EE02146E8
:104150000620FFF7DBF919E021460620FFF758FC9F
:1041600014E0F88800EBD0714910A0EB410101295F
:1041700006D12346022231460620FFF7EEFA03E07D
:1041800021460620FFF7C2F900E000BF00BFBDE8EE
:10419000F0812DE9F04104460D461646274635B11B
:1041A000012D0BD0022D0ED0032D25D110E023467A
:1041B000022231460420FFF7D0FA1EE021460420F7
:1041C000FFF7A4F919E021460420FFF721FC14E0D1
:1041D000F88800EBD0714910A0EB4101012906D10C
:1041E0002346022231460420FFF7B7FA03E02146B6
:1041F0000420FFF78BF900E000BF00BFBDE8F081AD
:104200002DE9F04104460D461646274635B1012DED
:104210000BD0022D0ED0032D25D110E02346012214
:1042200031460220FFF799FA1EE021460220FFF7EF
:104230006DF919E021460220FFF7EAFB14E0F88847
:1042400000EBD0714910A0EB4101012906D12346B2
:10425000012231460220FFF780FA03E021460220C6
:10426000FFF754F900E000BF00BFBDE8F0812DE981
:10427000F04104460D461646274635B1012D0BD0B8
:10428000022D0ED0032D25D110E023460122314608
:104290000320FFF762FA1EE021460320FFF736F9FC
:1042A00019E021460320FFF7B3FB14E0F88800EB88
:1042B000D0714910A0EB4101012906D1234601220A
:1042C00031460320FFF749FA03E021460320FFF7B8
:1042D0001DF900E000BF00BFBDE8F081F8B505465C
:1042E0000E463446012D02D0032D4AD124E00A2285
:1042F00004F11301881EFEF769FFB4F81100009065
:10430000FEF718FFB4F813000090FEF713FFB4F89F
:1043100015000090FEF70EFFB4F817000090FEF7AE
:1043200009FFB4F819000090FEF704FFB4F81B0071
:104330000090FEF7FFFE25E00A2204F12701881E07
:10434000FEF744FFB4F825000090FEF7F3FEB4F842
:1043500027000090FEF7EEFEB4F829000090FEF76B
:10436000E9FEB4F82B000090FEF7E4FEB4F82D004F
:104370000090FEF7DFFEB4F82F000090FEF7DAFEA3
:1043800000E000BF00BFF8BD2DE9F04105460E4634
:104390001446A846002704EB8400400004B2002C19
:1043A00002DA0127604204B236B1012E10D0022E8B
:1043B00013D0032E30D115E0A1B22B4601220320E9
:1043C000FFF7CBF91FB129460320FFF787FF24E051
:1043D00029460320FFF79AF81FE029460320FFF73C
:1043E00017FB1AE0B8F8060000EBD0714910A0EBFB
:1043F000410101290BD1A1B22B4601220320FFF775
:10440000ACF947B129460320FFF768FF03E02946CE
:104410000320FFF77BF800E000BF00BFBDE8F0819C
:104420002DE9F04104460D461646274635B1012DCB
:104430000BD0022D0ED0032D25D110E023460122F2
:1044400031461046FFF789F91EE021460120FFF7AB
:104450005DF819E021460120FFF7DAFA14E0F88848
:1044600000EBD0714910A0EB4101012906D1234690
:10447000012231461046FFF770F903E02146012082
:10448000FFF744F800E000BF00BFBDE8F0812DE970
:10449000F04105460E461446A846002704EB84006A
:1044A000400004B2002C02DA0127604204B236B1A7
:1044B000012E10D0022E13D0032E30D115E0A1B260
:1044C0002B4601221046FFF748F91FB1294601206B
:1044D000FFF704FF24E029460120FFF717F81FE04B
:1044E00029460120FFF794FA1AE0B8F8060000EB1D
:1044F000D0714910A0EB410101290BD1A1B22B468B
:1045000001221046FFF729F947B129460120FFF79C
:10451000E5FE03E029460120FEF7F8FF00E000BFBA
:1045200000BFBDE8F08138B505462C46208900EB78
:10453000D0714910A0EB4101012907D194F8650021
:1045400020F00100401C84F8650005E094F8650047
:1045500020F0010184F86510B4F865000090FEF7C2
:10456000E9FD38BD014691F8672022F00402121DD2
:1045700081F8672091F8652022F00802083281F85E
:10458000652091F8652022F00402121D81F8652053
:1045900091F8652022F00202921C81F8652091F8C2
:1045A000652022F00102521C81F865207047014607
:1045B00091F8672022F0040381F8673091F86520B4
:1045C00022F0080381F8653091F8652022F004029A
:1045D000121D81F8652091F8652022F00202921CDC
:1045E00081F8652091F8652022F00102521C81F8C3
:1045F00065207047014691F8672022F0040381F896
:10460000673091F8652022F0080381F8653091F851
:10461000652022F0040381F8653091F8652022F0CE
:10462000020381F8653091F8652022F00102521CE6
:1046300081F86520704710B50246104631B1012956
:1046400042D0022959D0032974D174E0C38803EB06
:10465000D3746410A3EB4404012C1AD190F8633096
:1046600023F001035B1C80F8633090F8633023F083
:10467000020480F8634090F8633023F0040480F86B
:10468000634090F8633023F00803083380F8633008
:1046900019E090F8633023F0010480F8634090F84B
:1046A000633023F002039B1C80F8633090F8633082
:1046B00023F004031B1D80F8633090F8633023F06F
:1046C000080480F8634075E090F8633023F001043B
:1046D00080F8634090F8633023F0020480F8634070
:1046E00090F8633023F0040480F8634090F863305E
:1046F00023F0080480F863405CE090F8633023F016
:1047000001035B1C80F8633090F8633023F00203F0
:104710009B1C80F8633090F8633023F004031B1D6A
:1047200080F8633090F8633023F00803083380F892
:1047300063303FE03DE0C38803EBD3746410A3EB28
:104740004404012C1CD190F8633023F001035B1C5E
:1047500080F8633090F8633023F002039B1C80F8EC
:10476000633090F8633023F004031B1D80F863303E
:1047700090F8633023F00803083380F8633017E0C3
:1047800090F8633023F0010480F8634090F86330C0
:1047900023F0020480F8634090F8633023F00404AF
:1047A00080F8634090F8633023F0080480F8634099
:1047B00000E000BF00BF10BD10B50246104631B189
:1047C000012942D0022959D0032974D174E0C38849
:1047D00003EBD3746410A3EB4404012C1AD190F8BA
:1047E000693023F001035B1C80F8693090F8693070
:1047F00023F0020480F8694090F8693023F0040443
:1048000080F8694090F8693023F00803083380F895
:10481000693019E090F8693023F0010480F86940AC
:1048200090F8693023F002039B1C80F8693090F8FF
:10483000693023F004031B1D80F8693090F869305B
:1048400023F0080480F8694075E090F8693023F09F
:10485000010480F8694090F8693023F0020480F880
:10486000694090F8693023F0040480F8694090F8BA
:10487000693023F0080480F869405CE090F8693002
:1048800023F001035B1C80F8693090F8693023F055
:1048900002039B1C80F8693090F8693023F0040310
:1048A0001B1D80F8693090F8693023F00803083345
:1048B00080F869303FE03DE0C38803EBD3746410B7
:1048C000A3EB4404012C1CD190F8693023F00103C0
:1048D0005B1C80F8693090F8693023F002039B1C60
:1048E00080F8693090F8693023F004031B1D80F8CC
:1048F000693090F8693023F00803083380F8693094
:1049000017E090F8693023F0010480F8694090F8CE
:10491000693023F0020480F8694090F8693023F090
:10492000040480F8694090F8693023F0080480F8A6
:10493000694000E000BF00BF10BD10B50246104640
:10494000012907D157231B5C23F0080308335724A0
:10495000235405E057231B5C23F0080457231C5401
:1049600010BD02461046012907D190F83F3023F0D0
:104970000803083380F83F3005E090F83F3023F01B
:10498000080380F83F30704710B50246104631B139
:1049900001290CD0022911D0032927D10FE090F86A
:1049A000673023F002039B1C80F867301FE090F80B
:1049B000673023F0020480F8674018E017E0C388EE
:1049C00003EBD3746410A3EB4404012C07D190F8DB
:1049D000673023F002039B1C80F8673005E090F8F5
:1049E000673023F0020480F8674000E000BF00BF9A
:1049F00010BD10B502461046012907D190F8673066
:104A000023F00803083380F8673005E090F867303A
:104A100023F0080480F8674010BD10B50246104628
:104A2000012921D0022902D003291CD10DE04B23FA
:104A30001B5C23F0080308334B2423544F231B5CD7
:104A400023F008044F231C541BE04B231B5C23F072
:104A500008044B231C544F231B5C23F0080308332A
:104A60004F2423540DE000BF4B231B5C23F00804AC
:104A70004B231C544F231B5C23F008044F231C546E
:104A800000BF00BF10BD2DE9F04106463446A07AB4
:104A900008B9BDE8F081A088401CA080A0880A2841
:104AA00008DD0020A080E088401CE0802089401CB8
:104AB000208100E0EDE7E06890F82700012811D19F
:104AC000E08800EBD0714910A0EB4101012904D12D
:104AD00002213046FFF7A1FF1EE003213046FFF719
:104AE0009CFF19E0E068807C01280FD0022802D0EA
:104AF00003280AD104E002213046FFF78EFF0AE0C6
:104B000003213046FFF789FF05E000BF0121304651
:104B1000FFF783FF00BF00BFE068C07B012804D11E
:104B200001213046FFF765FF03E000213046FFF723
:104B300060FFE06890F82400012801D1032506E019
:104B4000E068007C012801D1002500E0012529460C
:104B50003046FFF719FFE068407901280DD1E06881
:104B6000C07C012804D101213046FFF7E6FE1EE09B
:104B700000213046FFF7E1FE19E0E068C07C012823
:104B800004D101213046FFF7ECFE03E0002130465E
:104B9000FFF7E7FEE068007D012804D101213046DF
:104BA000FFF7CBFE03E000213046FFF7C6FEE068CA
:104BB0004079012812D1E06890F82D00012801D138
:104BC000032506E0E0688079012801D1002500E096
:104BD000022529463046FFF72EFD23E0E06890F8D5
:104BE0002D00012801D1032506E0E0688079012825
:104BF00001D1002500E0022529463046FFF7DCFD03
:104C0000E06890F82E00012801D1032506E0E06855
:104C1000C079012801D1002500E00225294630464F
:104C2000FFF709FDE068807B20B1012806D002284B
:104C30000CD107E03046FFF7DDFC08E03046FFF717
:104C4000B6FC04E03046FFF78DFC00E000BF00BF7B
:104C5000E06890F82800012802D13046FFF763FC95
:104C6000E0684079012846D1207C022801D0022545
:104C700021E0E068807C01280FD1E06800790528F8
:104C800009D10325B4F97400E16891F92010884234
:104C900011D000250FE002250DE0E0680079012821
:104CA00001D1032500E00025B4F86E00E168098B0E
:104CB000884200D00025E0680079052810D1E0681E
:104CC000807C01280CD1E06890F9202029463046EC
:104CD000FFF75AFBE06890F92000A4F8740096E012
:104CE000E068028B29463046FFF7C1FAE068008B86
:104CF000A4F86E008BE0207C022801D0022521E080
:104D0000E068807C01280FD1E0680079052809D18E
:104D10000325B4F97400E16891F92010884211D09C
:104D200000250FE002250DE0E0680079012801D19F
:104D3000032500E00025B4F86E00E168098B884285
:104D400000D00025E0680079052810D1E068807C5B
:104D500001280CD1E06890F9202029463046FFF761
:104D600096FBE06890F92000A4F8740009E0E06880
:104D7000028B29463046FFF753FBE068008BA4F80E
:104D80006E00207C022801D0022521E0E068807CB2
:104D900001280FD1E0680079062809D10325B4F96C
:104DA0007600E16891F92110884211D000250FE0CA
:104DB00002250DE0E0680079022801D1032500E01A
:104DC0000025B4F87000E168498B884200D00025C6
:104DD000E0680079062810D1E068807C01280CD1B9
:104DE000E06890F9212029463046FFF7CDFAE068C7
:104DF00090F92000A4F8760009E0E068428B29468B
:104E00003046FFF734FAE068408BA4F87000E068A1
:104E1000807C012802D0207C022801D0022517E0E6
:104E2000E0680079032809D0E06890F8290001289B
:104E300004D0E06890F82A00012801D1032500E0A1
:104E40000025B4F87200E168898B884200D0002503
:104E5000E068828B29463046FFF7D2F9E068808B04
:104E6000A4F87200E0684079012820D1E06890F849
:104E7000220008B102250CE0E06890F82B00012820
:104E800004D0E06890F82900012801D1032500E052
:104E90000025207C022803D040F2DA70E168088106
:104EA000E068028929463046FFF73CF93BE0E068BC
:104EB00090F8220010B9207C022801D002250CE0D5
:104EC000E06890F82B00012804D0E06890F82900F1
:104ED000012801D1032500E00025E0680289294668
:104EE0003046FFF756F9E06890F8230008B1022534
:104EF0000CE0E06890F82C00012804D0E06890F8FD
:104F00002A00012801D1032500E00025207C022889
:104F100003D040F2DA70E1684881E06842892946AE
:104F20003046FFF7FFF8E06890F82500012804D02C
:104F3000E06890F82600012801D1032500E0002553
:104F4000E0688789E068007904280AD10325E068D1
:104F5000C08A00EBC00101EB00104FF6FF7101EABF
:104F600080073A4629463046FFF7A5F83046FEF757
:104F700001F900BF8DE570B51D46049C0346072965
:104F800007D1012A02D101261E7401E002261E74F7
:104F900000E000BF00BF70BD70B5054600240026CC
:104FA0003C2002F071FA0446782002F06DFA0646C1
:104FB00068683060A6632868F06040482061404817
:104FC00060614048A0614048E0614048206240483C
:104FD00060620020A0623F48E062002020636063BE
:104FE0003DA1204602F0F6F9204670BD38B50446D2
:104FF000254695F83F0020F0080085F83F0057202F
:10500000405D20F00801572041554B20405D20F0C5
:1050100008014B2041554F20405D20F008014F20F2
:105020004155B5F84F000090FEF784F8B5F85700E9
:105030000090FEF77FF8B5F84B000090FEF77AF885
:10504000B5F83F000090FEF775F838BD2DE9F04146
:1050500004460F4615461E46A04623460122394601
:105060001046FEF77AFB2346012229460320FEF76D
:1050700074FB2346012231460220FEF76EFBBDE899
:10508000F0812DE9F04104460F4615461E46A04624
:105090002346012239460420FEF75FFB2346012206
:1050A00029460620FEF759FB2346012231460520FA
:1050B000FEF753FBBDE8F08170470000C1300008E7
:1050C000DF300008ED300008013100080D31000824
:1050D000774F0008874A00084D6F645363720000E1
:1050E0000146002002E0491C421CD0B20A78002A86
:1050F000F9D170472DE9F04105460E4614460027C8
:1051000025B9042020700020BDE8F0811EB90C20D4
:1051100020700020F8E7FB48007818B111202070BB
:105120000020F1E72878012808D0022807D00328BA
:1051300002D0042804D100E000BF00BF00BF03E09C
:10514000012020700020DFE700BF01F0EBFD0746E3
:10515000286930603068FFF7C3FF8046384601F0A9
:10516000E5FD002020704046CEE72DE9F0410546E0
:105170000E46144600271DB904202070BDE8F081BA
:1051800016B90C202070F9E7DE48007810B1122023
:105190002070F3E72878012808D0022807D00328D8
:1051A00002D0042804D100E000BF00BF00BF02E02D
:1051B00001202070E2E700BF01F0B4FD07462E6138
:1051C000384601F0B3FD0020207000BFD6E7F0B5EF
:1051D000024612F8304F95785678303A0B461868E8
:1051E0000FE000F10B073F5DB74300F10B0C0CF82B
:1051F000047067463F5D17B9877AAF4387721B1DFE
:1052000018680028EDD1F0BDBF49C04A1278885C0B
:10521000BF49095CBC4A515C01EBC001BD4A117039
:10522000704710B5002401F07DFD0446B5480078B4
:10523000F8B9B9480078E0B9FFF7E6FFB748B549D3
:10524000097850F82100B6490860B2480078B5499D
:10525000097888420DD0B2480068406B401CB049C4
:1052600009684863B0480068401CAF49086001F015
:1052700070FD204601F05AFD10BD70B501460024B6
:10528000AA4D2D68EC61A94C246821620B46186870
:105290001BE0A64C246894F8305000F10B04645DC8
:1052A000A24D2D6895F831502C43A04D2D6895F8EE
:1052B000306000F10B05AC55847A9C4D2D6895F853
:1052C00032502C4384721B1D18680028E1D1974C82
:1052D000246894F830208E4CA45C944D2D6895F889
:1052E0003150AC438A4DAC542C46A45C44B98F4C2D
:1052F000246894F83250854C2478AC43834D2C704C
:1053000070BD2DE9FF4F83B081460E461446109FB5
:1053100000200090B9F1000F05D104203870002062
:1053200007B0BDE8F08FD9F8000018B90420387034
:105330000020F5E71EB9042038700020F0E71CB902
:10534000042038700020EBE700203060CA46DAF80D
:10535000005016E02878022807D0032804D004283B
:1053600005D0052802D103E006E005E000BF00BF3C
:10537000012038700020D3E700BF0AF1040ADAF8F0
:105380000050002DE6D15F48007818B10220387037
:105390000020C5E76048007818B10D203870002063
:1053A000BEE701F0BFFC0090002002908346019010
:1053B000CA46DAF8005055E0287802281AD00328A7
:1053C00004D004283FD005283CD13DE0288960B1B5
:1053D0002889401E288120C601200290002001C497
:1053E0000BF101001FFA80FB03E0019840F001007F
:1053F000019032E0D5F80480B8F81600E8B1D8F88A
:105400001010081DC8F81000086801C4D8F808106A
:10541000D8F81000884203D1D8F80400C8F810006A
:10542000B8F81600401EA8F8160020C60120029009
:105430000BF101001FFA80FB03E0019840F004002B
:1054400001900AE000BF00BF009801F06FFC00204F
:10545000306001203870584662E700BF0AF1040A44
:10546000DAF80050002DA7D10298012808D10020B9
:105470003060009801F05AFC0020387058464FE721
:105480002A48006890F82C00019941F080010843F7
:105490002649096881F82C0000202449096881F810
:1054A0002D0022490698096888624846FFF7E5FE04
:1054B000009801F03BFCFFF7B4FE01F033FC0090D4
:1054C0001A48006890F82D0020B1012831D0022838
:1054D0002ED100E000BF15480068C5693DB120C667
:1054E000002030600BF101001FFA80FB09E0012071
:1054F0000E49096881F82D0049460C480068FFF7FD
:1055000066FE1CE0350000209C7600083900002073
:105510003A0000203800002036000020C42300207C
:105520004C00002037000020200000204400002014
:1055300000BF4946F7480068FFF749FE00BF00BFBB
:10554000F448006890F82D0020B1012828D00228E6
:1055500025D11FE0287806280DD2DFE800F00C06E0
:1055600007030D0E002001C410E000BFE9480068E9
:10557000406A01C40AE000BF00BF009801F0D6FBFA
:1055800000203060012038705846C9E600BF002076
:1055900038700AE0002001C40E20387005E000BF1A
:1055A000002001C40A20387000BF00BF0020D94984
:1055B000096881F82C00D749096881F82D00D54980
:1055C0000968C861D34909680862D2490968486214
:1055D000009801F0ABFB5846A2E67CB5002514E02C
:1055E0006946284601F079F9064666B9CA4850F876
:1055F000254044B1012C06D0D4E9020100EB810022
:10560000206401986064681CC5B2102DE8D97CBD87
:10561000002400BF02E0C82001F09AFABF480078D9
:105620000028F8D0BE4800686421B0FBF1F0BC4906
:1056300008600846006828B90020BA490870FF20B1
:1056400001F096F900BF01F06DFB0446B648006812
:10565000B64908600020B4490860204601F066FBA6
:10566000B2480068AE490968B0FBF1F0C0F16400CF
:10567000AC49087001F0AEFBFFF7AFFF642001F00A
:1056800067FAE0E700B587B0032000214022A84B6D
:10569000CDE90132CDE903104FF6FE700F23A44A85
:1056A000FC320090AFF2970000F005FF06AAA1A11E
:1056B0000F2001F06FF807B000BD002400BF00BF4D
:1056C00001F030FB044698480068401C9649086089
:1056D000204601F02BFB01F07CFBF1E700B587B021
:1056E000032000214022974BCDE90132CDE9031080
:1056F0004FF6FF701023934AFC320090AFF2450042
:1057000000F0D9FE06AA90A1102001F043F807B0DE
:1057100000BD04E0002200F8012B4A1E91B20029CE
:10572000F8D1704770B54FF4A0718B48FFF7F1FFC7
:10573000002411E0601C85B204EB8400864901EB73
:10574000800305EB850001EB8006002018705E6089
:1057500082A01861601C84B20F2CEBD304EB840090
:105760007D4901EB80030020187058607BA0186110
:1057700008467B49086070BD70B54FF48261794876
:10578000FFF7C7FF44216448FFF7C3FF00230FE082
:10579000581CC5B203EB8300724901EB001405EB02
:1057A000850001EB001666616CA0A064581CC3B2B2
:1057B0000C2BEDD303EB83006A4901EB00140020AE
:1057C000606166A0A0640020674908606548674979
:1057D000086070BD0021664A1170002004E00021BD
:1057E000644A1154411CC8B20328F8D30021624A0C
:1057F0001170624A1170624A1160464A1160704726
:10580000002060490860604908706049087060497C
:10581000087060490870604908604349086043495E
:1058200008603F4908603D490870704710B501F0B5
:10583000CBFAFFF7E5FFFFF7CDFFFFF79DFFFFF77F
:1058400071FF00F0B4FDFFF749FFFFF71BFF01F008
:10585000BDFA10BD4F480078012808D14A480078A9
:10586000FF2804D248480078401C47490870704718
:1058700010B5002447480078012830D101F052FAD1
:1058800004464148007820B13F480078401E3E4918
:1058900008703D480078F8B93C480078E0B9FFF757
:1058A000B3FC1D483549097850F821003449086097
:1058B000324800783049097888420DD03048006875
:1058C000406B401C2E490968486333480068401CFF
:1058D0003149086001F042FA204601F027FA10BD74
:1058E00010B500242B480078012811D101F01AFAD4
:1058F00004462548007840B924480078FF2804D29F
:1059000022480078401C21490870204601F00EFA18
:1059100010BD000044000020C423002034000020FB
:105920002C00002028000020400000203000002033
:10593000C421002075432F4F532D494920537461D2
:1059400074000000C422002075432F4F532D494995
:105950002049646C65000000842000203F000000A6
:1059600024000020082400205000002048000020CF
:10597000390000203A0000203700002038000020C5
:105980004C00002058000020350000203600002088
:105990003E0000203D0000202000002010B5002423
:1059A000F0480078012821D101F0BCF90446EE4806
:1059B0000078C0B1EC480078401EEB4908700846FA
:1059C000007860B9E948007828B9204601F0AEF9BE
:1059D000FFF727FC0AE0204601F0A8F906E0204680
:1059E00001F0A4F902E0204601F0A0F910BD10B5C5
:1059F000DC48007890B9FFF707FCDD480078DD4906
:105A00000870DD48DA49097850F82100DB49086060
:105A100008460068DA49086001F08BF910BD10B53E
:105A20000024022001F094F801F07CF904460020E3
:105A3000D4490860204601F079F9642001F088F823
:105A400001F070F90446CF480068CF490860012092
:105A5000CE490870204601F069F910BD70B50025E7
:105A600001F008FA01F05EF90546C9480068401CDB
:105A7000C7490860284601F059F9BA48007801285A
:105A80003AD1C448046833E001F04CF90546A06AF5
:105A900050B3A06A401EA062A06A28BB94F82C00F4
:105AA00000F0370040B114F82C0F00F0C80020704F
:105AB000012060702C3C02E0002084F82D0094F856
:105AC0002C0000F0080078B93034A078B249097889
:105AD0000843B14908702078B049085C61780843F0
