:020000040800F2
:1000000000000220ED4C0008AD030008AF0300081B
:10001000B3030008B7030008BB030008000000009A
:10002000000000000000000000000000BF03000806
:10003000C103000800000000A30F0108B55F00081D
:10004000074D0008074D0008074D0008074D000840
:10005000074D0008074D0008074D0008074D000830
:10006000074D0008074D0008074D0008074D000820
:10007000074D0008074D0008074D0008074D000810
:10008000074D0008074D0008074D0008074D000800
:10009000074D0008074D0008074D0008074D0008F0
:1000A000074D0008074D0008074D0008074D0008E0
:1000B000074D0008074D0008074D0008074D0008D0
:1000C000074D0008074D0008074D0008074D0008C0
:1000D000074D0008E5610008074D00087D63000832
:1000E000074D0008074D0008074D0008074D0008A0
:1000F000074D0008074D0008074D0008074D000890
:10010000074D0008074D0008074D0008074D00087F
:1001100087640008B7650008074D0008074D000810
:10012000074D0008074D0008074D0008074D00085F
:10013000074D0008074D0008074D0008074D00084F
:10014000074D0008074D0008074D0008074D00083F
:10015000074D0008074D0008074D0008074D00082F
:10016000074D0008074D0008074D0008074D00081F
:10017000074D0008074D0008074D0008074D00080F
:10018000074D0008074D000800F002F800F068F87D
:100190000AA090E8000C82448344AAF10107DA45E2
:1001A00001D100F05DF8AFF2090EBAE80F0013F0CC
:1001B000010F18BFFB1A43F001031847BC180100D8
:1001C000DC1801000A444FF0000C10F8013B13F05A
:1001D000070408BF10F8014B1D1108BF10F8015BA0
:1001E000641E05D010F8016B641E01F8016BF9D193
:1001F00013F0080F1EBF10F8014BAD1C0C1B09D1EA
:100200006D1E58BF01F801CBFAD505E014F8016B5B
:1002100001F8016B6D1EF9D59142D6D370470000ED
:100220000023002400250026103A28BF78C1FBD8FF
:10023000520728BF30C148BF0B607047642910F0D7
:10024000A582732910F02785002070471FB511F093
:10025000C1F99DE8030010F07DFC1FBD10B510BD75
:1002600010F0FAFD1146FFF7F1FF00F024F810F04E
:1002700018FE03B4FFF7F2FF03BC05F045FF0000D2
:1002800030BF72B6704762B6704780F30888704717
:1002900038B50446002500BF06F074FA68460CF035
:1002A000DEF96A460121084608F067FA00F035FADF
:1002B00000F090F938BD8AB0002405F00FFFFFF779
:1002C000E0FF04F07BF9FFF7DEFF09A808F02CF847
:1002D00000BF00BF00BF06F08DFB044600BF00BF9B
:1002E0002B480078401C2A49087000BF00BF2046F8
:1002F00006F084FB00BF00BF00BF09A80321002255
:100300000592CDE90621089010464FF480616622DF
:10031000204BCDE90132CDE9031008200023AFF2D4
:100320008F021DA100901F480CF070FD00BF00BFA0
:1003300000BF06F05FFB044600BF00BF1448007812
:10034000401E1349087008460078A0B91648008876
:10035000002809DD00BF00BF204606F04FFB00BFAC
:1003600000BF08F0F3FD0DE000BF00BF204606F01F
:1003700045FB00BF06E000BF00BF204606F03EFB85
:1003800000BF00BF00BF09A808F097FA00BFFEE752
:10039000C00000200C02002073746172742074612C
:1003A000736B00004801002084000020704700BFEC
:1003B000FEE700BFFEE700BFFEE700BFFEE77047B5
:1003C000704700000CB5002001900090764800684E
:1003D00040F480307449086000BF7348006800F43E
:1003E000003000900198401C0190009818B90198C5
:1003F000B0F5A04FF1D16C48006800F4003010B1A6
:100400000120009001E0002000900098012846D1D2
:1004100065484030006840F08050634940310860D2
:100420006248006840F44040604908605E48083017
:1004300000685D49083108600846006840F40040E3
:1004400008600846006840F4A05008605848091F3A
:100450000860081F006840F08070091F086000BF36
:100460005148006800F000700028F9D040F2057093
:10047000504908604C480830006820F003004A49A1
:10048000083108600846006840F00200086000BFBC
:1004900045480830006800F00C000828F8D10CBD71
:1004A00010B54548006840F47000434908603E4874
:1004B000006840F001003C49086000203A490831DA
:1004C0000860394800683D490840374908603C48A1
:1004D000091D0860081F006820F48020091F0860BB
:1004E000002031490C310860FFF76CFF4FF00060CD
:1004F00031498039086010BD70B500200022022308
:1005000000240221284D08352D6805F00C0020B18B
:10051000042806D0082834D107E02A4D2A4E356039
:1005200033E02A4D284E35602FE01F4D2D1D2D68DC
:10053000C5F380541C4D2D1D2D6805F03F0154B1AD
:10054000224DB5FBF1F5184E361D3668C6F38816F8
:1005500005FB06F209E01B4DB5FBF1F5124E361D09
:100560003668C6F3881605FB06F20F4D2D1D2D6863
:10057000C5F301456D1C6B00B2FBF3F5124E3560FF
:1005800003E0104D104E356000BF00BF064D08352A
:100590002D68C5F303150E4E705D0B4D2D68C540DB
:1005A000094E356070BD0000003802400070004008
:1005B00008544007003C024088ED00E0FFFFF6FED3
:1005C000103000240024F4000000002000127A0003
:1005D000040000200EB5934804680CE05CB102A84A
:1005E00000210A230A46CDE9001008460EF0A9FBB7
:1005F000D4E90E108847F1E71CB5044600F04CFB27
:10060000206000208DF804002168C86B00F05CFFBA
:1006100000909DF80400401CC0B28DF804002168D1
:100620004A6CC86B694690472168C86B01F0A5F811
:1006300000909DF80400401CC0B28DF804002168B1
:100640004A6CC86B694690472168C86B01F0C8FACC
:1006500000909DF80400401CC0B28DF80400216891
:100660004A6CC86B694690472168C86B01F011FD60
:1006700000909DF80400401CC0B28DF80400216871
:100680004A6CC86B694690472168C86B03F058FEF6
:1006900000909DF80400401CC0B28DF80400216851
:1006A0004A6CC86B694690472168C86B02F043FEEC
:1006B00000909DF80400401CC0B28DF80400216831
:1006C0004A6CC86B694690472168C86B03F041F8D3
:1006D00000909DF80400401CC0B28DF80400216811
:1006E0004A6CC86B694690472168C86B03F0C7FA2B
:1006F00000909DF80400401CC0B28DF804002168F1
:100700004A6CC86B6946904722681169D06B88476C
:1007100022689169D06B88471CBD00B58BB04148F9
:10072000FFF76AFF0AA8032100220592CDE90621FE
:10073000089010464FF4807119223B4BCDE90132ED
:10074000CDE90310072000903648384A38A10368E5
:100750003A480CF05BFB0AA8032100220592CDE980
:100760000621089010464FF480711922344BCDE9D0
:100770000132CDE90310062000902A48314A32A107
:10078000036833480CF042FB0AA8032100220592BB
:10079000CDE90621089010464FF4807119222D4BA7
:1007A000CDE90132CDE90310052000901D482A4A09
:1007B0002AA103682D480CF029FB0AA80321002276
:1007C0000592CDE90621089010464FF48071192258
:1007D000274BCDE90132CDE90310092000901148E3
:1007E000244A25A1036828480CF010FB0AA803211D
:1007F00000220592CDE90621089010464FF4807141
:100800001922224BCDE90132CDE903100A200090D4
:1008100004481F4A1FA1036822480CF0F7FA0BB0E6
:1008200000BD000014000020E0150020A908000809
:10083000736572766572207461736B000C12002010
:10084000E0190020B90800087573207461736B000B
:10085000D0120020E01D0020DD08000831306D734B
:100860002074657374207461736B0000941300200E
:10087000E02100200109000835306D732074657394
:1008800074207461736B000058140020E025002070
:100890002509000831732074657374207461736BCB
:1008A000000000001C15002005462C4603E014B192
:1008B000D4E90F018847FAE70EB505462C460CE04F
:1008C00002A800210B460122CDE9001008460EF0D7
:1008D00038FA14B1616BE06B8847F1E70EB5054655
:1008E0002C460CE002A8002132230A46CDE9001074
:1008F00008460EF026FA14B1216BE06B8847F1E749
:100900000EB505462C460CE002A800210A230A4633
:10091000CDE9001008460EF014FA14B1E16AE06B5C
:100920008847F1E70EB505462C460CE002A80021E9
:1009300001230A46CDE9001008460EF002FA14B170
:10094000A16AE06B8847F1E72DE9F04780460C4645
:10095000914600272646002526B1356815B129693C
:10096000E86B88473846BDE8F0872DE9F0478046B8
:100970000C46914600272646002526B1356815B15C
:100980006969E86B88473846BDE8F0872DE9F0478C
:1009900080460C46914600272646002526B135683C
:1009A00015B1A969E86B88473846BDE8F0872DE99D
:1009B000F04780460C46914600272646002526B182
:1009C000356815B1E969E86B88473846BDE8F087B6
:1009D0002DE9F04780460C46914600272646002523
:1009E00026B1356815B1296AE86B88473846BDE8F5
:1009F000F0872DE9F04780460D46914600272E46A8
:100A0000002436B1346824B1E06A10B1E16AE06BC9
:100A100088473846BDE8F0872DE9F04780460D4607
:100A2000914600272E46002436B1346824B1206B4D
:100A300010B1216BE06B88473846BDE8F0872DE99F
:100A4000F04780460D46914600272E46002436B1D9
:100A5000346824B1606B10B1616BE06B8847384635
:100A6000BDE8F0872DE9F84F82460D4617464FF056
:100A70000009A8463C460026B8F1000F0BD0D8F874
:100A8000006046B1A0680090A38862882178D6F8FB
:100A900024C0F06BE0474846BDE8F88FF8B504463F
:100AA000012625460020009028760023AFF2671229
:100AB000694668690FF022FB3046F8BDF8B5044678
:100AC000012625460020009028760023944A694696
:100AD00068690FF013FB3046F8BDF8B504460126EF
:100AE0002546002000900120287600238D4A694683
:100AF00068690FF003FB3046F8BDF8B504460126DF
:100B000025460020009028760023874A69466869B8
:100B10000FF0F4FA3046F8BDF8B504460126254634
:100B2000002000900023814A694668690FF0E6FAC8
:100B300015B128460FF0D4FC3046F8BD38B5044650
:100B4000254600200090287E00B938BD0023784A51
:100B5000694668690FF0D2FA00BFF6E738B5044677
:100B6000254600200090287E00B938BD0023714A38
:100B7000694668690FF0C2FA00BFF6E738B5044667
:100B8000254600200090287E00B938BD00236A4A1F
:100B9000694668690FF0B2FA00BFF6E72DE9FF4732
:100BA00004460D4616461F46DDF83080A14600205B
:100BB00000908DF80450ADF80660ADF80870CDF8DF
:100BC0000C805EA00FF086FD01AB5F4A6946D9F844
:100BD00014000FF093FABDE8FF8770B50446254670
:100BE000286918B12A6991681068884770BD2DE995
:100BF000F04104460D462646297908232A4606F187
:100C000014000FF044F90746BDE8F0812DE9F047E4
:100C100080460D46914600272E46002436B13468A2
:100C200024B1A06B10B1D4E90E1088473846BDE856
:100C3000F08738B50446254600200090287E00B98C
:100C400038BD0023414A694668690FF057FA00BF72
:100C5000F6E72DE9F04780460D46914600272E46DF
:100C6000002436B1346824B1A06A10B1A16AE06BE7
:100C700088473846BDE8F08738B504462546002049
:100C80000090287E00B938BD0023314A6946686962
:100C90000FF034FA00BFF6E770B5002400254820B5
:100CA0000FF0EFFB04461C200FF0EBFB0546402045
:100CB0000FF0E7FB286012200FF0E3FB68601A20BA
:100CC0000FF0DFFBA86002200FF0DBFBE860E563BC
:100CD000204E21A120460FF071FE224820612248BB
:100CE00060612248A0612248E061224820623046CB
:100CF00060622148E0622148206321486063214806
:100D0000A062214820642148A0633046E16B0FF0C7
:100D100080FA28611E48606400206861204670BD2A
:100D20006B0900088D090008AF090008D109000807
:100D30003F0A0008F3090008190A00087465737473
:100D40007A7A0D0A00000000650A00080D0C000800
:100D5000530C00089D0B00084D6F64536572766557
:100D6000720000009D0A0008BD0A0008DB0A0008A6
:100D7000FB0A0008190B00085D0B00087D0B00083A
:100D80003D0B0008790C0008DB0B0008330C000851
:100D9000EF0B000810B502460120114629B10023CF
:100DA0008B768C686373CB760B7710BD0146012080
:100DB0000A460023937193807047014601200A463A
:100DC000012393717047014601200A460023937165
:100DD000704770B504460126254615B128460FF028
:100DE0007FFB304670BD002142691170426951702D
:100DF0007047014601204A6992F9002012F10A0F5A
:100E000004DB4A6992F900200A2A00DD00204A69C1
:100E100092F9012012F10A0F04DB4A6992F90120CC
:100E20000A2A00DD002070472DE9F04105460E46F4
:100E300017460024B04600BF07E0291988B203F026
:100E40009BFE08F80400601C84B2BC42F5DBBDE8E0
:100E5000F081F8B5044602275C256E463A463146D5
:100E60002846FFF7E1FF9DF800000A3840B26169AB
:100E700008705E2500BF3A4631462846FFF7D4FF8A
:100E80009DF800000A3840B261694870F8BD40F62C
:100E90007461C2689180C268D1804FF47A61C2687F
:100EA0001181C2685181C26891814910C268D181A3
:100EB0000121C26811700021C2685170C26891702E
:100EC0000221C2681182704701460120CA689288D7
:100ED00040F6AC539A4204DBCA689288B2F57A6F46
:100EE00000DD0020CA68128A012A08D0CA68128A66
:100EF000022A04D0CA68128A032A00D00020704750
:100F00002DE9F041044602274625E068061D02222D
:100F100031462846FFF788FF4825E068861D0222F3
:100F200031462846FFF780FF4A25E06800F10806B1
:100F3000022231462846FFF777FF4C25E06800F192
:100F40000A06022231462846FFF76EFF4E25E0686A
:100F500000F10C06022231462846FFF765FF5025B6
:100F6000E06800F10E06022231462846FFF75CFFDA
:100F70005A25E06800F11006022231462846FFF7A4
:100F800053FF5425E6683A4631462846FFF74CFFA2
:100F9000E0680178E8A00FF09DFBF149F1A00FF0A7
:100FA00099FB4FF4F672F1A1F6A00FF093FBF8A0B5
:100FB0000FF090FB5625E068461C3A46314628461D
:100FC000FFF732FF5825E068861C3A46314628462E
:100FD000FFF72AFFBDE8F081BA210269118040F6CF
:100FE0004671026951804FF42F610269918041F28C
:100FF000CC020169CA80BA210269118140F64672A9
:1010000001694A814FF42F610269918141F2CC025A
:101010000169CA81BA210269118240F646720169EA
:101020004A82C8210269918241F2CC020169CA82D6
:101030000021026911767047014601200A69128871
:10104000B2F5FA6F00DD002070472DE9F04104464B
:1010500002275225206900F118063A4631462846F3
:10106000FFF7E2FE0427062526693A463146284660
:10107000FFF7DAFE00BF0A252069061D3A46314611
:101080002846FFF7D1FE00BF0E25206900F10806B3
:101090003A4631462846FFF7C7FE00BF12252069B1
:1010A00000F10C063A4631462846FFF7BDFE00BF68
:1010B0001625206900F110063A4631462846FFF70A
:1010C000B3FE00BF1A25206900F114063A463146E6
:1010D0002846FFF7A9FEBDE8F0812DE9F04105465D
:1010E0000E4617460024B04600BF07E018F804106B
:1010F0002A1990B203F06CFD601C84B2BC42F5DB8F
:10110000BDE8F081F0B585B0054601260227002430
:1011100003E02DF81450601C84B20A2CF9DB14276C
:101120003A4669466120FFF7D8FF002404E000201A
:101130002DF81400601C84B20A2CF8DB3A4669468C
:101140006120FFF771FE002407E03DF81400A8427B
:1011500001D0002603E0601C84B20A2CF5DB00BF3E
:10116000304605B0F0BDF8B50446002000900227D7
:101170005425E6683A4631462846FFF7AEFF3A4620
:1011800069462846FFF750FEE0680078BDF8001079
:10119000884223D0E068017867A00FF09BFA7D4970
:1011A00070A00FF097FA4FF4AA7270A175A00FF01B
:1011B00091FA77A00FF08EFABDF8001076A00FF02C
:1011C00089FA744967A00FF085FA40F2551267A1B9
:1011D0006CA00FF07FFA6EA00FF07CFA5625E06845
:1011E000461C3A4631462846FFF777FF5825E06807
:1011F000861C3A4631462846FFF76FFF4625E068D1
:10120000061D3A4631462846FFF767FF4825E06845
:10121000861D3A4631462846FFF75FFF4A25E068BB
:1012200000F108063A4631462846FFF756FF4C259E
:10123000E06800F10A063A4631462846FFF74DFFBE
:101240004E25E06800F10C063A4631462846FFF785
:1012500044FF5025E06800F10E063A463146284624
:10126000FFF73BFF5A25E06800F110063A46314689
:101270002846FFF732FFF8BD2DE9F041044602276A
:101280005225206900F118063A4631462846FFF7F4
:1012900024FF0427062526693A4631462846FFF7EB
:1012A0001CFF00BF0A252069061D3A463146284624
:1012B000FFF713FF0E25206900F108063A46314674
:1012C0002846FFF70AFF1225206900F10C063A466E
:1012D00031462846FFF701FF1625206900F1100668
:1012E0003A4631462846FFF7F8FE1A25206900F1F4
:1012F00014063A4631462846FFF7EFFEBDE8F08176
:10130000F8B5044602275C25606900780A3040B2CF
:1013100000906E463A4631462846FFF7DEFE5E25CF
:10132000606940780A3040B2009000BF3A463146CA
:101330002846FFF7D2FEF8BD70446174612D3E6D02
:101340005F70436667446174612D3E6D5F537973CE
:1013500074656D537461203D20252D356420000097
:10136000ED150108252D3135732829004170705C79
:101370007372635C4D6F64756C65436F6E6669670D
:101380002E63000020252D3130733A252D35640061
:101390000A000000DE15010854657374203D202505
:1013A0002D35642000000000F8B505462C46A07ECF
:1013B000062804D2DFE800F00422110B051600BF56
:1013C00054E02046FFF79CFF0020A0764EE0204628
:1013D000FFF752FF0020A07648E00020A080052003
:1013E000A07643E0A088032804DB2046FFF7BBFE7D
:1013F0000020A076A088401CA08037E0D420FFF712
:1014000081FE40B900200090216801230E2241C9CD
:101410000521B04701E0012020772046FFF715FEA7
:101420002046FFF709FE10B92046FFF7D5FD2046FC
:10143000FFF766FD2046FFF747FD10B92046FFF78E
:1014400026FD2046FFF705FD2046FFF7D2FC10B928
:101450002046FFF7C8FC00200090216801230A22E3
:1014600041C90521B0470020A07600BF00BFF8BDEC
:1014700070B504462546A87900B970BD2046FFF72F
:1014800093FF00BFF9E770B50446049D2046052987
:1014900017D10A2A06D00B2A0BD00C2A06D00D2A07
:1014A0000AD00CE00BB90126867608E00226867683
:1014B00005E00326867602E00426867600BF00BF9C
:1014C00000E000BF00BF70BD70B5064600240025D7
:1014D00040200EF0D6FF044620200EF0D2FF054635
:1014E00004B105E07822AFF27C1118A00FF026FAC3
:1014F00005B105E07922AFF28C1119A00FF01EFAA8
:101500003068A8607068E860B0682861F068686159
:1015100030692860E5631648206116486061164806
:10152000A0611648E06116482062164860620020FB
:10153000A062E0622063144860630020A06313A1EE
:1015400020460FF03BFA204670BD0000704D6F64DE
:10155000436F6E66696720213D204E554C4C00005C
:10156000704461746120213D204E554C4C000000B8
:10157000950D0008AD0D0008BB0D0008C70D000853
:10158000D30D000887140008711400084D6F6443E0
:101590006F6E666967000000014601200A4622B1AD
:1015A0004FF4FA73538300231376704701460120EA
:1015B0000A460023937193807047014601200A4632
:1015C000012393717047014601200A46002393715D
:1015D000704770B504460126254615B128460EF021
:1015E0007FFF304670BD01468A7902B9704700BF5F
:1015F000FCE72DE9F04105462C46A068478BE068E2
:10160000C689608B002802DD608B401E6083207ECF
:10161000072805D2DFE800F005152D354A524100B4
:1016200000BFA068C07A012802D10620207607E01A
:10163000002003F00EF90020A16848716420608347
:1016400048E0A068007838B9A068407820B9B6F5BD
:10165000167F01DA4FF4167606F16400874201DD49
:1016600002202076A6F16400B84201DD0420207635
:1016700030E0608B10B9032020762BE0012020762B
:1016800028E0012003F0E5F80120A16848714FF43B
:1016900016706083012020761CE0012003F0D9F849
:1016A0000120A16848710020207613E0608B10B9FA
:1016B000052020760EE0012020760BE0002003F0CC
:1016C000C8F80020A16848714FF4167060830120AB
:1016D000207600BF00BFBDE8F08170B50446254606
:1016E000A87900B970BD2046FFF783FF00BFF9E776
:1016F0002DE9F04704460D4617461E46DDF82090BA
:10170000A046062D35D1002F32D1002E18D0012051
:1017100088F8180039A00EF0DDFF3BA00EF0DAFFCC
:101720003CA00EF0D7FF3C493CA00EF0D3FF5B225B
:101730003CA143A00EF0CEFF44A00EF0CBFF17E07B
:10174000002088F818002DA00EF0C4FF40A00EF075
:10175000C1FF30A00EF0BEFF2F4930A00EF0BAFF3F
:101760005F2230A136A00EF0B5FF38A00EF0B2FF18
:1017700000E000BF00BFBDE8F08770B5064600245A
:10178000002540200EF07DFE04461C200EF079FE60
:10179000054604B104E06F2222A130A00FF0CEF87C
:1017A00005B104E070221FA132A00FF0C7F8306924
:1017B00028603068A8607068E860B0682861F068E8
:1017C0006861E5632F4820612F4860612F48A06160
:1017D0002F48E0612F4820622F4860620020A062FD
:1017E000E0622E4820632E4860630020A0632DA194
:1017F00020460FF0E3F8204670BD000053747220BD
:101800006973203C20000000434F4F4C45525F4F0E
:101810004E000000203E2000FB150108252D31352B
:10182000732829004170705C7372635C4D6F64753E
:101830006C65436F6F6C65724374726C2E6300004D
:1018400020252D3130733A252D3564000A00000023
:10185000434F4F4C45525F4F46460000704D6F64FA
:10186000436F6F6C65724374726C20213D204E553E
:101870004C4C0000704461746120213D204E554C59
:101880004C00000099150008AD150008BB150008B4
:10189000C7150008D3150008F1160008DB1600086C
:1018A000E71500084D6F64436F6F6C657243747287
:1018B0006C000000014601200A4612B10023937615
:1018C000D3767047014601200A4600239371704782
:1018D00010B5014601200A4601239371002393802D
:1018E0009468E37110BD014601200A4600239371FC
:1018F000704770B504460126254615B128460EF0FE
:10190000EFFD304670BD0146704770B505462C4668
:10191000E07E30B101280BD0022830D0032837D028
:1019200000BF002002F086FF0020A168087137E0A8
:10193000E0680078022802D003281BD10BE0A068E1
:10194000008BE1688989884202DD0320E07601E0AE
:101950000220E07611E0A068008BE168C988884227
:1019600005DAA068007C10B90320E07601E00220CF
:10197000E07602E00220E07600BF00BF10E0012028
:10198000E076002002F056FF0020A168087107E011
:101990000120E07602F04EFF0120A168087100BF2F
:1019A00000BF70BD70B505462C46A07E30B1012841
:1019B00012D0022837D0032845D000BF2069007E0E
:1019C00018B9002002F027FF02E0002002F032FFE9
:1019D0000020A168C87046E0E0680078022802D0C4
:1019E00003281BD10BE0A068C08AE16849898842BE
:1019F00002DD0320A07601E00220A07611E0A068BD
:101A0000C08AE1688988884205DAA068C07B10B97D
:101A10000320A07601E00220A07602E00220A0765A
:101A200000BF00BF1FE00120A0762069007E18B92A
:101A3000002002F0F0FE02E0002002F0FBFE002099
:101A4000A168C8700FE00120A0762069007E18B957
:101A5000012002F0E0FE02E0012002F0EBFE012096
:101A6000A168C87000BF00BF70BD70B504462546B0
:101A7000288B401C2883288B00EBD0714910A0EBE9
:101A8000410119B1002002F022FF02E0012002F022
:101A90001EFF2046FFF786FF2869007E10B920460A
:101AA000FFF733FF70BD70B505462C46A07900B92D
:101AB00070BDA088401CA080267906EBD671491025
:101AC000A6EB4101C8B202F099FEA0880A2190FB62
:101AD000F1F201FB120000B1EAE700BFE8E72DE9EF
:101AE000F04706460F4690461D46DDF820903446E6
:101AF000042F71D1B8F1010F03D0B8F1020F34D027
:101B000067E0002D18D00120A07657A00EF0E2FD6E
:101B100058A00EF0DFFD5BA00EF0DCFD5A495BA083
:101B20000EF0D8FD4FF4C5725AA161A00EF0D2FD9F
:101B300062A00EF0CFFD17E00020A0764AA00EF0C4
:101B4000C9FD5FA00EF0C6FD4EA00EF0C3FD4E49CC
:101B50004EA00EF0BFFD4FF4C7724EA154A00EF080
:101B6000B9FD56A00EF0B6FD33E0002D18D00120CF
:101B7000E0763DA00EF0AEFD55A00EF0ABFD41A00D
:101B80000EF0A8FD404941A00EF0A4FD40F29512D0
:101B900040A147A00EF09EFD48A00EF09BFD17E06F
:101BA0000020E07630A00EF095FD4DA00EF092FDE5
:101BB00034A00EF08FFD344934A00EF08BFD40F2BE
:101BC000991234A13AA00EF085FD3CA00EF082FDE2
:101BD00000BF00BF01E0FFE700BF00BFBDE8F08726
:101BE00070B506460024002540200EF04AFC04464D
:101BF0001C200EF046FC054604B105E040F2AB1295
:101C000024A13BA00EF09AFE05B105E04FF4D67278
:101C100020A13DA00EF092FE30692860E563306897
:101C2000A8607068E860B0682861F06868613A4848
:101C300020613A4860613A48A0613A48E0613A4818
:101C400020623A4860620020A0623948E062394868
:101C50002063394860630020A06338A120460EF05D
:101C6000ADFE204670BD0000537472206973203CA5
:101C70002000000042554D50315F574F524B5F4F8F
:101C80004E000000203E20000F160108252D3135A2
:101C9000732829004170705C7372635C4D6F6475CA
:101CA0006C654770696F50726F632E6300000000AF
:101CB00020252D3130733A252D3564000A000000AF
:101CC00042554D50315F574F524B5F4F46460000D3
:101CD00042554D50325F574F524B5F4F4E00000000
:101CE00042554D50325F574F524B5F4F46460000B2
:101CF000704D6F644770696F50726F6320213D2093
:101D00004E554C4C00000000704461746120213D30
:101D1000204E554C4C000000B5180008C5180008AE
:101D2000D1180008E7180008F3180008DF1A0008A7
:101D3000071900086B1A0008A71A00084D6F6447BE
:101D400070696F50726F630030B501460120002248
:101D50000B465BB100241C7700BF05E0002503F1B2
:101D60001D04A554541CA2B2022AF7DB30BD014663
:101D700001200A46002313729380D38070470146E6
:101D800001200A46012313727047014601200A46CA
:101D900000231372704770B504460126254615B11D
:101DA00028460EF09DFB304670BD10B50246104629
:101DB00000F11D035B5C23B1012B08D0022B29D05D
:101DC00000BF0023C4686374C468A3744BE081B986
:101DD000C368DC8A9B8B643B9C421ADDC368DC8A47
:101DE0009B8B64339C4214DA022400F11D035C5483
:101DF0000FE0C3681C8BDB8B643B9C4209DDC3682E
:101E00001C8BDB8B64339C4203DA022400F11D033C
:101E10005C5428E099B9C368DC8A9B8B643B9C4284
:101E200005DBC368DC8A9B8B64339C4203DD0123A2
:101E3000C468637416E00023C468637412E0C36866
:101E40001C8BDB8B643B9C4205DBC3681C8BDB8BF0
:101E500064339C4203DD0123C468A37402E00023C1
:101E6000C468A37400BF00BF10BD70B505462E4600
:101E7000307A00B970BD002405E021462846FFF7FE
:101E800094FF601C84B2022CF7DB00BFF2E770B550
:101E900006460D463446012D0DD1284602F0E8FCD9
:101EA000E088052803DB0020E080E0688571E08899
:101EB000401CE08007E035B90020E080E0688571D3
:101EC000284602F0D5FC70BD2DE9F0472DED088BBA
:101ED00005462C46E068B0F81A902069B0F808A0D2
:101EE000207F072805D2DFE800F005151A23717856
:101EF0007F0000BFB9F1320F05DDB9F1C80F02DA7A
:101F00000620207705E000212846FFF7C0FF0020CB
:101F1000208470E00020A080022020776BE0A08861
:101F2000052801DB03202077A088401CA08062E008
:101F30005046A0EB090006B2B4F9201088190FF042
:101F40004AF941EC190B9FED730B53EC102B0FF07A
:101F500059F941EC180B0FF00FF907B217F1030F05
:101F600005DD032F03DA208C304400B2208438468C
:101F70000FF031F941EC190B30460FF02CF941EC20
:101F80001B0B9FED660B53EC102B0FF03BF941EC54
:101F90001A0B53EC192B0FF047F841EC180B0FF00C
:101FA000EBF80FFA80F8B8F1030F01DD4FF00308EA
:101FB00018F1030F01DA6FF00208B8F1000F02DD2B
:101FC0000420207701E00520207714E00121284635
:101FD000FFF75DFF032020770DE000212846FFF783
:101FE00056FF0320207706E001212846FFF74FFF28
:101FF0000020207700BF00BFBDEC088BBDE8F08754
:1020000070B505462C46207A00B970BD608C401C26
:102010006084608C042804DD002060842846FFF77B
:1020200053FF00BFF1E7F0B504460D46059E21467B
:102030000020042D21D0072D28D1EAB973B1012742
:102040000F7700BF07E04FF0010C01F11D0707F803
:1020500000C0471CB8B20228F5DB0DE000270F775F
:10206000002007E04FF0000C01F11D0707F800C049
:10207000471CB8B20228F5DB09E0012A02D0022A87
:1020800001D001E000E000BF00BF00E000BF00BFE2
:10209000F0BD70B506460024002540200EF0F1F991
:1020A000044624200EF0EDF9054604B104E0A42214
:1020B0001CA123A00EF042FC05B104E0A52219A149
:1020C00025A00EF03BFC306928603068E86070683D
:1020D0002861B0686861F068A861E5632248206102
:1020E000224860612248A0612248E06122482062C3
:1020F000224860620020A062E062214820632148FB
:1021000060630020A06320A120460EF057FC20460B
:1021100070BD00007B14AE47E17A943F3333333314
:102120003333C33F4170705C7372635C4D6F647591
:102130006C654865617465724374726C2E6300004F
:10214000704D6F644865617465724374726C2021D0
:102150003D204E554C4C0000704461746120213D7F
:10216000204E554C4C000000491D00086F1D000812
:102170007F1D00088B1D0008971D00082720000800
:10218000012000086B1E00084D6F6448656174658E
:10219000724374726C00000010B5024601201146B3
:1021A000002934D0002351F80C4FE3700C682371E0
:1021B0000B74FF234B7400230C6823700C6863704E
:1021C0000C6823720C6863720C68A3720C68E3726B
:1021D0000C6823730C68A3730C68E3730C68237496
:1021E0000B754B758B75FF238B74CB7400230C68B8
:1021F000E3740C682375CB754FF6FF730C68A383EB
:102200000C68E38340F2E47351F80C49638310BD1A
:10221000014601200A4600239371938070470146CE
:1022200001200A46012393717047014601200A46A6
:1022300000239371704770B504460126254615B1F9
:1022400028460EF04DF9304670BDF8B505462C46CF
:10225000E07F30B101281AD002282AD003283ED0CE
:1022600046E00020216988700120E077002000907E
:1022700021680023022241C90421B04700200090B8
:10228000216800230C2241C90521B04730E094F8B1
:10229000220001280CD120690078022803D020698F
:1022A0000078032804D10220E077002084F822007F
:1022B0001EE00120216988700320E0770020009053
:1022C00021680123022241C90421B0470020009067
:1022D000216800230C2241C90521B04708E094F889
:1022E0002200012803D10020E07784F8220000BFFB
:1022F00000BFF8BDF8B505462C46A07F30B10128D7
:1023000030D0022840D003286AD072E0E9A00EF055
:10231000E1F9EBA00EF0DEF9EFA00EF0DBF9EF49EA
:10232000EFA00EF0D7F940F28912EFA1F5A00EF060
:10233000D1F9F7A00EF0CEF90020216948700120F4
:10234000A0770020009021680023012241C90421C8
:10235000B04700200090216800230C2241C90521CC
:10236000B04746E094F8210001280CD1206900789C
:10237000022803D020690078032804D10220A07726
:10238000002084F8210034E0CAA00EF0A3F9E1A0F7
:102390000EF0A0F9D0A00EF09DF9D049D0A00EF01B
:1023A00099F940F29712D0A1D6A00EF093F9D8A0D7
:1023B0000EF090F90120216948700320A0770020D9
:1023C0000090216801231A4641C90421B04700202A
:1023D0000090216800230C2241C90521B04708E084
:1023E00094F82100012803D10020A07784F821006F
:1023F00000BF00BFF8BDF8B505462C46607F062833
:1024000004D2DFE800F0043B488295CFD3E0A9A0D6
:102410000EF060F9C5A00EF05DF9AFA00EF05AF90C
:10242000C949AFA00EF056F940F24312AEA1B5A0D3
:102430000EF050F9B6A00EF04DF901202169087098
:1024400060770020A077E0770090216800231A468B
:1024500041C90621B04700200090216800231A4698
:1024600041C90721B04700200090216800230C22B9
:1024700041C90521B0470020A0809CE094F82000CD
:10248000012807D1E068C07A20B9022060770020D7
:1024900084F820008FE087A00EF01CF9ABA00EF0AE
:1024A00019F98DA00EF016F9A7498DA00EF012F9BA
:1024B0004FF4AB728CA193A00EF00CF994A00EF027
:1024C00009F902202169087020694089E168888340
:1024D00020698089E168C8832069C089E16808842F
:1024E0000020009021680123002241C90621B04745
:1024F00000200090216800230C2241C90521B0472B
:10250000032060770020A08055E094F82000012887
:102510000DD104206077002084F82000A077E077B8
:102520000090216800231A4641C90621B04742E0C5
:1025300060A00EF0CFF88DA00EF0CCF866A00EF0E3
:10254000C9F8814966A00EF0C5F84FF4B67266A1CD
:102550006CA00EF0BFF86EA00EF0BCF8032021694D
:10256000087020698088E16888832069C088E168F4
:10257000C88320690089E1680884002000902168F0
:102580000123002241C90721B047052060770020C0
:102590000090216800230C2241C90521B04700208A
:1025A000A08008E094F82000012803D10020607783
:1025B00084F8200000BF00BFF8BD70B50446254672
:1025C000A87900B970BD287F032800D0FAE720461B
:1025D000FFF711FF2046FFF78DFE2046FFF735FE7F
:1025E00000BFEFE770B505462C4602F05AF958B91E
:1025F00002F062F9012803D10220E168887006E048
:102600000120E168887002E00020E168887070BDF8
:1026100070B505462C462846FFF7E4FFA0880A2837
:1026200000DA70BD20690078012808D0E068C08A0F
:10263000B0F52F6F03DC0120E168087202E0002092
:10264000E16808726069007E60B92069007801283D
:1026500008D0E068008BB0F52F6F03DC0120E16843
:10266000487202E00020E168487220690078012881
:1026700006D194F82300012802D1E168487302E0F2
:102680000020E16848736069007E80B902F02CF98F
:1026900018B10120E168087002E00020E1680870CC
:1026A00002F02DF920B10120E16848707FE071E06F
:1026B0006CE00000537472206973203C200000001D
:1026C000B1C3B9A4D7F7B9DCC0EDC6F72042554D68
:1026D000505F53544F500000203E20004A1601081E
:1026E000252D3135732829004170705C7372635C4D
:1026F0004D6F64756C6553797374656D50726F635B
:102700002E63000020252D3130733A252D356400CD
:102710000A000000B1C3B9A4D7F7B9DCC0EDC6F711
:102720002042554D505F535441525400B9A4D7B084
:10273000C4A3CABDB9DCC0EDC6F753595354454DC7
:102740005F53544F5000000035160108B9A4D7B0AC
:10275000C4A3CABDB9DCC0EDC6F7205359535445D4
:102760004D5F434F4F4C455200000000B9A4D7B015
:10277000C4A3CABDB9DCC0EDC6F7205359535445B4
:102780004D5F484541544552000000000020E1687B
:1027900048700CE002F0B3F818B10120E16808704D
:1027A00002E00020E16808700020E1684870E068FD
:1027B000807930B102F06BF818B10120E1688872BD
:1027C00002E00020E1688872E068408B41F2CC01B1
:1027D000884203DD0120E168C87202E00020E16860
:1027E000C872E068408BC82803DA0120E1680873EA
:1027F00002E00020E16808732069007803280DD109
:1028000020690089E168C98A884203DA0120E16809
:10281000C87306E00020E168C87302E00020E168A8
:10282000C8736069007E88B92069007803280DD1DB
:1028300020690089E168098B884203DA0120E16898
:10284000087406E00020E168087402E00020E168F6
:102850000874E068807818B90120E168887302E0A4
:102860000020E1688873E068C07801280CD1E06836
:10287000007848B92089012802DB0120E168C8748A
:102880002089401C208103E00020E168C874208179
:10289000E068007901280CD1E068407848B9608987
:1028A000012802DB0120E16808756089401C608115
:1028B00003E00020E16808756081E068807B012802
:1028C00020D1607F01281DD000206077AFF21C204E
:1028D0000DF000FFF3A00DF0FDFEAFF204200DF0AF
:1028E000F9FEF849AFF208200DF0F4FE40F26F2235
:1028F000AFF20C21AFF2F4100DF0ECFEAFF2F010DD
:102900000DF0E8FEE068007B012820D1607F0128FF
:102910001DD000206077AFF264200DF0DBFEEAA04E
:102920000DF0D8FEAFF250200DF0D4FEE549AFF225
:1029300050200DF0CFFE4FF41D72AFF25421AFF2D4
:102940003C200DF0C7FEAFF238200DF0C3FEE0686A
:10295000C07A012820D1607F01281DD00020607737
:10296000AFF2B0200DF0B6FEE0A00DF0B3FEAFF276
:1029700098200DF0AFFED349AFF29C200DF0AAFED7
:1029800040F27922AFF2A021AFF288200DF0A2FE32
:10299000AFF284200DF09EFE00BF42E6F8B505467A
:1029A0002C46207F30B1012807D0022810D0032800
:1029B0000FD000BF012020770FE000200090216899
:1029C00000230A2241C90521B0470220207704E0F4
:1029D00003E02846FFF71CFE00BF00BFF8BD70B53E
:1029E00005462C46A07900B970BDA0880A2802DAF5
:1029F000A088401CA0802846FFF7D0FF207F032836
:102A000000D0F1E700BFEFE730B502460020D46800
:102A1000E379D468E1712BB1994203D10024D568E0
:102A2000EC71012030BDF8B50446206907782069B3
:102A30000078012800D0F8BD06212046FFF7E4FF0A
:102A400005466DB1E06890F82500A1694870002046
:102A50000090216800230D2241C90521B04704E000
:102A6000A0694078E16881F8250000BFE3E7F8B588
:102A700004462069077820690078012800D0F8BD55
:102A800005212046FFF7C0FF05466DB1E06890F8CC
:102A90002400A169087000200090216800230D2205
:102AA00041C90521B04704E0A0690078E16881F8D8
:102AB000240000BFE3E7F8B5044620690778042145
:102AC0002046FFF7A1FF054665B1E068408C21690B
:102AD000088200200090216800230C2241C90521B2
:102AE000B04703E02069008AE1684884F8BDF8B582
:102AF00004462069067820690078012800D1F8BDD5
:102B000002212046FFF780FF0546002D35D0022E1A
:102B100002D0032E0AD104E0E068C08B21698881CD
:102B200005E0E068C08B2169C88000E000BF00BFFD
:102B3000AFF280400DF0CEFD75A00DF0CBFDAFF2F1
:102B400068400DF0C7FD7349AFF26C400DF0C2FD57
:102B50004FF45D72AFF27041AFF258400DF0BAFD24
:102B6000AFF254400DF0B6FD002000902168002324
:102B70000C2281C90521B84710E0022E02D0032E95
:102B80000AD104E020698089E168C88305E02069F2
:102B9000C088E168C88300E000BF00BF00BFAEE7A7
:102BA000F8B504462069067820690078012800D12C
:102BB000F8BD01212046FFF727FF0546CDB1022EC3
:102BC00002D0032E0AD104E0E068808B216948819D
:102BD00005E0E068808B2169888000E000BF00BFCD
:102BE00000200090216800230C2281C90521B847EC
:102BF00010E0022E02D0032E0AD104E020694089A1
:102C0000E168888305E020698088E168888300E0C6
:102C100000BF00BF00BFCBE7F8B5044620690678C7
:102C200020690078012800D1F8BD03212046FFF774
:102C3000EBFE0546002D74D0022E02D0032E0AD1E1
:102C400004E0E068008C2169C88105E0E068008C40
:102C50002169088100E000BF00BFAFF2A8500DF06D
:102C600039FD2DA00DF036FDAFF294500DF032FD80
:102C70002A49AFF294500DF02DFD40F29A32AFF296
:102C80009851AFF280500DF025FDAFF27C500DF061
:102C900021FD00200090216800230C2281C905211C
:102CA000B8474FE0CBAECEBBB5CDA3ACB9A4D7F7F8
:102CB000C4A3CABDBFD8D6C6C6F7BBD6B8B4CDA3C9
:102CC000D6B900005E160108CBAECEC2B8DFD3DAAB
:102CD00032B6C8A3ACB9A4D7F7C4A3CABDBFD8D66F
:102CE000C6C6F7BBD6B8B4CDA3D6B900CBAECEC25C
:102CF000B8DFD3DA343320B9A4D7F7C4A3CABDBF31
:102D0000D8D6C6C6F7BBD6B8B4CDA3D6B900000096
:102D1000380000006C160108390000007B1601081D
:102D2000FFE7022E02D0032E0AD104E02069C089F9
:102D3000E168088405E020690089E168088400E012
:102D400000BF00BF00BF6FE72DE9FC4FD0F810A017
:102D50009AF800C00027BA46CDF804A0B946CDF8CD
:102D600000A04FF00308D0F80CA00AF11C01D0F825
:102D70000CA00AF11E02D0F80CA00AF12003D0F832
:102D80000CA00AF12204D0F80CA00AF12405D0F816
:102D90000CA00AF12506BCF1020F03D0BCF1030F11
:102DA0000DD019E04FF47A6740F6B83ACDF804A098
:102DB0004FF4FA694FF4C87ACDF800A00CE040F661
:102DC000746740F6B83ACDF804A04FF47A6940F63B
:102DD000AC5ACDF800A000BF00BFD0F80CA09AF804
:102DE00007A0BAF1070F70D2DFE80AF09E042A505C
:102DF00077829000B1F800B0A7F1320AD3451EDC0B
:102E0000B1F800A04FF0320B9AFBFBFE0BFB1EAAA1
:102E1000BAF1000F0DD0B1F800A09AFBFBFE0BFB3E
:102E20001EAACAF1320AB1F800B0DA44A1F800A033
:102E300005E0B1F800A00AF1320AA1F800A074E0A0
:102E4000B2F800B0A7F1320AD3451EDCB2F800A0F8
:102E50004FF0320B9AFBFBFE0BFB1EAABAF1000FE0
:102E60000DD0B2F800A09AFBFBFE0BFB1EAACAF124
:102E7000320AB2F800B0DA44A2F800A005E0B2F8D5
:102E800000A00AF1320AA2F800A04EE0B3F800B0A8
:102E9000A9F1640AD3451FDCB3F800A04FF0640B1E
:102EA0009AFBFBFE0BFB1EAABAF1000F0ED0B3F883
:102EB00000A09AFBFBFE0BFB1EAACAF1640AB3F842
:102EC00000B0DA44A3F800A006E02DE0B3F800A0BB
:102ED0000AF1640AA3F800A027E0B4F800A0C245F4
:102EE00005DAB4F800A00AF1010AA4F800A01CE079
:102EF00095F900A0BAF10A0F07DA95F800A00AF1D7
:102F0000010A4FFA8AFA85F800A00EE096F900A0AF
:102F1000BAF10A0F07DA96F800A00AF1010A4FFA8F
:102F20008AFA86F800A000E000BF00BFBDE8FC8F71
:102F30002DE9F84FD0F810B09BF800C04FF0000A10
:102F40000027BB46CDF800B0B8464FF00109D0F8D5
:102F50000CB00BF11C01D0F80CB00BF11E02D0F834
:102F60000CB00BF12003D0F80CB00BF12204D0F818
:102F70000CB00BF12405D0F80CB00BF12506BCF118
:102F8000020F03D0BCF1030F0BD015E04FF47A6AA7
:102F900040F6B8374FF4FA6BCDF800B04FF4C8786C
:102FA0000AE040F6746A40F6B8374FF47A6BCDF811
:102FB00000B040F6AC5800BF00BFD0F80CB09BF892
:102FC00007B0BBF1070F53D2DFE80BF05204111E1C
:102FD0002B364400B1F800B007F1320EF34505DBA3
:102FE000B1F800B0ABF1320BA1F800B041E0B2F89B
:102FF00000B007F1320EF34505DBB2F800B0ABF1DB
:10300000320BA2F800B034E0B3F800B008F1640E5F
:10301000F34505DBB3F800B0ABF1640BA3F800B0E7
:1030200027E0B4F800B0CB4505DDB4F800B0ABF153
:10303000010BA4F800B01CE095F900B01BF10A0FD9
:1030400007DD95F800B0ABF1010B4FFA8BFB85F86B
:1030500000B00EE096F900B01BF10A0F07DD96F8FC
:1030600000B0ABF1010B4FFA8BFB86F800B000E02B
:1030700000BF00BFBDE8F88F2DE9F047074688463E
:1030800016461D46DDF820903C46B8F1030F7DD072
:10309000B8F1050F7BD10A2E7AD1012DFCD1206920
:1030A0000078012804D0022820D003283CD000BF9B
:1030B000AFF600200DF00EFBC1A00DF00BFBAFF63C
:1030C000E8100DF007FBC449AFF6EC100DF002FB61
:1030D0009122AFF6EC11AFF6D4100DF0FBFAAFF67B
:1030E000D0100DF0F7FA002060773BE0AFF63C20FF
:1030F0000DF0F0FAB9A00DF0EDFAAFF624200DF0C6
:10310000E9FAB549AFF628200DF0E4FA9522AFF6BA
:103110002821AFF610200DF0DDFAAFF60C200DF0EF
:10312000D9FA022060771DE0AFF678200DF0D2FAD0
:10313000AFA00DF0CFFAAFF660200DF0CBFAA649A4
:10314000AFF664200DF0C6FA9922AFF66421AFF60F
:103150004C200DF0BFFAAFF648200DF0BBFA04206A
:10316000607700BF00BF20690078012804D10020EB
:10317000216948702169887020694078002820D131
:10318000A077AFF6D0200DF0A5FA02E07FE07DE059
:1031900072E09CA00DF09EFAAFF6C4200DF09AFAF2
:1031A0008D49AFF6C4200DF095FAA722AFF6C821DD
:1031B000AFF6B0200DF08EFAAFF6AC200DF08AFA23
:1031C0001CE00220A077AFF614300DF083FA91A036
:1031D0000DF080FAAFF600300DF07CFA7E49AFF6C4
:1031E00000300DF077FAAB22AFF60431AFF6EC20E9
:1031F0000DF070FAAFF6E8200DF06CFA20698078D7
:1032000000281CD1E077AFF654300DF063FA85A0AA
:103210000DF060FAAFF640300DF05CFA6E49AFF693
:1032200040300DF057FAB122AFF64431AFF62C30F2
:103230000DF050FAAFF628300DF04CFA1CE00220E9
:10324000E077AFF690300DF045FA7AA00DF042FA33
:10325000AFF67C300DF03EFA5F49AFF67C300DF0F2
:1032600039FAB522AFF68031AFF668300DF032FA98
:10327000AFF664300DF02EFA0E2E04D1012D02D1DE
:10328000012084F823000320207751E050E0207FC4
:10329000032800D106B94BE0042D0BD1607F012833
:1032A00005D0607F032802D0607F052802D101206D
:1032B00084F82000062D02D1012084F8210015B9E0
:1032C0002046FFF735FE012D02D12046FFF73CFDD9
:1032D000052D02D12046FFF79FFC072D02D1204685
:1032E000FFF75EFC032D02D12046FFF700FC022D04
:1032F00002D1012084F82200082D02D12046FFF7D8
:10330000DAFB092D02D12046FFF7B1FB0A2D02D1CD
:103310002046FFF788FB1F2D09D1607F012806D1C9
:1033200001F079FA012001F085FAFF20207700BF33
:1033300000BFBDE8F08770B5064600240025402098
:103340000DF09FF8044624200DF09BF8054604B1CB
:1033500006E04FF48372AFF670413AA00DF0EEFA3A
:1033600005B106E040F20712AFF684413BA00DF034
:10337000E5FA306928603068E86070682861B068F4
:103380006861F068A861E563384820613848606189
:103390003848A0613848E0613848206238486062A7
:1033A0000020A062E062AFF6ED5020633548606314
:1033B0000020A06334A120460DF000FB204670BD24
:1033C0002D2D2D2D576F726B2D2D2D2D53746F704C
:1033D0002D2D2D2D2D2D000021160108576F726BFC
:1033E000204F6E20436F6F6C657221212100000019
:1033F000576F726B204F6E20486561746572212192
:10340000210000006D5F42756D703153746120CDF5
:10341000A3D6B9006D5F42756D703153746120BFE2
:10342000AACABC006D5F42756D703253746120CDC5
:10343000A3D6B9006D5F42756D703253746120BFC1
:10344000AACABC00704D6F6453797374656D507275
:103450006F6320213D204E554C4C00007044617438
:103460006120213D204E554C4C0000009921000860
:10347000112200081F2200082B2200083722000812
:1034800079300008DF2900084D6F64537973746543
:103490006D50726F6300000010B542880388D21A25
:1034A0004B885A430C881B1B448804FB132201EEF3
:1034B000902AF8EEE11AF0EE610A42880388D21AE7
:1034C00001EE902AF8EEE11AB0EE611AC0EE811A10
:1034D000B0EE610A10BD4A880B88D21A01EE902A1C
:1034E000F8EEE11AF0EE610A42880388D21A01EE82
:1034F000902AF8EEE11AB0EE611AC0EE811AB0EE31
:10350000610A704710B50446E26A111D1046FFF7C4
:10351000E2FF606A80ED0A0AE26A111D1046FFF7B9
:10352000BBFF606A80ED0B0AE26A02F10C01081F22
:10353000FFF7D1FF606A80ED0C0AE26A02F10C012C
:10354000081FFFF7A9FF606A80ED0D0AE26A02F129
:103550001401081FFFF7BFFF606A80ED0E0AE26AE0
:1035600002F11401081FFFF797FF606A80ED0F0A50
:1035700010BDC16A097E01291DD1416A91ED0B0A76
:10358000D0ED060AF8EE600A91ED0A1A00EE810A03
:10359000016B91F9001001EB8101490000EE901AD6
:1035A000F8EEE00A30EE200ABCEEC00A10EE101A67
:1035B000426AD1821CE0416A91ED0D0AD0ED070A02
:1035C000F8EE600A91ED0C1A00EE810A016B91F998
:1035D000001001EB8101490000EE901AF8EEE00ABC
:1035E00030EE200ABCEEC00A10EE101A426AD182F8
:1035F0007047C16A097E01291DD0416A91ED0B0A0D
:10360000D0ED060AF8EE600A91ED0A1A00EE810A82
:10361000016B91F9011001EB8101490000EE901A54
:10362000F8EEE00A30EE200ABCEEC00A10EE101AE6
:10363000426A118303E040F64851426A11837047A1
:10364000416A91ED0F0AD0ED080AF8EE600A91ED9B
:103650000E1A00EE810ABCEEC00A10EE101A426A81
:1036600051837047014601200A46704701460120F8
:103670000A460023937193807047014601200A4651
:1036800001239371002393829360D3601361704789
:10369000014601200A4600239371704770B5044625
:1036A0000126254615B128460CF01AFF304670BD9C
:1036B00070B505462C46A08AB0F57A7F15DAA08A47
:1036C000401CA082012000F0CFFFA1680844A06048
:1036D000022000F0C9FFE1680844E060032000F028
:1036E000C3FF2169084420611BE04FF47A71A06890
:1036F000B0FBF1F0A061E068B0FBF1F0E06120699F
:10370000B0FBF1F020620020A082A060E0602061A8
:103710002046FFF72EFF2046FFF76BFF2046FFF7FE
:103720008FFF70BD2DE9F04304460D4617461E4637
:10373000DDF81C90A046052D07D10A2F04D1012EDB
:1037400002D14046FFF7DEFE00E000BF00BFBDE84B
:10375000F08370B506460024002544200CF091FE4D
:10376000044638200CF08DFE054604B104E0EF223B
:1037700017A11EA00DF0E2F805B104E0F02214A19B
:1037800020A00DF0DBF8306928603068686270684E
:10379000A862B068E862F0682863E5631D482061AC
:1037A0001D4860611D48A0611D48E0611D48206200
:1037B0001D4860621D48A0620020E06220636063D3
:1037C000A06320641AA120460DF0F8F8204670BDD1
:1037D0004170705C7372635C4D6F64756C655465A9
:1037E0006D7050726F632E6300000000704D6F6447
:1037F00054656D7050726F6320213D204E554C4CC6
:1038000000000000704461746120213D204E554C41
:103810004C000000653600086D3600087B36000855
:10382000913600089D36000825370008B13600089B
:103830004D6F6454656D7050726F630001460120D6
:103840000A467047014601200A460023937193807F
:10385000704710B5014601200A4601239371146C8C
:1038600084F837300023138553859385536210BD48
:10387000014601200A4600239371704770B5044643
:103880000126254615B128460CF02AFE304670BDAB
:1038900070B505462C46A088401CA080606A08B917
:1038A00001206062A08A142815DAA08A401CA08238
:1038B000012000F0D9FEA1680844A060022000F0B9
:1038C000D3FEE1680844E060032000F0CDFE2169EA
:1038D0000844206111E01421A068B0FBF1F0A06160
:1038E000E068B0FBF1F0E0612069B0FBF1F020622C
:1038F0000020A082A060E060206170BD3EB505465A
:10390000FEA207CA8DE807002C46208D022826D18A
:10391000206C90F82A008DF80100206C90F82C00A3
:103920008DF8020000208DF803008DF804009DF84A
:1039300001009DF8021008449DF8031008449DF80A
:10394000041008449DF805100844C0B28DF8080022
:10395000FF208DF809000A21684602F07FFD208DC6
:10396000012848D1206C90F82A008DF80100206CC5
:1039700090F82C008DF8020000208DF803008DF8DF
:103980000400206C408D012806D1208B000A8DF8A0
:103990000600207E8DF80700206C408D022806D19D
:1039A000A08B000A8DF80600207F8DF80700206CA0
:1039B000408D032807D1208C000A8DF8060094F86A
:1039C00020008DF807009DF801009DF802100844C2
:1039D0009DF8031008449DF8041008449DF8051054
:1039E0000844C0B28DF80800FF208DF809000A21B4
:1039F000684602F033FD3EBD014670470146084669
:103A0000428D012A38D1026C528D012A17D1026CE5
:103A1000928D012A07D1026C138E92F82E2003EBAF
:103A20000222836B1A80026C928D022A07D1026CEB
:103A3000138E92F82E2003EB0222836B5A80026CC5
:103A4000528D022A18D1026C928D012A07D1026C84
:103A5000138E92F82E2003EB0222836B9A80026C65
:103A6000928D022A08D1026C138E92F82E2003EB5D
:103A7000022293B2826BD380428D022A39D1026C2A
:103A8000528D012A18D1026C928D012A07D1026C45
:103A9000138E92F82E2003EB0222836B1A81026CA4
:103AA000928D022A08D1026C138E92F82E2003EB1D
:103AB000022293B2826B5381026C528D022A18D17A
:103AC000026C928D012A07D1026C138E92F82E207F
:103AD00003EB0222836B9A81026C928D022A08D139
:103AE000026C138E92F82E2003EB022293B2826BAB
:103AF000D381428D032A39D1026C528D012A18D10B
:103B0000026C928D012A07D1026C138E92F82E203E
:103B100003EB0222836B1A82026C928D022A08D177
:103B2000026C138E92F82E2003EB022293B2826B6A
:103B30005382026C528D022A18D1026C928D012A96
:103B400007D1026C138E92F82E2003EB0222836BB6
:103B50009A82026C928D022A08D1026C138E92F81E
:103B60002E2003EB022293B2826BD38270472DE9A1
:103B7000F84306460D4690463446688808285DD2CC
:103B8000DFE800F05C0405080D1A3B5257E0E888B6
:103B9000208554E0A8886085E888A0854FE0A08D46
:103BA000012802D13046FFF729FFA08D022802D15B
:103BB0003046FFF721FF42E053A00CF08BFD55A0EB
:103BC0000CF088FD57A00CF085FD574957A00CF06C
:103BD00081FD40F2D91257A15CA00CF07BFD5EA0E4
:103BE0000CF078FD206838B1002000902168002397
:103BF0000B2281C90521B84721E043A00CF06AFDE2
:103C000056A00CF067FD47A00CF064FD464947A0A4
:103C10000CF060FD40F2E11246A14CA00CF05AFD00
:103C20004DA00CF057FD0AE0A888012802D1A16B35
:103C3000087602E00020A16B087600E000BF00BF1C
:103C4000BDE8F88370B504462546286C90F8370027
:103C500001280AD10020296C81F83700286C00F176
:103C6000260108222046FFF782FF70BD10B50446EA
:103C70002046FFF7E7FF10BD10B5029C10BD70B5E0
:103C80000646002400250020286440200CF0F9FBA3
:103C9000044644200CF0F5FB05460020286438203B
:103CA0000CF0EFFB28643149286C0860286C00B1E7
:103CB00004E0CB221FA12EA00CF040FE04B104E0D2
:103CC000CC221CA12FA00CF039FE05B104E0CD22BE
:103CD00018A130A00CF032FE3069286030682863EB
:103CE00070686863B068A863F068E863E5632C48AF
:103CF00020612C4860612C48A06157E0EF01010170
:103D00000100172504FF0000537472206973203CE2
:103D100020000000434D445F43414C435F53544FE8
:103D200050000000203E20008E160108252D313560
:103D3000732829004170705C7372635C4D6F647509
:103D40006C6543616C632E630000000020252D31FB
:103D500030733A252D3564000A000000434D445F5E
:103D600043414C435F454E440000000018000020D2
:103D700070446174612D3E6D5F70446174612021F7
:103D80003D203000704D6F6443616C6320213D2005
:103D900030000000704461746120213D203000003B
:103DA0003D38000845380008533800085B48E0619A
:103DB0005B4820625B4860620020A0625A48E06273
:103DC00000202063594860635948A06359A12046E8
:103DD0000CF0F4FD204670BD30B5024600230020F3
:103DE0000024012305E012F813502544ECB25D1CB9
:103DF000EBB28D1E9D42F6DC32F81550A54200D183
:103E0000012030BD70B5064600244C48006800B95A
:103E100070BD4A480068008C10280ADB0020474922
:103E2000096808844549096848844449096881F853
:103E3000240042480068008C4049096821F810605D
:103E40003E480068008C3D49096831F81000EF28B1
:103E50000FD13A48006890F8240050B937480068FC
:103E6000008C36490968488401203449096881F882
:103E7000240032480068008C3049096831F810008D
:103E8000FF2841D12D480068408C2C49096831F841
:103E90001000EF2838D129480068008C27490968AC
:103EA000498C401A401C85B2082D2DD1E9B2234A15
:103EB0001268528C214B1B6803EB4200FFF78CFF0A
:103EC00010B300240EE01D480068408C20441B49BC
:103ED000096831F8101019480068263020F81410CD
:103EE000601CC4B2082CEEDB01201449096881F87B
:103EF000370000201149096808841049096848847E
:103F00000E49096881F824000C480068008C401CA8
:103F10000A490968088400BF7AE700007138000880
:103F20007D380008793C000891380008FD38000809
:103F30006D3C00084D6F6443616C63001800002005
:103F4000014601200A467047014601200A46002327
:103F5000937193807047014601200A4601239371B3
:103F60007047014601200A4600239371704770B5DF
:103F700004460126254615B128460CF0B1FA304614
:103F800070BD2DE9F84305460C4691462E464FF08C
:103F900000086088A12808D100200090A38831681B
:103FA000012281C90321B84700E000BF00BFBDE87E
:103FB000F88370B504462546A86890F837000128B4
:103FC0000AD10020A96881F83700A86800F126010D
:103FD00008222046FFF7D5FF70BDF0B587B0074631
:103FE0003C460026EF208DF80400FF208DF81B00D2
:103FF00001208DF80500022604E0002001A9885563
:10400000701C86B2162EF8DB6069007E012805D18F
:104010009DF8060040F001008DF806009DF80600AE
:10402000E168C97940EA4100C0B28DF80600206914
:104030004078012805D19DF8060040F010008DF869
:104040000600E068C078012805D19DF8060040F020
:1040500020008DF8060020698078012805D19DF8A0
:10406000060040F040008DF80600E0680079012865
:1040700005D19DF8060040F080008DF80600E0684C
:10408000C079012802D1E068858B0CE020690078B6
:10409000022802D12069458905E0206900780328BB
:1040A00001D120698588280A8DF80700E8B28DF8CB
:1040B0000800E068C079032802D1E068058C0CE0B4
:1040C00020690078022802D12069C58905E02069AD
:1040D0000078032801D120690589280A8DF8090094
:1040E000E8B28DF80A00E068C079022802D1E068E1
:1040F000C58B0CE020690078022802D120698589EF
:1041000005E020690078032801D12069C588280AC4
:104110008DF80B00E8B28DF80C00E068C58A280A1B
:104120008DF80D00E8B28DF80E00E068458B280A86
:104130008DF80F00E8B28DF81000E068058B280AB2
:104140008DF81100E8B28DF81200206900788DF822
:104150001300E068807820B1012803D0022808D03D
:1041600000BF0DE09DF8130040F020008DF8130013
:1041700006E09DF8130040F040008DF8130000BFEA
:1041800000BFE0688079012805D19DF8130040F058
:1041900008008DF81300E0684079012805D19DF8EA
:1041A000130040F010008DF81300E068C079042877
:1041B00007D1E06890F8220000F007008DF81400A5
:1041C00005E02069007C00F007008DF81400E0682D
:1041D000007A012805D19DF8150040F001008DF806
:1041E0001500E068807A012805D19DF8150040F09F
:1041F00002008DF81500E068C07A012805D19DF80D
:10420000150040F004008DF81500E068407B01289F
:1042100005D19DF8150040F008008DF81500E06804
:10422000807B012805D19DF8150040F010008DF825
:104230001500E068C07B012805D19DF8150040F00D
:1042400020008DF81500E068407C012805D19DF81C
:10425000150040F040008DF81500E068807C0128D2
:1042600005D19DF8150040F080008DF81500E0683C
:10427000C07C012805D19DF8160040F001008DF8A2
:104280001600E068007D012805D19DF8160040F079
:1042900002008DF81600E068007B012805D19DF82A
:1042A000160040F004008DF81600E068407A0128FE
:1042B00005D19DF8160040F008008DF81600E06862
:1042C000007C012805D19DF8160040F010008DF803
:1042D0001600E06890F824008DF81700E06890F868
:1042E00025008DF8180000208DF81A00012609E03D
:1042F0009DF81A0001A9895D0844C0B28DF81A0022
:10430000701C86B2162EF3DB182101A802F021F8EA
:1043100007B0F0BD70B505462C46A07900B970BD58
:10432000A088401CA080A088022804DD0020A08076
:104330002846FFF752FE00BFF1E710B5029C10BD02
:1043400070B506460024002540200CF09AF804467B
:104350001C200CF096F805460020A86038200CF0D0
:1043600090F8A8606F49A8680860A86800B104E0E8
:1043700077226DA174A00CF0E1FA04B104E0782278
:1043800069A177A00CF0DAFA05B104E0792266A100
:104390007AA00CF0D3FA306928603068E860706861
:1043A0002861B0686861F068A861E56377482061BA
:1043B000774860617748A0617748E061774820627C
:1043C000774860620020A062E062764820630020A7
:1043D00060637548A06375A120460CF0EFFA204693
:1043E00070BD30B50246002300200024012305E003
:1043F00012F813502544ECB25D1CEBB28D1E9D42A9
:10440000F6DC32F81550A54200D1012030BD70B560
:10441000064600244348006800B970BD4148006862
:10442000008C10280ADB00203E49096808843D49B9
:10443000096848843B49096881F8240039480068C4
:10444000008C3849096821F8106036480068008CF3
:104450003449096831F81000EF280FD1314800685D
:1044600090F8240050B92F480068008C2D49096845
:10447000488401202B49096881F8240029480068F4
:10448000008C2849096831F81000FF2841D12548DF
:104490000068408C2349096831F81000EF2838D1B2
:1044A00020480068008C1F490968498C401A401C4C
:1044B00085B2082D2DD1E9B21A4A1268528C194BD7
:1044C0001B6803EB4200FFF78CFF10B300240EE0E3
:1044D00014480068408C20441249096831F81010D3
:1044E00010480068263020F81410601CC4B2082C54
:1044F000EEDB01200B49096881F8370000200949EB
:10450000096808840749096848840649096881F8E8
:10451000240004480068008C401C02490968088493
:1045200000BF7AE71C0000204170705C7372635C0E
:104530004D6F64756C6553637265656E4472697620
:1045400065722E630000000070446174612D3E6D41
:104550005F704461746120213D204E554C4C000039
:10456000704D6F6453637265656E447269766572EF
:1045700020213D204E554C4C0000000070446174D9
:104580006120213D204E554C4C000000413F000869
:10459000493F0008573F0008633F00086F3F00088D
:1045A0003B43000815430008B33F00084D6F6453B8
:1045B000637265656E4472697665720010B500F0CD
:1045C00085F800F0D5FA00F005F800200BF059FE50
:1045D00010BD000000B58DB00121084600F03AFF83
:1045E0000121080200F090FF0E200B9003208DF8AF
:1045F000300002208DF833000BA9324800F08CFC0B
:104600000121080200F0D5FF00214FF4807000F076
:10461000D0FF002007900A9009904FF48030089056
:1046200007A801F0CFFA002001908DF808008DF85E
:1046300009000390059001208DF8180001A9224877
:1046400001F091FA0121204801F0D3FA02211D481E
:1046500000F0E0FC04211B4800F0DCFC08211948B4
:1046600000F0D8FC0DB000BD10B5044607230122B0
:104670002146154801F0FDFA134801F056FB00BF32
:104680000221114801F072FC0028F9D00E4801F017
:1046900088FB10BD2DE9F04107460C460025002699
:1046A00008E03846FFF7E0FF0544052001F0E6FC8E
:1046B000701CC6B2A642F4DBB5FBF4F080B2BDE8D4
:1046C000F081000000000240002001401CB50121E3
:1046D000082000F0BFFE4FF40070009001208DF81C
:1046E000040000208DF8060003208DF8050001204D
:1046F0008DF807006946874800F00EFC4FF4007102
:10470000844800F087FC0121082000F0A3FE4FF44C
:104710008070009000208DF8040003208DF80500C3
:1047200069467C4800F0F8FB0121102000F092FE61
:1047300041F60460009001208DF8040003208DF8FC
:10474000050001208DF807006946734800F0E4FB7E
:104750000421714800F05CFC4FF400716E4800F0D9
:1047600059FC4FF480616C4800F054FC4FF4006138
:10477000694800F04FFC4FF48051674800F04AFC54
:104780000121022000F066FE4FF4C070009000206E
:104790008DF8040003208DF8050069465E4800F09E
:1047A000BBFB0121022000F055FE4FF44040009079
:1047B00000208DF8040003208DF805006946574855
:1047C00000F0AAFB0121102000F044FE1020009010
:1047D00001208DF8040003208DF8050001208DF8DC
:1047E000070069464C4800F097FB10214A4800F04A
:1047F0000FFC1021484800F00DFC1CBD10B504460C
:1048000024B10421444800F005FC03E0042142489F
:1048100000F0FEFB10BD10B504462CB14FF48051E2
:104820003D4800F0F5FB04E04FF480513A4800F0B9
:10483000F1FB10BD10B504462CB14FF400613648B1
:1048400000F0E6FB04E04FF40061334800F0E2FBC7
:1048500010BD10B504462CB14FF400712E4800F085
:10486000D7FB04E04FF400712B4800F0D3FB10BDE0
:1048700010B504462CB14FF48061274800F0C8FB06
:1048800004E04FF48061244800F0C4FB10BD10B573
:104890000124A103214800F0A1FB00B90024204617
:1048A00010BD10B5012480211B4800F097FB0128A2
:1048B00000D10024204610BD10B501242102164865
:1048C00000F08CFB012800D10024204610BD10B55B
:1048D000044624B11021104800F09AFB03E0102197
:1048E0000D4800F097FB10BD10B50124E1030B4803
:1048F00000F074FB012800D10024204610BD10B543
:1049000001242102034800F069FB012800D10024A2
:10491000204610BD000C024000100240000402407E
:104920001CB50121022000F095FDC020009001205F
:104930008DF804008DF8060003208DF80500694607
:10494000884800F0E9FA0120874908608749C1F8E2
:104950009C021CBD10B58348006820F4404081498A
:1049600008600846006840F48040086001207E49E5
:10497000091D08607D49C1F89802042001F051FB2F
:1049800000207949091D0860042001F04AFB00203D
:104990007649C1F8980210BD10B57248006820F43D
:1049A0004040704908600846006840F48040086054
:1049B00000206D4908606D49C1F89C02042001F097
:1049C00030FB0120684908606849C1F89C02042056
:1049D00001F027FB10BD10B500246248006820F4E8
:1049E00040406049086008460068086001205E4950
:1049F000091D086001F015FB01205C49C1F898020F
:104A000001F00FFB07E0601CC4B2FA2C03DDFFF7D6
:104A1000C3FF012010BD54487C3800680028F2D143
:104A20005149086000BFF5E710B500204E49086005
:104A30004C48006820F440404A4908600846006835
:104A400040F48040086000204849C1F89C020220E0
:104A500001F0E7FA012044490860022001F0E1FA80
:104A600000204249C1F8980210BD10B500203E490F
:104A700008603C48006820F440403A490860084615
:104A8000006840F48040086001203849C1F89C0269
:104A9000022001F0C6FA012033490860022001F02B
:104AA000C0FA00203149C1F8980210BD70B5044623
:104AB0002C48006820F440402A49086008460068F5
:104AC00040F480400860002027490860002517E076
:104AD000E0092549091D08606006040E022001F066
:104AE000A0FA01202149C1F89802022001F099FAA8
:104AF00000201D490860022001F093FA681CC5B22D
:104B0000082DE5DB70BD70B505460024154800682A
:104B100020F44040134908600846006808600026F9
:104B200016E0002010490860022001F07AFA012006
:104B30000E49C1F898026006040E0B487C380068E4
:104B400008B1601CC4B2012001F06BFA701CC6B23F
:104B5000082EE6DB15B9FFF788FF01E0FFF764FFD9
:104B6000204670BD000402409882404200804042CE
:104B700010B5FFF7D5FE10BD70B504460026FFF74F
:104B8000E9FE2546E11704EB11610912A02202EBB0
:104B90004101C8B2FFF78AFFFFF71DFFE11704EBE1
:104BA00011610912A4EB0121C8B2FFF77FFFFFF7E3
:104BB00012FFFFF7CFFEA120FFF778FFFFF70BFFF3
:104BC0000020FFF7A0FF0646FFF7E6FE304670BD67
:104BD00070B504460E46FFF7BDFE2546E11704EB0F
:104BE00011610912A02202EB4101C8B2FFF75EFF7A
:104BF000FFF7F1FEE11704EB11610912A4EB0121AB
:104C0000C8B2FFF753FFFFF7E6FE3046FFF74EFF4F
:104C1000FFF7E1FEFFF7C0FE0A2001F02FFA70BD9A
:104C20002DE9F04105460E461746002409E0E20052
:104C300026FA02F2D1B22A1990B2FFF7C9FF601C1E
:104C4000C4B2BC42F3DBBDE8F0812DE9F041074678
:104C50000C460026002509E036023919491B491E79
:104C600088B2FFF789FF0644681CC5B2A542F3DB92
:104C70003046BDE8F08110B5FF20FFF77DFF044608
:104C8000552C01D1002010BD5521FF20FFF7A0FFBA
:104C9000FF20FFF771FF0446552C01D10020F2E7F9
:104CA0000120F0E770B506460C46154608E0304690
:104CB000721C96B2FFF760FF04F8010B681E85B204
:104CC000002DF4D170BD70B505460C46164606E0C1
:104CD00021782846FFF77CFF681C85B2641C3000F1
:104CE000A6F101018EB2F3D170BD000009488047E2
:104CF00009480047FEE7FEE7FEE7FEE7FEE7FEE7BE
:104D0000FEE7FEE7FEE7FEE704480549054A064BD5
:104D100070470000A10400088901000800F4012088
:104D20000000022000FB012000FB0120324901436A
:104D3000324A1160704770B5002100230F22C478F9
:104D40001CB32E4C246804F4E064C4F5E064C4F39E
:104D50000721C1F10404E3B20A4144789C40E1B266
:104D60008478144021430C07210E254C05786155A9
:104D7000047804F01F050124AC4005786D11AD00E6
:104D800005F1E025C5F8004109E0047804F01F05AD
:104D90000124AC401B4D0678761145F8264070BDC5
:104DA000194A0A400243154B1B1F1A60704739B15C
:104DB000124A121D12680243104B1B1D1A6006E0B6
:104DC0000E4A121D126882430C4B1B1D1A6070475D
:104DD000042808D14FF0E021096941F004014FF0A7
:104DE000E022116107E04FF0E021096921F00401A0
:104DF0004FF0E022116170470000FA050CED00E071
:104E000000E400E080E100E080FFFF1F10B50446F1
:104E10009848844208D10121084600F086FB002111
:104E2000012000F082FB76E09348844208D1012102
:104E3000022000F07AFB0021022000F076FB6AE0FD
:104E40008E48844208D10121042000F06EFB00212D
:104E5000042000F06AFB5EE08948844208D1012109
:104E6000082000F062FB0021082000F05EFB52E009
:104E70008448844208D10121102000F056FB002113
:104E8000102000F052FB46E07F48844208D1012107
:104E9000202000F04AFB0021202000F046FB3AE0F1
:104EA0007A48844208D10121402000F03EFB0021D5
:104EB000402000F03AFB2EE07548844208D10121E1
:104EC000802000F032FB0021802000F02EFB22E049
:104ED0007048844208D10121801500F026FB002192
:104EE000A01500F022FB16E06B48844208D1012196
:104EF000401500F01AFB0021601500F016FB0AE0D7
:104F00006648844207D10121001500F00EFB002104
:104F1000201500F00AFB10BDF0B50A460021002361
:104F2000002400BF3DE0012505FA01F3156805EAFC
:104F300003049C4234D105684F000326BE40B543AC
:104F4000056015794E00B540066835430560157952
:104F5000012D02D01579022D16D185684F00032648
:104F6000BE40B543856055794E00B54086683543EF
:104F70008560456801268E40B54345604568967951
:104F80008E40B6B235434560C5684F000326BE402B
:104F9000B543C560D5794E00B540C6683543C56098
:104FA000491C1029BFD3F0BD4FF6FF7101600021ED
:104FB000017141718171C171704708B54FF4803240
:104FC0000092009A0A430092009AC261C161009A5D
:104FD000C261C2690092C269009208BD0246002007
:104FE00013690B400BB1012000E00020704701461F
:104FF000086980B270470246002053690B400BB12C
:10500000012000E0002070470146486980B27047E7
:1050100001837047418370470AB1018300E04183F7
:1050200070474161704742694A4042617047F0B53C
:10503000002300244D07ED0E02FA05F3CE1000F117
:10504000200555F826504E07F70E0F26BE40B543F3
:10505000CF1000F1200646F82750CE1000F12005B1
:1050600055F8265045EA0304CE1000F1200545F816
:105070002640F0BD0000024000040240000802404B
:10508000000C0240001002400014024000180240D0
:10509000001C024000200240002402400028024080
:1050A000F948006840F00100F74908600020F6491F
:1050B00008310860F4480068F4490840F249086083
:1050C000F348091D0860F348EF4984310860F0484F
:1050D0001038091D0860EC48006820F48020EA4977
:1050E00008600020E8490C310860E7498C3108600D
:1050F00070470021E44A921C1170114608707047F5
:1051000010B501460022002300204A11012A02D1D5
:10511000DD4C236808E0022A03D1DB4C703423689D
:1051200002E0D94C7434236801F01F02012494403A
:105130001C400CB1012000E0002010BD38B500205B
:1051400000900024002500BF3120FFF7D9FF05465D
:105150000098401C00900098B0F5A04F01D0002DA1
:10516000F2D03120FFF7CCFF08B1012400E0002489
:10517000204638BD01460020C34A106820F0F800E0
:1051800040EAC10010607047C349086070470021C1
:10519000BD4A703211701170012802D004280AD162
:1051A00004E00121B84A7032117005E00521B64AC9
:1051B0007032117000E000BF00BF7047B74908604F
:1051C000704770B5049C41EA82150126C6EB530670
:1051D00045EA0645054345EA0465AB4E361D356094
:1051E00070BDAD4908667047820142EA0172A64B64
:1051F00084331A607047A8498866704710B58301E8
:1052000043EA016343EA02739F4C8834236010BD74
:10521000A14908677047A049C8647047024600204A
:10522000994B0833186820F0EC6042EA01031843F8
:10523000954B08331860704702460020924B0833A4
:10524000186820F0784042EA010318438E4B083377
:1052500018607047014600208B4A0832106820F021
:10526000030008431060704787480830006800F06A
:105270000C00704701460020834A0832106820F075
:10528000F000084310607047014600207E4A083253
:10529000106820F4E0500843106070470146002079
:1052A000794A0832106820F4604040EAC10010607A
:1052B0007047F0B5002100220024022500260223B9
:1052C000714F08373F6807F00C0121B1042905D060
:1052D000082937D105E0724F076036E0714F07604B
:1052E00033E0694F3F1D3F68C7F38056664F3F1D4F
:1052F0003F6807F03F036EB16A4FB7FBF3F7DFF883
:1053000088C10CF1040CDCF800C0CCF3881C07FB4E
:105310000CF40CE0624FB7FBF3F7DFF86CC10CF153
:10532000040CDCF800C0CCF3881C07FB0CF4564FCF
:105330003F1D3F68C7F301477F1C7D00B4FBF5F7B5
:10534000076002E0564F076000BF00BF4E4F0837AE
:105350003F6807F0F0010909534F7A5C0768D740AE
:105360004760494F08373F6807F4E051890A4E4FBC
:105370007A5C4768D7408760434F08373F6807F437
:105380006041490B484F7A5C4768D740C760F0BD21
:10539000002100F44072B2F5407F0AD13A4A083247
:1053A000116821F4F811414A02401143364A08328B
:1053B0001160354A70321268C0F30B031A43324B46
:1053C00070331A6070473549443908607047334973
:1053D0004039086070473649086070470146002030
:1053E000294A8C32106820F01F004A1E1043264ABA
:1053F0008C321060704701460020234A8C321068BE
:1054000020F4F8504A1E40EA02201F4A8C321060F5
:105410007047014600201C4A8C32106820F440106E
:1054200008431060704701460020174A8C3210680C
:1054300020F4400008431060704701460020124AE3
:105440008C32106820F440300843106070471949CE
:105450000860704739B10C4A3032126802430A4B77
:1054600030331A6006E0084A303212688243064B35
:1054700030331A607047F9B1034A3432126802437C
:10548000014B34331A601CE000380240FFFFF6EA9B
:10549000103000240030002000004742800E4742B8
:1054A0000024F40000127A0020000020FFFCFF0F0F
:1054B0005C014742E01147428F4A126882438E4B9B
:1054C0001A60704739B18C4A121D126802438A4B28
:1054D0001B1D1A6006E0884A121D12688243864B23
:1054E0001B1D1A60704739B1834A0C32126802439F
:1054F000814B0C331A6006E07F4A0C3212688243FB
:105500007D4B0C331A60704739B17B4A10321268F8
:105510000243794B10331A6006E0774A1032126862
:105520008243754B10331A60704739B1724A243A7E
:1055300012680243704B243B1A6006E06E4A243A1C
:10554000126882436C4B243B1A60704739B16A4A37
:10555000203A12680243684B203B1A6006E0664A14
:10556000203A12688243644B203B1A60704739B17D
:10557000614A1C3A126802435F4B1C3B1A6006E00A
:105580005D4A1C3A126882435B4B1C3B1A607047B1
:1055900039B1594A143A12680243574B143B1A6006
:1055A00006E0554A143A12688243534B143B1A6082
:1055B000704739B1504A103A126802434E4B103BC3
:1055C0001A6006E04C4A103A126882434A4B103B7C
:1055D0001A60704739B1484A1C3212680243464B80
:1055E0001C331A6006E0444A1C3212688243424B64
:1055F0001C331A60704739B13F4A203212680243A7
:105600003D4B20331A6006E03B4A20321268824349
:10561000394B20331A60704739B1374A2432126847
:105620000243354B24331A6006E0334A24321268B1
:105630008243314B24331A60704739B12E4A2C32E1
:10564000126802432C4B2C331A6006E02A4A2C3293
:1056500012688243284B2C331A60704739B1264AAE
:10566000303212680243244B30331A6006E0224A7B
:10567000303212688243204B30331A607047012861
:1056800008D11D493C31096841F008011A4A3C32F1
:10569000116007E018493C31096821F00801164AF9
:1056A0003C321160704739B1134A273A12780243ED
:1056B000114B273B1A7006E00F4A273A12788243B3
:1056C0000D4B273B1A7070470B484030006840F084
:1056D0008070094940310860704701460020064A41
:1056E000283A12680A400AB1012000E00020704701
:1056F00001492639087070473438024010B5044615
:10570000FA48844208D101211020FFF752FF0021FE
:105710001020FFF74EFF57E0F548844209D10121E0
:105720004804FFF735FF00214FF40030FFF730FF4A
:105730004AE0F048844209D101218804FFF728FF9C
:1057400000214FF48020FFF723FF3DE0EA48844228
:1057500009D10121C804FFF71BFF00214FF40020ED
:10576000FFF716FF30E0E548844209D10121080522
:10577000FFF70EFF00214FF48010FFF709FF23E031
:10578000DF48844208D101212020FFF712FF0021C9
:105790002020FFF70EFF17E0DA48844209D10121EB
:1057A0008807FFF7F5FE00214FF08040FFF7F0FE7D
:1057B0000AE0D548844207D101214005FFF7E8FE01
:1057C00000216005FFF7E4FE10BD2DE9FF47054607
:1057D0000E460024A14600BFA046B08900B100BF1C
:1057E0002C8A24F44054F08804432C82AC8941F282
:1057F0000C608443B08831890843718908430443AD
:10580000AC81AC8A24F44074B0890443AC8268460D
:10581000FFF74FFDB548854202D0B948854202D115
:10582000DDF80C9001E0DDF80890A88900F4004054
:1058300040B109EBC90000EB091031684900B0FB29
:10584000F1F707E009EBC90000EB091031688900A6
:10585000B0FBF1F76420B7FBF0F0040120096421EC
:1058600001FB1078A88900F4004040B1322000EB21
:10587000C800B0FBF1F000F00700044308E032205C
:1058800000EB08106421B0FBF1F000F00F000443BE
:105890002C81BDE8FF874FF4165101600021818003
:1058A000C18001810C21418100218181704710B5A7
:1058B00002460020108A20F470600B884C88234335
:1058C0008C882343CC8823431843108210BD0021C9
:1058D000018041808180C180704721B1828942F47A
:1058E0000052828104E082894DF6FF731A40828162
:1058F0007047028B02F47F420283028B0A430283C9
:10590000704721B1828942F40042828103E082899A
:10591000C2F30E028281704721B1828A42F4006292
:10592000828204E0828A4FF2FF731A4082827047BB
:10593000C1F308028280704701468888C0F30800DE
:105940007047028A4FF6F0731A400282028A0A43B5
:105950000282704721B1828942F00202828104E012
:1059600082894FF6FD731A408281704782894FF217
:10597000FF731A40828182890A4382817047028ABA
:105980004FF6DF731A400282028A0A43028270478E
:1059900021B1028A42F48042028204E0028A4BF67C
:1059A000FF731A4002827047818941F001018181B1
:1059B000704721B1828A42F00802828204E0828A22
:1059C0004FF6F7731A4082827047028BD2B202837D
:1059D000028B42EA01220283704721B1828A42F09F
:1059E0002002828204E0828A4FF6DF731A408282AC
:1059F000704721B1828A42F01002828204E0828ADA
:105A00004FF6EF731A4082827047828A4FF6FB731B
:105A10001A408282828A0A438282704721B1828A36
:105A200042F00202828204E0828A4FF6FD731A403D
:105A3000828270471AB1838A0B43838202E0838A91
:105A40008B4383827047F0B503460024002600256F
:105A5000002040F66A17B94200D100BF1846C1F3D2
:105A6000421401F01F06012707FA06F5012C01D1A7
:105A70000C3004E0022C01D1103000E014301AB1D7
:105A800007682F43076002E00768AF430760F0BD77
:105A900002460020B1F5007F00D100BF13880B4003
:105AA0000BB1012000E00020704701F40072B2F554
:105AB000007F00D100BFCA430280704770B5024624
:105AC000002400230025002040F66A16B14200D1D0
:105AD00000BFC1F3421501F01F03012606FA03F3CC
