:03000000020AA948
:0C0AA900787FE4F6D8FD758107020AF0A2
:0A00600043D44153F1FE75E2402243
:0A0DA40012006075B9B275D1032288
:07006A0075B28375EF04225B
:100D2E0053D9BF12006A120DAE120DC3120DA47F5D
:100D3E00B47E5F120D8A7F927E09120D6ED2AF8045
:010D4E00FEA6
:100B93000000000000000000000000000000000052
:100BA300000000000340068009C00D0010401380C0
:100BB30016C01A001D40208005800B00108016000F
:100BC3001B80210026802C00318037000A0014008E
:100BD3001E00280032003C00460050005A0061000D
:100C3100410004004100050041000600420013612B
:100C41000042000B2080420008370042000D610085
:100C510042001000004400000000000041000F01AC
:0C0C61004100120041000A0041000700A1
:100D8A00E4F5C8438E30C39FFFE49EF5CB8FCA8536
:0A0D9A00CBCD85CACCD2ADD2CA225F
:100D6E00E4F591438EC0C39FFFE49EF5938F928569
:0C0D7E00939585929443E68043910422F3
:03002B00020B3590
:100B3500C0E0C0F0C083C082C0D075D000C000C086
:100B450001C002C003C004C005C006C00753C87F6A
:100B5500900015E0601A24FE600C14600E240270EB
:100B650012120DBC800D1200038008120D068003C1
:100B7500120DB5D007D006D005D004D003D002D0D1
:0E0B850001D000D0D0D082D083D0F0D0E032AA
:030073000209ED92
:1009ED00C0E0C0F0C083C082C0D075D000C000C0D0
:1009FD0001C002C003C004C005C006C007120CD957
:100A0D0012002E900016E0FF146013146015146090
:100A1D001724037022900013E4F0A3F080199000C6
:100A2D000B8008900008800390000DE0FDA3E0907E
:100A3D000013CDF0A3EDF0EF75F00AA490000AF0CD
:100A4D002409900007F0900015E0601A24FE600C58
:100A5D0014600E240270271206B5802212007680D3
:100A6D001D1208CE8018E4F597F596900000120C33
:100A7D000000000001900004E4F0A3F0A3F05391F6
:100A8D007FD007D006D005D004D003D002D001D03E
:0C0A9D0000D0D0D082D083D0F0D0E03266
:1006B500900000E0FCA3E0FDA3E0FEA3E02401FF21
:1006C500E43EFEE43DFDE43CFC900000120BF47FAB
:1006D500F17E627D027C00900000E0F8A3E0F9A3C2
:1006E500E0FAA3E0FBC3120BE3401B900000120CE1
:1006F5000000000001E4900004F0A3F0A3F09000D6
:100705000AE0900012F0E47FC8FEFDFC900000E0D6
:10071500F8A3E0F9A3E0FAA3E0FBD3120BE3501131
:10072500900004E004F0E0640F7038F0120C7B8058
:1007350032E47F987E08FDFC900000E0F8A3E0F924
:10074500A3E0FAA3E0FBD3120BE35017900005E0FA
:1007550004F0E0B40F05E4F0120D4F900007E090AF
:100765000012F0900000E0FCA3E0FDA3E0FEA3E092
:10077500FFE47B987A08F9F8C3120BE35029E47F6C
:10078500607E09FDFC900000E0F8A3E0F9A3E0FA23
:10079500A3E0FB120BE3500F900006E004F0E0B479
:1007A5000F05E4F0120CABE47F617E09FDFC9000BF
:1007B50000E0F8A3E0F9A3E0FAA3E0FBC3120BE322
:1007C5007014F597F596900004F0A3F0A3F090004F
:1007D5000AE0900012F0900000E0FCA3E0FDA3E029
:1007E500FEA3E0FFE47BA07A0FF9F8C3120BE350F8
:1007F50029E47F687E10FDFC900000E0F8A3E0F995
:10080500A3E0FAA3E0FB120BE3500F900004E00411
:10081500F0E0B41305E4F0120C7B900000E0FCA3BB
:10082500E0FDA3E0FEA3E0FFE47B687A10F9F8C3DE
:10083500120BE35031E47F387E18FDFC900000E098
:10084500F8A3E0F9A3E0FAA3E0FB120BE35017903D
:100855000005E004F0E0B41305E4F0120D4F90003C
:1008650007E0900012F0900000E0FCA3E0FDA3E09B
:10087500FEA3E0FFE47B387A18F9F8C3120BE350C6
:1008850028E4FF7E19FDFC900000E0F8A3E0F9A341
:10089500E0FAA3E0FB120BE3500F900006E004F032
:1008A500E0B41305E4F0120CABE47F017E19FDFC06
:1008B500900000E0F8A3E0F9A3E0FAA3E0FBC3127F
:0908C5000BE37004F597F596228F
:10007600900000E0FCA3E0FDA3E0FEA3E02401FF66
:10008600E43EFEE43DFDE43CFC900000120BF4E48B
:100096007FF17EEBFDFC900000E0F8A3E0F9A3E021
:1000A600FAA3E0FBC3120BE3401B900000120C0006
:1000B60000000001E4900004F0A3F0A3F090000A11
:1000C600E0900012F0E47FC8FEFDFC900000E0F82E
:1000D600A3E0F9A3E0FAA3E0FBD3120BE3500F90E1
:1000E6000004E004F0E0B41305E4F0120C7B900089
:1000F60000E0FCA3E0FDA3E0FEA3E0FFE47BC8FA7A
:10010600F9F8C3120BE35031E47F987E08FDFC90AA
:100116000000E0F8A3E0F9A3E0FAA3E0FB120BE38A
:100126005017900005E004F0E0B41305E4F0120D5A
:100136004F900007E0900012F0900000E0FCA3E072
:10014600FDA3E0FEA3E0FFE47B987A08F9F8C3126A
:100156000BE35029E47F607E09FDFC900000E0F887
:10016600A3E0F9A3E0FAA3E0FB120BE3500F900023
:1001760006E004F0E0B41305E4F0120CABE47F6192
:100186007E09FDFC900000E0F8A3E0F9A3E0FAA3E5
:10019600E0FBC3120BE37014F597F596900004F09C
:1001A600A3F0A3F090000AE0900012F0900000E0A7
:1001B600FCA3E0FDA3E0FEA3E0FFE47BA07A0FF939
:1001C600F8C3120BE35029E47F687E10FDFC900013
:1001D60000E0F8A3E0F9A3E0FAA3E0FB120BE3507A
:1001E6000F900004E004F0E0B40B05E4F0120C7B81
:1001F600900000E0FCA3E0FDA3E0FEA3E0FFE47BAB
:10020600687A10F9F8C3120BE35031E47F387E1890
:10021600FDFC900000E0F8A3E0F9A3E0FAA3E0FB00
:10022600120BE35017900005E004F0E0B40B05E470
:10023600F0120D4F900007E0900012F0900000E0E1
:10024600FCA3E0FDA3E0FEA3E0FFE47B387A18F907
:10025600F8C3120BE35028E4FF7E19FDFC90000062
:10026600E0F8A3E0F9A3E0FAA3E0FB120BE3500FDA
:10027600900006E004F0E0B40B05E4F0120CABE4E9
:100286007F017E19FDFC900000E0F8A3E0F9A3E0F1
:10029600FAA3E0FBC3120BE37014F597F5969000F2
:1002A60004F0A3F0A3F090000AE0900012F0900092
:1002B60000E0FCA3E0FDA3E0FEA3E0FFE47B407AC0
:1002C6001FF9F8C3120BE35029E47F087E20FDFCDA
:1002D600900000E0F8A3E0F9A3E0FAA3E0FB120B1C
:1002E600E3500F900004E004F0E0B40E05E4F012D1
:1002F6000C7B900000E0FCA3E0FDA3E0FEA3E0FF82
:10030600E47B087A20F9F8C3120BE35031E47FD876
:100316007E27FDFC900000E0F8A3E0F9A3E0FAA335
:10032600E0FB120BE35017900005E004F0E0B40E7A
:1003360005E4F0120D4F900007E0900012F09000D7
:1003460000E0FCA3E0FDA3E0FEA3E0FFE47BD87A97
:1003560027F9F8C3120BE35029E47FA07E28FDFCA1
:10036600900000E0F8A3E0F9A3E0FAA3E0FB120B8B
:10037600E3500F900006E004F0E0B40E05E4F0123E
:100386000CABE47FA17E28FDFC900000E0F8A3E022
:10039600F9A3E0FAA3E0FBC3120BE37004F597F5AB
:0203A60096229D
:1008CE00900000E0FCA3E0FDA3E0FEA3E02401FF06
:1008DE00E43EFEE43DFDE43CFC900000120BF47F90
:1008EE00F17E047D017C00900000E0F8A3E0F9A306
:1008FE00E0FAA3E0FBC3120BE34021900000120CC0
:10090E000000000001E4900004F0A3F0A3F09000BA
:10091E0010F0A3F090000AE0900012F0900000E0BA
:10092E00FCA3E0FDA3E0FEA3E0FFE4FBFAF9F8C3AD
:10093E00120BE3501DE47F407E38FDFC900000E07A
:10094E00F8A3E0F9A3E0FAA3E0FB120BE3500312C5
:10095E0003A8E47F417E38FDFC900000E0F8A3E0A0
:10096E00F9A3E0FAA3E0FBC3120BE3701AF597F5B7
:10097E0096900004F0A3F0A3F0900010F0A3F09076
:10098E00000AE0900012F0900000E0FCA3E0FDA34E
:10099E00E0FEA3E0FFE47B807A57F9F8C3120BE385
:1009AE00501DE47FC07E8FFDFC900000E0F8A3E0B8
:1009BE00F9A3E0FAA3E0FB120BE350031203A8E441
:1009CE007FC17E8FFDFC900000E0F8A3E0F9A3E06C
:0F09DE00FAA3E0FBC3120BE37004F597F5962222
:1003A800900011E004F07006900010E004F0D39083
:1003B8000011E094C8900010E09400500F900004E1
:1003C800E004F0E0B41305E4F0120C7B900010E0B8
:1003D800FEA3E0FFD394C8EE94004020D3EF94A48A
:1003E800EE94065017900005E004F0E0B41305E41D
:1003F800F0120D4F900007E0900012F0900010E00E
:10040800FEA3E0FFD394A4EE94064018D3EF946CB7
:10041800EE9407500F900006E004F0E0B41305E4F2
:10042800F0120CAB900010E0FEA3E0FFBE0718BF6F
:100438006D15E4F597F596900004F0A3F0A3F090FD
:10044800000AE0900012F0D3EF94C4EE9409401E25
:10045800D3900011E0948C900010E0940A500F9013
:100468000004E004F0E0B40B05E4F0120C7B90000B
:1004780010E0FEA3E0FFD3948CEE940A4020D3EF63
:100488009468EE94105017900005E004F0E0B40B67
:1004980005E4F0120D4F900007E0900012F0900074
:1004A80010E0FEA3E0FFD39468EE94104018D3EF59
:1004B8009430EE9411500F900006E004F0E0B40B75
:1004C80005E4F0120CAB900010E0FEA3E0FFBE11B3
:1004D80018BF3115E4F597F596900004F0A3F0A342
:1004E800F090000AE0900012F0D3EF9488EE941395
:1004F800401ED3900011E09450900010E0941450E6
:100508000F900004E004F0E0B40E05E4F0120C7B58
:10051800900010E0FEA3E0FFD39450EE9414402026
:10052800D3EF942CEE941A5017900005E004F0E0F5
:10053800B40E05E4F0120D4F900007E0900012F0A1
:10054800900010E0FEA3E0FFD3942CEE941A40181C
:10055800D3EF94F4EE941A500F900006E004F0E004
:10056800B40E05E4F0120CAB900010E0FEA3E0FF1F
:10057800BE1A18BFF515E4F597F596900004F0A398
:10058800F0A3F090000AE0900012F0D3EF9410EE80
:100598009427401ED3900011E094D8900010E09466
:1005A80027500F900004E004F0E0B40B05E4F012CB
:1005B8000C7B900010E0FEA3E0FFD394D8EE9427C4
:1005C8004020D3EF94B4EE942D5017900005E0042A
:1005D800F0E0B40B05E4F0120D4F900007E0900036
:1005E80012F0900010E0FEA3E0FFD394B4EE942D37
:1005F8004018D3EF947CEE942E500F900006E00440
:10060800F0E0B40B05E4F0120CAB900010E0FEA390
:10061800E0FFBE2E18BF7D15E4F597F5969000040F
:10062800F0A3F0A3F090000AE0900012F0D3EF944A
:10063800D4EE9430401ED3900011E0949C900010AA
:10064800E09431500F900004E004F0E0B40E05E4AB
:10065800F0120C7B900010E0FEA3E0FFD3949CEE18
:1006680094314020D3EF9478EE94375017900005DA
:10067800E004F0E0B40E05E4F0120D4F900007E03E
:10068800900012F0900010E0FEA3E0FFD39478EE03
:1006980094374018D3EF9440EE9438500F900006EA
:0D06A800E004F0E0B40E05E4F0120CAB220B
:100C7B0090000FE0702004F0900012E0FF04F0EF02
:100C8B0025E02493F582E4340BF583E493FE7401A1
:100C9B00938E97F59622E490000FF0F597F5962238
:100D4F0090000FE0700F04F0900013E0FEA3E0FF9F
:0F0D5F008E978F9622E490000FF0F597F596226D
:100CAB0090000FE0701E04F0900012E014F025E0AD
:100CBB002493F582E4340BF583E493FE7401938E55
:0E0CCB0097F59622E490000FF0F597F596222B
:080C6D004100150341001602CD
:070DAE0043D51F75E240224E
:100CD900209309209406E4900015F02230930A200D
:100CE90094079000157401F02220930A309407901C
:0D0CF90000157402F0229000157403F02223
:10002E003092028006209009209106E4900016F08E
:10003E002230900A2091079000167401F022209031
:10004E000A3091079000167402F022900016740385
:02005E00F0228E
:050C7500420017000021
:040DC30043D4D02223
:070DB500D284D286D287220E
:070DBC00C284D286D2872217
:10000300D284D287900018E004F07006900017E0C5
:1000130004F0900017E0B4030EA3E0B4E809B2863D
:08002300E4900017F0A3F022A5
:100D0600D284D286900018E004F07006900017E0B6
:100D160004F0D3900018E094FA900017E094004095
:080D260006B287E4F0A3F022FD
:100AB500020D2EE493A3F8E493A34003F68001F21C
:100AC50008DFF48029E493A3F85407240CC8C33342
:100AD500C4540F4420C8834004F456800146F6DF11
:100AE500E4800B0102040810204080900C31E47E64
:100AF500019360BCA3FF543F30E509541FFEE49306
:100B0500A360010ECF54C025E060A840B8E493A3CC
:100B1500FAE493A3F8E493A3C8C582C8CAC583CAF7
:100B2500F0A3C8C582C8CAC583CADFE9DEE780BEAF
:010C7A000079
:100BE300EB9FF5F0EA9E42F0E99D42F0E89C45F068
:010BF30022DF
:0C0BF400ECF0A3EDF0A3EEF0A3EFF02274
:100C0000A8828583F0D083D082120C17120C1712A1
:100C10000C17120C17E473E493A3C583C5F0C583C6
:100C2000C8C582C8F0A3C583C5F0C583C8C582C83E
:010C300022A1
:00000001FF
